{
  "src/contracts/test/MockAggregator.sol": {
    "MockAggregator": {
      "abi": [
        {
          "inputs": [],
          "name": "latestAnswer",
          "outputs": [
            {
              "internalType": "int256",
              "name": "",
              "type": "int256"
            }
          ],
          "stateMutability": "view",
          "type": "function"
        },
        {
          "inputs": [],
          "name": "s_answer",
          "outputs": [
            {
              "internalType": "int256",
              "name": "",
              "type": "int256"
            }
          ],
          "stateMutability": "view",
          "type": "function"
        },
        {
          "inputs": [
            {
              "internalType": "int256",
              "name": "answer",
              "type": "int256"
            }
          ],
          "name": "setLatestAnswer",
          "outputs": [],
          "stateMutability": "nonpayable",
          "type": "function"
        }
      ],
      "evm": {
        "bytecode": {
          "linkReferences": {},
          "object": "608060405234801561001057600080fd5b5061017f806100206000396000f3fe608060405234801561001057600080fd5b50600436106100415760003560e01c806304ea97b014610046578063305da2db1461006257806350d25bcd14610080575b600080fd5b610060600480360381019061005b91906100f2565b61009e565b005b61006a6100a8565b604051610077919061012e565b60405180910390f35b6100886100ae565b604051610095919061012e565b60405180910390f35b8060008190555050565b60005481565b60008054905090565b600080fd5b6000819050919050565b6100cf816100bc565b81146100da57600080fd5b50565b6000813590506100ec816100c6565b92915050565b600060208284031215610108576101076100b7565b5b6000610116848285016100dd565b91505092915050565b610128816100bc565b82525050565b6000602082019050610143600083018461011f565b9291505056fea264697066735822122020e99345beb816d153d1e5d00dfba97d0021b9c8d0e42c484a61e8984dd6957764736f6c63430008090033",
          "opcodes": "PUSH1 0x80 PUSH1 0x40 MSTORE CALLVALUE DUP1 ISZERO PUSH2 0x10 JUMPI PUSH1 0x0 DUP1 REVERT JUMPDEST POP PUSH2 0x17F DUP1 PUSH2 0x20 PUSH1 0x0 CODECOPY PUSH1 0x0 RETURN INVALID PUSH1 0x80 PUSH1 0x40 MSTORE CALLVALUE DUP1 ISZERO PUSH2 0x10 JUMPI PUSH1 0x0 DUP1 REVERT JUMPDEST POP PUSH1 0x4 CALLDATASIZE LT PUSH2 0x41 JUMPI PUSH1 0x0 CALLDATALOAD PUSH1 0xE0 SHR DUP1 PUSH4 0x4EA97B0 EQ PUSH2 0x46 JUMPI DUP1 PUSH4 0x305DA2DB EQ PUSH2 0x62 JUMPI DUP1 PUSH4 0x50D25BCD EQ PUSH2 0x80 JUMPI JUMPDEST PUSH1 0x0 DUP1 REVERT JUMPDEST PUSH2 0x60 PUSH1 0x4 DUP1 CALLDATASIZE SUB DUP2 ADD SWAP1 PUSH2 0x5B SWAP2 SWAP1 PUSH2 0xF2 JUMP JUMPDEST PUSH2 0x9E JUMP JUMPDEST STOP JUMPDEST PUSH2 0x6A PUSH2 0xA8 JUMP JUMPDEST PUSH1 0x40 MLOAD PUSH2 0x77 SWAP2 SWAP1 PUSH2 0x12E JUMP JUMPDEST PUSH1 0x40 MLOAD DUP1 SWAP2 SUB SWAP1 RETURN JUMPDEST PUSH2 0x88 PUSH2 0xAE JUMP JUMPDEST PUSH1 0x40 MLOAD PUSH2 0x95 SWAP2 SWAP1 PUSH2 0x12E JUMP JUMPDEST PUSH1 0x40 MLOAD DUP1 SWAP2 SUB SWAP1 RETURN JUMPDEST DUP1 PUSH1 0x0 DUP2 SWAP1 SSTORE POP POP JUMP JUMPDEST PUSH1 0x0 SLOAD DUP2 JUMP JUMPDEST PUSH1 0x0 DUP1 SLOAD SWAP1 POP SWAP1 JUMP JUMPDEST PUSH1 0x0 DUP1 REVERT JUMPDEST PUSH1 0x0 DUP2 SWAP1 POP SWAP2 SWAP1 POP JUMP JUMPDEST PUSH2 0xCF DUP2 PUSH2 0xBC JUMP JUMPDEST DUP2 EQ PUSH2 0xDA JUMPI PUSH1 0x0 DUP1 REVERT JUMPDEST POP JUMP JUMPDEST PUSH1 0x0 DUP2 CALLDATALOAD SWAP1 POP PUSH2 0xEC DUP2 PUSH2 0xC6 JUMP JUMPDEST SWAP3 SWAP2 POP POP JUMP JUMPDEST PUSH1 0x0 PUSH1 0x20 DUP3 DUP5 SUB SLT ISZERO PUSH2 0x108 JUMPI PUSH2 0x107 PUSH2 0xB7 JUMP JUMPDEST JUMPDEST PUSH1 0x0 PUSH2 0x116 DUP5 DUP3 DUP6 ADD PUSH2 0xDD JUMP JUMPDEST SWAP2 POP POP SWAP3 SWAP2 POP POP JUMP JUMPDEST PUSH2 0x128 DUP2 PUSH2 0xBC JUMP JUMPDEST DUP3 MSTORE POP POP JUMP JUMPDEST PUSH1 0x0 PUSH1 0x20 DUP3 ADD SWAP1 POP PUSH2 0x143 PUSH1 0x0 DUP4 ADD DUP5 PUSH2 0x11F JUMP JUMPDEST SWAP3 SWAP2 POP POP JUMP INVALID LOG2 PUSH5 0x6970667358 0x22 SLT KECCAK256 KECCAK256 0xE9 SWAP4 GASLIMIT 0xBE 0xB8 AND 0xD1 MSTORE8 0xD1 0xE5 0xD0 0xD 0xFB 0xA9 PUSH30 0x21B9C8D0E42C484A61E8984DD6957764736F6C63430008090033000000 "
        },
        "methodIdentifiers": {
          "latestAnswer()": "50d25bcd",
          "s_answer()": "305da2db",
          "setLatestAnswer(int256)": "04ea97b0"
        }
      }
    }
  }
}