{
  "_format": "hh-sol-artifact-1",
  "contractName": "NftStore",
  "sourceName": "src/contracts/NftStore.sol",
  "abi": [
    {
      "inputs": [
        {
          "internalType": "address",
          "name": "_priceFeedAddress",
          "type": "address"
        },
        {
          "internalType": "address",
          "name": "_factoryAddress",
          "type": "address"
        },
        {
          "internalType": "uint64",
          "name": "subscriptionId",
          "type": "uint64"
        },
        {
          "internalType": "address",
          "name": "_vrfCoordinator",
          "type": "address"
        },
        {
          "internalType": "address",
          "name": "_link",
          "type": "address"
        },
        {
          "internalType": "bytes32",
          "name": "_keyHash",
          "type": "bytes32"
        },
        {
          "internalType": "uint32",
          "name": "_callbackGasLimit",
          "type": "uint32"
        },
        {
          "internalType": "uint16",
          "name": "_requestConfirmations",
          "type": "uint16"
        },
        {
          "internalType": "address payable",
          "name": "_admin",
          "type": "address"
        }
      ],
      "stateMutability": "nonpayable",
      "type": "constructor"
    },
    {
      "inputs": [
        {
          "internalType": "address",
          "name": "have",
          "type": "address"
        },
        {
          "internalType": "address",
          "name": "want",
          "type": "address"
        }
      ],
      "name": "OnlyCoordinatorCanFulfill",
      "type": "error"
    },
    {
      "inputs": [
        {
          "internalType": "address",
          "name": "_collectionAddress",
          "type": "address"
        }
      ],
      "name": "buyMysteryBox",
      "outputs": [],
      "stateMutability": "payable",
      "type": "function"
    },
    {
      "inputs": [],
      "name": "factoryAddress",
      "outputs": [
        {
          "internalType": "address",
          "name": "",
          "type": "address"
        }
      ],
      "stateMutability": "view",
      "type": "function"
    },
    {
      "inputs": [],
      "name": "getLatestPrice",
      "outputs": [
        {
          "internalType": "uint256",
          "name": "",
          "type": "uint256"
        }
      ],
      "stateMutability": "view",
      "type": "function"
    },
    {
      "inputs": [
        {
          "internalType": "uint256",
          "name": "_usdAmount",
          "type": "uint256"
        }
      ],
      "name": "getTokenAmount",
      "outputs": [
        {
          "internalType": "uint256",
          "name": "",
          "type": "uint256"
        }
      ],
      "stateMutability": "view",
      "type": "function"
    },
    {
      "inputs": [
        {
          "internalType": "address",
          "name": "_collectionAddress",
          "type": "address"
        }
      ],
      "name": "mint",
      "outputs": [],
      "stateMutability": "payable",
      "type": "function"
    },
    {
      "inputs": [
        {
          "internalType": "address",
          "name": "",
          "type": "address"
        }
      ],
      "name": "mysteryBoxCounter",
      "outputs": [
        {
          "internalType": "uint256",
          "name": "",
          "type": "uint256"
        }
      ],
      "stateMutability": "view",
      "type": "function"
    },
    {
      "inputs": [
        {
          "internalType": "address",
          "name": "",
          "type": "address"
        },
        {
          "internalType": "address",
          "name": "",
          "type": "address"
        }
      ],
      "name": "mysteryBoxUserCounter",
      "outputs": [
        {
          "internalType": "uint256",
          "name": "",
          "type": "uint256"
        }
      ],
      "stateMutability": "view",
      "type": "function"
    },
    {
      "inputs": [
        {
          "internalType": "address",
          "name": "",
          "type": "address"
        }
      ],
      "name": "nftCounter",
      "outputs": [
        {
          "internalType": "uint256",
          "name": "",
          "type": "uint256"
        }
      ],
      "stateMutability": "view",
      "type": "function"
    },
    {
      "inputs": [
        {
          "internalType": "uint256",
          "name": "requestId",
          "type": "uint256"
        },
        {
          "internalType": "uint256[]",
          "name": "randomWords",
          "type": "uint256[]"
        }
      ],
      "name": "rawFulfillRandomWords",
      "outputs": [],
      "stateMutability": "nonpayable",
      "type": "function"
    },
    {
      "inputs": [],
      "name": "s_requestId",
      "outputs": [
        {
          "internalType": "uint256",
          "name": "",
          "type": "uint256"
        }
      ],
      "stateMutability": "view",
      "type": "function"
    }
  ],
  "bytecode": "0x60a06040523480156200001157600080fd5b50604051620028c3380380620028c38339818101604052810190620000379190620004b1565b858073ffffffffffffffffffffffffffffffffffffffff1660808173ffffffffffffffffffffffffffffffffffffffff168152505050886000806101000a81548173ffffffffffffffffffffffffffffffffffffffff021916908373ffffffffffffffffffffffffffffffffffffffff16021790555087600b60006101000a81548173ffffffffffffffffffffffffffffffffffffffff021916908373ffffffffffffffffffffffffffffffffffffffff16021790555085600360006101000a81548173ffffffffffffffffffffffffffffffffffffffff021916908373ffffffffffffffffffffffffffffffffffffffff160217905550600360009054906101000a900473ffffffffffffffffffffffffffffffffffffffff16600160006101000a81548173ffffffffffffffffffffffffffffffffffffffff021916908373ffffffffffffffffffffffffffffffffffffffff16021790555084600460006101000a81548173ffffffffffffffffffffffffffffffffffffffff021916908373ffffffffffffffffffffffffffffffffffffffff1602179055508360058190555082600660006101000a81548163ffffffff021916908363ffffffff16021790555081600660046101000a81548161ffff021916908361ffff160217905550600460009054906101000a900473ffffffffffffffffffffffffffffffffffffffff16600260006101000a81548173ffffffffffffffffffffffffffffffffffffffff021916908373ffffffffffffffffffffffffffffffffffffffff16021790555086600260146101000a81548167ffffffffffffffff021916908367ffffffffffffffff16021790555066d529ae9e86000060088190555080600960006101000a81548173ffffffffffffffffffffffffffffffffffffffff021916908373ffffffffffffffffffffffffffffffffffffffff16021790555050505050505050505062000590565b600080fd5b600073ffffffffffffffffffffffffffffffffffffffff82169050919050565b6000620003348262000307565b9050919050565b620003468162000327565b81146200035257600080fd5b50565b60008151905062000366816200033b565b92915050565b600067ffffffffffffffff82169050919050565b6200038b816200036c565b81146200039757600080fd5b50565b600081519050620003ab8162000380565b92915050565b6000819050919050565b620003c681620003b1565b8114620003d257600080fd5b50565b600081519050620003e681620003bb565b92915050565b600063ffffffff82169050919050565b6200040781620003ec565b81146200041357600080fd5b50565b6000815190506200042781620003fc565b92915050565b600061ffff82169050919050565b62000446816200042d565b81146200045257600080fd5b50565b60008151905062000466816200043b565b92915050565b6000620004798262000307565b9050919050565b6200048b816200046c565b81146200049757600080fd5b50565b600081519050620004ab8162000480565b92915050565b60008060008060008060008060006101208a8c031215620004d757620004d662000302565b5b6000620004e78c828d0162000355565b9950506020620004fa8c828d0162000355565b98505060406200050d8c828d016200039a565b9750506060620005208c828d0162000355565b9650506080620005338c828d0162000355565b95505060a0620005468c828d01620003d5565b94505060c0620005598c828d0162000416565b93505060e06200056c8c828d0162000455565b925050610100620005808c828d016200049a565b9150509295985092959850929598565b608051612310620005b36000396000818161028601526102da01526123106000f3fe6080604052600436106100915760003560e01c8063948646eb11610059578063948646eb14610180578063966dae0e1461019c5780639e6c5203146101c7578063c2507ac114610204578063e89e106a1461024157610091565b80630980ea8c146100965780631fe543e3146100d3578063236c1dd5146100fc5780636a627842146101395780638e15f47314610155575b600080fd5b3480156100a257600080fd5b506100bd60048036038101906100b89190611438565b61026c565b6040516100ca919061147e565b60405180910390f35b3480156100df57600080fd5b506100fa60048036038101906100f5919061161e565b610284565b005b34801561010857600080fd5b50610123600480360381019061011e919061167a565b610344565b604051610130919061147e565b60405180910390f35b610153600480360381019061014e9190611438565b610369565b005b34801561016157600080fd5b5061016a6108b4565b604051610177919061147e565b60405180910390f35b61019a60048036038101906101959190611438565b610962565b005b3480156101a857600080fd5b506101b1610f44565b6040516101be91906116c9565b60405180910390f35b3480156101d357600080fd5b506101ee60048036038101906101e99190611438565b610f6a565b6040516101fb919061147e565b60405180910390f35b34801561021057600080fd5b5061022b600480360381019061022691906116e4565b610f82565b604051610238919061147e565b60405180910390f35b34801561024d57600080fd5b50610256610fbf565b604051610263919061147e565b60405180910390f35b60106020528060005260406000206000915090505481565b7f000000000000000000000000000000000000000000000000000000000000000073ffffffffffffffffffffffffffffffffffffffff163373ffffffffffffffffffffffffffffffffffffffff161461033657337f00000000000000000000000000000000000000000000000000000000000000006040517f1cf993f400000000000000000000000000000000000000000000000000000000815260040161032d929190611711565b60405180910390fd5b6103408282610fc5565b5050565b600c602052816000526040600020602052806000526040600020600091509150505481565b6000600b60009054906101000a900473ffffffffffffffffffffffffffffffffffffffff1673ffffffffffffffffffffffffffffffffffffffff1663e40de887836040518263ffffffff1660e01b81526004016103c691906116c9565b60006040518083038186803b1580156103de57600080fd5b505afa1580156103f2573d6000803e3d6000fd5b505050506040513d6000823e3d601f19601f8201168201806040525081019061041b9190611b0e565b905080602001514211610463576040517f08c379a000000000000000000000000000000000000000000000000000000000815260040161045a90611bda565b60405180910390fd5b600f60008373ffffffffffffffffffffffffffffffffffffffff1673ffffffffffffffffffffffffffffffffffffffff16815260200190815260200160002054816060015161ffff166104b69190611c29565b601060008473ffffffffffffffffffffffffffffffffffffffff1673ffffffffffffffffffffffffffffffffffffffff1681526020019081526020016000205410610536576040517f08c379a000000000000000000000000000000000000000000000000000000000815260040161052d90611cf1565b60405180910390fd5b6000600c60003373ffffffffffffffffffffffffffffffffffffffff1673ffffffffffffffffffffffffffffffffffffffff16815260200190815260200160002060008473ffffffffffffffffffffffffffffffffffffffff1673ffffffffffffffffffffffffffffffffffffffff1681526020019081526020016000205414156107685760006105c56108b4565b620f4240670de0b6b3a76400008460e001516105e19190611d11565b6105eb9190611d11565b6105f59190611d9a565b905034600854826106069190611c29565b1115610647576040517f08c379a000000000000000000000000000000000000000000000000000000000815260040161063e90611e3d565b60405180910390fd5b60008260a0015190508073ffffffffffffffffffffffffffffffffffffffff166108fc839081150290604051600060405180830381858888f19350505050158015610696573d6000803e3d6000fd5b50600960009054906101000a900473ffffffffffffffffffffffffffffffffffffffff1673ffffffffffffffffffffffffffffffffffffffff166108fc6008549081150290604051600060405180830381858888f19350505050158015610701573d6000803e3d6000fd5b503373ffffffffffffffffffffffffffffffffffffffff166108fc600854843461072b9190611e5d565b6107359190611e5d565b9081150290604051600060405180830381858888f19350505050158015610760573d6000803e3d6000fd5b505050610850565b600c60003373ffffffffffffffffffffffffffffffffffffffff1673ffffffffffffffffffffffffffffffffffffffff16815260200190815260200160002060008373ffffffffffffffffffffffffffffffffffffffff1673ffffffffffffffffffffffffffffffffffffffff16815260200190815260200160002060008154809291906107f590611e91565b9190505550600f60008373ffffffffffffffffffffffffffffffffffffffff1673ffffffffffffffffffffffffffffffffffffffff168152602001908152602001600020600081548092919061084a90611e91565b91905055505b601060008373ffffffffffffffffffffffffffffffffffffffff1673ffffffffffffffffffffffffffffffffffffffff16815260200190815260200160002060008154809291906108a090611ebb565b91905055506108b0600183611225565b5050565b60008060008054906101000a900473ffffffffffffffffffffffffffffffffffffffff1673ffffffffffffffffffffffffffffffffffffffff1663feaf968c6040518163ffffffff1660e01b815260040160a06040518083038186803b15801561091d57600080fd5b505afa158015610931573d6000803e3d6000fd5b505050506040513d601f19601f820116820180604052508101906109559190611f7c565b5050509150508091505090565b6000600b60009054906101000a900473ffffffffffffffffffffffffffffffffffffffff1673ffffffffffffffffffffffffffffffffffffffff1663e40de887836040518263ffffffff1660e01b81526004016109bf91906116c9565b60006040518083038186803b1580156109d757600080fd5b505afa1580156109eb573d6000803e3d6000fd5b505050506040513d6000823e3d601f19601f82011682018060405250810190610a149190611b0e565b9050806040015161ffff16600f60008473ffffffffffffffffffffffffffffffffffffffff1673ffffffffffffffffffffffffffffffffffffffff1681526020019081526020016000205410610a9f576040517f08c379a0000000000000000000000000000000000000000000000000000000008152600401610a9690612069565b60405180910390fd5b80602001514210610ae5576040517f08c379a0000000000000000000000000000000000000000000000000000000008152600401610adc906120d5565b60405180910390fd5b6000610aef6108b4565b620f4240670de0b6b3a76400008460c00151610b0b9190611d11565b610b159190611d11565b610b1f9190611d9a565b90503460085482610b309190611c29565b1115610b71576040517f08c379a0000000000000000000000000000000000000000000000000000000008152600401610b6890611e3d565b60405180910390fd5b60008260a0015190508073ffffffffffffffffffffffffffffffffffffffff166108fc839081150290604051600060405180830381858888f19350505050158015610bc0573d6000803e3d6000fd5b50600960009054906101000a900473ffffffffffffffffffffffffffffffffffffffff1673ffffffffffffffffffffffffffffffffffffffff166108fc6008549081150290604051600060405180830381858888f19350505050158015610c2b573d6000803e3d6000fd5b503373ffffffffffffffffffffffffffffffffffffffff166108fc6008548434610c559190611e5d565b610c5f9190611e5d565b9081150290604051600060405180830381858888f19350505050158015610c8a573d6000803e3d6000fd5b50600c60003373ffffffffffffffffffffffffffffffffffffffff1673ffffffffffffffffffffffffffffffffffffffff16815260200190815260200160002060008573ffffffffffffffffffffffffffffffffffffffff1673ffffffffffffffffffffffffffffffffffffffff1681526020019081526020016000206000815480929190610d1890611ebb565b9190505550600f60008573ffffffffffffffffffffffffffffffffffffffff1673ffffffffffffffffffffffffffffffffffffffff1681526020019081526020016000206000815480929190610d6d90611ebb565b919050555060001515600d60003373ffffffffffffffffffffffffffffffffffffffff1673ffffffffffffffffffffffffffffffffffffffff16815260200190815260200160002060008673ffffffffffffffffffffffffffffffffffffffff1673ffffffffffffffffffffffffffffffffffffffff16815260200190815260200160002060009054906101000a900460ff1615151415610f3e576001600d60003373ffffffffffffffffffffffffffffffffffffffff1673ffffffffffffffffffffffffffffffffffffffff16815260200190815260200160002060008673ffffffffffffffffffffffffffffffffffffffff1673ffffffffffffffffffffffffffffffffffffffff16815260200190815260200160002060006101000a81548160ff021916908315150217905550600e60003373ffffffffffffffffffffffffffffffffffffffff1673ffffffffffffffffffffffffffffffffffffffff168152602001908152602001600020849080600181540180825580915050600190039060005260206000200160009091909190916101000a81548173ffffffffffffffffffffffffffffffffffffffff021916908373ffffffffffffffffffffffffffffffffffffffff1602179055505b50505050565b600a60009054906101000a900473ffffffffffffffffffffffffffffffffffffffff1681565b600f6020528060005260406000206000915090505481565b6000610f8c6108b4565b620f4240670de0b6b3a764000084610fa49190611d11565b610fae9190611d11565b610fb89190611d9a565b9050919050565b60075481565b60006011600084815260200190815260200160002060009054906101000a900473ffffffffffffffffffffffffffffffffffffffff16905060006012600085815260200190815260200160002060009054906101000a900473ffffffffffffffffffffffffffffffffffffffff1690506000600b60009054906101000a900473ffffffffffffffffffffffffffffffffffffffff1673ffffffffffffffffffffffffffffffffffffffff1663e40de887836040518263ffffffff1660e01b815260040161109291906116c9565b60006040518083038186803b1580156110aa57600080fd5b505afa1580156110be573d6000803e3d6000fd5b505050506040513d6000823e3d601f19601f820116820180604052508101906110e79190611b0e565b6080015151905060008185600081518110611105576111046120f5565b5b60200260200101516111179190612124565b9050600b60009054906101000a900473ffffffffffffffffffffffffffffffffffffffff1673ffffffffffffffffffffffffffffffffffffffff166324408fe88486846040518463ffffffff1660e01b815260040161117893929190612164565b600060405180830381600087803b15801561119257600080fd5b505af11580156111a6573d6000803e3d6000fd5b5050505060008390508073ffffffffffffffffffffffffffffffffffffffff166394bf804d83876040518363ffffffff1660e01b81526004016111ea9291906121d6565b600060405180830381600087803b15801561120457600080fd5b505af1158015611218573d6000803e3d6000fd5b5050505050505050505050565b600160009054906101000a900473ffffffffffffffffffffffffffffffffffffffff1673ffffffffffffffffffffffffffffffffffffffff16635d3b1d30600554600260149054906101000a900467ffffffffffffffff16600660049054906101000a900461ffff16600660009054906101000a900463ffffffff16876040518663ffffffff1660e01b81526004016112c295949392919061225a565b602060405180830381600087803b1580156112dc57600080fd5b505af11580156112f0573d6000803e3d6000fd5b505050506040513d601f19601f8201168201806040525081019061131491906122ad565b6007819055503360116000600754815260200190815260200160002060006101000a81548173ffffffffffffffffffffffffffffffffffffffff021916908373ffffffffffffffffffffffffffffffffffffffff1602179055508060126000600754815260200190815260200160002060006101000a81548173ffffffffffffffffffffffffffffffffffffffff021916908373ffffffffffffffffffffffffffffffffffffffff1602179055505050565b6000604051905090565b600080fd5b600080fd5b600073ffffffffffffffffffffffffffffffffffffffff82169050919050565b6000611405826113da565b9050919050565b611415816113fa565b811461142057600080fd5b50565b6000813590506114328161140c565b92915050565b60006020828403121561144e5761144d6113d0565b5b600061145c84828501611423565b91505092915050565b6000819050919050565b61147881611465565b82525050565b6000602082019050611493600083018461146f565b92915050565b6114a281611465565b81146114ad57600080fd5b50565b6000813590506114bf81611499565b92915050565b600080fd5b6000601f19601f8301169050919050565b7f4e487b7100000000000000000000000000000000000000000000000000000000600052604160045260246000fd5b611513826114ca565b810181811067ffffffffffffffff82111715611532576115316114db565b5b80604052505050565b60006115456113c6565b9050611551828261150a565b919050565b600067ffffffffffffffff821115611571576115706114db565b5b602082029050602081019050919050565b600080fd5b600061159a61159584611556565b61153b565b905080838252602082019050602084028301858111156115bd576115bc611582565b5b835b818110156115e657806115d288826114b0565b8452602084019350506020810190506115bf565b5050509392505050565b600082601f830112611605576116046114c5565b5b8135611615848260208601611587565b91505092915050565b60008060408385031215611635576116346113d0565b5b6000611643858286016114b0565b925050602083013567ffffffffffffffff811115611664576116636113d5565b5b611670858286016115f0565b9150509250929050565b60008060408385031215611691576116906113d0565b5b600061169f85828601611423565b92505060206116b085828601611423565b9150509250929050565b6116c3816113fa565b82525050565b60006020820190506116de60008301846116ba565b92915050565b6000602082840312156116fa576116f96113d0565b5b6000611708848285016114b0565b91505092915050565b600060408201905061172660008301856116ba565b61173360208301846116ba565b9392505050565b600080fd5b600080fd5b6000815190506117538161140c565b92915050565b60008151905061176881611499565b92915050565b600061ffff82169050919050565b6117858161176e565b811461179057600080fd5b50565b6000815190506117a28161177c565b92915050565b600067ffffffffffffffff8211156117c3576117c26114db565b5b602082029050602081019050919050565b60006117e76117e2846117a8565b61153b565b9050808382526020820190506020840283018581111561180a57611809611582565b5b835b81811015611833578061181f8882611793565b84526020840193505060208101905061180c565b5050509392505050565b600082601f830112611852576118516114c5565b5b81516118628482602086016117d4565b91505092915050565b60008115159050919050565b6118808161186b565b811461188b57600080fd5b50565b60008151905061189d81611877565b92915050565b600080fd5b600067ffffffffffffffff8211156118c3576118c26114db565b5b6118cc826114ca565b9050602081019050919050565b60005b838110156118f75780820151818401526020810190506118dc565b83811115611906576000848401525b50505050565b600061191f61191a846118a8565b61153b565b90508281526020810184848401111561193b5761193a6118a3565b5b6119468482856118d9565b509392505050565b600082601f830112611963576119626114c5565b5b815161197384826020860161190c565b91505092915050565b600061018082840312156119935761199261173a565b5b61199e61018061153b565b905060006119ae84828501611744565b60008301525060206119c284828501611759565b60208301525060406119d684828501611793565b60408301525060606119ea84828501611793565b606083015250608082015167ffffffffffffffff811115611a0e57611a0d61173f565b5b611a1a8482850161183d565b60808301525060a0611a2e84828501611744565b60a08301525060c0611a4284828501611759565b60c08301525060e0611a5684828501611759565b60e083015250610100611a6b8482850161188e565b6101008301525061012082015167ffffffffffffffff811115611a9157611a9061173f565b5b611a9d8482850161194e565b6101208301525061014082015167ffffffffffffffff811115611ac357611ac261173f565b5b611acf8482850161194e565b6101408301525061016082015167ffffffffffffffff811115611af557611af461173f565b5b611b018482850161194e565b6101608301525092915050565b600060208284031215611b2457611b236113d0565b5b600082015167ffffffffffffffff811115611b4257611b416113d5565b5b611b4e8482850161197c565b91505092915050565b600082825260208201905092915050565b7f4e667453746f72653a204e46542063616e6e6f74206265206d696e746564206460008201527f7572696e672070726573616c6500000000000000000000000000000000000000602082015250565b6000611bc4602d83611b57565b9150611bcf82611b68565b604082019050919050565b60006020820190508181036000830152611bf381611bb7565b9050919050565b7f4e487b7100000000000000000000000000000000000000000000000000000000600052601160045260246000fd5b6000611c3482611465565b9150611c3f83611465565b9250827fffffffffffffffffffffffffffffffffffffffffffffffffffffffffffffffff03821115611c7457611c73611bfa565b5b828201905092915050565b7f4e667453746f72653a20616c6c204e4654207765726520616c7265616479207360008201527f6f6c640000000000000000000000000000000000000000000000000000000000602082015250565b6000611cdb602383611b57565b9150611ce682611c7f565b604082019050919050565b60006020820190508181036000830152611d0a81611cce565b9050919050565b6000611d1c82611465565b9150611d2783611465565b9250817fffffffffffffffffffffffffffffffffffffffffffffffffffffffffffffffff0483118215151615611d6057611d5f611bfa565b5b828202905092915050565b7f4e487b7100000000000000000000000000000000000000000000000000000000600052601260045260246000fd5b6000611da582611465565b9150611db083611465565b925082611dc057611dbf611d6b565b5b828204905092915050565b7f4e667453746f72653a2074686520616d6f756e74207061696420646964206e6f60008201527f7420636f76657220746865207072696365000000000000000000000000000000602082015250565b6000611e27603183611b57565b9150611e3282611dcb565b604082019050919050565b60006020820190508181036000830152611e5681611e1a565b9050919050565b6000611e6882611465565b9150611e7383611465565b925082821015611e8657611e85611bfa565b5b828203905092915050565b6000611e9c82611465565b91506000821415611eb057611eaf611bfa565b5b600182039050919050565b6000611ec682611465565b91507fffffffffffffffffffffffffffffffffffffffffffffffffffffffffffffffff821415611ef957611ef8611bfa565b5b600182019050919050565b600069ffffffffffffffffffff82169050919050565b611f2381611f04565b8114611f2e57600080fd5b50565b600081519050611f4081611f1a565b92915050565b6000819050919050565b611f5981611f46565b8114611f6457600080fd5b50565b600081519050611f7681611f50565b92915050565b600080600080600060a08688031215611f9857611f976113d0565b5b6000611fa688828901611f31565b9550506020611fb788828901611f67565b9450506040611fc888828901611759565b9350506060611fd988828901611759565b9250506080611fea88828901611f31565b9150509295509295909350565b7f4e667453746f72653a20616c6c204d79737465727920426f786573207765726560008201527f20616c726561647920736f6c6400000000000000000000000000000000000000602082015250565b6000612053602d83611b57565b915061205e82611ff7565b604082019050919050565b6000602082019050818103600083015261208281612046565b9050919050565b7f4e667453746f72653a2070726573616c65206973206f76657200000000000000600082015250565b60006120bf601983611b57565b91506120ca82612089565b602082019050919050565b600060208201905081810360008301526120ee816120b2565b9050919050565b7f4e487b7100000000000000000000000000000000000000000000000000000000600052603260045260246000fd5b600061212f82611465565b915061213a83611465565b92508261214a57612149611d6b565b5b828206905092915050565b61215e8161176e565b82525050565b600060608201905061217960008301866116ba565b61218660208301856116ba565b6121936040830184612155565b949350505050565b6000819050919050565b60006121c06121bb6121b68461176e565b61219b565b611465565b9050919050565b6121d0816121a5565b82525050565b60006040820190506121eb60008301856121c7565b6121f860208301846116ba565b9392505050565b6000819050919050565b612212816121ff565b82525050565b600067ffffffffffffffff82169050919050565b61223581612218565b82525050565b600063ffffffff82169050919050565b6122548161223b565b82525050565b600060a08201905061226f6000830188612209565b61227c602083018761222c565b6122896040830186612155565b612296606083018561224b565b6122a3608083018461224b565b9695505050505050565b6000602082840312156122c3576122c26113d0565b5b60006122d184828501611759565b9150509291505056fea2646970667358221220758d016de93bb5312bad70d5f546bdf141dacc86d1c5b47d9445723e237acde864736f6c63430008090033",
  "linkReferences": {},
  "deployedLinkReferences": {}
}