{
  "_format": "hh-sol-artifact-1",
  "contractName": "NftStore",
  "sourceName": "src/contracts/NftStore.sol",
  "abi": [
    {
      "inputs": [
        {
          "internalType": "address",
          "name": "_priceFeedAddress",
          "type": "address"
        },
        {
          "internalType": "address",
          "name": "_factoryAddress",
          "type": "address"
        },
        {
          "internalType": "uint64",
          "name": "subscriptionId",
          "type": "uint64"
        },
        {
          "internalType": "address",
          "name": "_vrfCoordinator",
          "type": "address"
        },
        {
          "internalType": "address",
          "name": "_link",
          "type": "address"
        },
        {
          "internalType": "bytes32",
          "name": "_keyHash",
          "type": "bytes32"
        },
        {
          "internalType": "uint32",
          "name": "_callbackGasLimit",
          "type": "uint32"
        },
        {
          "internalType": "uint16",
          "name": "_requestConfirmations",
          "type": "uint16"
        },
        {
          "internalType": "address payable",
          "name": "_admin",
          "type": "address"
        }
      ],
      "stateMutability": "nonpayable",
      "type": "constructor"
    },
    {
      "inputs": [
        {
          "internalType": "address",
          "name": "have",
          "type": "address"
        },
        {
          "internalType": "address",
          "name": "want",
          "type": "address"
        }
      ],
      "name": "OnlyCoordinatorCanFulfill",
      "type": "error"
    },
    {
      "inputs": [
        {
          "internalType": "address",
          "name": "_collectionAddress",
          "type": "address"
        }
      ],
      "name": "buyMysteryBox",
      "outputs": [],
      "stateMutability": "payable",
      "type": "function"
    },
    {
      "inputs": [],
      "name": "factoryAddress",
      "outputs": [
        {
          "internalType": "address",
          "name": "",
          "type": "address"
        }
      ],
      "stateMutability": "view",
      "type": "function"
    },
    {
      "inputs": [],
      "name": "getLatestPrice",
      "outputs": [
        {
          "internalType": "uint256",
          "name": "",
          "type": "uint256"
        }
      ],
      "stateMutability": "view",
      "type": "function"
    },
    {
      "inputs": [
        {
          "internalType": "uint256",
          "name": "_usdAmount",
          "type": "uint256"
        }
      ],
      "name": "getTokenAmount",
      "outputs": [
        {
          "internalType": "uint256",
          "name": "",
          "type": "uint256"
        }
      ],
      "stateMutability": "view",
      "type": "function"
    },
    {
      "inputs": [
        {
          "internalType": "address",
          "name": "_user",
          "type": "address"
        }
      ],
      "name": "getUserMysteryBoxes",
      "outputs": [
        {
          "components": [
            {
              "internalType": "address",
              "name": "collectionAddres",
              "type": "address"
            },
            {
              "internalType": "uint256",
              "name": "counter",
              "type": "uint256"
            }
          ],
          "internalType": "struct NftStore.UserMysteryBoxes[]",
          "name": "",
          "type": "tuple[]"
        }
      ],
      "stateMutability": "view",
      "type": "function"
    },
    {
      "inputs": [
        {
          "internalType": "address",
          "name": "_user",
          "type": "address"
        }
      ],
      "name": "getUserNfts",
      "outputs": [
        {
          "components": [
            {
              "internalType": "address",
              "name": "collectionAddres",
              "type": "address"
            },
            {
              "internalType": "uint256[]",
              "name": "nftIds",
              "type": "uint256[]"
            }
          ],
          "internalType": "struct NftStore.UserNfts[]",
          "name": "",
          "type": "tuple[]"
        }
      ],
      "stateMutability": "view",
      "type": "function"
    },
    {
      "inputs": [
        {
          "internalType": "address",
          "name": "_collectionAddress",
          "type": "address"
        }
      ],
      "name": "mint",
      "outputs": [],
      "stateMutability": "payable",
      "type": "function"
    },
    {
      "inputs": [
        {
          "internalType": "address",
          "name": "",
          "type": "address"
        }
      ],
      "name": "mysteryBoxCounter",
      "outputs": [
        {
          "internalType": "uint256",
          "name": "",
          "type": "uint256"
        }
      ],
      "stateMutability": "view",
      "type": "function"
    },
    {
      "inputs": [
        {
          "internalType": "address",
          "name": "",
          "type": "address"
        },
        {
          "internalType": "address",
          "name": "",
          "type": "address"
        }
      ],
      "name": "mysteryBoxUserCounter",
      "outputs": [
        {
          "internalType": "uint256",
          "name": "",
          "type": "uint256"
        }
      ],
      "stateMutability": "view",
      "type": "function"
    },
    {
      "inputs": [
        {
          "internalType": "address",
          "name": "",
          "type": "address"
        }
      ],
      "name": "nftCounter",
      "outputs": [
        {
          "internalType": "uint256",
          "name": "",
          "type": "uint256"
        }
      ],
      "stateMutability": "view",
      "type": "function"
    },
    {
      "inputs": [
        {
          "internalType": "uint256",
          "name": "requestId",
          "type": "uint256"
        },
        {
          "internalType": "uint256[]",
          "name": "randomWords",
          "type": "uint256[]"
        }
      ],
      "name": "rawFulfillRandomWords",
      "outputs": [],
      "stateMutability": "nonpayable",
      "type": "function"
    },
    {
      "inputs": [
        {
          "internalType": "address",
          "name": "_user",
          "type": "address"
        }
      ],
      "name": "revealNFT",
      "outputs": [],
      "stateMutability": "nonpayable",
      "type": "function"
    },
    {
      "inputs": [],
      "name": "s_requestId",
      "outputs": [
        {
          "internalType": "uint256",
          "name": "",
          "type": "uint256"
        }
      ],
      "stateMutability": "view",
      "type": "function"
    }
  ],
  "bytecode": "0x60a06040523480156200001157600080fd5b506040516200360b3803806200360b83398181016040528101906200003791906200038f565b858073ffffffffffffffffffffffffffffffffffffffff1660808173ffffffffffffffffffffffffffffffffffffffff1660601b8152505050886000806101000a81548173ffffffffffffffffffffffffffffffffffffffff021916908373ffffffffffffffffffffffffffffffffffffffff16021790555087600b60006101000a81548173ffffffffffffffffffffffffffffffffffffffff021916908373ffffffffffffffffffffffffffffffffffffffff16021790555085600360006101000a81548173ffffffffffffffffffffffffffffffffffffffff021916908373ffffffffffffffffffffffffffffffffffffffff160217905550600360009054906101000a900473ffffffffffffffffffffffffffffffffffffffff16600160006101000a81548173ffffffffffffffffffffffffffffffffffffffff021916908373ffffffffffffffffffffffffffffffffffffffff16021790555084600460006101000a81548173ffffffffffffffffffffffffffffffffffffffff021916908373ffffffffffffffffffffffffffffffffffffffff1602179055508360058190555082600660006101000a81548163ffffffff021916908363ffffffff16021790555081600660046101000a81548161ffff021916908361ffff160217905550600460009054906101000a900473ffffffffffffffffffffffffffffffffffffffff16600260006101000a81548173ffffffffffffffffffffffffffffffffffffffff021916908373ffffffffffffffffffffffffffffffffffffffff16021790555086600260146101000a81548167ffffffffffffffff021916908367ffffffffffffffff16021790555066d529ae9e86000060088190555080600960006101000a81548173ffffffffffffffffffffffffffffffffffffffff021916908373ffffffffffffffffffffffffffffffffffffffff16021790555050505050505050505062000588565b6000815190506200031681620004ec565b92915050565b6000815190506200032d8162000506565b92915050565b600081519050620003448162000520565b92915050565b6000815190506200035b816200053a565b92915050565b600081519050620003728162000554565b92915050565b60008151905062000389816200056e565b92915050565b60008060008060008060008060006101208a8c031215620003af57600080fd5b6000620003bf8c828d0162000305565b9950506020620003d28c828d0162000305565b9850506040620003e58c828d0162000378565b9750506060620003f88c828d0162000305565b96505060806200040b8c828d0162000305565b95505060a06200041e8c828d0162000333565b94505060c0620004318c828d0162000361565b93505060e0620004448c828d016200034a565b925050610100620004588c828d016200031c565b9150509295985092959850929598565b60006200047582620004a8565b9050919050565b60006200048982620004a8565b9050919050565b6000819050919050565b600061ffff82169050919050565b600073ffffffffffffffffffffffffffffffffffffffff82169050919050565b600063ffffffff82169050919050565b600067ffffffffffffffff82169050919050565b620004f78162000468565b81146200050357600080fd5b50565b62000511816200047c565b81146200051d57600080fd5b50565b6200052b8162000490565b81146200053757600080fd5b50565b62000545816200049a565b81146200055157600080fd5b50565b6200055f81620004c8565b81146200056b57600080fd5b50565b6200057981620004d8565b81146200058557600080fd5b50565b60805160601c61305d620005ae6000396000818161035a01526103ae015261305d6000f3fe6080604052600436106100c25760003560e01c80638e15f4731161007f578063966dae0e11610059578063966dae0e146102705780639e6c52031461029b578063c2507ac1146102d8578063e89e106a14610315576100c2565b80638e15f473146102005780639044543b1461022b578063948646eb14610254576100c2565b80630980ea8c146100c75780631fe543e314610104578063236c1dd51461012d57806359d0d0721461016a5780636a627842146101a75780637908d009146101c3575b600080fd5b3480156100d357600080fd5b506100ee60048036038101906100e99190612296565b610340565b6040516100fb9190612954565b60405180910390f35b34801561011057600080fd5b5061012b600480360381019061012691906123cf565b610358565b005b34801561013957600080fd5b50610154600480360381019061014f91906122bf565b610418565b6040516101619190612954565b60405180910390f35b34801561017657600080fd5b50610191600480360381019061018c9190612296565b61043d565b60405161019e919061281d565b60405180910390f35b6101c160048036038101906101bc9190612296565b610721565b005b3480156101cf57600080fd5b506101ea60048036038101906101e59190612296565b610e39565b6040516101f7919061283f565b60405180910390f35b34801561020c57600080fd5b50610215611152565b6040516102229190612954565b60405180910390f35b34801561023757600080fd5b50610252600480360381019061024d9190612296565b611200565b005b61026e60048036038101906102699190612296565b611366565b005b34801561027c57600080fd5b50610285611948565b60405161029291906127a2565b60405180910390f35b3480156102a757600080fd5b506102c260048036038101906102bd9190612296565b61196e565b6040516102cf9190612954565b60405180910390f35b3480156102e457600080fd5b506102ff60048036038101906102fa919061237d565b611986565b60405161030c9190612954565b60405180910390f35b34801561032157600080fd5b5061032a6119eb565b6040516103379190612954565b60405180910390f35b60126020528060005260406000206000915090505481565b7f000000000000000000000000000000000000000000000000000000000000000073ffffffffffffffffffffffffffffffffffffffff163373ffffffffffffffffffffffffffffffffffffffff161461040a57337f00000000000000000000000000000000000000000000000000000000000000006040517f1cf993f40000000000000000000000000000000000000000000000000000000081526004016104019291906127bd565b60405180910390fd5b61041482826119f1565b5050565b600c602052816000526040600020602052806000526040600020600091509150505481565b60606000600f60008473ffffffffffffffffffffffffffffffffffffffff1673ffffffffffffffffffffffffffffffffffffffff16815260200190815260200160002080548060200260200160405190810160405280929190818152602001828054801561050057602002820191906000526020600020905b8160009054906101000a900473ffffffffffffffffffffffffffffffffffffffff1673ffffffffffffffffffffffffffffffffffffffff16815260200190600101908083116104b6575b505050505090506000815167ffffffffffffffff81111561054a577f4e487b7100000000000000000000000000000000000000000000000000000000600052604160045260246000fd5b60405190808252806020026020018201604052801561058357816020015b610570611de6565b8152602001906001900390816105685790505b50905060005b8251811015610716576000600c60008773ffffffffffffffffffffffffffffffffffffffff1673ffffffffffffffffffffffffffffffffffffffff168152602001908152602001600020600085848151811061060e577f4e487b7100000000000000000000000000000000000000000000000000000000600052603260045260246000fd5b602002602001015173ffffffffffffffffffffffffffffffffffffffff1673ffffffffffffffffffffffffffffffffffffffff1681526020019081526020016000205490506040518060400160405280858481518110610697577f4e487b7100000000000000000000000000000000000000000000000000000000600052603260045260246000fd5b602002602001015173ffffffffffffffffffffffffffffffffffffffff168152602001828152508383815181106106f7577f4e487b7100000000000000000000000000000000000000000000000000000000600052603260045260246000fd5b602002602001018190525050808061070e90612d20565b915050610589565b508092505050919050565b6000600b60009054906101000a900473ffffffffffffffffffffffffffffffffffffffff1673ffffffffffffffffffffffffffffffffffffffff1663e40de887836040518263ffffffff1660e01b815260040161077e91906127a2565b60006040518083038186803b15801561079657600080fd5b505afa1580156107aa573d6000803e3d6000fd5b505050506040513d6000823e3d601f19601f820116820180604052508101906107d3919061233c565b90508060200151421161081b576040517f08c379a0000000000000000000000000000000000000000000000000000000008152600401610812906128b4565b60405180910390fd5b601160008373ffffffffffffffffffffffffffffffffffffffff1673ffffffffffffffffffffffffffffffffffffffff16815260200190815260200160002054816060015161ffff1661086e9190612ad9565b601260008473ffffffffffffffffffffffffffffffffffffffff1673ffffffffffffffffffffffffffffffffffffffff16815260200190815260200160002054106108ee576040517f08c379a00000000000000000000000000000000000000000000000000000000081526004016108e5906128d4565b60405180910390fd5b6000600c60003373ffffffffffffffffffffffffffffffffffffffff1673ffffffffffffffffffffffffffffffffffffffff16815260200190815260200160002060008473ffffffffffffffffffffffffffffffffffffffff1673ffffffffffffffffffffffffffffffffffffffff168152602001908152602001600020541415610b2057600061097d611152565b620f4240670de0b6b3a76400008460e001516109999190612b60565b6109a39190612b60565b6109ad9190612b2f565b905034600854826109be9190612ad9565b11156109ff576040517f08c379a00000000000000000000000000000000000000000000000000000000081526004016109f690612914565b60405180910390fd5b60008260a0015190508073ffffffffffffffffffffffffffffffffffffffff166108fc839081150290604051600060405180830381858888f19350505050158015610a4e573d6000803e3d6000fd5b50600960009054906101000a900473ffffffffffffffffffffffffffffffffffffffff1673ffffffffffffffffffffffffffffffffffffffff166108fc6008549081150290604051600060405180830381858888f19350505050158015610ab9573d6000803e3d6000fd5b503373ffffffffffffffffffffffffffffffffffffffff166108fc6008548434610ae39190612bba565b610aed9190612bba565b9081150290604051600060405180830381858888f19350505050158015610b18573d6000803e3d6000fd5b505050610c08565b600c60003373ffffffffffffffffffffffffffffffffffffffff1673ffffffffffffffffffffffffffffffffffffffff16815260200190815260200160002060008373ffffffffffffffffffffffffffffffffffffffff1673ffffffffffffffffffffffffffffffffffffffff1681526020019081526020016000206000815480929190610bad90612cc5565b9190505550601160008373ffffffffffffffffffffffffffffffffffffffff1673ffffffffffffffffffffffffffffffffffffffff1681526020019081526020016000206000815480929190610c0290612cc5565b91905055505b601260008373ffffffffffffffffffffffffffffffffffffffff1673ffffffffffffffffffffffffffffffffffffffff1681526020019081526020016000206000815480929190610c5890612d20565b9190505550610c6960018333611bfe565b60001515600e60003373ffffffffffffffffffffffffffffffffffffffff1673ffffffffffffffffffffffffffffffffffffffff16815260200190815260200160002060008473ffffffffffffffffffffffffffffffffffffffff1673ffffffffffffffffffffffffffffffffffffffff16815260200190815260200160002060009054906101000a900460ff1615151415610e35576001600e60003373ffffffffffffffffffffffffffffffffffffffff1673ffffffffffffffffffffffffffffffffffffffff16815260200190815260200160002060008473ffffffffffffffffffffffffffffffffffffffff1673ffffffffffffffffffffffffffffffffffffffff16815260200190815260200160002060006101000a81548160ff021916908315150217905550601060003373ffffffffffffffffffffffffffffffffffffffff1673ffffffffffffffffffffffffffffffffffffffff168152602001908152602001600020829080600181540180825580915050600190039060005260206000200160009091909190916101000a81548173ffffffffffffffffffffffffffffffffffffffff021916908373ffffffffffffffffffffffffffffffffffffffff1602179055505b5050565b60606000601060008473ffffffffffffffffffffffffffffffffffffffff1673ffffffffffffffffffffffffffffffffffffffff168152602001908152602001600020805480602002602001604051908101604052809291908181526020018280548015610efc57602002820191906000526020600020905b8160009054906101000a900473ffffffffffffffffffffffffffffffffffffffff1673ffffffffffffffffffffffffffffffffffffffff1681526020019060010190808311610eb2575b505050505090506000815167ffffffffffffffff811115610f46577f4e487b7100000000000000000000000000000000000000000000000000000000600052604160045260246000fd5b604051908082528060200260200182016040528015610f7f57816020015b610f6c611e16565b815260200190600190039081610f645790505b50905060005b8251811015611147576000600b60009054906101000a900473ffffffffffffffffffffffffffffffffffffffff1673ffffffffffffffffffffffffffffffffffffffff16639ade031987868581518110611008577f4e487b7100000000000000000000000000000000000000000000000000000000600052603260045260246000fd5b60200260200101516040518363ffffffff1660e01b815260040161102d9291906127bd565b60006040518083038186803b15801561104557600080fd5b505afa158015611059573d6000803e3d6000fd5b505050506040513d6000823e3d601f19601f8201168201806040525081019061108291906122fb565b905060405180604001604052808584815181106110c8577f4e487b7100000000000000000000000000000000000000000000000000000000600052603260045260246000fd5b602002602001015173ffffffffffffffffffffffffffffffffffffffff16815260200182815250838381518110611128577f4e487b7100000000000000000000000000000000000000000000000000000000600052603260045260246000fd5b602002602001018190525050808061113f90612d20565b915050610f85565b508092505050919050565b60008060008054906101000a900473ffffffffffffffffffffffffffffffffffffffff1673ffffffffffffffffffffffffffffffffffffffff1663feaf968c6040518163ffffffff1660e01b815260040160a06040518083038186803b1580156111bb57600080fd5b505afa1580156111cf573d6000803e3d6000fd5b505050506040513d601f19601f820116820180604052508101906111f39190612423565b5050509150508091505090565b600b60009054906101000a900473ffffffffffffffffffffffffffffffffffffffff1673ffffffffffffffffffffffffffffffffffffffff166324408fe860146000601560008673ffffffffffffffffffffffffffffffffffffffff1673ffffffffffffffffffffffffffffffffffffffff16815260200190815260200160002054815260200190815260200160002060009054906101000a900473ffffffffffffffffffffffffffffffffffffffff168360166000601560008873ffffffffffffffffffffffffffffffffffffffff1673ffffffffffffffffffffffffffffffffffffffff16815260200190815260200160002054815260200190815260200160002060009054906101000a900461ffff166040518463ffffffff1660e01b8152600401611331939291906127e6565b600060405180830381600087803b15801561134b57600080fd5b505af115801561135f573d6000803e3d6000fd5b5050505050565b6000600b60009054906101000a900473ffffffffffffffffffffffffffffffffffffffff1673ffffffffffffffffffffffffffffffffffffffff1663e40de887836040518263ffffffff1660e01b81526004016113c391906127a2565b60006040518083038186803b1580156113db57600080fd5b505afa1580156113ef573d6000803e3d6000fd5b505050506040513d6000823e3d601f19601f82011682018060405250810190611418919061233c565b9050806040015161ffff16601160008473ffffffffffffffffffffffffffffffffffffffff1673ffffffffffffffffffffffffffffffffffffffff16815260200190815260200160002054106114a3576040517f08c379a000000000000000000000000000000000000000000000000000000000815260040161149a906128f4565b60405180910390fd5b806020015142106114e9576040517f08c379a00000000000000000000000000000000000000000000000000000000081526004016114e090612934565b60405180910390fd5b60006114f3611152565b620f4240670de0b6b3a76400008460c0015161150f9190612b60565b6115199190612b60565b6115239190612b2f565b905034600854826115349190612ad9565b1115611575576040517f08c379a000000000000000000000000000000000000000000000000000000000815260040161156c90612914565b60405180910390fd5b60008260a0015190508073ffffffffffffffffffffffffffffffffffffffff166108fc839081150290604051600060405180830381858888f193505050501580156115c4573d6000803e3d6000fd5b50600960009054906101000a900473ffffffffffffffffffffffffffffffffffffffff1673ffffffffffffffffffffffffffffffffffffffff166108fc6008549081150290604051600060405180830381858888f1935050505015801561162f573d6000803e3d6000fd5b503373ffffffffffffffffffffffffffffffffffffffff166108fc60085484346116599190612bba565b6116639190612bba565b9081150290604051600060405180830381858888f1935050505015801561168e573d6000803e3d6000fd5b50600c60003373ffffffffffffffffffffffffffffffffffffffff1673ffffffffffffffffffffffffffffffffffffffff16815260200190815260200160002060008573ffffffffffffffffffffffffffffffffffffffff1673ffffffffffffffffffffffffffffffffffffffff168152602001908152602001600020600081548092919061171c90612d20565b9190505550601160008573ffffffffffffffffffffffffffffffffffffffff1673ffffffffffffffffffffffffffffffffffffffff168152602001908152602001600020600081548092919061177190612d20565b919050555060001515600d60003373ffffffffffffffffffffffffffffffffffffffff1673ffffffffffffffffffffffffffffffffffffffff16815260200190815260200160002060008673ffffffffffffffffffffffffffffffffffffffff1673ffffffffffffffffffffffffffffffffffffffff16815260200190815260200160002060009054906101000a900460ff1615151415611942576001600d60003373ffffffffffffffffffffffffffffffffffffffff1673ffffffffffffffffffffffffffffffffffffffff16815260200190815260200160002060008673ffffffffffffffffffffffffffffffffffffffff1673ffffffffffffffffffffffffffffffffffffffff16815260200190815260200160002060006101000a81548160ff021916908315150217905550600f60003373ffffffffffffffffffffffffffffffffffffffff1673ffffffffffffffffffffffffffffffffffffffff168152602001908152602001600020849080600181540180825580915050600190039060005260206000200160009091909190916101000a81548173ffffffffffffffffffffffffffffffffffffffff021916908373ffffffffffffffffffffffffffffffffffffffff1602179055505b50505050565b600a60009054906101000a900473ffffffffffffffffffffffffffffffffffffffff1681565b60116020528060005260406000206000915090505481565b600080611991611152565b620f4240670de0b6b3a7640000856119a99190612b60565b6119b39190612b60565b6119bd9190612b2f565b905060646005826119ce9190612b60565b6119d89190612b2f565b816119e39190612ad9565b915050919050565b60075481565b60006014600084815260200190815260200160002060009054906101000a900473ffffffffffffffffffffffffffffffffffffffff1690506000600b60009054906101000a900473ffffffffffffffffffffffffffffffffffffffff1673ffffffffffffffffffffffffffffffffffffffff1663e40de887836040518263ffffffff1660e01b8152600401611a8691906127a2565b60006040518083038186803b158015611a9e57600080fd5b505afa158015611ab2573d6000803e3d6000fd5b505050506040513d6000823e3d601f19601f82011682018060405250810190611adb919061233c565b6080015151905060008184600081518110611b1f577f4e487b7100000000000000000000000000000000000000000000000000000000600052603260045260246000fd5b6020026020010151611b319190612d69565b9050600b60009054906101000a900473ffffffffffffffffffffffffffffffffffffffff1673ffffffffffffffffffffffffffffffffffffffff166324408fe8846013600089815260200190815260200160002060009054906101000a900473ffffffffffffffffffffffffffffffffffffffff16846040518463ffffffff1660e01b8152600401611bc5939291906127e6565b600060405180830381600087803b158015611bdf57600080fd5b505af1158015611bf3573d6000803e3d6000fd5b505050505050505050565b600160009054906101000a900473ffffffffffffffffffffffffffffffffffffffff1673ffffffffffffffffffffffffffffffffffffffff16635d3b1d30600554600260149054906101000a900467ffffffffffffffff16600660049054906101000a900461ffff16600660009054906101000a900463ffffffff16886040518663ffffffff1660e01b8152600401611c9b959493929190612861565b602060405180830381600087803b158015611cb557600080fd5b505af1158015611cc9573d6000803e3d6000fd5b505050506040513d601f19601f82011682018060405250810190611ced91906123a6565b6007819055508060136000600754815260200190815260200160002060006101000a81548173ffffffffffffffffffffffffffffffffffffffff021916908373ffffffffffffffffffffffffffffffffffffffff1602179055508160146000600754815260200190815260200160002060006101000a81548173ffffffffffffffffffffffffffffffffffffffff021916908373ffffffffffffffffffffffffffffffffffffffff160217905550600754601560008373ffffffffffffffffffffffffffffffffffffffff1673ffffffffffffffffffffffffffffffffffffffff16815260200190815260200160002081905550505050565b6040518060400160405280600073ffffffffffffffffffffffffffffffffffffffff168152602001600081525090565b6040518060400160405280600073ffffffffffffffffffffffffffffffffffffffff168152602001606081525090565b6000611e59611e5484612994565b61296f565b90508083825260208201905082856020860282011115611e7857600080fd5b60005b85811015611ea85781611e8e8882612242565b845260208401935060208301925050600181019050611e7b565b5050509392505050565b6000611ec5611ec0846129c0565b61296f565b90508083825260208201905082856020860282011115611ee457600080fd5b60005b85811015611f145781611efa8882612257565b845260208401935060208301925050600181019050611ee7565b5050509392505050565b6000611f31611f2c846129c0565b61296f565b90508083825260208201905082856020860282011115611f5057600080fd5b60005b85811015611f805781611f66888261226c565b845260208401935060208301925050600181019050611f53565b5050509392505050565b6000611f9d611f98846129ec565b61296f565b905082815260208101848484011115611fb557600080fd5b611fc0848285612c92565b509392505050565b600081359050611fd781612f9d565b92915050565b600081519050611fec81612f9d565b92915050565b600082601f83011261200357600080fd5b8151612013848260208601611e46565b91505092915050565b600082601f83011261202d57600080fd5b813561203d848260208601611eb2565b91505092915050565b600082601f83011261205757600080fd5b8151612067848260208601611f1e565b91505092915050565b60008151905061207f81612fb4565b92915050565b60008151905061209481612fcb565b92915050565b600082601f8301126120ab57600080fd5b81516120bb848260208601611f8a565b91505092915050565b600061018082840312156120d757600080fd5b6120e261018061296f565b905060006120f284828501611fdd565b60008301525060206121068482850161226c565b602083015250604061211a84828501612242565b604083015250606061212e84828501612242565b606083015250608082015167ffffffffffffffff81111561214e57600080fd5b61215a84828501611ff2565b60808301525060a061216e84828501611fdd565b60a08301525060c06121828482850161226c565b60c08301525060e06121968482850161226c565b60e0830152506101006121ab84828501612070565b6101008301525061012082015167ffffffffffffffff8111156121cd57600080fd5b6121d98482850161209a565b6101208301525061014082015167ffffffffffffffff8111156121fb57600080fd5b6122078482850161209a565b6101408301525061016082015167ffffffffffffffff81111561222957600080fd5b6122358482850161209a565b6101608301525092915050565b60008151905061225181612fe2565b92915050565b60008135905061226681612ff9565b92915050565b60008151905061227b81612ff9565b92915050565b60008151905061229081613010565b92915050565b6000602082840312156122a857600080fd5b60006122b684828501611fc8565b91505092915050565b600080604083850312156122d257600080fd5b60006122e085828601611fc8565b92505060206122f185828601611fc8565b9150509250929050565b60006020828403121561230d57600080fd5b600082015167ffffffffffffffff81111561232757600080fd5b61233384828501612046565b91505092915050565b60006020828403121561234e57600080fd5b600082015167ffffffffffffffff81111561236857600080fd5b612374848285016120c4565b91505092915050565b60006020828403121561238f57600080fd5b600061239d84828501612257565b91505092915050565b6000602082840312156123b857600080fd5b60006123c68482850161226c565b91505092915050565b600080604083850312156123e257600080fd5b60006123f085828601612257565b925050602083013567ffffffffffffffff81111561240d57600080fd5b6124198582860161201c565b9150509250929050565b600080600080600060a0868803121561243b57600080fd5b600061244988828901612281565b955050602061245a88828901612085565b945050604061246b8882890161226c565b935050606061247c8882890161226c565b925050608061248d88828901612281565b9150509295509295909350565b60006124a683836126eb565b60408301905092915050565b60006124be838361271a565b905092915050565b60006124d28383612766565b60208301905092915050565b6124e781612bee565b82525050565b6124f681612bee565b82525050565b600061250782612a4d565b6125118185612a95565b935061251c83612a1d565b8060005b8381101561254d578151612534888261249a565b975061253f83612a6e565b925050600181019050612520565b5085935050505092915050565b600061256582612a58565b61256f8185612aa6565b93508360208202850161258185612a2d565b8060005b858110156125bd578484038952815161259e85826124b2565b94506125a983612a7b565b925060208a01995050600181019050612585565b50829750879550505050505092915050565b60006125da82612a63565b6125e48185612ab7565b93506125ef83612a3d565b8060005b8381101561262057815161260788826124c6565b975061261283612a88565b9250506001810190506125f3565b5085935050505092915050565b61263681612c0c565b82525050565b6000612649602d83612ac8565b915061265482612e38565b604082019050919050565b600061266c602383612ac8565b915061267782612e87565b604082019050919050565b600061268f602d83612ac8565b915061269a82612ed6565b604082019050919050565b60006126b2603183612ac8565b91506126bd82612f25565b604082019050919050565b60006126d5601983612ac8565b91506126e082612f74565b602082019050919050565b60408201600082015161270160008501826124de565b5060208201516127146020850182612766565b50505050565b600060408301600083015161273260008601826124de565b506020830151848203602086015261274a82826125cf565b9150508091505092915050565b61276081612c20565b82525050565b61276f81612c4e565b82525050565b61277e81612c4e565b82525050565b61278d81612c58565b82525050565b61279c81612c68565b82525050565b60006020820190506127b760008301846124ed565b92915050565b60006040820190506127d260008301856124ed565b6127df60208301846124ed565b9392505050565b60006060820190506127fb60008301866124ed565b61280860208301856124ed565b6128156040830184612757565b949350505050565b6000602082019050818103600083015261283781846124fc565b905092915050565b60006020820190508181036000830152612859818461255a565b905092915050565b600060a082019050612876600083018861262d565b6128836020830187612793565b6128906040830186612757565b61289d6060830185612784565b6128aa6080830184612784565b9695505050505050565b600060208201905081810360008301526128cd8161263c565b9050919050565b600060208201905081810360008301526128ed8161265f565b9050919050565b6000602082019050818103600083015261290d81612682565b9050919050565b6000602082019050818103600083015261292d816126a5565b9050919050565b6000602082019050818103600083015261294d816126c8565b9050919050565b60006020820190506129696000830184612775565b92915050565b600061297961298a565b90506129858282612cef565b919050565b6000604051905090565b600067ffffffffffffffff8211156129af576129ae612df8565b5b602082029050602081019050919050565b600067ffffffffffffffff8211156129db576129da612df8565b5b602082029050602081019050919050565b600067ffffffffffffffff821115612a0757612a06612df8565b5b612a1082612e27565b9050602081019050919050565b6000819050602082019050919050565b6000819050602082019050919050565b6000819050602082019050919050565b600081519050919050565b600081519050919050565b600081519050919050565b6000602082019050919050565b6000602082019050919050565b6000602082019050919050565b600082825260208201905092915050565b600082825260208201905092915050565b600082825260208201905092915050565b600082825260208201905092915050565b6000612ae482612c4e565b9150612aef83612c4e565b9250827fffffffffffffffffffffffffffffffffffffffffffffffffffffffffffffffff03821115612b2457612b23612d9a565b5b828201905092915050565b6000612b3a82612c4e565b9150612b4583612c4e565b925082612b5557612b54612dc9565b5b828204905092915050565b6000612b6b82612c4e565b9150612b7683612c4e565b9250817fffffffffffffffffffffffffffffffffffffffffffffffffffffffffffffffff0483118215151615612baf57612bae612d9a565b5b828202905092915050565b6000612bc582612c4e565b9150612bd083612c4e565b925082821015612be357612be2612d9a565b5b828203905092915050565b6000612bf982612c2e565b9050919050565b60008115159050919050565b6000819050919050565b6000819050919050565b600061ffff82169050919050565b600073ffffffffffffffffffffffffffffffffffffffff82169050919050565b6000819050919050565b600063ffffffff82169050919050565b600067ffffffffffffffff82169050919050565b600069ffffffffffffffffffff82169050919050565b60005b83811015612cb0578082015181840152602081019050612c95565b83811115612cbf576000848401525b50505050565b6000612cd082612c4e565b91506000821415612ce457612ce3612d9a565b5b600182039050919050565b612cf882612e27565b810181811067ffffffffffffffff82111715612d1757612d16612df8565b5b80604052505050565b6000612d2b82612c4e565b91507fffffffffffffffffffffffffffffffffffffffffffffffffffffffffffffffff821415612d5e57612d5d612d9a565b5b600182019050919050565b6000612d7482612c4e565b9150612d7f83612c4e565b925082612d8f57612d8e612dc9565b5b828206905092915050565b7f4e487b7100000000000000000000000000000000000000000000000000000000600052601160045260246000fd5b7f4e487b7100000000000000000000000000000000000000000000000000000000600052601260045260246000fd5b7f4e487b7100000000000000000000000000000000000000000000000000000000600052604160045260246000fd5b6000601f19601f8301169050919050565b7f4e667453746f72653a204e46542063616e6e6f74206265206d696e746564206460008201527f7572696e672070726573616c6500000000000000000000000000000000000000602082015250565b7f4e667453746f72653a20616c6c204e4654207765726520616c7265616479207360008201527f6f6c640000000000000000000000000000000000000000000000000000000000602082015250565b7f4e667453746f72653a20616c6c204d79737465727920426f786573207765726560008201527f20616c726561647920736f6c6400000000000000000000000000000000000000602082015250565b7f4e667453746f72653a2074686520616d6f756e74207061696420646964206e6f60008201527f7420636f76657220746865207072696365000000000000000000000000000000602082015250565b7f4e667453746f72653a2070726573616c65206973206f76657200000000000000600082015250565b612fa681612bee565b8114612fb157600080fd5b50565b612fbd81612c00565b8114612fc857600080fd5b50565b612fd481612c16565b8114612fdf57600080fd5b50565b612feb81612c20565b8114612ff657600080fd5b50565b61300281612c4e565b811461300d57600080fd5b50565b61301981612c7c565b811461302457600080fd5b5056fea264697066735822122059749caea0afe38224292b8df2bda63a057238ff8f44fc48a5e9f9d792c9ec7b64736f6c63430008040033",
  "linkReferences": {},
  "deployedLinkReferences": {}
}