{
  "_format": "hh-sol-artifact-1",
  "contractName": "NftStore",
  "sourceName": "src/contracts/NftStore.sol",
  "abi": [
    {
      "inputs": [
        {
          "internalType": "address",
          "name": "_priceFeedAddress",
          "type": "address"
        },
        {
          "internalType": "address",
          "name": "_factoryAddress",
          "type": "address"
        },
        {
          "internalType": "uint64",
          "name": "subscriptionId",
          "type": "uint64"
        },
        {
          "internalType": "address",
          "name": "_vrfCoordinator",
          "type": "address"
        },
        {
          "internalType": "address",
          "name": "_link",
          "type": "address"
        },
        {
          "internalType": "bytes32",
          "name": "_keyHash",
          "type": "bytes32"
        },
        {
          "internalType": "uint32",
          "name": "_callbackGasLimit",
          "type": "uint32"
        },
        {
          "internalType": "uint16",
          "name": "_requestConfirmations",
          "type": "uint16"
        }
      ],
      "stateMutability": "nonpayable",
      "type": "constructor"
    },
    {
      "inputs": [
        {
          "internalType": "address",
          "name": "have",
          "type": "address"
        },
        {
          "internalType": "address",
          "name": "want",
          "type": "address"
        }
      ],
      "name": "OnlyCoordinatorCanFulfill",
      "type": "error"
    },
    {
      "inputs": [
        {
          "internalType": "address",
          "name": "_collectionAddress",
          "type": "address"
        }
      ],
      "name": "buyMysteryBox",
      "outputs": [],
      "stateMutability": "payable",
      "type": "function"
    },
    {
      "inputs": [],
      "name": "factoryAddress",
      "outputs": [
        {
          "internalType": "address",
          "name": "",
          "type": "address"
        }
      ],
      "stateMutability": "view",
      "type": "function"
    },
    {
      "inputs": [],
      "name": "getLatestPrice",
      "outputs": [
        {
          "internalType": "uint256",
          "name": "",
          "type": "uint256"
        }
      ],
      "stateMutability": "view",
      "type": "function"
    },
    {
      "inputs": [
        {
          "internalType": "address",
          "name": "_collectionAddress",
          "type": "address"
        }
      ],
      "name": "mint",
      "outputs": [],
      "stateMutability": "payable",
      "type": "function"
    },
    {
      "inputs": [
        {
          "internalType": "address",
          "name": "",
          "type": "address"
        }
      ],
      "name": "mysteryBoxCounter",
      "outputs": [
        {
          "internalType": "uint256",
          "name": "",
          "type": "uint256"
        }
      ],
      "stateMutability": "view",
      "type": "function"
    },
    {
      "inputs": [
        {
          "internalType": "address",
          "name": "",
          "type": "address"
        },
        {
          "internalType": "address",
          "name": "",
          "type": "address"
        }
      ],
      "name": "mysteryBoxUserCounter",
      "outputs": [
        {
          "internalType": "uint256",
          "name": "",
          "type": "uint256"
        }
      ],
      "stateMutability": "view",
      "type": "function"
    },
    {
      "inputs": [
        {
          "internalType": "address",
          "name": "",
          "type": "address"
        }
      ],
      "name": "nftCounter",
      "outputs": [
        {
          "internalType": "uint256",
          "name": "",
          "type": "uint256"
        }
      ],
      "stateMutability": "view",
      "type": "function"
    },
    {
      "inputs": [
        {
          "internalType": "uint256",
          "name": "requestId",
          "type": "uint256"
        },
        {
          "internalType": "uint256[]",
          "name": "randomWords",
          "type": "uint256[]"
        }
      ],
      "name": "rawFulfillRandomWords",
      "outputs": [],
      "stateMutability": "nonpayable",
      "type": "function"
    },
    {
      "inputs": [],
      "name": "s_requestId",
      "outputs": [
        {
          "internalType": "uint256",
          "name": "",
          "type": "uint256"
        }
      ],
      "stateMutability": "view",
      "type": "function"
    }
  ],
  "bytecode": "0x60a06040523480156200001157600080fd5b506040516200211c3803806200211c83398181016040528101906200003791906200042a565b848073ffffffffffffffffffffffffffffffffffffffff1660808173ffffffffffffffffffffffffffffffffffffffff168152505050876000806101000a81548173ffffffffffffffffffffffffffffffffffffffff021916908373ffffffffffffffffffffffffffffffffffffffff16021790555086600a60006101000a81548173ffffffffffffffffffffffffffffffffffffffff021916908373ffffffffffffffffffffffffffffffffffffffff16021790555084600360006101000a81548173ffffffffffffffffffffffffffffffffffffffff021916908373ffffffffffffffffffffffffffffffffffffffff160217905550600360009054906101000a900473ffffffffffffffffffffffffffffffffffffffff16600160006101000a81548173ffffffffffffffffffffffffffffffffffffffff021916908373ffffffffffffffffffffffffffffffffffffffff16021790555083600460006101000a81548173ffffffffffffffffffffffffffffffffffffffff021916908373ffffffffffffffffffffffffffffffffffffffff1602179055508260058190555081600660006101000a81548163ffffffff021916908363ffffffff16021790555080600660046101000a81548161ffff021916908361ffff160217905550600460009054906101000a900473ffffffffffffffffffffffffffffffffffffffff16600260006101000a81548173ffffffffffffffffffffffffffffffffffffffff021916908373ffffffffffffffffffffffffffffffffffffffff16021790555085600260146101000a81548167ffffffffffffffff021916908367ffffffffffffffff16021790555066d529ae9e8600006008819055505050505050505050620004f3565b600080fd5b600073ffffffffffffffffffffffffffffffffffffffff82169050919050565b6000620002f282620002c5565b9050919050565b6200030481620002e5565b81146200031057600080fd5b50565b6000815190506200032481620002f9565b92915050565b600067ffffffffffffffff82169050919050565b62000349816200032a565b81146200035557600080fd5b50565b60008151905062000369816200033e565b92915050565b6000819050919050565b62000384816200036f565b81146200039057600080fd5b50565b600081519050620003a48162000379565b92915050565b600063ffffffff82169050919050565b620003c581620003aa565b8114620003d157600080fd5b50565b600081519050620003e581620003ba565b92915050565b600061ffff82169050919050565b6200040481620003eb565b81146200041057600080fd5b50565b6000815190506200042481620003f9565b92915050565b600080600080600080600080610100898b0312156200044e576200044d620002c0565b5b60006200045e8b828c0162000313565b9850506020620004718b828c0162000313565b9750506040620004848b828c0162000358565b9650506060620004978b828c0162000313565b9550506080620004aa8b828c0162000313565b94505060a0620004bd8b828c0162000393565b93505060c0620004d08b828c01620003d4565b92505060e0620004e38b828c0162000413565b9150509295985092959890939650565b608051611c06620005166000396000818161023e01526102920152611c066000f3fe6080604052600436106100865760003560e01c80638e15f473116100595780638e15f4731461014a578063948646eb14610175578063966dae0e146101915780639e6c5203146101bc578063e89e106a146101f957610086565b80630980ea8c1461008b5780631fe543e3146100c8578063236c1dd5146100f15780636a6278421461012e575b600080fd5b34801561009757600080fd5b506100b260048036038101906100ad9190610f92565b610224565b6040516100bf9190610fd8565b60405180910390f35b3480156100d457600080fd5b506100ef60048036038101906100ea9190611178565b61023c565b005b3480156100fd57600080fd5b50610118600480360381019061011391906111d4565b6102fc565b6040516101259190610fd8565b60405180910390f35b61014860048036038101906101439190610f92565b610321565b005b34801561015657600080fd5b5061015f6106f3565b60405161016c9190610fd8565b60405180910390f35b61018f600480360381019061018a9190610f92565b6107a1565b005b34801561019d57600080fd5b506101a6610add565b6040516101b39190611223565b60405180910390f35b3480156101c857600080fd5b506101e360048036038101906101de9190610f92565b610b03565b6040516101f09190610fd8565b60405180910390f35b34801561020557600080fd5b5061020e610b1b565b60405161021b9190610fd8565b60405180910390f35b600d6020528060005260406000206000915090505481565b7f000000000000000000000000000000000000000000000000000000000000000073ffffffffffffffffffffffffffffffffffffffff163373ffffffffffffffffffffffffffffffffffffffff16146102ee57337f00000000000000000000000000000000000000000000000000000000000000006040517f1cf993f40000000000000000000000000000000000000000000000000000000081526004016102e592919061123e565b60405180910390fd5b6102f88282610b21565b5050565b600b602052816000526040600020602052806000526040600020600091509150505481565b6000600a60009054906101000a900473ffffffffffffffffffffffffffffffffffffffff1673ffffffffffffffffffffffffffffffffffffffff1663e40de887836040518263ffffffff1660e01b815260040161037e9190611223565b60006040518083038186803b15801561039657600080fd5b505afa1580156103aa573d6000803e3d6000fd5b505050506040513d6000823e3d601f19601f820116820180604052508101906103d39190611468565b90508060000151421161041b576040517f08c379a000000000000000000000000000000000000000000000000000000000815260040161041290611534565b60405180910390fd5b806040015161ffff16600d60008473ffffffffffffffffffffffffffffffffffffffff1673ffffffffffffffffffffffffffffffffffffffff16815260200190815260200160002054106104a4576040517f08c379a000000000000000000000000000000000000000000000000000000000815260040161049b906115c6565b60405180910390fd5b6000600b60003373ffffffffffffffffffffffffffffffffffffffff1673ffffffffffffffffffffffffffffffffffffffff16815260200190815260200160002060008473ffffffffffffffffffffffffffffffffffffffff1673ffffffffffffffffffffffffffffffffffffffff1681526020019081526020016000205414156106515760006105336106f3565b620f4240670de0b6b3a76400008460c0015161054f9190611615565b6105599190611615565b610563919061169e565b9050348111156105a8576040517f08c379a000000000000000000000000000000000000000000000000000000000815260040161059f90611741565b60405180910390fd5b6000826080015190508073ffffffffffffffffffffffffffffffffffffffff166108fc839081150290604051600060405180830381858888f193505050501580156105f7573d6000803e3d6000fd5b503373ffffffffffffffffffffffffffffffffffffffff166108fc833461061e9190611761565b9081150290604051600060405180830381858888f19350505050158015610649573d6000803e3d6000fd5b5050506106e4565b600b60003373ffffffffffffffffffffffffffffffffffffffff1673ffffffffffffffffffffffffffffffffffffffff16815260200190815260200160002060008373ffffffffffffffffffffffffffffffffffffffff1673ffffffffffffffffffffffffffffffffffffffff16815260200190815260200160002060008154809291906106de90611795565b91905055505b6106ef600183610d7f565b5050565b60008060008054906101000a900473ffffffffffffffffffffffffffffffffffffffff1673ffffffffffffffffffffffffffffffffffffffff1663feaf968c6040518163ffffffff1660e01b815260040160a06040518083038186803b15801561075c57600080fd5b505afa158015610770573d6000803e3d6000fd5b505050506040513d601f19601f820116820180604052508101906107949190611837565b5050509150508091505090565b6000600a60009054906101000a900473ffffffffffffffffffffffffffffffffffffffff1673ffffffffffffffffffffffffffffffffffffffff1663e40de887836040518263ffffffff1660e01b81526004016107fe9190611223565b60006040518083038186803b15801561081657600080fd5b505afa15801561082a573d6000803e3d6000fd5b505050506040513d6000823e3d601f19601f820116820180604052508101906108539190611468565b9050806020015161ffff16600c60008473ffffffffffffffffffffffffffffffffffffffff1673ffffffffffffffffffffffffffffffffffffffff16815260200190815260200160002054106108de576040517f08c379a00000000000000000000000000000000000000000000000000000000081526004016108d590611924565b60405180910390fd5b80600001514210610924576040517f08c379a000000000000000000000000000000000000000000000000000000000815260040161091b90611990565b60405180910390fd5b600061092e6106f3565b620f4240670de0b6b3a76400008460a0015161094a9190611615565b6109549190611615565b61095e919061169e565b9050348111156109a3576040517f08c379a000000000000000000000000000000000000000000000000000000000815260040161099a90611741565b60405180910390fd5b6000826080015190508073ffffffffffffffffffffffffffffffffffffffff166108fc839081150290604051600060405180830381858888f193505050501580156109f2573d6000803e3d6000fd5b503373ffffffffffffffffffffffffffffffffffffffff166108fc8334610a199190611761565b9081150290604051600060405180830381858888f19350505050158015610a44573d6000803e3d6000fd5b50600b60003373ffffffffffffffffffffffffffffffffffffffff1673ffffffffffffffffffffffffffffffffffffffff16815260200190815260200160002060008573ffffffffffffffffffffffffffffffffffffffff1673ffffffffffffffffffffffffffffffffffffffff1681526020019081526020016000206000815480929190610ad2906119b0565b919050555050505050565b600960009054906101000a900473ffffffffffffffffffffffffffffffffffffffff1681565b600c6020528060005260406000206000915090505481565b60075481565b6000600e600084815260200190815260200160002060009054906101000a900473ffffffffffffffffffffffffffffffffffffffff1690506000600f600085815260200190815260200160002060009054906101000a900473ffffffffffffffffffffffffffffffffffffffff1690506000600a60009054906101000a900473ffffffffffffffffffffffffffffffffffffffff1673ffffffffffffffffffffffffffffffffffffffff1663e40de887836040518263ffffffff1660e01b8152600401610bee9190611223565b60006040518083038186803b158015610c0657600080fd5b505afa158015610c1a573d6000803e3d6000fd5b505050506040513d6000823e3d601f19601f82011682018060405250810190610c439190611468565b6060015151905060008185600081518110610c6157610c606119f9565b5b6020026020010151610c739190611a28565b9050600a60009054906101000a900473ffffffffffffffffffffffffffffffffffffffff1673ffffffffffffffffffffffffffffffffffffffff1663ab023f4084836040518363ffffffff1660e01b8152600401610cd2929190611a68565b600060405180830381600087803b158015610cec57600080fd5b505af1158015610d00573d6000803e3d6000fd5b5050505060008390508073ffffffffffffffffffffffffffffffffffffffff166394bf804d83876040518363ffffffff1660e01b8152600401610d44929190611acc565b600060405180830381600087803b158015610d5e57600080fd5b505af1158015610d72573d6000803e3d6000fd5b5050505050505050505050565b600160009054906101000a900473ffffffffffffffffffffffffffffffffffffffff1673ffffffffffffffffffffffffffffffffffffffff16635d3b1d30600554600260149054906101000a900467ffffffffffffffff16600660049054906101000a900461ffff16600660009054906101000a900463ffffffff16876040518663ffffffff1660e01b8152600401610e1c959493929190611b50565b602060405180830381600087803b158015610e3657600080fd5b505af1158015610e4a573d6000803e3d6000fd5b505050506040513d601f19601f82011682018060405250810190610e6e9190611ba3565b60078190555033600e6000600754815260200190815260200160002060006101000a81548173ffffffffffffffffffffffffffffffffffffffff021916908373ffffffffffffffffffffffffffffffffffffffff16021790555080600f6000600754815260200190815260200160002060006101000a81548173ffffffffffffffffffffffffffffffffffffffff021916908373ffffffffffffffffffffffffffffffffffffffff1602179055505050565b6000604051905090565b600080fd5b600080fd5b600073ffffffffffffffffffffffffffffffffffffffff82169050919050565b6000610f5f82610f34565b9050919050565b610f6f81610f54565b8114610f7a57600080fd5b50565b600081359050610f8c81610f66565b92915050565b600060208284031215610fa857610fa7610f2a565b5b6000610fb684828501610f7d565b91505092915050565b6000819050919050565b610fd281610fbf565b82525050565b6000602082019050610fed6000830184610fc9565b92915050565b610ffc81610fbf565b811461100757600080fd5b50565b60008135905061101981610ff3565b92915050565b600080fd5b6000601f19601f8301169050919050565b7f4e487b7100000000000000000000000000000000000000000000000000000000600052604160045260246000fd5b61106d82611024565b810181811067ffffffffffffffff8211171561108c5761108b611035565b5b80604052505050565b600061109f610f20565b90506110ab8282611064565b919050565b600067ffffffffffffffff8211156110cb576110ca611035565b5b602082029050602081019050919050565b600080fd5b60006110f46110ef846110b0565b611095565b90508083825260208201905060208402830185811115611117576111166110dc565b5b835b81811015611140578061112c888261100a565b845260208401935050602081019050611119565b5050509392505050565b600082601f83011261115f5761115e61101f565b5b813561116f8482602086016110e1565b91505092915050565b6000806040838503121561118f5761118e610f2a565b5b600061119d8582860161100a565b925050602083013567ffffffffffffffff8111156111be576111bd610f2f565b5b6111ca8582860161114a565b9150509250929050565b600080604083850312156111eb576111ea610f2a565b5b60006111f985828601610f7d565b925050602061120a85828601610f7d565b9150509250929050565b61121d81610f54565b82525050565b60006020820190506112386000830184611214565b92915050565b60006040820190506112536000830185611214565b6112606020830184611214565b9392505050565b600080fd5b600080fd5b60008151905061128081610ff3565b92915050565b600061ffff82169050919050565b61129d81611286565b81146112a857600080fd5b50565b6000815190506112ba81611294565b92915050565b600067ffffffffffffffff8211156112db576112da611035565b5b602082029050602081019050919050565b60006112ff6112fa846112c0565b611095565b90508083825260208201905060208402830185811115611322576113216110dc565b5b835b8181101561134b578061133788826112ab565b845260208401935050602081019050611324565b5050509392505050565b600082601f83011261136a5761136961101f565b5b815161137a8482602086016112ec565b91505092915050565b60008151905061139281610f66565b92915050565b600060e082840312156113ae576113ad611267565b5b6113b860e0611095565b905060006113c884828501611271565b60008301525060206113dc848285016112ab565b60208301525060406113f0848285016112ab565b604083015250606082015167ffffffffffffffff8111156114145761141361126c565b5b61142084828501611355565b606083015250608061143484828501611383565b60808301525060a061144884828501611271565b60a08301525060c061145c84828501611271565b60c08301525092915050565b60006020828403121561147e5761147d610f2a565b5b600082015167ffffffffffffffff81111561149c5761149b610f2f565b5b6114a884828501611398565b91505092915050565b600082825260208201905092915050565b7f4e667453746f72653a204e46542063616e6e6f74206265206d696e746564206460008201527f7572696e672070726573616c6500000000000000000000000000000000000000602082015250565b600061151e602d836114b1565b9150611529826114c2565b604082019050919050565b6000602082019050818103600083015261154d81611511565b9050919050565b7f4e667453746f72653a20616c6c204e4654207765726520616c7265616479207360008201527f6f6c640000000000000000000000000000000000000000000000000000000000602082015250565b60006115b06023836114b1565b91506115bb82611554565b604082019050919050565b600060208201905081810360008301526115df816115a3565b9050919050565b7f4e487b7100000000000000000000000000000000000000000000000000000000600052601160045260246000fd5b600061162082610fbf565b915061162b83610fbf565b9250817fffffffffffffffffffffffffffffffffffffffffffffffffffffffffffffffff0483118215151615611664576116636115e6565b5b828202905092915050565b7f4e487b7100000000000000000000000000000000000000000000000000000000600052601260045260246000fd5b60006116a982610fbf565b91506116b483610fbf565b9250826116c4576116c361166f565b5b828204905092915050565b7f4e667453746f72653a2074686520616d6f756e74207061696420646964206e6f60008201527f7420636f76657220746865207072696365000000000000000000000000000000602082015250565b600061172b6031836114b1565b9150611736826116cf565b604082019050919050565b6000602082019050818103600083015261175a8161171e565b9050919050565b600061176c82610fbf565b915061177783610fbf565b92508282101561178a576117896115e6565b5b828203905092915050565b60006117a082610fbf565b915060008214156117b4576117b36115e6565b5b600182039050919050565b600069ffffffffffffffffffff82169050919050565b6117de816117bf565b81146117e957600080fd5b50565b6000815190506117fb816117d5565b92915050565b6000819050919050565b61181481611801565b811461181f57600080fd5b50565b6000815190506118318161180b565b92915050565b600080600080600060a0868803121561185357611852610f2a565b5b6000611861888289016117ec565b955050602061187288828901611822565b945050604061188388828901611271565b935050606061189488828901611271565b92505060806118a5888289016117ec565b9150509295509295909350565b7f4e667453746f72653a20616c6c204d79737465727920426f786573207765726560008201527f20616c726561647920736f6c6400000000000000000000000000000000000000602082015250565b600061190e602d836114b1565b9150611919826118b2565b604082019050919050565b6000602082019050818103600083015261193d81611901565b9050919050565b7f4e667453746f72653a2070726573616c65206973206f76657200000000000000600082015250565b600061197a6019836114b1565b915061198582611944565b602082019050919050565b600060208201905081810360008301526119a98161196d565b9050919050565b60006119bb82610fbf565b91507fffffffffffffffffffffffffffffffffffffffffffffffffffffffffffffffff8214156119ee576119ed6115e6565b5b600182019050919050565b7f4e487b7100000000000000000000000000000000000000000000000000000000600052603260045260246000fd5b6000611a3382610fbf565b9150611a3e83610fbf565b925082611a4e57611a4d61166f565b5b828206905092915050565b611a6281611286565b82525050565b6000604082019050611a7d6000830185611214565b611a8a6020830184611a59565b9392505050565b6000819050919050565b6000611ab6611ab1611aac84611286565b611a91565b610fbf565b9050919050565b611ac681611a9b565b82525050565b6000604082019050611ae16000830185611abd565b611aee6020830184611214565b9392505050565b6000819050919050565b611b0881611af5565b82525050565b600067ffffffffffffffff82169050919050565b611b2b81611b0e565b82525050565b600063ffffffff82169050919050565b611b4a81611b31565b82525050565b600060a082019050611b656000830188611aff565b611b726020830187611b22565b611b7f6040830186611a59565b611b8c6060830185611b41565b611b996080830184611b41565b9695505050505050565b600060208284031215611bb957611bb8610f2a565b5b6000611bc784828501611271565b9150509291505056fea26469706673582212202a25c7ef5ca2fa5d07e6363dbc635361157ecd3d77f60130fd7e0735c0f01ccc64736f6c63430008090033",
  "linkReferences": {},
  "deployedLinkReferences": {}
}