{
  "_format": "hh-sol-artifact-1",
  "contractName": "NftStore",
  "sourceName": "src/contracts/NftStore.sol",
  "abi": [
    {
      "inputs": [
        {
          "internalType": "address",
          "name": "_priceFeedAddress",
          "type": "address"
        },
        {
          "internalType": "address",
          "name": "_factoryAddress",
          "type": "address"
        },
        {
          "internalType": "uint64",
          "name": "subscriptionId",
          "type": "uint64"
        },
        {
          "internalType": "address",
          "name": "_vrfCoordinator",
          "type": "address"
        },
        {
          "internalType": "address",
          "name": "_link",
          "type": "address"
        },
        {
          "internalType": "bytes32",
          "name": "_keyHash",
          "type": "bytes32"
        },
        {
          "internalType": "uint32",
          "name": "_callbackGasLimit",
          "type": "uint32"
        },
        {
          "internalType": "uint16",
          "name": "_requestConfirmations",
          "type": "uint16"
        },
        {
          "internalType": "address payable",
          "name": "_admin",
          "type": "address"
        }
      ],
      "stateMutability": "nonpayable",
      "type": "constructor"
    },
    {
      "inputs": [
        {
          "internalType": "address",
          "name": "have",
          "type": "address"
        },
        {
          "internalType": "address",
          "name": "want",
          "type": "address"
        }
      ],
      "name": "OnlyCoordinatorCanFulfill",
      "type": "error"
    },
    {
      "inputs": [
        {
          "internalType": "address",
          "name": "_collectionAddress",
          "type": "address"
        }
      ],
      "name": "buyMysteryBox",
      "outputs": [],
      "stateMutability": "payable",
      "type": "function"
    },
    {
      "inputs": [],
      "name": "factoryAddress",
      "outputs": [
        {
          "internalType": "address",
          "name": "",
          "type": "address"
        }
      ],
      "stateMutability": "view",
      "type": "function"
    },
    {
      "inputs": [],
      "name": "getLatestPrice",
      "outputs": [
        {
          "internalType": "uint256",
          "name": "",
          "type": "uint256"
        }
      ],
      "stateMutability": "view",
      "type": "function"
    },
    {
      "inputs": [
        {
          "internalType": "address",
          "name": "_collectionAddress",
          "type": "address"
        }
      ],
      "name": "mint",
      "outputs": [],
      "stateMutability": "payable",
      "type": "function"
    },
    {
      "inputs": [
        {
          "internalType": "address",
          "name": "",
          "type": "address"
        }
      ],
      "name": "mysteryBoxCounter",
      "outputs": [
        {
          "internalType": "uint256",
          "name": "",
          "type": "uint256"
        }
      ],
      "stateMutability": "view",
      "type": "function"
    },
    {
      "inputs": [
        {
          "internalType": "address",
          "name": "",
          "type": "address"
        },
        {
          "internalType": "address",
          "name": "",
          "type": "address"
        }
      ],
      "name": "mysteryBoxUserCounter",
      "outputs": [
        {
          "internalType": "uint256",
          "name": "",
          "type": "uint256"
        }
      ],
      "stateMutability": "view",
      "type": "function"
    },
    {
      "inputs": [
        {
          "internalType": "address",
          "name": "",
          "type": "address"
        }
      ],
      "name": "nftCounter",
      "outputs": [
        {
          "internalType": "uint256",
          "name": "",
          "type": "uint256"
        }
      ],
      "stateMutability": "view",
      "type": "function"
    },
    {
      "inputs": [
        {
          "internalType": "uint256",
          "name": "requestId",
          "type": "uint256"
        },
        {
          "internalType": "uint256[]",
          "name": "randomWords",
          "type": "uint256[]"
        }
      ],
      "name": "rawFulfillRandomWords",
      "outputs": [],
      "stateMutability": "nonpayable",
      "type": "function"
    },
    {
      "inputs": [],
      "name": "s_requestId",
      "outputs": [
        {
          "internalType": "uint256",
          "name": "",
          "type": "uint256"
        }
      ],
      "stateMutability": "view",
      "type": "function"
    }
  ],
  "bytecode": "0x60a06040523480156200001157600080fd5b5060405162002645380380620026458339818101604052810190620000379190620004b1565b858073ffffffffffffffffffffffffffffffffffffffff1660808173ffffffffffffffffffffffffffffffffffffffff168152505050886000806101000a81548173ffffffffffffffffffffffffffffffffffffffff021916908373ffffffffffffffffffffffffffffffffffffffff16021790555087600b60006101000a81548173ffffffffffffffffffffffffffffffffffffffff021916908373ffffffffffffffffffffffffffffffffffffffff16021790555085600360006101000a81548173ffffffffffffffffffffffffffffffffffffffff021916908373ffffffffffffffffffffffffffffffffffffffff160217905550600360009054906101000a900473ffffffffffffffffffffffffffffffffffffffff16600160006101000a81548173ffffffffffffffffffffffffffffffffffffffff021916908373ffffffffffffffffffffffffffffffffffffffff16021790555084600460006101000a81548173ffffffffffffffffffffffffffffffffffffffff021916908373ffffffffffffffffffffffffffffffffffffffff1602179055508360058190555082600660006101000a81548163ffffffff021916908363ffffffff16021790555081600660046101000a81548161ffff021916908361ffff160217905550600460009054906101000a900473ffffffffffffffffffffffffffffffffffffffff16600260006101000a81548173ffffffffffffffffffffffffffffffffffffffff021916908373ffffffffffffffffffffffffffffffffffffffff16021790555086600260146101000a81548167ffffffffffffffff021916908367ffffffffffffffff16021790555066d529ae9e86000060088190555080600960006101000a81548173ffffffffffffffffffffffffffffffffffffffff021916908373ffffffffffffffffffffffffffffffffffffffff16021790555050505050505050505062000590565b600080fd5b600073ffffffffffffffffffffffffffffffffffffffff82169050919050565b6000620003348262000307565b9050919050565b620003468162000327565b81146200035257600080fd5b50565b60008151905062000366816200033b565b92915050565b600067ffffffffffffffff82169050919050565b6200038b816200036c565b81146200039757600080fd5b50565b600081519050620003ab8162000380565b92915050565b6000819050919050565b620003c681620003b1565b8114620003d257600080fd5b50565b600081519050620003e681620003bb565b92915050565b600063ffffffff82169050919050565b6200040781620003ec565b81146200041357600080fd5b50565b6000815190506200042781620003fc565b92915050565b600061ffff82169050919050565b62000446816200042d565b81146200045257600080fd5b50565b60008151905062000466816200043b565b92915050565b6000620004798262000307565b9050919050565b6200048b816200046c565b81146200049757600080fd5b50565b600081519050620004ab8162000480565b92915050565b60008060008060008060008060006101208a8c031215620004d757620004d662000302565b5b6000620004e78c828d0162000355565b9950506020620004fa8c828d0162000355565b98505060406200050d8c828d016200039a565b9750506060620005208c828d0162000355565b9650506080620005338c828d0162000355565b95505060a0620005468c828d01620003d5565b94505060c0620005598c828d0162000416565b93505060e06200056c8c828d0162000455565b925050610100620005808c828d016200049a565b9150509295985092959850929598565b608051612092620005b36000396000818161023e015261029201526120926000f3fe6080604052600436106100865760003560e01c80638e15f473116100595780638e15f4731461014a578063948646eb14610175578063966dae0e146101915780639e6c5203146101bc578063e89e106a146101f957610086565b80630980ea8c1461008b5780631fe543e3146100c8578063236c1dd5146100f15780636a6278421461012e575b600080fd5b34801561009757600080fd5b506100b260048036038101906100ad91906111e7565b610224565b6040516100bf919061122d565b60405180910390f35b3480156100d457600080fd5b506100ef60048036038101906100ea91906113cd565b61023c565b005b3480156100fd57600080fd5b5061011860048036038101906101139190611429565b6102fc565b604051610125919061122d565b60405180910390f35b610148600480360381019061014391906111e7565b610321565b005b34801561015657600080fd5b5061015f61086c565b60405161016c919061122d565b60405180910390f35b61018f600480360381019061018a91906111e7565b61091a565b005b34801561019d57600080fd5b506101a6610d30565b6040516101b39190611478565b60405180910390f35b3480156101c857600080fd5b506101e360048036038101906101de91906111e7565b610d56565b6040516101f0919061122d565b60405180910390f35b34801561020557600080fd5b5061020e610d6e565b60405161021b919061122d565b60405180910390f35b600e6020528060005260406000206000915090505481565b7f000000000000000000000000000000000000000000000000000000000000000073ffffffffffffffffffffffffffffffffffffffff163373ffffffffffffffffffffffffffffffffffffffff16146102ee57337f00000000000000000000000000000000000000000000000000000000000000006040517f1cf993f40000000000000000000000000000000000000000000000000000000081526004016102e5929190611493565b60405180910390fd5b6102f88282610d74565b5050565b600c602052816000526040600020602052806000526040600020600091509150505481565b6000600b60009054906101000a900473ffffffffffffffffffffffffffffffffffffffff1673ffffffffffffffffffffffffffffffffffffffff1663e40de887836040518263ffffffff1660e01b815260040161037e9190611478565b60006040518083038186803b15801561039657600080fd5b505afa1580156103aa573d6000803e3d6000fd5b505050506040513d6000823e3d601f19601f820116820180604052508101906103d39190611890565b90508060200151421161041b576040517f08c379a00000000000000000000000000000000000000000000000000000000081526004016104129061195c565b60405180910390fd5b600d60008373ffffffffffffffffffffffffffffffffffffffff1673ffffffffffffffffffffffffffffffffffffffff16815260200190815260200160002054816060015161ffff1661046e91906119ab565b600e60008473ffffffffffffffffffffffffffffffffffffffff1673ffffffffffffffffffffffffffffffffffffffff16815260200190815260200160002054106104ee576040517f08c379a00000000000000000000000000000000000000000000000000000000081526004016104e590611a73565b60405180910390fd5b6000600c60003373ffffffffffffffffffffffffffffffffffffffff1673ffffffffffffffffffffffffffffffffffffffff16815260200190815260200160002060008473ffffffffffffffffffffffffffffffffffffffff1673ffffffffffffffffffffffffffffffffffffffff16815260200190815260200160002054141561072057600061057d61086c565b620f4240670de0b6b3a76400008460e001516105999190611a93565b6105a39190611a93565b6105ad9190611b1c565b905034600854826105be91906119ab565b11156105ff576040517f08c379a00000000000000000000000000000000000000000000000000000000081526004016105f690611bbf565b60405180910390fd5b60008260a0015190508073ffffffffffffffffffffffffffffffffffffffff166108fc839081150290604051600060405180830381858888f1935050505015801561064e573d6000803e3d6000fd5b50600960009054906101000a900473ffffffffffffffffffffffffffffffffffffffff1673ffffffffffffffffffffffffffffffffffffffff166108fc6008549081150290604051600060405180830381858888f193505050501580156106b9573d6000803e3d6000fd5b503373ffffffffffffffffffffffffffffffffffffffff166108fc60085484346106e39190611bdf565b6106ed9190611bdf565b9081150290604051600060405180830381858888f19350505050158015610718573d6000803e3d6000fd5b505050610808565b600c60003373ffffffffffffffffffffffffffffffffffffffff1673ffffffffffffffffffffffffffffffffffffffff16815260200190815260200160002060008373ffffffffffffffffffffffffffffffffffffffff1673ffffffffffffffffffffffffffffffffffffffff16815260200190815260200160002060008154809291906107ad90611c13565b9190505550600d60008373ffffffffffffffffffffffffffffffffffffffff1673ffffffffffffffffffffffffffffffffffffffff168152602001908152602001600020600081548092919061080290611c13565b91905055505b600e60008373ffffffffffffffffffffffffffffffffffffffff1673ffffffffffffffffffffffffffffffffffffffff168152602001908152602001600020600081548092919061085890611c3d565b9190505550610868600183610fd4565b5050565b60008060008054906101000a900473ffffffffffffffffffffffffffffffffffffffff1673ffffffffffffffffffffffffffffffffffffffff1663feaf968c6040518163ffffffff1660e01b815260040160a06040518083038186803b1580156108d557600080fd5b505afa1580156108e9573d6000803e3d6000fd5b505050506040513d601f19601f8201168201806040525081019061090d9190611cfe565b5050509150508091505090565b6000600b60009054906101000a900473ffffffffffffffffffffffffffffffffffffffff1673ffffffffffffffffffffffffffffffffffffffff1663e40de887836040518263ffffffff1660e01b81526004016109779190611478565b60006040518083038186803b15801561098f57600080fd5b505afa1580156109a3573d6000803e3d6000fd5b505050506040513d6000823e3d601f19601f820116820180604052508101906109cc9190611890565b9050806040015161ffff16600d60008473ffffffffffffffffffffffffffffffffffffffff1673ffffffffffffffffffffffffffffffffffffffff1681526020019081526020016000205410610a57576040517f08c379a0000000000000000000000000000000000000000000000000000000008152600401610a4e90611deb565b60405180910390fd5b80602001514210610a9d576040517f08c379a0000000000000000000000000000000000000000000000000000000008152600401610a9490611e57565b60405180910390fd5b6000610aa761086c565b620f4240670de0b6b3a76400008460c00151610ac39190611a93565b610acd9190611a93565b610ad79190611b1c565b90503460085482610ae891906119ab565b1115610b29576040517f08c379a0000000000000000000000000000000000000000000000000000000008152600401610b2090611bbf565b60405180910390fd5b60008260a0015190508073ffffffffffffffffffffffffffffffffffffffff166108fc839081150290604051600060405180830381858888f19350505050158015610b78573d6000803e3d6000fd5b50600960009054906101000a900473ffffffffffffffffffffffffffffffffffffffff1673ffffffffffffffffffffffffffffffffffffffff166108fc6008549081150290604051600060405180830381858888f19350505050158015610be3573d6000803e3d6000fd5b503373ffffffffffffffffffffffffffffffffffffffff166108fc6008548434610c0d9190611bdf565b610c179190611bdf565b9081150290604051600060405180830381858888f19350505050158015610c42573d6000803e3d6000fd5b50600c60003373ffffffffffffffffffffffffffffffffffffffff1673ffffffffffffffffffffffffffffffffffffffff16815260200190815260200160002060008573ffffffffffffffffffffffffffffffffffffffff1673ffffffffffffffffffffffffffffffffffffffff1681526020019081526020016000206000815480929190610cd090611c3d565b9190505550600d60008573ffffffffffffffffffffffffffffffffffffffff1673ffffffffffffffffffffffffffffffffffffffff1681526020019081526020016000206000815480929190610d2590611c3d565b919050555050505050565b600a60009054906101000a900473ffffffffffffffffffffffffffffffffffffffff1681565b600d6020528060005260406000206000915090505481565b60075481565b6000600f600084815260200190815260200160002060009054906101000a900473ffffffffffffffffffffffffffffffffffffffff16905060006010600085815260200190815260200160002060009054906101000a900473ffffffffffffffffffffffffffffffffffffffff1690506000600b60009054906101000a900473ffffffffffffffffffffffffffffffffffffffff1673ffffffffffffffffffffffffffffffffffffffff1663e40de887836040518263ffffffff1660e01b8152600401610e419190611478565b60006040518083038186803b158015610e5957600080fd5b505afa158015610e6d573d6000803e3d6000fd5b505050506040513d6000823e3d601f19601f82011682018060405250810190610e969190611890565b6080015151905060008185600081518110610eb457610eb3611e77565b5b6020026020010151610ec69190611ea6565b9050600b60009054906101000a900473ffffffffffffffffffffffffffffffffffffffff1673ffffffffffffffffffffffffffffffffffffffff166324408fe88486846040518463ffffffff1660e01b8152600401610f2793929190611ee6565b600060405180830381600087803b158015610f4157600080fd5b505af1158015610f55573d6000803e3d6000fd5b5050505060008390508073ffffffffffffffffffffffffffffffffffffffff166394bf804d83876040518363ffffffff1660e01b8152600401610f99929190611f58565b600060405180830381600087803b158015610fb357600080fd5b505af1158015610fc7573d6000803e3d6000fd5b5050505050505050505050565b600160009054906101000a900473ffffffffffffffffffffffffffffffffffffffff1673ffffffffffffffffffffffffffffffffffffffff16635d3b1d30600554600260149054906101000a900467ffffffffffffffff16600660049054906101000a900461ffff16600660009054906101000a900463ffffffff16876040518663ffffffff1660e01b8152600401611071959493929190611fdc565b602060405180830381600087803b15801561108b57600080fd5b505af115801561109f573d6000803e3d6000fd5b505050506040513d601f19601f820116820180604052508101906110c3919061202f565b60078190555033600f6000600754815260200190815260200160002060006101000a81548173ffffffffffffffffffffffffffffffffffffffff021916908373ffffffffffffffffffffffffffffffffffffffff1602179055508060106000600754815260200190815260200160002060006101000a81548173ffffffffffffffffffffffffffffffffffffffff021916908373ffffffffffffffffffffffffffffffffffffffff1602179055505050565b6000604051905090565b600080fd5b600080fd5b600073ffffffffffffffffffffffffffffffffffffffff82169050919050565b60006111b482611189565b9050919050565b6111c4816111a9565b81146111cf57600080fd5b50565b6000813590506111e1816111bb565b92915050565b6000602082840312156111fd576111fc61117f565b5b600061120b848285016111d2565b91505092915050565b6000819050919050565b61122781611214565b82525050565b6000602082019050611242600083018461121e565b92915050565b61125181611214565b811461125c57600080fd5b50565b60008135905061126e81611248565b92915050565b600080fd5b6000601f19601f8301169050919050565b7f4e487b7100000000000000000000000000000000000000000000000000000000600052604160045260246000fd5b6112c282611279565b810181811067ffffffffffffffff821117156112e1576112e061128a565b5b80604052505050565b60006112f4611175565b905061130082826112b9565b919050565b600067ffffffffffffffff8211156113205761131f61128a565b5b602082029050602081019050919050565b600080fd5b600061134961134484611305565b6112ea565b9050808382526020820190506020840283018581111561136c5761136b611331565b5b835b818110156113955780611381888261125f565b84526020840193505060208101905061136e565b5050509392505050565b600082601f8301126113b4576113b3611274565b5b81356113c4848260208601611336565b91505092915050565b600080604083850312156113e4576113e361117f565b5b60006113f28582860161125f565b925050602083013567ffffffffffffffff81111561141357611412611184565b5b61141f8582860161139f565b9150509250929050565b600080604083850312156114405761143f61117f565b5b600061144e858286016111d2565b925050602061145f858286016111d2565b9150509250929050565b611472816111a9565b82525050565b600060208201905061148d6000830184611469565b92915050565b60006040820190506114a86000830185611469565b6114b56020830184611469565b9392505050565b600080fd5b600080fd5b6000815190506114d5816111bb565b92915050565b6000815190506114ea81611248565b92915050565b600061ffff82169050919050565b611507816114f0565b811461151257600080fd5b50565b600081519050611524816114fe565b92915050565b600067ffffffffffffffff8211156115455761154461128a565b5b602082029050602081019050919050565b60006115696115648461152a565b6112ea565b9050808382526020820190506020840283018581111561158c5761158b611331565b5b835b818110156115b557806115a18882611515565b84526020840193505060208101905061158e565b5050509392505050565b600082601f8301126115d4576115d3611274565b5b81516115e4848260208601611556565b91505092915050565b60008115159050919050565b611602816115ed565b811461160d57600080fd5b50565b60008151905061161f816115f9565b92915050565b600080fd5b600067ffffffffffffffff8211156116455761164461128a565b5b61164e82611279565b9050602081019050919050565b60005b8381101561167957808201518184015260208101905061165e565b83811115611688576000848401525b50505050565b60006116a161169c8461162a565b6112ea565b9050828152602081018484840111156116bd576116bc611625565b5b6116c884828561165b565b509392505050565b600082601f8301126116e5576116e4611274565b5b81516116f584826020860161168e565b91505092915050565b60006101808284031215611715576117146114bc565b5b6117206101806112ea565b90506000611730848285016114c6565b6000830152506020611744848285016114db565b602083015250604061175884828501611515565b604083015250606061176c84828501611515565b606083015250608082015167ffffffffffffffff8111156117905761178f6114c1565b5b61179c848285016115bf565b60808301525060a06117b0848285016114c6565b60a08301525060c06117c4848285016114db565b60c08301525060e06117d8848285016114db565b60e0830152506101006117ed84828501611610565b6101008301525061012082015167ffffffffffffffff811115611813576118126114c1565b5b61181f848285016116d0565b6101208301525061014082015167ffffffffffffffff811115611845576118446114c1565b5b611851848285016116d0565b6101408301525061016082015167ffffffffffffffff811115611877576118766114c1565b5b611883848285016116d0565b6101608301525092915050565b6000602082840312156118a6576118a561117f565b5b600082015167ffffffffffffffff8111156118c4576118c3611184565b5b6118d0848285016116fe565b91505092915050565b600082825260208201905092915050565b7f4e667453746f72653a204e46542063616e6e6f74206265206d696e746564206460008201527f7572696e672070726573616c6500000000000000000000000000000000000000602082015250565b6000611946602d836118d9565b9150611951826118ea565b604082019050919050565b6000602082019050818103600083015261197581611939565b9050919050565b7f4e487b7100000000000000000000000000000000000000000000000000000000600052601160045260246000fd5b60006119b682611214565b91506119c183611214565b9250827fffffffffffffffffffffffffffffffffffffffffffffffffffffffffffffffff038211156119f6576119f561197c565b5b828201905092915050565b7f4e667453746f72653a20616c6c204e4654207765726520616c7265616479207360008201527f6f6c640000000000000000000000000000000000000000000000000000000000602082015250565b6000611a5d6023836118d9565b9150611a6882611a01565b604082019050919050565b60006020820190508181036000830152611a8c81611a50565b9050919050565b6000611a9e82611214565b9150611aa983611214565b9250817fffffffffffffffffffffffffffffffffffffffffffffffffffffffffffffffff0483118215151615611ae257611ae161197c565b5b828202905092915050565b7f4e487b7100000000000000000000000000000000000000000000000000000000600052601260045260246000fd5b6000611b2782611214565b9150611b3283611214565b925082611b4257611b41611aed565b5b828204905092915050565b7f4e667453746f72653a2074686520616d6f756e74207061696420646964206e6f60008201527f7420636f76657220746865207072696365000000000000000000000000000000602082015250565b6000611ba96031836118d9565b9150611bb482611b4d565b604082019050919050565b60006020820190508181036000830152611bd881611b9c565b9050919050565b6000611bea82611214565b9150611bf583611214565b925082821015611c0857611c0761197c565b5b828203905092915050565b6000611c1e82611214565b91506000821415611c3257611c3161197c565b5b600182039050919050565b6000611c4882611214565b91507fffffffffffffffffffffffffffffffffffffffffffffffffffffffffffffffff821415611c7b57611c7a61197c565b5b600182019050919050565b600069ffffffffffffffffffff82169050919050565b611ca581611c86565b8114611cb057600080fd5b50565b600081519050611cc281611c9c565b92915050565b6000819050919050565b611cdb81611cc8565b8114611ce657600080fd5b50565b600081519050611cf881611cd2565b92915050565b600080600080600060a08688031215611d1a57611d1961117f565b5b6000611d2888828901611cb3565b9550506020611d3988828901611ce9565b9450506040611d4a888289016114db565b9350506060611d5b888289016114db565b9250506080611d6c88828901611cb3565b9150509295509295909350565b7f4e667453746f72653a20616c6c204d79737465727920426f786573207765726560008201527f20616c726561647920736f6c6400000000000000000000000000000000000000602082015250565b6000611dd5602d836118d9565b9150611de082611d79565b604082019050919050565b60006020820190508181036000830152611e0481611dc8565b9050919050565b7f4e667453746f72653a2070726573616c65206973206f76657200000000000000600082015250565b6000611e416019836118d9565b9150611e4c82611e0b565b602082019050919050565b60006020820190508181036000830152611e7081611e34565b9050919050565b7f4e487b7100000000000000000000000000000000000000000000000000000000600052603260045260246000fd5b6000611eb182611214565b9150611ebc83611214565b925082611ecc57611ecb611aed565b5b828206905092915050565b611ee0816114f0565b82525050565b6000606082019050611efb6000830186611469565b611f086020830185611469565b611f156040830184611ed7565b949350505050565b6000819050919050565b6000611f42611f3d611f38846114f0565b611f1d565b611214565b9050919050565b611f5281611f27565b82525050565b6000604082019050611f6d6000830185611f49565b611f7a6020830184611469565b9392505050565b6000819050919050565b611f9481611f81565b82525050565b600067ffffffffffffffff82169050919050565b611fb781611f9a565b82525050565b600063ffffffff82169050919050565b611fd681611fbd565b82525050565b600060a082019050611ff16000830188611f8b565b611ffe6020830187611fae565b61200b6040830186611ed7565b6120186060830185611fcd565b6120256080830184611fcd565b9695505050505050565b6000602082840312156120455761204461117f565b5b6000612053848285016114db565b9150509291505056fea26469706673582212200e5f842d4e909c3017ed80947b1080fb2e77a9d1954678a5aa6333174baee3a064736f6c63430008090033",
  "linkReferences": {},
  "deployedLinkReferences": {}
}