{
  "_format": "hh-sol-artifact-1",
  "contractName": "NftStore",
  "sourceName": "src/contracts/NftStore.sol",
  "abi": [
    {
      "inputs": [
        {
          "internalType": "address",
          "name": "_priceFeedAddress",
          "type": "address"
        },
        {
          "internalType": "address",
          "name": "_factoryAddress",
          "type": "address"
        },
        {
          "internalType": "uint64",
          "name": "subscriptionId",
          "type": "uint64"
        },
        {
          "internalType": "address",
          "name": "_vrfCoordinator",
          "type": "address"
        },
        {
          "internalType": "address",
          "name": "_link",
          "type": "address"
        },
        {
          "internalType": "bytes32",
          "name": "_keyHash",
          "type": "bytes32"
        },
        {
          "internalType": "uint32",
          "name": "_callbackGasLimit",
          "type": "uint32"
        },
        {
          "internalType": "uint16",
          "name": "_requestConfirmations",
          "type": "uint16"
        },
        {
          "internalType": "address payable",
          "name": "_admin",
          "type": "address"
        }
      ],
      "stateMutability": "nonpayable",
      "type": "constructor"
    },
    {
      "inputs": [
        {
          "internalType": "address",
          "name": "have",
          "type": "address"
        },
        {
          "internalType": "address",
          "name": "want",
          "type": "address"
        }
      ],
      "name": "OnlyCoordinatorCanFulfill",
      "type": "error"
    },
    {
      "inputs": [
        {
          "internalType": "address",
          "name": "_collectionAddress",
          "type": "address"
        }
      ],
      "name": "buyMysteryBox",
      "outputs": [],
      "stateMutability": "payable",
      "type": "function"
    },
    {
      "inputs": [],
      "name": "factoryAddress",
      "outputs": [
        {
          "internalType": "address",
          "name": "",
          "type": "address"
        }
      ],
      "stateMutability": "view",
      "type": "function"
    },
    {
      "inputs": [],
      "name": "getLatestPrice",
      "outputs": [
        {
          "internalType": "uint256",
          "name": "",
          "type": "uint256"
        }
      ],
      "stateMutability": "view",
      "type": "function"
    },
    {
      "inputs": [
        {
          "internalType": "uint256",
          "name": "_usdAmount",
          "type": "uint256"
        }
      ],
      "name": "getTokenAmount",
      "outputs": [
        {
          "internalType": "uint256",
          "name": "",
          "type": "uint256"
        }
      ],
      "stateMutability": "view",
      "type": "function"
    },
    {
      "inputs": [
        {
          "internalType": "address",
          "name": "_user",
          "type": "address"
        }
      ],
      "name": "getUserMysteryBoxes",
      "outputs": [
        {
          "components": [
            {
              "internalType": "address",
              "name": "collectionAddres",
              "type": "address"
            },
            {
              "internalType": "uint256",
              "name": "counter",
              "type": "uint256"
            }
          ],
          "internalType": "struct NftStore.UserMysteryBoxes[]",
          "name": "",
          "type": "tuple[]"
        }
      ],
      "stateMutability": "view",
      "type": "function"
    },
    {
      "inputs": [
        {
          "internalType": "address",
          "name": "_user",
          "type": "address"
        }
      ],
      "name": "getUserNfts",
      "outputs": [
        {
          "components": [
            {
              "internalType": "address",
              "name": "collectionAddres",
              "type": "address"
            },
            {
              "internalType": "uint256[]",
              "name": "nftIds",
              "type": "uint256[]"
            }
          ],
          "internalType": "struct NftStore.UserNfts[]",
          "name": "",
          "type": "tuple[]"
        }
      ],
      "stateMutability": "view",
      "type": "function"
    },
    {
      "inputs": [
        {
          "internalType": "address",
          "name": "_collectionAddress",
          "type": "address"
        }
      ],
      "name": "mint",
      "outputs": [],
      "stateMutability": "payable",
      "type": "function"
    },
    {
      "inputs": [
        {
          "internalType": "address",
          "name": "",
          "type": "address"
        }
      ],
      "name": "mysteryBoxCounter",
      "outputs": [
        {
          "internalType": "uint256",
          "name": "",
          "type": "uint256"
        }
      ],
      "stateMutability": "view",
      "type": "function"
    },
    {
      "inputs": [
        {
          "internalType": "address",
          "name": "",
          "type": "address"
        },
        {
          "internalType": "address",
          "name": "",
          "type": "address"
        }
      ],
      "name": "mysteryBoxUserCounter",
      "outputs": [
        {
          "internalType": "uint256",
          "name": "",
          "type": "uint256"
        }
      ],
      "stateMutability": "view",
      "type": "function"
    },
    {
      "inputs": [
        {
          "internalType": "address",
          "name": "",
          "type": "address"
        }
      ],
      "name": "nftCounter",
      "outputs": [
        {
          "internalType": "uint256",
          "name": "",
          "type": "uint256"
        }
      ],
      "stateMutability": "view",
      "type": "function"
    },
    {
      "inputs": [
        {
          "internalType": "uint256",
          "name": "requestId",
          "type": "uint256"
        },
        {
          "internalType": "uint256[]",
          "name": "randomWords",
          "type": "uint256[]"
        }
      ],
      "name": "rawFulfillRandomWords",
      "outputs": [],
      "stateMutability": "nonpayable",
      "type": "function"
    },
    {
      "inputs": [],
      "name": "s_requestId",
      "outputs": [
        {
          "internalType": "uint256",
          "name": "",
          "type": "uint256"
        }
      ],
      "stateMutability": "view",
      "type": "function"
    }
  ],
  "bytecode": "0x60a06040523480156200001157600080fd5b5060405162003343380380620033438339818101604052810190620000379190620004b1565b858073ffffffffffffffffffffffffffffffffffffffff1660808173ffffffffffffffffffffffffffffffffffffffff168152505050886000806101000a81548173ffffffffffffffffffffffffffffffffffffffff021916908373ffffffffffffffffffffffffffffffffffffffff16021790555087600b60006101000a81548173ffffffffffffffffffffffffffffffffffffffff021916908373ffffffffffffffffffffffffffffffffffffffff16021790555085600360006101000a81548173ffffffffffffffffffffffffffffffffffffffff021916908373ffffffffffffffffffffffffffffffffffffffff160217905550600360009054906101000a900473ffffffffffffffffffffffffffffffffffffffff16600160006101000a81548173ffffffffffffffffffffffffffffffffffffffff021916908373ffffffffffffffffffffffffffffffffffffffff16021790555084600460006101000a81548173ffffffffffffffffffffffffffffffffffffffff021916908373ffffffffffffffffffffffffffffffffffffffff1602179055508360058190555082600660006101000a81548163ffffffff021916908363ffffffff16021790555081600660046101000a81548161ffff021916908361ffff160217905550600460009054906101000a900473ffffffffffffffffffffffffffffffffffffffff16600260006101000a81548173ffffffffffffffffffffffffffffffffffffffff021916908373ffffffffffffffffffffffffffffffffffffffff16021790555086600260146101000a81548167ffffffffffffffff021916908367ffffffffffffffff16021790555066d529ae9e86000060088190555080600960006101000a81548173ffffffffffffffffffffffffffffffffffffffff021916908373ffffffffffffffffffffffffffffffffffffffff16021790555050505050505050505062000590565b600080fd5b600073ffffffffffffffffffffffffffffffffffffffff82169050919050565b6000620003348262000307565b9050919050565b620003468162000327565b81146200035257600080fd5b50565b60008151905062000366816200033b565b92915050565b600067ffffffffffffffff82169050919050565b6200038b816200036c565b81146200039757600080fd5b50565b600081519050620003ab8162000380565b92915050565b6000819050919050565b620003c681620003b1565b8114620003d257600080fd5b50565b600081519050620003e681620003bb565b92915050565b600063ffffffff82169050919050565b6200040781620003ec565b81146200041357600080fd5b50565b6000815190506200042781620003fc565b92915050565b600061ffff82169050919050565b62000446816200042d565b81146200045257600080fd5b50565b60008151905062000466816200043b565b92915050565b6000620004798262000307565b9050919050565b6200048b816200046c565b81146200049757600080fd5b50565b600081519050620004ab8162000480565b92915050565b60008060008060008060008060006101208a8c031215620004d757620004d662000302565b5b6000620004e78c828d0162000355565b9950506020620004fa8c828d0162000355565b98505060406200050d8c828d016200039a565b9750506060620005208c828d0162000355565b9650506080620005338c828d0162000355565b95505060a0620005468c828d01620003d5565b94505060c0620005598c828d0162000416565b93505060e06200056c8c828d0162000455565b925050610100620005808c828d016200049a565b9150509295985092959850929598565b608051612d90620005b360003960008181610316015261036a0152612d906000f3fe6080604052600436106100a75760003560e01c80638e15f473116100645780638e15f473146101e5578063948646eb14610210578063966dae0e1461022c5780639e6c520314610257578063c2507ac114610294578063e89e106a146102d1576100a7565b80630980ea8c146100ac5780631fe543e3146100e9578063236c1dd51461011257806359d0d0721461014f5780636a6278421461018c5780637908d009146101a8575b600080fd5b3480156100b857600080fd5b506100d360048036038101906100ce9190611b4e565b6102fc565b6040516100e09190611b94565b60405180910390f35b3480156100f557600080fd5b50610110600480360381019061010b9190611d34565b610314565b005b34801561011e57600080fd5b5061013960048036038101906101349190611d90565b6103d4565b6040516101469190611b94565b60405180910390f35b34801561015b57600080fd5b5061017660048036038101906101719190611b4e565b6103f9565b6040516101839190611ecc565b60405180910390f35b6101a660048036038101906101a19190611b4e565b610645565b005b3480156101b457600080fd5b506101cf60048036038101906101ca9190611b4e565b610d5c565b6040516101dc919061209c565b60405180910390f35b3480156101f157600080fd5b506101fa610fdd565b6040516102079190611b94565b60405180910390f35b61022a60048036038101906102259190611b4e565b61108b565b005b34801561023857600080fd5b5061024161166d565b60405161024e91906120cd565b60405180910390f35b34801561026357600080fd5b5061027e60048036038101906102799190611b4e565b611693565b60405161028b9190611b94565b60405180910390f35b3480156102a057600080fd5b506102bb60048036038101906102b691906120e8565b6116ab565b6040516102c89190611b94565b60405180910390f35b3480156102dd57600080fd5b506102e66116e8565b6040516102f39190611b94565b60405180910390f35b60126020528060005260406000206000915090505481565b7f000000000000000000000000000000000000000000000000000000000000000073ffffffffffffffffffffffffffffffffffffffff163373ffffffffffffffffffffffffffffffffffffffff16146103c657337f00000000000000000000000000000000000000000000000000000000000000006040517f1cf993f40000000000000000000000000000000000000000000000000000000081526004016103bd929190612115565b60405180910390fd5b6103d082826116ee565b5050565b600c602052816000526040600020602052806000526040600020600091509150505481565b60606000600f60008473ffffffffffffffffffffffffffffffffffffffff1673ffffffffffffffffffffffffffffffffffffffff1681526020019081526020016000208054806020026020016040519081016040528092919081815260200182805480156104bc57602002820191906000526020600020905b8160009054906101000a900473ffffffffffffffffffffffffffffffffffffffff1673ffffffffffffffffffffffffffffffffffffffff1681526020019060010190808311610472575b505050505090506000815167ffffffffffffffff8111156104e0576104df611bf1565b5b60405190808252806020026020018201604052801561051957816020015b610506611a7c565b8152602001906001900390816104fe5790505b50905060005b825181101561063a576000600c60008773ffffffffffffffffffffffffffffffffffffffff1673ffffffffffffffffffffffffffffffffffffffff168152602001908152602001600020600085848151811061057e5761057d61213e565b5b602002602001015173ffffffffffffffffffffffffffffffffffffffff1673ffffffffffffffffffffffffffffffffffffffff16815260200190815260200160002054905060405180604001604052808584815181106105e1576105e061213e565b5b602002602001015173ffffffffffffffffffffffffffffffffffffffff1681526020018281525083838151811061061b5761061a61213e565b5b60200260200101819052505080806106329061219c565b91505061051f565b508092505050919050565b6000600b60009054906101000a900473ffffffffffffffffffffffffffffffffffffffff1673ffffffffffffffffffffffffffffffffffffffff1663e40de887836040518263ffffffff1660e01b81526004016106a291906120cd565b60006040518083038186803b1580156106ba57600080fd5b505afa1580156106ce573d6000803e3d6000fd5b505050506040513d6000823e3d601f19601f820116820180604052508101906106f791906125b9565b90508060200151421161073f576040517f08c379a000000000000000000000000000000000000000000000000000000000815260040161073690612685565b60405180910390fd5b601160008373ffffffffffffffffffffffffffffffffffffffff1673ffffffffffffffffffffffffffffffffffffffff16815260200190815260200160002054816060015161ffff1661079291906126a5565b601260008473ffffffffffffffffffffffffffffffffffffffff1673ffffffffffffffffffffffffffffffffffffffff1681526020019081526020016000205410610812576040517f08c379a00000000000000000000000000000000000000000000000000000000081526004016108099061276d565b60405180910390fd5b6000600c60003373ffffffffffffffffffffffffffffffffffffffff1673ffffffffffffffffffffffffffffffffffffffff16815260200190815260200160002060008473ffffffffffffffffffffffffffffffffffffffff1673ffffffffffffffffffffffffffffffffffffffff168152602001908152602001600020541415610a445760006108a1610fdd565b620f4240670de0b6b3a76400008460e001516108bd919061278d565b6108c7919061278d565b6108d19190612816565b905034600854826108e291906126a5565b1115610923576040517f08c379a000000000000000000000000000000000000000000000000000000000815260040161091a906128b9565b60405180910390fd5b60008260a0015190508073ffffffffffffffffffffffffffffffffffffffff166108fc839081150290604051600060405180830381858888f19350505050158015610972573d6000803e3d6000fd5b50600960009054906101000a900473ffffffffffffffffffffffffffffffffffffffff1673ffffffffffffffffffffffffffffffffffffffff166108fc6008549081150290604051600060405180830381858888f193505050501580156109dd573d6000803e3d6000fd5b503373ffffffffffffffffffffffffffffffffffffffff166108fc6008548434610a0791906128d9565b610a1191906128d9565b9081150290604051600060405180830381858888f19350505050158015610a3c573d6000803e3d6000fd5b505050610b2c565b600c60003373ffffffffffffffffffffffffffffffffffffffff1673ffffffffffffffffffffffffffffffffffffffff16815260200190815260200160002060008373ffffffffffffffffffffffffffffffffffffffff1673ffffffffffffffffffffffffffffffffffffffff1681526020019081526020016000206000815480929190610ad19061290d565b9190505550601160008373ffffffffffffffffffffffffffffffffffffffff1673ffffffffffffffffffffffffffffffffffffffff1681526020019081526020016000206000815480929190610b269061290d565b91905055505b601260008373ffffffffffffffffffffffffffffffffffffffff1673ffffffffffffffffffffffffffffffffffffffff1681526020019081526020016000206000815480929190610b7c9061219c565b9190505550610b8c6001836118db565b60001515600e60003373ffffffffffffffffffffffffffffffffffffffff1673ffffffffffffffffffffffffffffffffffffffff16815260200190815260200160002060008473ffffffffffffffffffffffffffffffffffffffff1673ffffffffffffffffffffffffffffffffffffffff16815260200190815260200160002060009054906101000a900460ff1615151415610d58576001600e60003373ffffffffffffffffffffffffffffffffffffffff1673ffffffffffffffffffffffffffffffffffffffff16815260200190815260200160002060008473ffffffffffffffffffffffffffffffffffffffff1673ffffffffffffffffffffffffffffffffffffffff16815260200190815260200160002060006101000a81548160ff021916908315150217905550601060003373ffffffffffffffffffffffffffffffffffffffff1673ffffffffffffffffffffffffffffffffffffffff168152602001908152602001600020829080600181540180825580915050600190039060005260206000200160009091909190916101000a81548173ffffffffffffffffffffffffffffffffffffffff021916908373ffffffffffffffffffffffffffffffffffffffff1602179055505b5050565b60606000601060008473ffffffffffffffffffffffffffffffffffffffff1673ffffffffffffffffffffffffffffffffffffffff168152602001908152602001600020805480602002602001604051908101604052809291908181526020018280548015610e1f57602002820191906000526020600020905b8160009054906101000a900473ffffffffffffffffffffffffffffffffffffffff1673ffffffffffffffffffffffffffffffffffffffff1681526020019060010190808311610dd5575b505050505090506000815167ffffffffffffffff811115610e4357610e42611bf1565b5b604051908082528060200260200182016040528015610e7c57816020015b610e69611aac565b815260200190600190039081610e615790505b50905060005b8251811015610fd2576000600b60009054906101000a900473ffffffffffffffffffffffffffffffffffffffff1673ffffffffffffffffffffffffffffffffffffffff16639ade031987868581518110610edf57610ede61213e565b5b60200260200101516040518363ffffffff1660e01b8152600401610f04929190612115565b60006040518083038186803b158015610f1c57600080fd5b505afa158015610f30573d6000803e3d6000fd5b505050506040513d6000823e3d601f19601f82011682018060405250810190610f5991906129ce565b90506040518060400160405280858481518110610f7957610f7861213e565b5b602002602001015173ffffffffffffffffffffffffffffffffffffffff16815260200182815250838381518110610fb357610fb261213e565b5b6020026020010181905250508080610fca9061219c565b915050610e82565b508092505050919050565b60008060008054906101000a900473ffffffffffffffffffffffffffffffffffffffff1673ffffffffffffffffffffffffffffffffffffffff1663feaf968c6040518163ffffffff1660e01b815260040160a06040518083038186803b15801561104657600080fd5b505afa15801561105a573d6000803e3d6000fd5b505050506040513d601f19601f8201168201806040525081019061107e9190612a8f565b5050509150508091505090565b6000600b60009054906101000a900473ffffffffffffffffffffffffffffffffffffffff1673ffffffffffffffffffffffffffffffffffffffff1663e40de887836040518263ffffffff1660e01b81526004016110e891906120cd565b60006040518083038186803b15801561110057600080fd5b505afa158015611114573d6000803e3d6000fd5b505050506040513d6000823e3d601f19601f8201168201806040525081019061113d91906125b9565b9050806040015161ffff16601160008473ffffffffffffffffffffffffffffffffffffffff1673ffffffffffffffffffffffffffffffffffffffff16815260200190815260200160002054106111c8576040517f08c379a00000000000000000000000000000000000000000000000000000000081526004016111bf90612b7c565b60405180910390fd5b8060200151421061120e576040517f08c379a000000000000000000000000000000000000000000000000000000000815260040161120590612be8565b60405180910390fd5b6000611218610fdd565b620f4240670de0b6b3a76400008460c00151611234919061278d565b61123e919061278d565b6112489190612816565b9050346008548261125991906126a5565b111561129a576040517f08c379a0000000000000000000000000000000000000000000000000000000008152600401611291906128b9565b60405180910390fd5b60008260a0015190508073ffffffffffffffffffffffffffffffffffffffff166108fc839081150290604051600060405180830381858888f193505050501580156112e9573d6000803e3d6000fd5b50600960009054906101000a900473ffffffffffffffffffffffffffffffffffffffff1673ffffffffffffffffffffffffffffffffffffffff166108fc6008549081150290604051600060405180830381858888f19350505050158015611354573d6000803e3d6000fd5b503373ffffffffffffffffffffffffffffffffffffffff166108fc600854843461137e91906128d9565b61138891906128d9565b9081150290604051600060405180830381858888f193505050501580156113b3573d6000803e3d6000fd5b50600c60003373ffffffffffffffffffffffffffffffffffffffff1673ffffffffffffffffffffffffffffffffffffffff16815260200190815260200160002060008573ffffffffffffffffffffffffffffffffffffffff1673ffffffffffffffffffffffffffffffffffffffff16815260200190815260200160002060008154809291906114419061219c565b9190505550601160008573ffffffffffffffffffffffffffffffffffffffff1673ffffffffffffffffffffffffffffffffffffffff16815260200190815260200160002060008154809291906114969061219c565b919050555060001515600d60003373ffffffffffffffffffffffffffffffffffffffff1673ffffffffffffffffffffffffffffffffffffffff16815260200190815260200160002060008673ffffffffffffffffffffffffffffffffffffffff1673ffffffffffffffffffffffffffffffffffffffff16815260200190815260200160002060009054906101000a900460ff1615151415611667576001600d60003373ffffffffffffffffffffffffffffffffffffffff1673ffffffffffffffffffffffffffffffffffffffff16815260200190815260200160002060008673ffffffffffffffffffffffffffffffffffffffff1673ffffffffffffffffffffffffffffffffffffffff16815260200190815260200160002060006101000a81548160ff021916908315150217905550600f60003373ffffffffffffffffffffffffffffffffffffffff1673ffffffffffffffffffffffffffffffffffffffff168152602001908152602001600020849080600181540180825580915050600190039060005260206000200160009091909190916101000a81548173ffffffffffffffffffffffffffffffffffffffff021916908373ffffffffffffffffffffffffffffffffffffffff1602179055505b50505050565b600a60009054906101000a900473ffffffffffffffffffffffffffffffffffffffff1681565b60116020528060005260406000206000915090505481565b60006116b5610fdd565b620f4240670de0b6b3a7640000846116cd919061278d565b6116d7919061278d565b6116e19190612816565b9050919050565b60075481565b60006013600084815260200190815260200160002060009054906101000a900473ffffffffffffffffffffffffffffffffffffffff16905060006014600085815260200190815260200160002060009054906101000a900473ffffffffffffffffffffffffffffffffffffffff1690506000600b60009054906101000a900473ffffffffffffffffffffffffffffffffffffffff1673ffffffffffffffffffffffffffffffffffffffff1663e40de887836040518263ffffffff1660e01b81526004016117bb91906120cd565b60006040518083038186803b1580156117d357600080fd5b505afa1580156117e7573d6000803e3d6000fd5b505050506040513d6000823e3d601f19601f8201168201806040525081019061181091906125b9565b608001515190506000818560008151811061182e5761182d61213e565b5b60200260200101516118409190612c08565b9050600b60009054906101000a900473ffffffffffffffffffffffffffffffffffffffff1673ffffffffffffffffffffffffffffffffffffffff166324408fe88486846040518463ffffffff1660e01b81526004016118a193929190612c48565b600060405180830381600087803b1580156118bb57600080fd5b505af11580156118cf573d6000803e3d6000fd5b50505050505050505050565b600160009054906101000a900473ffffffffffffffffffffffffffffffffffffffff1673ffffffffffffffffffffffffffffffffffffffff16635d3b1d30600554600260149054906101000a900467ffffffffffffffff16600660049054906101000a900461ffff16600660009054906101000a900463ffffffff16876040518663ffffffff1660e01b8152600401611978959493929190612cda565b602060405180830381600087803b15801561199257600080fd5b505af11580156119a6573d6000803e3d6000fd5b505050506040513d601f19601f820116820180604052508101906119ca9190612d2d565b6007819055503360136000600754815260200190815260200160002060006101000a81548173ffffffffffffffffffffffffffffffffffffffff021916908373ffffffffffffffffffffffffffffffffffffffff1602179055508060146000600754815260200190815260200160002060006101000a81548173ffffffffffffffffffffffffffffffffffffffff021916908373ffffffffffffffffffffffffffffffffffffffff1602179055505050565b6040518060400160405280600073ffffffffffffffffffffffffffffffffffffffff168152602001600081525090565b6040518060400160405280600073ffffffffffffffffffffffffffffffffffffffff168152602001606081525090565b6000604051905090565b600080fd5b600080fd5b600073ffffffffffffffffffffffffffffffffffffffff82169050919050565b6000611b1b82611af0565b9050919050565b611b2b81611b10565b8114611b3657600080fd5b50565b600081359050611b4881611b22565b92915050565b600060208284031215611b6457611b63611ae6565b5b6000611b7284828501611b39565b91505092915050565b6000819050919050565b611b8e81611b7b565b82525050565b6000602082019050611ba96000830184611b85565b92915050565b611bb881611b7b565b8114611bc357600080fd5b50565b600081359050611bd581611baf565b92915050565b600080fd5b6000601f19601f8301169050919050565b7f4e487b7100000000000000000000000000000000000000000000000000000000600052604160045260246000fd5b611c2982611be0565b810181811067ffffffffffffffff82111715611c4857611c47611bf1565b5b80604052505050565b6000611c5b611adc565b9050611c678282611c20565b919050565b600067ffffffffffffffff821115611c8757611c86611bf1565b5b602082029050602081019050919050565b600080fd5b6000611cb0611cab84611c6c565b611c51565b90508083825260208201905060208402830185811115611cd357611cd2611c98565b5b835b81811015611cfc5780611ce88882611bc6565b845260208401935050602081019050611cd5565b5050509392505050565b600082601f830112611d1b57611d1a611bdb565b5b8135611d2b848260208601611c9d565b91505092915050565b60008060408385031215611d4b57611d4a611ae6565b5b6000611d5985828601611bc6565b925050602083013567ffffffffffffffff811115611d7a57611d79611aeb565b5b611d8685828601611d06565b9150509250929050565b60008060408385031215611da757611da6611ae6565b5b6000611db585828601611b39565b9250506020611dc685828601611b39565b9150509250929050565b600081519050919050565b600082825260208201905092915050565b6000819050602082019050919050565b611e0581611b10565b82525050565b611e1481611b7b565b82525050565b604082016000820151611e306000850182611dfc565b506020820151611e436020850182611e0b565b50505050565b6000611e558383611e1a565b60408301905092915050565b6000602082019050919050565b6000611e7982611dd0565b611e838185611ddb565b9350611e8e83611dec565b8060005b83811015611ebf578151611ea68882611e49565b9750611eb183611e61565b925050600181019050611e92565b5085935050505092915050565b60006020820190508181036000830152611ee68184611e6e565b905092915050565b600081519050919050565b600082825260208201905092915050565b6000819050602082019050919050565b600081519050919050565b600082825260208201905092915050565b6000819050602082019050919050565b6000611f528383611e0b565b60208301905092915050565b6000602082019050919050565b6000611f7682611f1a565b611f808185611f25565b9350611f8b83611f36565b8060005b83811015611fbc578151611fa38882611f46565b9750611fae83611f5e565b925050600181019050611f8f565b5085935050505092915050565b6000604083016000830151611fe16000860182611dfc565b5060208301518482036020860152611ff98282611f6b565b9150508091505092915050565b60006120128383611fc9565b905092915050565b6000602082019050919050565b600061203282611eee565b61203c8185611ef9565b93508360208202850161204e85611f0a565b8060005b8581101561208a578484038952815161206b8582612006565b94506120768361201a565b925060208a01995050600181019050612052565b50829750879550505050505092915050565b600060208201905081810360008301526120b68184612027565b905092915050565b6120c781611b10565b82525050565b60006020820190506120e260008301846120be565b92915050565b6000602082840312156120fe576120fd611ae6565b5b600061210c84828501611bc6565b91505092915050565b600060408201905061212a60008301856120be565b61213760208301846120be565b9392505050565b7f4e487b7100000000000000000000000000000000000000000000000000000000600052603260045260246000fd5b7f4e487b7100000000000000000000000000000000000000000000000000000000600052601160045260246000fd5b60006121a782611b7b565b91507fffffffffffffffffffffffffffffffffffffffffffffffffffffffffffffffff8214156121da576121d961216d565b5b600182019050919050565b600080fd5b600080fd5b6000815190506121fe81611b22565b92915050565b60008151905061221381611baf565b92915050565b600061ffff82169050919050565b61223081612219565b811461223b57600080fd5b50565b60008151905061224d81612227565b92915050565b600067ffffffffffffffff82111561226e5761226d611bf1565b5b602082029050602081019050919050565b600061229261228d84612253565b611c51565b905080838252602082019050602084028301858111156122b5576122b4611c98565b5b835b818110156122de57806122ca888261223e565b8452602084019350506020810190506122b7565b5050509392505050565b600082601f8301126122fd576122fc611bdb565b5b815161230d84826020860161227f565b91505092915050565b60008115159050919050565b61232b81612316565b811461233657600080fd5b50565b60008151905061234881612322565b92915050565b600080fd5b600067ffffffffffffffff82111561236e5761236d611bf1565b5b61237782611be0565b9050602081019050919050565b60005b838110156123a2578082015181840152602081019050612387565b838111156123b1576000848401525b50505050565b60006123ca6123c584612353565b611c51565b9050828152602081018484840111156123e6576123e561234e565b5b6123f1848285612384565b509392505050565b600082601f83011261240e5761240d611bdb565b5b815161241e8482602086016123b7565b91505092915050565b6000610180828403121561243e5761243d6121e5565b5b612449610180611c51565b90506000612459848285016121ef565b600083015250602061246d84828501612204565b60208301525060406124818482850161223e565b60408301525060606124958482850161223e565b606083015250608082015167ffffffffffffffff8111156124b9576124b86121ea565b5b6124c5848285016122e8565b60808301525060a06124d9848285016121ef565b60a08301525060c06124ed84828501612204565b60c08301525060e061250184828501612204565b60e08301525061010061251684828501612339565b6101008301525061012082015167ffffffffffffffff81111561253c5761253b6121ea565b5b612548848285016123f9565b6101208301525061014082015167ffffffffffffffff81111561256e5761256d6121ea565b5b61257a848285016123f9565b6101408301525061016082015167ffffffffffffffff8111156125a05761259f6121ea565b5b6125ac848285016123f9565b6101608301525092915050565b6000602082840312156125cf576125ce611ae6565b5b600082015167ffffffffffffffff8111156125ed576125ec611aeb565b5b6125f984828501612427565b91505092915050565b600082825260208201905092915050565b7f4e667453746f72653a204e46542063616e6e6f74206265206d696e746564206460008201527f7572696e672070726573616c6500000000000000000000000000000000000000602082015250565b600061266f602d83612602565b915061267a82612613565b604082019050919050565b6000602082019050818103600083015261269e81612662565b9050919050565b60006126b082611b7b565b91506126bb83611b7b565b9250827fffffffffffffffffffffffffffffffffffffffffffffffffffffffffffffffff038211156126f0576126ef61216d565b5b828201905092915050565b7f4e667453746f72653a20616c6c204e4654207765726520616c7265616479207360008201527f6f6c640000000000000000000000000000000000000000000000000000000000602082015250565b6000612757602383612602565b9150612762826126fb565b604082019050919050565b600060208201905081810360008301526127868161274a565b9050919050565b600061279882611b7b565b91506127a383611b7b565b9250817fffffffffffffffffffffffffffffffffffffffffffffffffffffffffffffffff04831182151516156127dc576127db61216d565b5b828202905092915050565b7f4e487b7100000000000000000000000000000000000000000000000000000000600052601260045260246000fd5b600061282182611b7b565b915061282c83611b7b565b92508261283c5761283b6127e7565b5b828204905092915050565b7f4e667453746f72653a2074686520616d6f756e74207061696420646964206e6f60008201527f7420636f76657220746865207072696365000000000000000000000000000000602082015250565b60006128a3603183612602565b91506128ae82612847565b604082019050919050565b600060208201905081810360008301526128d281612896565b9050919050565b60006128e482611b7b565b91506128ef83611b7b565b9250828210156129025761290161216d565b5b828203905092915050565b600061291882611b7b565b9150600082141561292c5761292b61216d565b5b600182039050919050565b600061294a61294584611c6c565b611c51565b9050808382526020820190506020840283018581111561296d5761296c611c98565b5b835b8181101561299657806129828882612204565b84526020840193505060208101905061296f565b5050509392505050565b600082601f8301126129b5576129b4611bdb565b5b81516129c5848260208601612937565b91505092915050565b6000602082840312156129e4576129e3611ae6565b5b600082015167ffffffffffffffff811115612a0257612a01611aeb565b5b612a0e848285016129a0565b91505092915050565b600069ffffffffffffffffffff82169050919050565b612a3681612a17565b8114612a4157600080fd5b50565b600081519050612a5381612a2d565b92915050565b6000819050919050565b612a6c81612a59565b8114612a7757600080fd5b50565b600081519050612a8981612a63565b92915050565b600080600080600060a08688031215612aab57612aaa611ae6565b5b6000612ab988828901612a44565b9550506020612aca88828901612a7a565b9450506040612adb88828901612204565b9350506060612aec88828901612204565b9250506080612afd88828901612a44565b9150509295509295909350565b7f4e667453746f72653a20616c6c204d79737465727920426f786573207765726560008201527f20616c726561647920736f6c6400000000000000000000000000000000000000602082015250565b6000612b66602d83612602565b9150612b7182612b0a565b604082019050919050565b60006020820190508181036000830152612b9581612b59565b9050919050565b7f4e667453746f72653a2070726573616c65206973206f76657200000000000000600082015250565b6000612bd2601983612602565b9150612bdd82612b9c565b602082019050919050565b60006020820190508181036000830152612c0181612bc5565b9050919050565b6000612c1382611b7b565b9150612c1e83611b7b565b925082612c2e57612c2d6127e7565b5b828206905092915050565b612c4281612219565b82525050565b6000606082019050612c5d60008301866120be565b612c6a60208301856120be565b612c776040830184612c39565b949350505050565b6000819050919050565b612c9281612c7f565b82525050565b600067ffffffffffffffff82169050919050565b612cb581612c98565b82525050565b600063ffffffff82169050919050565b612cd481612cbb565b82525050565b600060a082019050612cef6000830188612c89565b612cfc6020830187612cac565b612d096040830186612c39565b612d166060830185612ccb565b612d236080830184612ccb565b9695505050505050565b600060208284031215612d4357612d42611ae6565b5b6000612d5184828501612204565b9150509291505056fea264697066735822122087729af82a47eb616b03e4d266685ac13cb901657a7fd778e5cb09efaf3a258c64736f6c63430008090033",
  "linkReferences": {},
  "deployedLinkReferences": {}
}