{
  "_format": "hh-sol-artifact-1",
  "contractName": "NftStore",
  "sourceName": "src/contracts/NftStore.sol",
  "abi": [
    {
      "inputs": [
        {
          "internalType": "address",
          "name": "_priceFeedAddress",
          "type": "address"
        },
        {
          "internalType": "address",
          "name": "_factoryAddress",
          "type": "address"
        },
        {
          "internalType": "uint64",
          "name": "subscriptionId",
          "type": "uint64"
        },
        {
          "internalType": "address",
          "name": "_vrfCoordinator",
          "type": "address"
        },
        {
          "internalType": "address",
          "name": "_link",
          "type": "address"
        },
        {
          "internalType": "bytes32",
          "name": "_keyHash",
          "type": "bytes32"
        },
        {
          "internalType": "uint32",
          "name": "_callbackGasLimit",
          "type": "uint32"
        },
        {
          "internalType": "uint16",
          "name": "_requestConfirmations",
          "type": "uint16"
        },
        {
          "internalType": "address payable",
          "name": "_admin",
          "type": "address"
        }
      ],
      "stateMutability": "nonpayable",
      "type": "constructor"
    },
    {
      "inputs": [
        {
          "internalType": "address",
          "name": "have",
          "type": "address"
        },
        {
          "internalType": "address",
          "name": "want",
          "type": "address"
        }
      ],
      "name": "OnlyCoordinatorCanFulfill",
      "type": "error"
    },
    {
      "inputs": [
        {
          "internalType": "address",
          "name": "_collectionAddress",
          "type": "address"
        }
      ],
      "name": "buyMysteryBox",
      "outputs": [],
      "stateMutability": "payable",
      "type": "function"
    },
    {
      "inputs": [],
      "name": "factoryAddress",
      "outputs": [
        {
          "internalType": "address",
          "name": "",
          "type": "address"
        }
      ],
      "stateMutability": "view",
      "type": "function"
    },
    {
      "inputs": [],
      "name": "getLatestPrice",
      "outputs": [
        {
          "internalType": "uint256",
          "name": "",
          "type": "uint256"
        }
      ],
      "stateMutability": "view",
      "type": "function"
    },
    {
      "inputs": [
        {
          "internalType": "uint256",
          "name": "_usdAmount",
          "type": "uint256"
        }
      ],
      "name": "getTokenAmount",
      "outputs": [
        {
          "internalType": "uint256",
          "name": "",
          "type": "uint256"
        }
      ],
      "stateMutability": "view",
      "type": "function"
    },
    {
      "inputs": [
        {
          "internalType": "address",
          "name": "_user",
          "type": "address"
        }
      ],
      "name": "getUserMysteryBoxes",
      "outputs": [
        {
          "components": [
            {
              "internalType": "address",
              "name": "collectionAddres",
              "type": "address"
            },
            {
              "internalType": "uint256",
              "name": "counter",
              "type": "uint256"
            }
          ],
          "internalType": "struct NftStore.UserMysteryBoxes[]",
          "name": "",
          "type": "tuple[]"
        }
      ],
      "stateMutability": "view",
      "type": "function"
    },
    {
      "inputs": [
        {
          "internalType": "address",
          "name": "_user",
          "type": "address"
        }
      ],
      "name": "getUserNfts",
      "outputs": [
        {
          "components": [
            {
              "internalType": "address",
              "name": "collectionAddres",
              "type": "address"
            },
            {
              "internalType": "uint256[]",
              "name": "nftIds",
              "type": "uint256[]"
            }
          ],
          "internalType": "struct NftStore.UserNfts[]",
          "name": "",
          "type": "tuple[]"
        }
      ],
      "stateMutability": "view",
      "type": "function"
    },
    {
      "inputs": [
        {
          "internalType": "address",
          "name": "_collectionAddress",
          "type": "address"
        }
      ],
      "name": "mint",
      "outputs": [],
      "stateMutability": "payable",
      "type": "function"
    },
    {
      "inputs": [
        {
          "internalType": "address",
          "name": "",
          "type": "address"
        }
      ],
      "name": "mysteryBoxCounter",
      "outputs": [
        {
          "internalType": "uint256",
          "name": "",
          "type": "uint256"
        }
      ],
      "stateMutability": "view",
      "type": "function"
    },
    {
      "inputs": [
        {
          "internalType": "address",
          "name": "",
          "type": "address"
        },
        {
          "internalType": "address",
          "name": "",
          "type": "address"
        }
      ],
      "name": "mysteryBoxUserCounter",
      "outputs": [
        {
          "internalType": "uint256",
          "name": "",
          "type": "uint256"
        }
      ],
      "stateMutability": "view",
      "type": "function"
    },
    {
      "inputs": [
        {
          "internalType": "address",
          "name": "",
          "type": "address"
        }
      ],
      "name": "nftCounter",
      "outputs": [
        {
          "internalType": "uint256",
          "name": "",
          "type": "uint256"
        }
      ],
      "stateMutability": "view",
      "type": "function"
    },
    {
      "inputs": [
        {
          "internalType": "uint256",
          "name": "requestId",
          "type": "uint256"
        },
        {
          "internalType": "uint256[]",
          "name": "randomWords",
          "type": "uint256[]"
        }
      ],
      "name": "rawFulfillRandomWords",
      "outputs": [],
      "stateMutability": "nonpayable",
      "type": "function"
    },
    {
      "inputs": [],
      "name": "s_requestId",
      "outputs": [
        {
          "internalType": "uint256",
          "name": "",
          "type": "uint256"
        }
      ],
      "stateMutability": "view",
      "type": "function"
    }
  ],
  "bytecode": "0x60a06040523480156200001157600080fd5b506040516200336b3803806200336b8339818101604052810190620000379190620004b1565b858073ffffffffffffffffffffffffffffffffffffffff1660808173ffffffffffffffffffffffffffffffffffffffff168152505050886000806101000a81548173ffffffffffffffffffffffffffffffffffffffff021916908373ffffffffffffffffffffffffffffffffffffffff16021790555087600b60006101000a81548173ffffffffffffffffffffffffffffffffffffffff021916908373ffffffffffffffffffffffffffffffffffffffff16021790555085600360006101000a81548173ffffffffffffffffffffffffffffffffffffffff021916908373ffffffffffffffffffffffffffffffffffffffff160217905550600360009054906101000a900473ffffffffffffffffffffffffffffffffffffffff16600160006101000a81548173ffffffffffffffffffffffffffffffffffffffff021916908373ffffffffffffffffffffffffffffffffffffffff16021790555084600460006101000a81548173ffffffffffffffffffffffffffffffffffffffff021916908373ffffffffffffffffffffffffffffffffffffffff1602179055508360058190555082600660006101000a81548163ffffffff021916908363ffffffff16021790555081600660046101000a81548161ffff021916908361ffff160217905550600460009054906101000a900473ffffffffffffffffffffffffffffffffffffffff16600260006101000a81548173ffffffffffffffffffffffffffffffffffffffff021916908373ffffffffffffffffffffffffffffffffffffffff16021790555086600260146101000a81548167ffffffffffffffff021916908367ffffffffffffffff16021790555066d529ae9e86000060088190555080600960006101000a81548173ffffffffffffffffffffffffffffffffffffffff021916908373ffffffffffffffffffffffffffffffffffffffff16021790555050505050505050505062000590565b600080fd5b600073ffffffffffffffffffffffffffffffffffffffff82169050919050565b6000620003348262000307565b9050919050565b620003468162000327565b81146200035257600080fd5b50565b60008151905062000366816200033b565b92915050565b600067ffffffffffffffff82169050919050565b6200038b816200036c565b81146200039757600080fd5b50565b600081519050620003ab8162000380565b92915050565b6000819050919050565b620003c681620003b1565b8114620003d257600080fd5b50565b600081519050620003e681620003bb565b92915050565b600063ffffffff82169050919050565b6200040781620003ec565b81146200041357600080fd5b50565b6000815190506200042781620003fc565b92915050565b600061ffff82169050919050565b62000446816200042d565b81146200045257600080fd5b50565b60008151905062000466816200043b565b92915050565b6000620004798262000307565b9050919050565b6200048b816200046c565b81146200049757600080fd5b50565b600081519050620004ab8162000480565b92915050565b60008060008060008060008060006101208a8c031215620004d757620004d662000302565b5b6000620004e78c828d0162000355565b9950506020620004fa8c828d0162000355565b98505060406200050d8c828d016200039a565b9750506060620005208c828d0162000355565b9650506080620005338c828d0162000355565b95505060a0620005468c828d01620003d5565b94505060c0620005598c828d0162000416565b93505060e06200056c8c828d0162000455565b925050610100620005808c828d016200049a565b9150509295985092959850929598565b608051612db8620005b360003960008181610316015261036a0152612db86000f3fe6080604052600436106100a75760003560e01c80638e15f473116100645780638e15f473146101e5578063948646eb14610210578063966dae0e1461022c5780639e6c520314610257578063c2507ac114610294578063e89e106a146102d1576100a7565b80630980ea8c146100ac5780631fe543e3146100e9578063236c1dd51461011257806359d0d0721461014f5780636a6278421461018c5780637908d009146101a8575b600080fd5b3480156100b857600080fd5b506100d360048036038101906100ce9190611b76565b6102fc565b6040516100e09190611bbc565b60405180910390f35b3480156100f557600080fd5b50610110600480360381019061010b9190611d5c565b610314565b005b34801561011e57600080fd5b5061013960048036038101906101349190611db8565b6103d4565b6040516101469190611bbc565b60405180910390f35b34801561015b57600080fd5b5061017660048036038101906101719190611b76565b6103f9565b6040516101839190611ef4565b60405180910390f35b6101a660048036038101906101a19190611b76565b610645565b005b3480156101b457600080fd5b506101cf60048036038101906101ca9190611b76565b610d5c565b6040516101dc91906120c4565b60405180910390f35b3480156101f157600080fd5b506101fa610fdd565b6040516102079190611bbc565b60405180910390f35b61022a60048036038101906102259190611b76565b61108b565b005b34801561023857600080fd5b5061024161166d565b60405161024e91906120f5565b60405180910390f35b34801561026357600080fd5b5061027e60048036038101906102799190611b76565b611693565b60405161028b9190611bbc565b60405180910390f35b3480156102a057600080fd5b506102bb60048036038101906102b69190612110565b6116ab565b6040516102c89190611bbc565b60405180910390f35b3480156102dd57600080fd5b506102e6611710565b6040516102f39190611bbc565b60405180910390f35b60126020528060005260406000206000915090505481565b7f000000000000000000000000000000000000000000000000000000000000000073ffffffffffffffffffffffffffffffffffffffff163373ffffffffffffffffffffffffffffffffffffffff16146103c657337f00000000000000000000000000000000000000000000000000000000000000006040517f1cf993f40000000000000000000000000000000000000000000000000000000081526004016103bd92919061213d565b60405180910390fd5b6103d08282611716565b5050565b600c602052816000526040600020602052806000526040600020600091509150505481565b60606000600f60008473ffffffffffffffffffffffffffffffffffffffff1673ffffffffffffffffffffffffffffffffffffffff1681526020019081526020016000208054806020026020016040519081016040528092919081815260200182805480156104bc57602002820191906000526020600020905b8160009054906101000a900473ffffffffffffffffffffffffffffffffffffffff1673ffffffffffffffffffffffffffffffffffffffff1681526020019060010190808311610472575b505050505090506000815167ffffffffffffffff8111156104e0576104df611c19565b5b60405190808252806020026020018201604052801561051957816020015b610506611aa4565b8152602001906001900390816104fe5790505b50905060005b825181101561063a576000600c60008773ffffffffffffffffffffffffffffffffffffffff1673ffffffffffffffffffffffffffffffffffffffff168152602001908152602001600020600085848151811061057e5761057d612166565b5b602002602001015173ffffffffffffffffffffffffffffffffffffffff1673ffffffffffffffffffffffffffffffffffffffff16815260200190815260200160002054905060405180604001604052808584815181106105e1576105e0612166565b5b602002602001015173ffffffffffffffffffffffffffffffffffffffff1681526020018281525083838151811061061b5761061a612166565b5b6020026020010181905250508080610632906121c4565b91505061051f565b508092505050919050565b6000600b60009054906101000a900473ffffffffffffffffffffffffffffffffffffffff1673ffffffffffffffffffffffffffffffffffffffff1663e40de887836040518263ffffffff1660e01b81526004016106a291906120f5565b60006040518083038186803b1580156106ba57600080fd5b505afa1580156106ce573d6000803e3d6000fd5b505050506040513d6000823e3d601f19601f820116820180604052508101906106f791906125e1565b90508060200151421161073f576040517f08c379a0000000000000000000000000000000000000000000000000000000008152600401610736906126ad565b60405180910390fd5b601160008373ffffffffffffffffffffffffffffffffffffffff1673ffffffffffffffffffffffffffffffffffffffff16815260200190815260200160002054816060015161ffff1661079291906126cd565b601260008473ffffffffffffffffffffffffffffffffffffffff1673ffffffffffffffffffffffffffffffffffffffff1681526020019081526020016000205410610812576040517f08c379a000000000000000000000000000000000000000000000000000000000815260040161080990612795565b60405180910390fd5b6000600c60003373ffffffffffffffffffffffffffffffffffffffff1673ffffffffffffffffffffffffffffffffffffffff16815260200190815260200160002060008473ffffffffffffffffffffffffffffffffffffffff1673ffffffffffffffffffffffffffffffffffffffff168152602001908152602001600020541415610a445760006108a1610fdd565b620f4240670de0b6b3a76400008460e001516108bd91906127b5565b6108c791906127b5565b6108d1919061283e565b905034600854826108e291906126cd565b1115610923576040517f08c379a000000000000000000000000000000000000000000000000000000000815260040161091a906128e1565b60405180910390fd5b60008260a0015190508073ffffffffffffffffffffffffffffffffffffffff166108fc839081150290604051600060405180830381858888f19350505050158015610972573d6000803e3d6000fd5b50600960009054906101000a900473ffffffffffffffffffffffffffffffffffffffff1673ffffffffffffffffffffffffffffffffffffffff166108fc6008549081150290604051600060405180830381858888f193505050501580156109dd573d6000803e3d6000fd5b503373ffffffffffffffffffffffffffffffffffffffff166108fc6008548434610a079190612901565b610a119190612901565b9081150290604051600060405180830381858888f19350505050158015610a3c573d6000803e3d6000fd5b505050610b2c565b600c60003373ffffffffffffffffffffffffffffffffffffffff1673ffffffffffffffffffffffffffffffffffffffff16815260200190815260200160002060008373ffffffffffffffffffffffffffffffffffffffff1673ffffffffffffffffffffffffffffffffffffffff1681526020019081526020016000206000815480929190610ad190612935565b9190505550601160008373ffffffffffffffffffffffffffffffffffffffff1673ffffffffffffffffffffffffffffffffffffffff1681526020019081526020016000206000815480929190610b2690612935565b91905055505b601260008373ffffffffffffffffffffffffffffffffffffffff1673ffffffffffffffffffffffffffffffffffffffff1681526020019081526020016000206000815480929190610b7c906121c4565b9190505550610b8c600183611903565b60001515600e60003373ffffffffffffffffffffffffffffffffffffffff1673ffffffffffffffffffffffffffffffffffffffff16815260200190815260200160002060008473ffffffffffffffffffffffffffffffffffffffff1673ffffffffffffffffffffffffffffffffffffffff16815260200190815260200160002060009054906101000a900460ff1615151415610d58576001600e60003373ffffffffffffffffffffffffffffffffffffffff1673ffffffffffffffffffffffffffffffffffffffff16815260200190815260200160002060008473ffffffffffffffffffffffffffffffffffffffff1673ffffffffffffffffffffffffffffffffffffffff16815260200190815260200160002060006101000a81548160ff021916908315150217905550601060003373ffffffffffffffffffffffffffffffffffffffff1673ffffffffffffffffffffffffffffffffffffffff168152602001908152602001600020829080600181540180825580915050600190039060005260206000200160009091909190916101000a81548173ffffffffffffffffffffffffffffffffffffffff021916908373ffffffffffffffffffffffffffffffffffffffff1602179055505b5050565b60606000601060008473ffffffffffffffffffffffffffffffffffffffff1673ffffffffffffffffffffffffffffffffffffffff168152602001908152602001600020805480602002602001604051908101604052809291908181526020018280548015610e1f57602002820191906000526020600020905b8160009054906101000a900473ffffffffffffffffffffffffffffffffffffffff1673ffffffffffffffffffffffffffffffffffffffff1681526020019060010190808311610dd5575b505050505090506000815167ffffffffffffffff811115610e4357610e42611c19565b5b604051908082528060200260200182016040528015610e7c57816020015b610e69611ad4565b815260200190600190039081610e615790505b50905060005b8251811015610fd2576000600b60009054906101000a900473ffffffffffffffffffffffffffffffffffffffff1673ffffffffffffffffffffffffffffffffffffffff16639ade031987868581518110610edf57610ede612166565b5b60200260200101516040518363ffffffff1660e01b8152600401610f0492919061213d565b60006040518083038186803b158015610f1c57600080fd5b505afa158015610f30573d6000803e3d6000fd5b505050506040513d6000823e3d601f19601f82011682018060405250810190610f5991906129f6565b90506040518060400160405280858481518110610f7957610f78612166565b5b602002602001015173ffffffffffffffffffffffffffffffffffffffff16815260200182815250838381518110610fb357610fb2612166565b5b6020026020010181905250508080610fca906121c4565b915050610e82565b508092505050919050565b60008060008054906101000a900473ffffffffffffffffffffffffffffffffffffffff1673ffffffffffffffffffffffffffffffffffffffff1663feaf968c6040518163ffffffff1660e01b815260040160a06040518083038186803b15801561104657600080fd5b505afa15801561105a573d6000803e3d6000fd5b505050506040513d601f19601f8201168201806040525081019061107e9190612ab7565b5050509150508091505090565b6000600b60009054906101000a900473ffffffffffffffffffffffffffffffffffffffff1673ffffffffffffffffffffffffffffffffffffffff1663e40de887836040518263ffffffff1660e01b81526004016110e891906120f5565b60006040518083038186803b15801561110057600080fd5b505afa158015611114573d6000803e3d6000fd5b505050506040513d6000823e3d601f19601f8201168201806040525081019061113d91906125e1565b9050806040015161ffff16601160008473ffffffffffffffffffffffffffffffffffffffff1673ffffffffffffffffffffffffffffffffffffffff16815260200190815260200160002054106111c8576040517f08c379a00000000000000000000000000000000000000000000000000000000081526004016111bf90612ba4565b60405180910390fd5b8060200151421061120e576040517f08c379a000000000000000000000000000000000000000000000000000000000815260040161120590612c10565b60405180910390fd5b6000611218610fdd565b620f4240670de0b6b3a76400008460c0015161123491906127b5565b61123e91906127b5565b611248919061283e565b9050346008548261125991906126cd565b111561129a576040517f08c379a0000000000000000000000000000000000000000000000000000000008152600401611291906128e1565b60405180910390fd5b60008260a0015190508073ffffffffffffffffffffffffffffffffffffffff166108fc839081150290604051600060405180830381858888f193505050501580156112e9573d6000803e3d6000fd5b50600960009054906101000a900473ffffffffffffffffffffffffffffffffffffffff1673ffffffffffffffffffffffffffffffffffffffff166108fc6008549081150290604051600060405180830381858888f19350505050158015611354573d6000803e3d6000fd5b503373ffffffffffffffffffffffffffffffffffffffff166108fc600854843461137e9190612901565b6113889190612901565b9081150290604051600060405180830381858888f193505050501580156113b3573d6000803e3d6000fd5b50600c60003373ffffffffffffffffffffffffffffffffffffffff1673ffffffffffffffffffffffffffffffffffffffff16815260200190815260200160002060008573ffffffffffffffffffffffffffffffffffffffff1673ffffffffffffffffffffffffffffffffffffffff1681526020019081526020016000206000815480929190611441906121c4565b9190505550601160008573ffffffffffffffffffffffffffffffffffffffff1673ffffffffffffffffffffffffffffffffffffffff1681526020019081526020016000206000815480929190611496906121c4565b919050555060001515600d60003373ffffffffffffffffffffffffffffffffffffffff1673ffffffffffffffffffffffffffffffffffffffff16815260200190815260200160002060008673ffffffffffffffffffffffffffffffffffffffff1673ffffffffffffffffffffffffffffffffffffffff16815260200190815260200160002060009054906101000a900460ff1615151415611667576001600d60003373ffffffffffffffffffffffffffffffffffffffff1673ffffffffffffffffffffffffffffffffffffffff16815260200190815260200160002060008673ffffffffffffffffffffffffffffffffffffffff1673ffffffffffffffffffffffffffffffffffffffff16815260200190815260200160002060006101000a81548160ff021916908315150217905550600f60003373ffffffffffffffffffffffffffffffffffffffff1673ffffffffffffffffffffffffffffffffffffffff168152602001908152602001600020849080600181540180825580915050600190039060005260206000200160009091909190916101000a81548173ffffffffffffffffffffffffffffffffffffffff021916908373ffffffffffffffffffffffffffffffffffffffff1602179055505b50505050565b600a60009054906101000a900473ffffffffffffffffffffffffffffffffffffffff1681565b60116020528060005260406000206000915090505481565b6000806116b6610fdd565b620f4240670de0b6b3a7640000856116ce91906127b5565b6116d891906127b5565b6116e2919061283e565b905060646005826116f391906127b5565b6116fd919061283e565b8161170891906126cd565b915050919050565b60075481565b60006013600084815260200190815260200160002060009054906101000a900473ffffffffffffffffffffffffffffffffffffffff16905060006014600085815260200190815260200160002060009054906101000a900473ffffffffffffffffffffffffffffffffffffffff1690506000600b60009054906101000a900473ffffffffffffffffffffffffffffffffffffffff1673ffffffffffffffffffffffffffffffffffffffff1663e40de887836040518263ffffffff1660e01b81526004016117e391906120f5565b60006040518083038186803b1580156117fb57600080fd5b505afa15801561180f573d6000803e3d6000fd5b505050506040513d6000823e3d601f19601f8201168201806040525081019061183891906125e1565b608001515190506000818560008151811061185657611855612166565b5b60200260200101516118689190612c30565b9050600b60009054906101000a900473ffffffffffffffffffffffffffffffffffffffff1673ffffffffffffffffffffffffffffffffffffffff166324408fe88486846040518463ffffffff1660e01b81526004016118c993929190612c70565b600060405180830381600087803b1580156118e357600080fd5b505af11580156118f7573d6000803e3d6000fd5b50505050505050505050565b600160009054906101000a900473ffffffffffffffffffffffffffffffffffffffff1673ffffffffffffffffffffffffffffffffffffffff16635d3b1d30600554600260149054906101000a900467ffffffffffffffff16600660049054906101000a900461ffff16600660009054906101000a900463ffffffff16876040518663ffffffff1660e01b81526004016119a0959493929190612d02565b602060405180830381600087803b1580156119ba57600080fd5b505af11580156119ce573d6000803e3d6000fd5b505050506040513d601f19601f820116820180604052508101906119f29190612d55565b6007819055503360136000600754815260200190815260200160002060006101000a81548173ffffffffffffffffffffffffffffffffffffffff021916908373ffffffffffffffffffffffffffffffffffffffff1602179055508060146000600754815260200190815260200160002060006101000a81548173ffffffffffffffffffffffffffffffffffffffff021916908373ffffffffffffffffffffffffffffffffffffffff1602179055505050565b6040518060400160405280600073ffffffffffffffffffffffffffffffffffffffff168152602001600081525090565b6040518060400160405280600073ffffffffffffffffffffffffffffffffffffffff168152602001606081525090565b6000604051905090565b600080fd5b600080fd5b600073ffffffffffffffffffffffffffffffffffffffff82169050919050565b6000611b4382611b18565b9050919050565b611b5381611b38565b8114611b5e57600080fd5b50565b600081359050611b7081611b4a565b92915050565b600060208284031215611b8c57611b8b611b0e565b5b6000611b9a84828501611b61565b91505092915050565b6000819050919050565b611bb681611ba3565b82525050565b6000602082019050611bd16000830184611bad565b92915050565b611be081611ba3565b8114611beb57600080fd5b50565b600081359050611bfd81611bd7565b92915050565b600080fd5b6000601f19601f8301169050919050565b7f4e487b7100000000000000000000000000000000000000000000000000000000600052604160045260246000fd5b611c5182611c08565b810181811067ffffffffffffffff82111715611c7057611c6f611c19565b5b80604052505050565b6000611c83611b04565b9050611c8f8282611c48565b919050565b600067ffffffffffffffff821115611caf57611cae611c19565b5b602082029050602081019050919050565b600080fd5b6000611cd8611cd384611c94565b611c79565b90508083825260208201905060208402830185811115611cfb57611cfa611cc0565b5b835b81811015611d245780611d108882611bee565b845260208401935050602081019050611cfd565b5050509392505050565b600082601f830112611d4357611d42611c03565b5b8135611d53848260208601611cc5565b91505092915050565b60008060408385031215611d7357611d72611b0e565b5b6000611d8185828601611bee565b925050602083013567ffffffffffffffff811115611da257611da1611b13565b5b611dae85828601611d2e565b9150509250929050565b60008060408385031215611dcf57611dce611b0e565b5b6000611ddd85828601611b61565b9250506020611dee85828601611b61565b9150509250929050565b600081519050919050565b600082825260208201905092915050565b6000819050602082019050919050565b611e2d81611b38565b82525050565b611e3c81611ba3565b82525050565b604082016000820151611e586000850182611e24565b506020820151611e6b6020850182611e33565b50505050565b6000611e7d8383611e42565b60408301905092915050565b6000602082019050919050565b6000611ea182611df8565b611eab8185611e03565b9350611eb683611e14565b8060005b83811015611ee7578151611ece8882611e71565b9750611ed983611e89565b925050600181019050611eba565b5085935050505092915050565b60006020820190508181036000830152611f0e8184611e96565b905092915050565b600081519050919050565b600082825260208201905092915050565b6000819050602082019050919050565b600081519050919050565b600082825260208201905092915050565b6000819050602082019050919050565b6000611f7a8383611e33565b60208301905092915050565b6000602082019050919050565b6000611f9e82611f42565b611fa88185611f4d565b9350611fb383611f5e565b8060005b83811015611fe4578151611fcb8882611f6e565b9750611fd683611f86565b925050600181019050611fb7565b5085935050505092915050565b60006040830160008301516120096000860182611e24565b50602083015184820360208601526120218282611f93565b9150508091505092915050565b600061203a8383611ff1565b905092915050565b6000602082019050919050565b600061205a82611f16565b6120648185611f21565b93508360208202850161207685611f32565b8060005b858110156120b25784840389528151612093858261202e565b945061209e83612042565b925060208a0199505060018101905061207a565b50829750879550505050505092915050565b600060208201905081810360008301526120de818461204f565b905092915050565b6120ef81611b38565b82525050565b600060208201905061210a60008301846120e6565b92915050565b60006020828403121561212657612125611b0e565b5b600061213484828501611bee565b91505092915050565b600060408201905061215260008301856120e6565b61215f60208301846120e6565b9392505050565b7f4e487b7100000000000000000000000000000000000000000000000000000000600052603260045260246000fd5b7f4e487b7100000000000000000000000000000000000000000000000000000000600052601160045260246000fd5b60006121cf82611ba3565b91507fffffffffffffffffffffffffffffffffffffffffffffffffffffffffffffffff82141561220257612201612195565b5b600182019050919050565b600080fd5b600080fd5b60008151905061222681611b4a565b92915050565b60008151905061223b81611bd7565b92915050565b600061ffff82169050919050565b61225881612241565b811461226357600080fd5b50565b6000815190506122758161224f565b92915050565b600067ffffffffffffffff82111561229657612295611c19565b5b602082029050602081019050919050565b60006122ba6122b58461227b565b611c79565b905080838252602082019050602084028301858111156122dd576122dc611cc0565b5b835b8181101561230657806122f28882612266565b8452602084019350506020810190506122df565b5050509392505050565b600082601f83011261232557612324611c03565b5b81516123358482602086016122a7565b91505092915050565b60008115159050919050565b6123538161233e565b811461235e57600080fd5b50565b6000815190506123708161234a565b92915050565b600080fd5b600067ffffffffffffffff82111561239657612395611c19565b5b61239f82611c08565b9050602081019050919050565b60005b838110156123ca5780820151818401526020810190506123af565b838111156123d9576000848401525b50505050565b60006123f26123ed8461237b565b611c79565b90508281526020810184848401111561240e5761240d612376565b5b6124198482856123ac565b509392505050565b600082601f83011261243657612435611c03565b5b81516124468482602086016123df565b91505092915050565b600061018082840312156124665761246561220d565b5b612471610180611c79565b9050600061248184828501612217565b60008301525060206124958482850161222c565b60208301525060406124a984828501612266565b60408301525060606124bd84828501612266565b606083015250608082015167ffffffffffffffff8111156124e1576124e0612212565b5b6124ed84828501612310565b60808301525060a061250184828501612217565b60a08301525060c06125158482850161222c565b60c08301525060e06125298482850161222c565b60e08301525061010061253e84828501612361565b6101008301525061012082015167ffffffffffffffff81111561256457612563612212565b5b61257084828501612421565b6101208301525061014082015167ffffffffffffffff81111561259657612595612212565b5b6125a284828501612421565b6101408301525061016082015167ffffffffffffffff8111156125c8576125c7612212565b5b6125d484828501612421565b6101608301525092915050565b6000602082840312156125f7576125f6611b0e565b5b600082015167ffffffffffffffff81111561261557612614611b13565b5b6126218482850161244f565b91505092915050565b600082825260208201905092915050565b7f4e667453746f72653a204e46542063616e6e6f74206265206d696e746564206460008201527f7572696e672070726573616c6500000000000000000000000000000000000000602082015250565b6000612697602d8361262a565b91506126a28261263b565b604082019050919050565b600060208201905081810360008301526126c68161268a565b9050919050565b60006126d882611ba3565b91506126e383611ba3565b9250827fffffffffffffffffffffffffffffffffffffffffffffffffffffffffffffffff0382111561271857612717612195565b5b828201905092915050565b7f4e667453746f72653a20616c6c204e4654207765726520616c7265616479207360008201527f6f6c640000000000000000000000000000000000000000000000000000000000602082015250565b600061277f60238361262a565b915061278a82612723565b604082019050919050565b600060208201905081810360008301526127ae81612772565b9050919050565b60006127c082611ba3565b91506127cb83611ba3565b9250817fffffffffffffffffffffffffffffffffffffffffffffffffffffffffffffffff048311821515161561280457612803612195565b5b828202905092915050565b7f4e487b7100000000000000000000000000000000000000000000000000000000600052601260045260246000fd5b600061284982611ba3565b915061285483611ba3565b9250826128645761286361280f565b5b828204905092915050565b7f4e667453746f72653a2074686520616d6f756e74207061696420646964206e6f60008201527f7420636f76657220746865207072696365000000000000000000000000000000602082015250565b60006128cb60318361262a565b91506128d68261286f565b604082019050919050565b600060208201905081810360008301526128fa816128be565b9050919050565b600061290c82611ba3565b915061291783611ba3565b92508282101561292a57612929612195565b5b828203905092915050565b600061294082611ba3565b9150600082141561295457612953612195565b5b600182039050919050565b600061297261296d84611c94565b611c79565b9050808382526020820190506020840283018581111561299557612994611cc0565b5b835b818110156129be57806129aa888261222c565b845260208401935050602081019050612997565b5050509392505050565b600082601f8301126129dd576129dc611c03565b5b81516129ed84826020860161295f565b91505092915050565b600060208284031215612a0c57612a0b611b0e565b5b600082015167ffffffffffffffff811115612a2a57612a29611b13565b5b612a36848285016129c8565b91505092915050565b600069ffffffffffffffffffff82169050919050565b612a5e81612a3f565b8114612a6957600080fd5b50565b600081519050612a7b81612a55565b92915050565b6000819050919050565b612a9481612a81565b8114612a9f57600080fd5b50565b600081519050612ab181612a8b565b92915050565b600080600080600060a08688031215612ad357612ad2611b0e565b5b6000612ae188828901612a6c565b9550506020612af288828901612aa2565b9450506040612b038882890161222c565b9350506060612b148882890161222c565b9250506080612b2588828901612a6c565b9150509295509295909350565b7f4e667453746f72653a20616c6c204d79737465727920426f786573207765726560008201527f20616c726561647920736f6c6400000000000000000000000000000000000000602082015250565b6000612b8e602d8361262a565b9150612b9982612b32565b604082019050919050565b60006020820190508181036000830152612bbd81612b81565b9050919050565b7f4e667453746f72653a2070726573616c65206973206f76657200000000000000600082015250565b6000612bfa60198361262a565b9150612c0582612bc4565b602082019050919050565b60006020820190508181036000830152612c2981612bed565b9050919050565b6000612c3b82611ba3565b9150612c4683611ba3565b925082612c5657612c5561280f565b5b828206905092915050565b612c6a81612241565b82525050565b6000606082019050612c8560008301866120e6565b612c9260208301856120e6565b612c9f6040830184612c61565b949350505050565b6000819050919050565b612cba81612ca7565b82525050565b600067ffffffffffffffff82169050919050565b612cdd81612cc0565b82525050565b600063ffffffff82169050919050565b612cfc81612ce3565b82525050565b600060a082019050612d176000830188612cb1565b612d246020830187612cd4565b612d316040830186612c61565b612d3e6060830185612cf3565b612d4b6080830184612cf3565b9695505050505050565b600060208284031215612d6b57612d6a611b0e565b5b6000612d798482850161222c565b9150509291505056fea2646970667358221220b61c49a6962551a44379c038ee62d6867dbe240637594217ca917bc8bc5a878a64736f6c63430008090033",
  "linkReferences": {},
  "deployedLinkReferences": {}
}