{
  "_format": "hh-sol-artifact-1",
  "contractName": "NftStore",
  "sourceName": "src/contracts/NftStore.sol",
  "abi": [
    {
      "inputs": [
        {
          "internalType": "address",
          "name": "_factoryAddress",
          "type": "address"
        },
        {
          "internalType": "uint64",
          "name": "subscriptionId",
          "type": "uint64"
        },
        {
          "internalType": "address",
          "name": "_vrfCoordinator",
          "type": "address"
        },
        {
          "internalType": "address",
          "name": "_link",
          "type": "address"
        },
        {
          "internalType": "bytes32",
          "name": "_keyHash",
          "type": "bytes32"
        },
        {
          "internalType": "uint32",
          "name": "_callbackGasLimit",
          "type": "uint32"
        },
        {
          "internalType": "uint16",
          "name": "_requestConfirmations",
          "type": "uint16"
        }
      ],
      "stateMutability": "nonpayable",
      "type": "constructor"
    },
    {
      "inputs": [
        {
          "internalType": "address",
          "name": "have",
          "type": "address"
        },
        {
          "internalType": "address",
          "name": "want",
          "type": "address"
        }
      ],
      "name": "OnlyCoordinatorCanFulfill",
      "type": "error"
    },
    {
      "inputs": [
        {
          "internalType": "address",
          "name": "_collectionAddress",
          "type": "address"
        }
      ],
      "name": "buyMysteryBox",
      "outputs": [],
      "stateMutability": "nonpayable",
      "type": "function"
    },
    {
      "inputs": [],
      "name": "factoryAddress",
      "outputs": [
        {
          "internalType": "address",
          "name": "",
          "type": "address"
        }
      ],
      "stateMutability": "view",
      "type": "function"
    },
    {
      "inputs": [
        {
          "internalType": "address",
          "name": "_collectionAddress",
          "type": "address"
        }
      ],
      "name": "mint",
      "outputs": [],
      "stateMutability": "nonpayable",
      "type": "function"
    },
    {
      "inputs": [
        {
          "internalType": "address",
          "name": "",
          "type": "address"
        }
      ],
      "name": "mysteryBoxCounter",
      "outputs": [
        {
          "internalType": "uint256",
          "name": "",
          "type": "uint256"
        }
      ],
      "stateMutability": "view",
      "type": "function"
    },
    {
      "inputs": [
        {
          "internalType": "address",
          "name": "",
          "type": "address"
        },
        {
          "internalType": "address",
          "name": "",
          "type": "address"
        }
      ],
      "name": "mysteryBoxUserCounter",
      "outputs": [
        {
          "internalType": "uint256",
          "name": "",
          "type": "uint256"
        }
      ],
      "stateMutability": "view",
      "type": "function"
    },
    {
      "inputs": [
        {
          "internalType": "address",
          "name": "",
          "type": "address"
        }
      ],
      "name": "nftCounter",
      "outputs": [
        {
          "internalType": "uint256",
          "name": "",
          "type": "uint256"
        }
      ],
      "stateMutability": "view",
      "type": "function"
    },
    {
      "inputs": [
        {
          "internalType": "uint256",
          "name": "requestId",
          "type": "uint256"
        },
        {
          "internalType": "uint256[]",
          "name": "randomWords",
          "type": "uint256[]"
        }
      ],
      "name": "rawFulfillRandomWords",
      "outputs": [],
      "stateMutability": "nonpayable",
      "type": "function"
    },
    {
      "inputs": [],
      "name": "s_requestId",
      "outputs": [
        {
          "internalType": "uint256",
          "name": "",
          "type": "uint256"
        }
      ],
      "stateMutability": "view",
      "type": "function"
    }
  ],
  "bytecode": "0x60a06040523480156200001157600080fd5b506040516200175e3803806200175e8339818101604052810190620000379190620003e8565b848073ffffffffffffffffffffffffffffffffffffffff1660808173ffffffffffffffffffffffffffffffffffffffff16815250505086600960006101000a81548173ffffffffffffffffffffffffffffffffffffffff021916908373ffffffffffffffffffffffffffffffffffffffff16021790555084600260006101000a81548173ffffffffffffffffffffffffffffffffffffffff021916908373ffffffffffffffffffffffffffffffffffffffff160217905550600260009054906101000a900473ffffffffffffffffffffffffffffffffffffffff166000806101000a81548173ffffffffffffffffffffffffffffffffffffffff021916908373ffffffffffffffffffffffffffffffffffffffff16021790555083600360006101000a81548173ffffffffffffffffffffffffffffffffffffffff021916908373ffffffffffffffffffffffffffffffffffffffff1602179055508260048190555081600560006101000a81548163ffffffff021916908363ffffffff16021790555080600560046101000a81548161ffff021916908361ffff160217905550600360009054906101000a900473ffffffffffffffffffffffffffffffffffffffff16600160006101000a81548173ffffffffffffffffffffffffffffffffffffffff021916908373ffffffffffffffffffffffffffffffffffffffff16021790555085600160146101000a81548167ffffffffffffffff021916908367ffffffffffffffff16021790555066d529ae9e860000600781905550505050505050506200049b565b600080fd5b600073ffffffffffffffffffffffffffffffffffffffff82169050919050565b6000620002b08262000283565b9050919050565b620002c281620002a3565b8114620002ce57600080fd5b50565b600081519050620002e281620002b7565b92915050565b600067ffffffffffffffff82169050919050565b6200030781620002e8565b81146200031357600080fd5b50565b6000815190506200032781620002fc565b92915050565b6000819050919050565b62000342816200032d565b81146200034e57600080fd5b50565b600081519050620003628162000337565b92915050565b600063ffffffff82169050919050565b620003838162000368565b81146200038f57600080fd5b50565b600081519050620003a38162000378565b92915050565b600061ffff82169050919050565b620003c281620003a9565b8114620003ce57600080fd5b50565b600081519050620003e281620003b7565b92915050565b600080600080600080600060e0888a0312156200040a57620004096200027e565b5b60006200041a8a828b01620002d1565b97505060206200042d8a828b0162000316565b9650506040620004408a828b01620002d1565b9550506060620004538a828b01620002d1565b9450506080620004668a828b0162000351565b93505060a0620004798a828b0162000392565b92505060c06200048c8a828b01620003d1565b91505092959891949750929550565b6080516112a0620004be600039600081816101c7015261021b01526112a06000f3fe608060405234801561001057600080fd5b50600436106100885760003560e01c8063948646eb1161005b578063948646eb14610125578063966dae0e146101415780639e6c52031461015f578063e89e106a1461018f57610088565b80630980ea8c1461008d5780631fe543e3146100bd578063236c1dd5146100d95780636a62784214610109575b600080fd5b6100a760048036038101906100a29190610b1d565b6101ad565b6040516100b49190610b63565b60405180910390f35b6100d760048036038101906100d29190610d03565b6101c5565b005b6100f360048036038101906100ee9190610d5f565b610285565b6040516101009190610b63565b60405180910390f35b610123600480360381019061011e9190610b1d565b6102aa565b005b61013f600480360381019061013a9190610b1d565b6105f3565b005b6101496108a7565b6040516101569190610dae565b60405180910390f35b61017960048036038101906101749190610b1d565b6108cd565b6040516101869190610b63565b60405180910390f35b6101976108e5565b6040516101a49190610b63565b60405180910390f35b600c6020528060005260406000206000915090505481565b7f000000000000000000000000000000000000000000000000000000000000000073ffffffffffffffffffffffffffffffffffffffff163373ffffffffffffffffffffffffffffffffffffffff161461027757337f00000000000000000000000000000000000000000000000000000000000000006040517f1cf993f400000000000000000000000000000000000000000000000000000000815260040161026e929190610dc9565b60405180910390fd5b61028182826108eb565b5050565b600a602052816000526040600020602052806000526040600020600091509150505481565b600960009054906101000a900473ffffffffffffffffffffffffffffffffffffffff1673ffffffffffffffffffffffffffffffffffffffff1663e40de887826040518263ffffffff1660e01b81526004016103059190610dae565b60606040518083038186803b15801561031d57600080fd5b505afa158015610331573d6000803e3d6000fd5b505050506040513d601f19601f820116820180604052508101906103559190610e70565b600001514210156104b6576000600a60003373ffffffffffffffffffffffffffffffffffffffff1673ffffffffffffffffffffffffffffffffffffffff16815260200190815260200160002060008373ffffffffffffffffffffffffffffffffffffffff1673ffffffffffffffffffffffffffffffffffffffff168152602001908152602001600020541161041f576040517f08c379a000000000000000000000000000000000000000000000000000000000815260040161041690610f20565b60405180910390fd5b600a60003373ffffffffffffffffffffffffffffffffffffffff1673ffffffffffffffffffffffffffffffffffffffff16815260200190815260200160002060008273ffffffffffffffffffffffffffffffffffffffff1673ffffffffffffffffffffffffffffffffffffffff16815260200190815260200160002060008154809291906104ac90610f6f565b91905055506104b7565b5b600960009054906101000a900473ffffffffffffffffffffffffffffffffffffffff1673ffffffffffffffffffffffffffffffffffffffff1663e40de887826040518263ffffffff1660e01b81526004016105129190610dae565b60606040518083038186803b15801561052a57600080fd5b505afa15801561053e573d6000803e3d6000fd5b505050506040513d601f19601f820116820180604052508101906105629190610e70565b60400151600c60008373ffffffffffffffffffffffffffffffffffffffff1673ffffffffffffffffffffffffffffffffffffffff16815260200190815260200160002054106105e6576040517f08c379a00000000000000000000000000000000000000000000000000000000081526004016105dd9061100b565b60405180910390fd5b6105f06001610961565b50565b600960009054906101000a900473ffffffffffffffffffffffffffffffffffffffff1673ffffffffffffffffffffffffffffffffffffffff1663e40de887826040518263ffffffff1660e01b815260040161064e9190610dae565b60606040518083038186803b15801561066657600080fd5b505afa15801561067a573d6000803e3d6000fd5b505050506040513d601f19601f8201168201806040525081019061069e9190610e70565b60200151600b60008373ffffffffffffffffffffffffffffffffffffffff1673ffffffffffffffffffffffffffffffffffffffff1681526020019081526020016000205410610722576040517f08c379a00000000000000000000000000000000000000000000000000000000081526004016107199061109d565b60405180910390fd5b600960009054906101000a900473ffffffffffffffffffffffffffffffffffffffff1673ffffffffffffffffffffffffffffffffffffffff1663e40de887826040518263ffffffff1660e01b815260040161077d9190610dae565b60606040518083038186803b15801561079557600080fd5b505afa1580156107a9573d6000803e3d6000fd5b505050506040513d601f19601f820116820180604052508101906107cd9190610e70565b600001514210610812576040517f08c379a000000000000000000000000000000000000000000000000000000000815260040161080990611109565b60405180910390fd5b600a60003373ffffffffffffffffffffffffffffffffffffffff1673ffffffffffffffffffffffffffffffffffffffff16815260200190815260200160002060008273ffffffffffffffffffffffffffffffffffffffff1673ffffffffffffffffffffffffffffffffffffffff168152602001908152602001600020600081548092919061089f90611129565b919050555050565b600860009054906101000a900473ffffffffffffffffffffffffffffffffffffffff1681565b600b6020528060005260406000206000915090505481565b60065481565b6000600d600084815260200190815260200160002060009054906101000a900473ffffffffffffffffffffffffffffffffffffffff1690506000600e600085815260200190815260200160002060009054906101000a900473ffffffffffffffffffffffffffffffffffffffff16905050505050565b60008054906101000a900473ffffffffffffffffffffffffffffffffffffffff1673ffffffffffffffffffffffffffffffffffffffff16635d3b1d30600454600160149054906101000a900467ffffffffffffffff16600560049054906101000a900461ffff16600560009054906101000a900463ffffffff16866040518663ffffffff1660e01b81526004016109fc9594939291906111ea565b602060405180830381600087803b158015610a1657600080fd5b505af1158015610a2a573d6000803e3d6000fd5b505050506040513d601f19601f82011682018060405250810190610a4e919061123d565b60068190555033600d6000600654815260200190815260200160002060006101000a81548173ffffffffffffffffffffffffffffffffffffffff021916908373ffffffffffffffffffffffffffffffffffffffff16021790555050565b6000604051905090565b600080fd5b600080fd5b600073ffffffffffffffffffffffffffffffffffffffff82169050919050565b6000610aea82610abf565b9050919050565b610afa81610adf565b8114610b0557600080fd5b50565b600081359050610b1781610af1565b92915050565b600060208284031215610b3357610b32610ab5565b5b6000610b4184828501610b08565b91505092915050565b6000819050919050565b610b5d81610b4a565b82525050565b6000602082019050610b786000830184610b54565b92915050565b610b8781610b4a565b8114610b9257600080fd5b50565b600081359050610ba481610b7e565b92915050565b600080fd5b6000601f19601f8301169050919050565b7f4e487b7100000000000000000000000000000000000000000000000000000000600052604160045260246000fd5b610bf882610baf565b810181811067ffffffffffffffff82111715610c1757610c16610bc0565b5b80604052505050565b6000610c2a610aab565b9050610c368282610bef565b919050565b600067ffffffffffffffff821115610c5657610c55610bc0565b5b602082029050602081019050919050565b600080fd5b6000610c7f610c7a84610c3b565b610c20565b90508083825260208201905060208402830185811115610ca257610ca1610c67565b5b835b81811015610ccb5780610cb78882610b95565b845260208401935050602081019050610ca4565b5050509392505050565b600082601f830112610cea57610ce9610baa565b5b8135610cfa848260208601610c6c565b91505092915050565b60008060408385031215610d1a57610d19610ab5565b5b6000610d2885828601610b95565b925050602083013567ffffffffffffffff811115610d4957610d48610aba565b5b610d5585828601610cd5565b9150509250929050565b60008060408385031215610d7657610d75610ab5565b5b6000610d8485828601610b08565b9250506020610d9585828601610b08565b9150509250929050565b610da881610adf565b82525050565b6000602082019050610dc36000830184610d9f565b92915050565b6000604082019050610dde6000830185610d9f565b610deb6020830184610d9f565b9392505050565b600080fd5b600081519050610e0681610b7e565b92915050565b600060608284031215610e2257610e21610df2565b5b610e2c6060610c20565b90506000610e3c84828501610df7565b6000830152506020610e5084828501610df7565b6020830152506040610e6484828501610df7565b60408301525092915050565b600060608284031215610e8657610e85610ab5565b5b6000610e9484828501610e0c565b91505092915050565b600082825260208201905092915050565b7f4e667453746f72653a2061204d79737465727920426f78206d7573742062652060008201527f70757263686173656420746f206d696e7420647572696e672070726573616c65602082015250565b6000610f0a604083610e9d565b9150610f1582610eae565b604082019050919050565b60006020820190508181036000830152610f3981610efd565b9050919050565b7f4e487b7100000000000000000000000000000000000000000000000000000000600052601160045260246000fd5b6000610f7a82610b4a565b91506000821415610f8e57610f8d610f40565b5b600182039050919050565b7f4e667453746f72653a20616c6c204e4654207765726520616c7265616479207360008201527f6f6c640000000000000000000000000000000000000000000000000000000000602082015250565b6000610ff5602383610e9d565b915061100082610f99565b604082019050919050565b6000602082019050818103600083015261102481610fe8565b9050919050565b7f4e667453746f72653a20616c6c204d79737465727920426f786573207765726560008201527f20616c726561647920736f6c6400000000000000000000000000000000000000602082015250565b6000611087602d83610e9d565b91506110928261102b565b604082019050919050565b600060208201905081810360008301526110b68161107a565b9050919050565b7f4e667453746f72653a2070726573616c65206973206f76657200000000000000600082015250565b60006110f3601983610e9d565b91506110fe826110bd565b602082019050919050565b60006020820190508181036000830152611122816110e6565b9050919050565b600061113482610b4a565b91507fffffffffffffffffffffffffffffffffffffffffffffffffffffffffffffffff82141561116757611166610f40565b5b600182019050919050565b6000819050919050565b61118581611172565b82525050565b600067ffffffffffffffff82169050919050565b6111a88161118b565b82525050565b600061ffff82169050919050565b6111c5816111ae565b82525050565b600063ffffffff82169050919050565b6111e4816111cb565b82525050565b600060a0820190506111ff600083018861117c565b61120c602083018761119f565b61121960408301866111bc565b61122660608301856111db565b61123360808301846111db565b9695505050505050565b60006020828403121561125357611252610ab5565b5b600061126184828501610df7565b9150509291505056fea26469706673582212201ecb96164be29cca1a5ba70934736b50e7246299154104d4a60ba59e8526050a64736f6c63430008090033",
  "linkReferences": {},
  "deployedLinkReferences": {}
}