{
  "_format": "hh-sol-artifact-1",
  "contractName": "VRFCoordinatorV2Mock",
  "sourceName": "src/contracts/test/VRFCoordinatorV2Mock.sol",
  "abi": [
    {
      "inputs": [
        {
          "internalType": "uint96",
          "name": "_baseFee",
          "type": "uint96"
        },
        {
          "internalType": "uint96",
          "name": "_gasPriceLink",
          "type": "uint96"
        }
      ],
      "stateMutability": "nonpayable",
      "type": "constructor"
    },
    {
      "inputs": [],
      "name": "InsufficientBalance",
      "type": "error"
    },
    {
      "inputs": [],
      "name": "InvalidConsumer",
      "type": "error"
    },
    {
      "inputs": [],
      "name": "InvalidRandomWords",
      "type": "error"
    },
    {
      "inputs": [],
      "name": "InvalidSubscription",
      "type": "error"
    },
    {
      "inputs": [
        {
          "internalType": "address",
          "name": "owner",
          "type": "address"
        }
      ],
      "name": "MustBeSubOwner",
      "type": "error"
    },
    {
      "inputs": [],
      "name": "TooManyConsumers",
      "type": "error"
    },
    {
      "anonymous": false,
      "inputs": [
        {
          "indexed": true,
          "internalType": "uint64",
          "name": "subId",
          "type": "uint64"
        },
        {
          "indexed": false,
          "internalType": "address",
          "name": "consumer",
          "type": "address"
        }
      ],
      "name": "ConsumerAdded",
      "type": "event"
    },
    {
      "anonymous": false,
      "inputs": [
        {
          "indexed": true,
          "internalType": "uint64",
          "name": "subId",
          "type": "uint64"
        },
        {
          "indexed": false,
          "internalType": "address",
          "name": "consumer",
          "type": "address"
        }
      ],
      "name": "ConsumerRemoved",
      "type": "event"
    },
    {
      "anonymous": false,
      "inputs": [
        {
          "indexed": true,
          "internalType": "uint256",
          "name": "requestId",
          "type": "uint256"
        },
        {
          "indexed": false,
          "internalType": "uint256",
          "name": "outputSeed",
          "type": "uint256"
        },
        {
          "indexed": false,
          "internalType": "uint96",
          "name": "payment",
          "type": "uint96"
        },
        {
          "indexed": false,
          "internalType": "bool",
          "name": "success",
          "type": "bool"
        }
      ],
      "name": "RandomWordsFulfilled",
      "type": "event"
    },
    {
      "anonymous": false,
      "inputs": [
        {
          "indexed": true,
          "internalType": "bytes32",
          "name": "keyHash",
          "type": "bytes32"
        },
        {
          "indexed": false,
          "internalType": "uint256",
          "name": "requestId",
          "type": "uint256"
        },
        {
          "indexed": false,
          "internalType": "uint256",
          "name": "preSeed",
          "type": "uint256"
        },
        {
          "indexed": true,
          "internalType": "uint64",
          "name": "subId",
          "type": "uint64"
        },
        {
          "indexed": false,
          "internalType": "uint16",
          "name": "minimumRequestConfirmations",
          "type": "uint16"
        },
        {
          "indexed": false,
          "internalType": "uint32",
          "name": "callbackGasLimit",
          "type": "uint32"
        },
        {
          "indexed": false,
          "internalType": "uint32",
          "name": "numWords",
          "type": "uint32"
        },
        {
          "indexed": true,
          "internalType": "address",
          "name": "sender",
          "type": "address"
        }
      ],
      "name": "RandomWordsRequested",
      "type": "event"
    },
    {
      "anonymous": false,
      "inputs": [
        {
          "indexed": true,
          "internalType": "uint64",
          "name": "subId",
          "type": "uint64"
        },
        {
          "indexed": false,
          "internalType": "address",
          "name": "to",
          "type": "address"
        },
        {
          "indexed": false,
          "internalType": "uint256",
          "name": "amount",
          "type": "uint256"
        }
      ],
      "name": "SubscriptionCanceled",
      "type": "event"
    },
    {
      "anonymous": false,
      "inputs": [
        {
          "indexed": true,
          "internalType": "uint64",
          "name": "subId",
          "type": "uint64"
        },
        {
          "indexed": false,
          "internalType": "address",
          "name": "owner",
          "type": "address"
        }
      ],
      "name": "SubscriptionCreated",
      "type": "event"
    },
    {
      "anonymous": false,
      "inputs": [
        {
          "indexed": true,
          "internalType": "uint64",
          "name": "subId",
          "type": "uint64"
        },
        {
          "indexed": false,
          "internalType": "uint256",
          "name": "oldBalance",
          "type": "uint256"
        },
        {
          "indexed": false,
          "internalType": "uint256",
          "name": "newBalance",
          "type": "uint256"
        }
      ],
      "name": "SubscriptionFunded",
      "type": "event"
    },
    {
      "inputs": [],
      "name": "BASE_FEE",
      "outputs": [
        {
          "internalType": "uint96",
          "name": "",
          "type": "uint96"
        }
      ],
      "stateMutability": "view",
      "type": "function"
    },
    {
      "inputs": [],
      "name": "GAS_PRICE_LINK",
      "outputs": [
        {
          "internalType": "uint96",
          "name": "",
          "type": "uint96"
        }
      ],
      "stateMutability": "view",
      "type": "function"
    },
    {
      "inputs": [],
      "name": "MAX_CONSUMERS",
      "outputs": [
        {
          "internalType": "uint16",
          "name": "",
          "type": "uint16"
        }
      ],
      "stateMutability": "view",
      "type": "function"
    },
    {
      "inputs": [
        {
          "internalType": "uint64",
          "name": "_subId",
          "type": "uint64"
        }
      ],
      "name": "acceptSubscriptionOwnerTransfer",
      "outputs": [],
      "stateMutability": "pure",
      "type": "function"
    },
    {
      "inputs": [
        {
          "internalType": "uint64",
          "name": "_subId",
          "type": "uint64"
        },
        {
          "internalType": "address",
          "name": "_consumer",
          "type": "address"
        }
      ],
      "name": "addConsumer",
      "outputs": [],
      "stateMutability": "nonpayable",
      "type": "function"
    },
    {
      "inputs": [
        {
          "internalType": "uint64",
          "name": "_subId",
          "type": "uint64"
        },
        {
          "internalType": "address",
          "name": "_to",
          "type": "address"
        }
      ],
      "name": "cancelSubscription",
      "outputs": [],
      "stateMutability": "nonpayable",
      "type": "function"
    },
    {
      "inputs": [
        {
          "internalType": "uint64",
          "name": "_subId",
          "type": "uint64"
        },
        {
          "internalType": "address",
          "name": "_consumer",
          "type": "address"
        }
      ],
      "name": "consumerIsAdded",
      "outputs": [
        {
          "internalType": "bool",
          "name": "",
          "type": "bool"
        }
      ],
      "stateMutability": "view",
      "type": "function"
    },
    {
      "inputs": [],
      "name": "createSubscription",
      "outputs": [
        {
          "internalType": "uint64",
          "name": "_subId",
          "type": "uint64"
        }
      ],
      "stateMutability": "nonpayable",
      "type": "function"
    },
    {
      "inputs": [
        {
          "internalType": "uint256",
          "name": "_requestId",
          "type": "uint256"
        },
        {
          "internalType": "address",
          "name": "_consumer",
          "type": "address"
        }
      ],
      "name": "fulfillRandomWords",
      "outputs": [],
      "stateMutability": "nonpayable",
      "type": "function"
    },
    {
      "inputs": [
        {
          "internalType": "uint256",
          "name": "_requestId",
          "type": "uint256"
        },
        {
          "internalType": "address",
          "name": "_consumer",
          "type": "address"
        },
        {
          "internalType": "uint256[]",
          "name": "_words",
          "type": "uint256[]"
        }
      ],
      "name": "fulfillRandomWordsWithOverride",
      "outputs": [],
      "stateMutability": "nonpayable",
      "type": "function"
    },
    {
      "inputs": [
        {
          "internalType": "uint64",
          "name": "_subId",
          "type": "uint64"
        },
        {
          "internalType": "uint96",
          "name": "_amount",
          "type": "uint96"
        }
      ],
      "name": "fundSubscription",
      "outputs": [],
      "stateMutability": "nonpayable",
      "type": "function"
    },
    {
      "inputs": [],
      "name": "getConfig",
      "outputs": [
        {
          "internalType": "uint16",
          "name": "minimumRequestConfirmations",
          "type": "uint16"
        },
        {
          "internalType": "uint32",
          "name": "maxGasLimit",
          "type": "uint32"
        },
        {
          "internalType": "uint32",
          "name": "stalenessSeconds",
          "type": "uint32"
        },
        {
          "internalType": "uint32",
          "name": "gasAfterPaymentCalculation",
          "type": "uint32"
        }
      ],
      "stateMutability": "view",
      "type": "function"
    },
    {
      "inputs": [],
      "name": "getFallbackWeiPerUnitLink",
      "outputs": [
        {
          "internalType": "int256",
          "name": "",
          "type": "int256"
        }
      ],
      "stateMutability": "view",
      "type": "function"
    },
    {
      "inputs": [],
      "name": "getFeeConfig",
      "outputs": [
        {
          "internalType": "uint32",
          "name": "fulfillmentFlatFeeLinkPPMTier1",
          "type": "uint32"
        },
        {
          "internalType": "uint32",
          "name": "fulfillmentFlatFeeLinkPPMTier2",
          "type": "uint32"
        },
        {
          "internalType": "uint32",
          "name": "fulfillmentFlatFeeLinkPPMTier3",
          "type": "uint32"
        },
        {
          "internalType": "uint32",
          "name": "fulfillmentFlatFeeLinkPPMTier4",
          "type": "uint32"
        },
        {
          "internalType": "uint32",
          "name": "fulfillmentFlatFeeLinkPPMTier5",
          "type": "uint32"
        },
        {
          "internalType": "uint24",
          "name": "reqsForTier2",
          "type": "uint24"
        },
        {
          "internalType": "uint24",
          "name": "reqsForTier3",
          "type": "uint24"
        },
        {
          "internalType": "uint24",
          "name": "reqsForTier4",
          "type": "uint24"
        },
        {
          "internalType": "uint24",
          "name": "reqsForTier5",
          "type": "uint24"
        }
      ],
      "stateMutability": "view",
      "type": "function"
    },
    {
      "inputs": [],
      "name": "getRequestConfig",
      "outputs": [
        {
          "internalType": "uint16",
          "name": "",
          "type": "uint16"
        },
        {
          "internalType": "uint32",
          "name": "",
          "type": "uint32"
        },
        {
          "internalType": "bytes32[]",
          "name": "",
          "type": "bytes32[]"
        }
      ],
      "stateMutability": "pure",
      "type": "function"
    },
    {
      "inputs": [
        {
          "internalType": "uint64",
          "name": "_subId",
          "type": "uint64"
        }
      ],
      "name": "getSubscription",
      "outputs": [
        {
          "internalType": "uint96",
          "name": "balance",
          "type": "uint96"
        },
        {
          "internalType": "uint64",
          "name": "reqCount",
          "type": "uint64"
        },
        {
          "internalType": "address",
          "name": "owner",
          "type": "address"
        },
        {
          "internalType": "address[]",
          "name": "consumers",
          "type": "address[]"
        }
      ],
      "stateMutability": "view",
      "type": "function"
    },
    {
      "inputs": [
        {
          "internalType": "uint64",
          "name": "subId",
          "type": "uint64"
        }
      ],
      "name": "pendingRequestExists",
      "outputs": [
        {
          "internalType": "bool",
          "name": "",
          "type": "bool"
        }
      ],
      "stateMutability": "view",
      "type": "function"
    },
    {
      "inputs": [
        {
          "internalType": "uint64",
          "name": "_subId",
          "type": "uint64"
        },
        {
          "internalType": "address",
          "name": "_consumer",
          "type": "address"
        }
      ],
      "name": "removeConsumer",
      "outputs": [],
      "stateMutability": "nonpayable",
      "type": "function"
    },
    {
      "inputs": [
        {
          "internalType": "bytes32",
          "name": "_keyHash",
          "type": "bytes32"
        },
        {
          "internalType": "uint64",
          "name": "_subId",
          "type": "uint64"
        },
        {
          "internalType": "uint16",
          "name": "_minimumRequestConfirmations",
          "type": "uint16"
        },
        {
          "internalType": "uint32",
          "name": "_callbackGasLimit",
          "type": "uint32"
        },
        {
          "internalType": "uint32",
          "name": "_numWords",
          "type": "uint32"
        }
      ],
      "name": "requestRandomWords",
      "outputs": [
        {
          "internalType": "uint256",
          "name": "",
          "type": "uint256"
        }
      ],
      "stateMutability": "nonpayable",
      "type": "function"
    },
    {
      "inputs": [
        {
          "internalType": "uint64",
          "name": "_subId",
          "type": "uint64"
        },
        {
          "internalType": "address",
          "name": "_newOwner",
          "type": "address"
        }
      ],
      "name": "requestSubscriptionOwnerTransfer",
      "outputs": [],
      "stateMutability": "pure",
      "type": "function"
    }
  ],
  "bytecode": "0x60e0604052606461ffff1660c09061ffff1660f01b8152506001805560646002553480156200002d57600080fd5b5060405162002e8338038062002e838339818101604052810190620000539190620000c0565b816bffffffffffffffffffffffff166080816bffffffffffffffffffffffff1660a01b81525050806bffffffffffffffffffffffff1660a0816bffffffffffffffffffffffff1660a01b81525050505062000133565b600081519050620000ba8162000119565b92915050565b60008060408385031215620000d457600080fd5b6000620000e485828601620000a9565b9250506020620000f785828601620000a9565b9150509250929050565b60006bffffffffffffffffffffffff82169050919050565b620001248162000101565b81146200013057600080fd5b50565b60805160a01c60a05160a01c60c05160f01c612d026200018160003960008181610d290152610e7401526000818161081101526116540152600081816108560152610a650152612d026000f3fe608060405234801561001057600080fd5b506004361061012b5760003560e01c806382359740116100ad578063afc69b5311610071578063afc69b5314610317578063c3f909d414610333578063d7ae1d3014610354578063e82ad7d414610370578063ed5eb06d146103a05761012b565b806382359740146102705780639f87fad71461028c578063a21a23e4146102a8578063a410347f146102c6578063a47c7696146102e45761012b565b80635d3b1d30116100f45780635d3b1d30146101c45780635fbbc0d2146101f457806364d51a2a1461021a5780637341c10c14610238578063808974ff146102545761012b565b80620122911461013057806304c357cb1461015057806308e3898e1461016c578063356dac71146101885780633d18651e146101a6575b600080fd5b6101386103d0565b6040516101479392919061248f565b60405180910390f35b61016a6004803603810190610165919061208f565b610456565b005b61018660048036038101906101819190611fff565b610491565b005b610190610a54565b60405161019d9190612419565b60405180910390f35b6101ae610a63565b6040516101bb91906126b8565b60405180910390f35b6101de60048036038101906101d99190611f4c565b610a87565b6040516101eb9190612512565b60405180910390f35b6101fc610ce8565b60405161021199989796959493929190612610565b60405180910390f35b610222610d27565b60405161022f9190612474565b60405180910390f35b610252600480360381019061024d919061208f565b610d4b565b005b61026e60048036038101906102699190611fc3565b610fdf565b005b61028a60048036038101906102859190612066565b61105d565b005b6102a660048036038101906102a1919061208f565b611098565b005b6102b061149d565b6040516102bd919061269d565b60405180910390f35b6102ce611652565b6040516102db91906126b8565b60405180910390f35b6102fe60048036038101906102f99190612066565b611676565b60405161030e94939291906126d3565b60405180910390f35b610331600480360381019061032c91906120cb565b61187c565b005b61033b611a47565b60405161034b94939291906124cd565b60405180910390f35b61036e6004803603810190610369919061208f565b611a67565b005b61038a60048036038101906103859190612066565b611c8a565b60405161039791906123fe565b60405180910390f35b6103ba60048036038101906103b5919061208f565b611cc7565b6040516103c791906123fe565b60405180910390f35b60008060606003621e8480600067ffffffffffffffff81111561041c577f4e487b7100000000000000000000000000000000000000000000000000000000600052604160045260246000fd5b60405190808252806020026020018201604052801561044a5781602001602082028036833780820191505090505b50925092509250909192565b6040517f08c379a000000000000000000000000000000000000000000000000000000000815260040161048890612434565b60405180910390fd5b60005a905060006005600086815260200190815260200160002060000160009054906101000a900467ffffffffffffffff1667ffffffffffffffff16141561050e576040517f08c379a000000000000000000000000000000000000000000000000000000000815260040161050590612454565b60405180910390fd5b6000600560008681526020019081526020016000206040518060600160405290816000820160009054906101000a900467ffffffffffffffff1667ffffffffffffffff1667ffffffffffffffff1681526020016000820160089054906101000a900463ffffffff1663ffffffff1663ffffffff16815260200160008201600c9054906101000a900463ffffffff1663ffffffff1663ffffffff168152505090506000835114156106d257806040015163ffffffff1667ffffffffffffffff811115610602577f4e487b7100000000000000000000000000000000000000000000000000000000600052604160045260246000fd5b6040519080825280602002602001820160405280156106305781602001602082028036833780820191505090505b50925060005b816040015163ffffffff168110156106cc57858160405160200161065b92919061255d565b6040516020818303038152906040528051906020012060001c8482815181106106ad577f4e487b7100000000000000000000000000000000000000000000000000000000600052603260045260246000fd5b60200260200101818152505080806106c490612af0565b915050610636565b50610717565b806040015163ffffffff16835114610716576040517f3f3df5b600000000000000000000000000000000000000000000000000000000815260040160405180910390fd5b5b600080631fe543e360e01b878660405160240161073592919061252d565b604051602081830303815290604052907bffffffffffffffffffffffffffffffffffffffffffffffffffffffff19166020820180517bffffffffffffffffffffffffffffffffffffffffffffffffffffffff8381831617835250505050905060008673ffffffffffffffffffffffffffffffffffffffff16846020015163ffffffff16836040516107c691906123a3565b60006040518083038160008787f1925050503d8060008114610804576040519150601f19603f3d011682016040523d82523d6000602084013e610809565b606091505b5050905060007f00000000000000000000000000000000000000000000000000000000000000006bffffffffffffffffffffffff165a8761084a919061295d565b6108549190612903565b7f00000000000000000000000000000000000000000000000000000000000000006bffffffffffffffffffffffff1661088d919061286b565b9050806bffffffffffffffffffffffff1660036000876000015167ffffffffffffffff1667ffffffffffffffff16815260200190815260200160002060000160149054906101000a90046bffffffffffffffffffffffff166bffffffffffffffffffffffff16101561092b576040517ff4d678b800000000000000000000000000000000000000000000000000000000815260040160405180910390fd5b8060036000876000015167ffffffffffffffff1667ffffffffffffffff16815260200190815260200160002060000160148282829054906101000a90046bffffffffffffffffffffffff166109809190612991565b92506101000a8154816bffffffffffffffffffffffff02191690836bffffffffffffffffffffffff160217905550600560008a8152602001908152602001600020600080820160006101000a81549067ffffffffffffffff02191690556000820160086101000a81549063ffffffff021916905560008201600c6101000a81549063ffffffff02191690555050887f7dffc5ae5ee4e2e4df1651cf6ad329a73cebdb728f37ea0187b9b17e036756e48a8385604051610a41939291906125d9565b60405180910390a2505050505050505050565b6000660e35fa931a0000905090565b7f000000000000000000000000000000000000000000000000000000000000000081565b60008433610a958282611cc7565b610acb576040517f71e8313700000000000000000000000000000000000000000000000000000000815260040160405180910390fd5b600073ffffffffffffffffffffffffffffffffffffffff16600360008967ffffffffffffffff1667ffffffffffffffff16815260200190815260200160002060000160009054906101000a900473ffffffffffffffffffffffffffffffffffffffff1673ffffffffffffffffffffffffffffffffffffffff161415610b7c576040517f1f6a65b600000000000000000000000000000000000000000000000000000000815260040160405180910390fd5b600060016000815480929190610b9190612af0565b919050559050600060026000815480929190610bac90612af0565b91905055905060405180606001604052808a67ffffffffffffffff1681526020018863ffffffff1681526020018763ffffffff168152506005600084815260200190815260200160002060008201518160000160006101000a81548167ffffffffffffffff021916908367ffffffffffffffff16021790555060208201518160000160086101000a81548163ffffffff021916908363ffffffff160217905550604082015181600001600c6101000a81548163ffffffff021916908363ffffffff1602179055509050503373ffffffffffffffffffffffffffffffffffffffff168967ffffffffffffffff168b7f63373d1c4696214b898952999c9aaec57dac1ee2723cec59bea6888f489a977285858d8d8d604051610cd0959493929190612586565b60405180910390a48194505050505095945050505050565b6000806000806000806000806000620186a080620186a080620186a0600080600080985098509850985098509850985098509850909192939495969798565b7f000000000000000000000000000000000000000000000000000000000000000081565b816000600360008367ffffffffffffffff1667ffffffffffffffff16815260200190815260200160002060000160009054906101000a900473ffffffffffffffffffffffffffffffffffffffff169050600073ffffffffffffffffffffffffffffffffffffffff168173ffffffffffffffffffffffffffffffffffffffff161415610e02576040517f1f6a65b600000000000000000000000000000000000000000000000000000000815260040160405180910390fd5b8073ffffffffffffffffffffffffffffffffffffffff163373ffffffffffffffffffffffffffffffffffffffff1614610e7257806040517fd8a3fb52000000000000000000000000000000000000000000000000000000008152600401610e6991906123ba565b60405180910390fd5b7f000000000000000000000000000000000000000000000000000000000000000061ffff16600460008667ffffffffffffffff1667ffffffffffffffff168152602001908152602001600020805490501415610efa576040517f05a48e0f00000000000000000000000000000000000000000000000000000000815260040160405180910390fd5b610f048484611cc7565b15610f0e57610fd9565b600460008567ffffffffffffffff1667ffffffffffffffff168152602001908152602001600020839080600181540180825580915050600190039060005260206000200160009091909190916101000a81548173ffffffffffffffffffffffffffffffffffffffff021916908373ffffffffffffffffffffffffffffffffffffffff1602179055508367ffffffffffffffff167f752ead9f4536ec1319ee3a5a604e1d65eded22e0924251552ba14ae4faa1bbc384604051610fd091906123ba565b60405180910390a25b50505050565b6110598282600067ffffffffffffffff811115611025577f4e487b7100000000000000000000000000000000000000000000000000000000600052604160045260246000fd5b6040519080825280602002602001820160405280156110535781602001602082028036833780820191505090505b50610491565b5050565b6040517f08c379a000000000000000000000000000000000000000000000000000000000815260040161108f90612434565b60405180910390fd5b816000600360008367ffffffffffffffff1667ffffffffffffffff16815260200190815260200160002060000160009054906101000a900473ffffffffffffffffffffffffffffffffffffffff169050600073ffffffffffffffffffffffffffffffffffffffff168173ffffffffffffffffffffffffffffffffffffffff16141561114f576040517f1f6a65b600000000000000000000000000000000000000000000000000000000815260040160405180910390fd5b8073ffffffffffffffffffffffffffffffffffffffff163373ffffffffffffffffffffffffffffffffffffffff16146111bf57806040517fd8a3fb520000000000000000000000000000000000000000000000000000000081526004016111b691906123ba565b60405180910390fd5b83836111cb8282611cc7565b611201576040517f71e8313700000000000000000000000000000000000000000000000000000000815260040160405180910390fd5b6000600460008867ffffffffffffffff1667ffffffffffffffff168152602001908152602001600020905060005b8180549050811015611451578673ffffffffffffffffffffffffffffffffffffffff1682828154811061128b577f4e487b7100000000000000000000000000000000000000000000000000000000600052603260045260246000fd5b9060005260206000200160009054906101000a900473ffffffffffffffffffffffffffffffffffffffff1673ffffffffffffffffffffffffffffffffffffffff16141561143e57600082600184805490506112e6919061295d565b8154811061131d577f4e487b7100000000000000000000000000000000000000000000000000000000600052603260045260246000fd5b9060005260206000200160009054906101000a900473ffffffffffffffffffffffffffffffffffffffff16905080838381548110611384577f4e487b7100000000000000000000000000000000000000000000000000000000600052603260045260246000fd5b9060005260206000200160006101000a81548173ffffffffffffffffffffffffffffffffffffffff021916908373ffffffffffffffffffffffffffffffffffffffff16021790555082805480611403577f4e487b7100000000000000000000000000000000000000000000000000000000600052603160045260246000fd5b6001900381819060005260206000200160006101000a81549073ffffffffffffffffffffffffffffffffffffffff0219169055905550611451565b808061144990612af0565b91505061122f565b508667ffffffffffffffff167ff9bc9d5b5733d904409def43a5ecc888dbdac9a95687780d8fd489d3bb3813fc8760405161148c91906123ba565b60405180910390a250505050505050565b600080600081819054906101000a900467ffffffffffffffff16809291906114c490612b39565b91906101000a81548167ffffffffffffffff021916908367ffffffffffffffff1602179055505060405180604001604052803373ffffffffffffffffffffffffffffffffffffffff16815260200160006bffffffffffffffffffffffff16815250600360008060009054906101000a900467ffffffffffffffff1667ffffffffffffffff1667ffffffffffffffff16815260200190815260200160002060008201518160000160006101000a81548173ffffffffffffffffffffffffffffffffffffffff021916908373ffffffffffffffffffffffffffffffffffffffff16021790555060208201518160000160146101000a8154816bffffffffffffffffffffffff02191690836bffffffffffffffffffffffff16021790555090505060008054906101000a900467ffffffffffffffff1667ffffffffffffffff167f464722b4166576d3dcbba877b999bc35cf911f4eaf434b7eba68fa113951d0bf3360405161163091906123ba565b60405180910390a260008054906101000a900467ffffffffffffffff16905090565b7f000000000000000000000000000000000000000000000000000000000000000081565b60008060006060600073ffffffffffffffffffffffffffffffffffffffff16600360008767ffffffffffffffff1667ffffffffffffffff16815260200190815260200160002060000160009054906101000a900473ffffffffffffffffffffffffffffffffffffffff1673ffffffffffffffffffffffffffffffffffffffff16141561172e576040517f1f6a65b600000000000000000000000000000000000000000000000000000000815260040160405180910390fd5b600360008667ffffffffffffffff1667ffffffffffffffff16815260200190815260200160002060000160149054906101000a90046bffffffffffffffffffffffff166000600360008867ffffffffffffffff1667ffffffffffffffff16815260200190815260200160002060000160009054906101000a900473ffffffffffffffffffffffffffffffffffffffff16600460008967ffffffffffffffff1667ffffffffffffffff1681526020019081526020016000208080548060200260200160405190810160405280929190818152602001828054801561186657602002820191906000526020600020905b8160009054906101000a900473ffffffffffffffffffffffffffffffffffffffff1673ffffffffffffffffffffffffffffffffffffffff168152602001906001019080831161181c575b5050505050905093509350935093509193509193565b600073ffffffffffffffffffffffffffffffffffffffff16600360008467ffffffffffffffff1667ffffffffffffffff16815260200190815260200160002060000160009054906101000a900473ffffffffffffffffffffffffffffffffffffffff1673ffffffffffffffffffffffffffffffffffffffff16141561192d576040517f1f6a65b600000000000000000000000000000000000000000000000000000000815260040160405180910390fd5b6000600360008467ffffffffffffffff1667ffffffffffffffff16815260200190815260200160002060000160149054906101000a90046bffffffffffffffffffffffff16905081600360008567ffffffffffffffff1667ffffffffffffffff16815260200190815260200160002060000160148282829054906101000a90046bffffffffffffffffffffffff166119c591906128c1565b92506101000a8154816bffffffffffffffffffffffff02191690836bffffffffffffffffffffffff1602179055508267ffffffffffffffff167fd39ec07f4e209f627a4c427971473820dc129761ba28de8906bd56f57101d4f8828484611a2c91906128c1565b604051611a3a92919061271f565b60405180910390a2505050565b6000806000806004622625a0610a8c618205935093509350935090919293565b816000600360008367ffffffffffffffff1667ffffffffffffffff16815260200190815260200160002060000160009054906101000a900473ffffffffffffffffffffffffffffffffffffffff169050600073ffffffffffffffffffffffffffffffffffffffff168173ffffffffffffffffffffffffffffffffffffffff161415611b1e576040517f1f6a65b600000000000000000000000000000000000000000000000000000000815260040160405180910390fd5b8073ffffffffffffffffffffffffffffffffffffffff163373ffffffffffffffffffffffffffffffffffffffff1614611b8e57806040517fd8a3fb52000000000000000000000000000000000000000000000000000000008152600401611b8591906123ba565b60405180910390fd5b8367ffffffffffffffff167fe8ed5b475a5b5987aa9165e8731bb78043f39eee32ec5a1169a89e27fcd4981584600360008867ffffffffffffffff1667ffffffffffffffff16815260200190815260200160002060000160149054906101000a90046bffffffffffffffffffffffff16604051611c0c9291906123d5565b60405180910390a2600360008567ffffffffffffffff1667ffffffffffffffff168152602001908152602001600020600080820160006101000a81549073ffffffffffffffffffffffffffffffffffffffff02191690556000820160146101000a8154906bffffffffffffffffffffffff0219169055505050505050565b60006040517f08c379a0000000000000000000000000000000000000000000000000000000008152600401611cbe90612434565b60405180910390fd5b600080600460008567ffffffffffffffff1667ffffffffffffffff168152602001908152602001600020805480602002602001604051908101604052809291908181526020018280548015611d7157602002820191906000526020600020905b8160009054906101000a900473ffffffffffffffffffffffffffffffffffffffff1673ffffffffffffffffffffffffffffffffffffffff1681526020019060010190808311611d27575b5050505050905060005b8151811015611e16578373ffffffffffffffffffffffffffffffffffffffff16828281518110611dd4577f4e487b7100000000000000000000000000000000000000000000000000000000600052603260045260246000fd5b602002602001015173ffffffffffffffffffffffffffffffffffffffff161415611e0357600192505050611e1d565b8080611e0e90612af0565b915050611d7b565b5060009150505b92915050565b6000611e36611e318461276d565b612748565b90508083825260208201905082856020860282011115611e5557600080fd5b60005b85811015611e855781611e6b8882611ef8565b845260208401935060208301925050600181019050611e58565b5050509392505050565b600081359050611e9e81612c2b565b92915050565b600082601f830112611eb557600080fd5b8135611ec5848260208601611e23565b91505092915050565b600081359050611edd81612c42565b92915050565b600081359050611ef281612c59565b92915050565b600081359050611f0781612c70565b92915050565b600081359050611f1c81612c87565b92915050565b600081359050611f3181612c9e565b92915050565b600081359050611f4681612cb5565b92915050565b600080600080600060a08688031215611f6457600080fd5b6000611f7288828901611ece565b9550506020611f8388828901611f22565b9450506040611f9488828901611ee3565b9350506060611fa588828901611f0d565b9250506080611fb688828901611f0d565b9150509295509295909350565b60008060408385031215611fd657600080fd5b6000611fe485828601611ef8565b9250506020611ff585828601611e8f565b9150509250929050565b60008060006060848603121561201457600080fd5b600061202286828701611ef8565b935050602061203386828701611e8f565b925050604084013567ffffffffffffffff81111561205057600080fd5b61205c86828701611ea4565b9150509250925092565b60006020828403121561207857600080fd5b600061208684828501611f22565b91505092915050565b600080604083850312156120a257600080fd5b60006120b085828601611f22565b92505060206120c185828601611e8f565b9150509250929050565b600080604083850312156120de57600080fd5b60006120ec85828601611f22565b92505060206120fd85828601611f37565b9150509250929050565b6000612113838361214f565b60208301905092915050565b600061212b8383612296565b60208301905092915050565b60006121438383612349565b60208301905092915050565b612158816129c5565b82525050565b612167816129c5565b82525050565b6000612178826127c9565b612182818561281c565b935061218d83612799565b8060005b838110156121be5781516121a58882612107565b97506121b0836127f5565b925050600181019050612191565b5085935050505092915050565b60006121d6826127d4565b6121e0818561282d565b93506121eb836127a9565b8060005b8381101561221c578151612203888261211f565b975061220e83612802565b9250506001810190506121ef565b5085935050505092915050565b6000612234826127df565b61223e818561283e565b9350612249836127b9565b8060005b8381101561227a5781516122618882612137565b975061226c8361280f565b92505060018101905061224d565b5085935050505092915050565b612290816129d7565b82525050565b61229f816129e3565b82525050565b60006122b0826127ea565b6122ba818561284f565b93506122ca818560208601612a8c565b80840191505092915050565b6122df816129ed565b82525050565b60006122f2600f8361285a565b91506122fd82612bd9565b602082019050919050565b600061231560138361285a565b915061232082612c02565b602082019050919050565b612334816129f7565b82525050565b61234381612a25565b82525050565b61235281612a34565b82525050565b61236181612a34565b82525050565b61237081612a3e565b82525050565b61237f81612a4e565b82525050565b61238e81612a7a565b82525050565b61239d81612a62565b82525050565b60006123af82846122a5565b915081905092915050565b60006020820190506123cf600083018461215e565b92915050565b60006040820190506123ea600083018561215e565b6123f76020830184612385565b9392505050565b60006020820190506124136000830184612287565b92915050565b600060208201905061242e60008301846122d6565b92915050565b6000602082019050818103600083015261244d816122e5565b9050919050565b6000602082019050818103600083015261246d81612308565b9050919050565b6000602082019050612489600083018461232b565b92915050565b60006060820190506124a4600083018661232b565b6124b16020830185612367565b81810360408301526124c381846121cb565b9050949350505050565b60006080820190506124e2600083018761232b565b6124ef6020830186612367565b6124fc6040830185612367565b6125096060830184612367565b95945050505050565b60006020820190506125276000830184612358565b92915050565b60006040820190506125426000830185612358565b81810360208301526125548184612229565b90509392505050565b60006040820190506125726000830185612358565b61257f6020830184612358565b9392505050565b600060a08201905061259b6000830188612358565b6125a86020830187612358565b6125b5604083018661232b565b6125c26060830185612367565b6125cf6080830184612367565b9695505050505050565b60006060820190506125ee6000830186612358565b6125fb6020830185612394565b6126086040830184612287565b949350505050565b600061012082019050612626600083018c612367565b612633602083018b612367565b612640604083018a612367565b61264d6060830189612367565b61265a6080830188612367565b61266760a083018761233a565b61267460c083018661233a565b61268160e083018561233a565b61268f61010083018461233a565b9a9950505050505050505050565b60006020820190506126b26000830184612376565b92915050565b60006020820190506126cd6000830184612394565b92915050565b60006080820190506126e86000830187612394565b6126f56020830186612376565b612702604083018561215e565b8181036060830152612714818461216d565b905095945050505050565b60006040820190506127346000830185612385565b6127416020830184612385565b9392505050565b6000612752612763565b905061275e8282612abf565b919050565b6000604051905090565b600067ffffffffffffffff82111561278857612787612b99565b5b602082029050602081019050919050565b6000819050602082019050919050565b6000819050602082019050919050565b6000819050602082019050919050565b600081519050919050565b600081519050919050565b600081519050919050565b600081519050919050565b6000602082019050919050565b6000602082019050919050565b6000602082019050919050565b600082825260208201905092915050565b600082825260208201905092915050565b600082825260208201905092915050565b600081905092915050565b600082825260208201905092915050565b600061287682612a34565b915061288183612a34565b9250827fffffffffffffffffffffffffffffffffffffffffffffffffffffffffffffffff038211156128b6576128b5612b6a565b5b828201905092915050565b60006128cc82612a62565b91506128d783612a62565b9250826bffffffffffffffffffffffff038211156128f8576128f7612b6a565b5b828201905092915050565b600061290e82612a34565b915061291983612a34565b9250817fffffffffffffffffffffffffffffffffffffffffffffffffffffffffffffffff048311821515161561295257612951612b6a565b5b828202905092915050565b600061296882612a34565b915061297383612a34565b92508282101561298657612985612b6a565b5b828203905092915050565b600061299c82612a62565b91506129a783612a62565b9250828210156129ba576129b9612b6a565b5b828203905092915050565b60006129d082612a05565b9050919050565b60008115159050919050565b6000819050919050565b6000819050919050565b600061ffff82169050919050565b600073ffffffffffffffffffffffffffffffffffffffff82169050919050565b600062ffffff82169050919050565b6000819050919050565b600063ffffffff82169050919050565b600067ffffffffffffffff82169050919050565b60006bffffffffffffffffffffffff82169050919050565b6000612a8582612a62565b9050919050565b60005b83811015612aaa578082015181840152602081019050612a8f565b83811115612ab9576000848401525b50505050565b612ac882612bc8565b810181811067ffffffffffffffff82111715612ae757612ae6612b99565b5b80604052505050565b6000612afb82612a34565b91507fffffffffffffffffffffffffffffffffffffffffffffffffffffffffffffffff821415612b2e57612b2d612b6a565b5b600182019050919050565b6000612b4482612a4e565b915067ffffffffffffffff821415612b5f57612b5e612b6a565b5b600182019050919050565b7f4e487b7100000000000000000000000000000000000000000000000000000000600052601160045260246000fd5b7f4e487b7100000000000000000000000000000000000000000000000000000000600052604160045260246000fd5b6000601f19601f8301169050919050565b7f6e6f7420696d706c656d656e7465640000000000000000000000000000000000600082015250565b7f6e6f6e6578697374656e74207265717565737400000000000000000000000000600082015250565b612c34816129c5565b8114612c3f57600080fd5b50565b612c4b816129e3565b8114612c5657600080fd5b50565b612c62816129f7565b8114612c6d57600080fd5b50565b612c7981612a34565b8114612c8457600080fd5b50565b612c9081612a3e565b8114612c9b57600080fd5b50565b612ca781612a4e565b8114612cb257600080fd5b50565b612cbe81612a62565b8114612cc957600080fd5b5056fea2646970667358221220139e4adca8c48c3b7aabae5879790162ce87c687fd997d5e725c0bd370df96cf64736f6c63430008040033",
  "linkReferences": {},
  "deployedLinkReferences": {}
}