{
  "_format": "hh-sol-artifact-1",
  "contractName": "CollectionFactory",
  "sourceName": "src/contracts/CollectionFactory.sol",
  "abi": [
    {
      "anonymous": false,
      "inputs": [
        {
          "indexed": false,
          "internalType": "address",
          "name": "nftCollectionAddress",
          "type": "address"
        },
        {
          "indexed": false,
          "internalType": "uint256",
          "name": "nftIndex",
          "type": "uint256"
        }
      ],
      "name": "AvailableNFtsUpdated",
      "type": "event"
    },
    {
      "anonymous": false,
      "inputs": [
        {
          "indexed": false,
          "internalType": "address",
          "name": "nftCollectionAddress",
          "type": "address"
        },
        {
          "indexed": false,
          "internalType": "uint256",
          "name": "presaleDate",
          "type": "uint256"
        },
        {
          "indexed": false,
          "internalType": "uint256",
          "name": "mysteryBoxCap",
          "type": "uint256"
        },
        {
          "indexed": false,
          "internalType": "uint256",
          "name": "nftCap",
          "type": "uint256"
        },
        {
          "indexed": false,
          "internalType": "uint16[]",
          "name": "availableNFTs",
          "type": "uint16[]"
        },
        {
          "indexed": false,
          "internalType": "address",
          "name": "owner",
          "type": "address"
        },
        {
          "indexed": false,
          "internalType": "uint256",
          "name": "mysteryBoxUsdPrice",
          "type": "uint256"
        },
        {
          "indexed": false,
          "internalType": "uint256",
          "name": "nftUsdPrice",
          "type": "uint256"
        },
        {
          "indexed": false,
          "internalType": "bool",
          "name": "frozen",
          "type": "bool"
        }
      ],
      "name": "NFTCollectionCreated",
      "type": "event"
    },
    {
      "anonymous": false,
      "inputs": [
        {
          "indexed": true,
          "internalType": "address",
          "name": "previousOwner",
          "type": "address"
        },
        {
          "indexed": true,
          "internalType": "address",
          "name": "newOwner",
          "type": "address"
        }
      ],
      "name": "OwnershipTransferred",
      "type": "event"
    },
    {
      "inputs": [
        {
          "internalType": "uint256",
          "name": "",
          "type": "uint256"
        }
      ],
      "name": "collections",
      "outputs": [
        {
          "internalType": "address",
          "name": "",
          "type": "address"
        }
      ],
      "stateMutability": "view",
      "type": "function"
    },
    {
      "inputs": [
        {
          "internalType": "string",
          "name": "_tokenName",
          "type": "string"
        },
        {
          "internalType": "string",
          "name": "_tokenSymbol",
          "type": "string"
        },
        {
          "internalType": "string",
          "name": "_baseUri",
          "type": "string"
        },
        {
          "internalType": "string",
          "name": "_coverImageUri",
          "type": "string"
        },
        {
          "internalType": "uint256",
          "name": "_presaleDate",
          "type": "uint256"
        },
        {
          "internalType": "uint16",
          "name": "_mysteryBoxCap",
          "type": "uint16"
        },
        {
          "internalType": "uint16",
          "name": "_nftCap",
          "type": "uint16"
        },
        {
          "internalType": "uint256",
          "name": "_mysteryBoxUsdPrice",
          "type": "uint256"
        },
        {
          "internalType": "uint256",
          "name": "_nftUsdPrice",
          "type": "uint256"
        }
      ],
      "name": "createNFTCollection",
      "outputs": [],
      "stateMutability": "nonpayable",
      "type": "function"
    },
    {
      "inputs": [],
      "name": "getAllCollectionData",
      "outputs": [
        {
          "components": [
            {
              "internalType": "uint256",
              "name": "presaleDate",
              "type": "uint256"
            },
            {
              "internalType": "uint16",
              "name": "mysteryBoxCap",
              "type": "uint16"
            },
            {
              "internalType": "uint16",
              "name": "nftCap",
              "type": "uint16"
            },
            {
              "internalType": "uint16[]",
              "name": "availableNfts",
              "type": "uint16[]"
            },
            {
              "internalType": "address",
              "name": "owner",
              "type": "address"
            },
            {
              "internalType": "uint256",
              "name": "mysteryBoxUsdPrice",
              "type": "uint256"
            },
            {
              "internalType": "uint256",
              "name": "nftUsdPrice",
              "type": "uint256"
            },
            {
              "internalType": "bool",
              "name": "frozen",
              "type": "bool"
            },
            {
              "internalType": "string",
              "name": "coverImageUri",
              "type": "string"
            },
            {
              "internalType": "string",
              "name": "tokenName",
              "type": "string"
            }
          ],
          "internalType": "struct CollectionFactory.Collections[]",
          "name": "",
          "type": "tuple[]"
        }
      ],
      "stateMutability": "view",
      "type": "function"
    },
    {
      "inputs": [
        {
          "internalType": "address",
          "name": "_collectionAddress",
          "type": "address"
        }
      ],
      "name": "getCollection",
      "outputs": [
        {
          "components": [
            {
              "internalType": "uint256",
              "name": "presaleDate",
              "type": "uint256"
            },
            {
              "internalType": "uint16",
              "name": "mysteryBoxCap",
              "type": "uint16"
            },
            {
              "internalType": "uint16",
              "name": "nftCap",
              "type": "uint16"
            },
            {
              "internalType": "uint16[]",
              "name": "availableNfts",
              "type": "uint16[]"
            },
            {
              "internalType": "address",
              "name": "owner",
              "type": "address"
            },
            {
              "internalType": "uint256",
              "name": "mysteryBoxUsdPrice",
              "type": "uint256"
            },
            {
              "internalType": "uint256",
              "name": "nftUsdPrice",
              "type": "uint256"
            },
            {
              "internalType": "bool",
              "name": "frozen",
              "type": "bool"
            },
            {
              "internalType": "string",
              "name": "coverImageUri",
              "type": "string"
            },
            {
              "internalType": "string",
              "name": "tokenName",
              "type": "string"
            }
          ],
          "internalType": "struct CollectionFactory.Collections",
          "name": "",
          "type": "tuple"
        }
      ],
      "stateMutability": "view",
      "type": "function"
    },
    {
      "inputs": [
        {
          "internalType": "address",
          "name": "_userAddress",
          "type": "address"
        }
      ],
      "name": "getDetailedCollectionsByAddress",
      "outputs": [
        {
          "components": [
            {
              "internalType": "uint256",
              "name": "presaleDate",
              "type": "uint256"
            },
            {
              "internalType": "uint16",
              "name": "mysteryBoxCap",
              "type": "uint16"
            },
            {
              "internalType": "uint16",
              "name": "nftCap",
              "type": "uint16"
            },
            {
              "internalType": "uint16[]",
              "name": "availableNfts",
              "type": "uint16[]"
            },
            {
              "internalType": "address",
              "name": "owner",
              "type": "address"
            },
            {
              "internalType": "uint256",
              "name": "mysteryBoxUsdPrice",
              "type": "uint256"
            },
            {
              "internalType": "uint256",
              "name": "nftUsdPrice",
              "type": "uint256"
            },
            {
              "internalType": "bool",
              "name": "frozen",
              "type": "bool"
            },
            {
              "internalType": "string",
              "name": "coverImageUri",
              "type": "string"
            },
            {
              "internalType": "string",
              "name": "tokenName",
              "type": "string"
            }
          ],
          "internalType": "struct CollectionFactory.Collections[]",
          "name": "",
          "type": "tuple[]"
        }
      ],
      "stateMutability": "view",
      "type": "function"
    },
    {
      "inputs": [],
      "name": "nftStoreAddress",
      "outputs": [
        {
          "internalType": "address",
          "name": "",
          "type": "address"
        }
      ],
      "stateMutability": "view",
      "type": "function"
    },
    {
      "inputs": [],
      "name": "owner",
      "outputs": [
        {
          "internalType": "address",
          "name": "",
          "type": "address"
        }
      ],
      "stateMutability": "view",
      "type": "function"
    },
    {
      "inputs": [],
      "name": "renounceOwnership",
      "outputs": [],
      "stateMutability": "nonpayable",
      "type": "function"
    },
    {
      "inputs": [
        {
          "internalType": "address",
          "name": "_nftStoreAddress",
          "type": "address"
        }
      ],
      "name": "setNftStoreAddress",
      "outputs": [],
      "stateMutability": "nonpayable",
      "type": "function"
    },
    {
      "inputs": [
        {
          "internalType": "address",
          "name": "newOwner",
          "type": "address"
        }
      ],
      "name": "transferOwnership",
      "outputs": [],
      "stateMutability": "nonpayable",
      "type": "function"
    },
    {
      "inputs": [
        {
          "internalType": "address",
          "name": "_collectionAddress",
          "type": "address"
        },
        {
          "internalType": "uint256",
          "name": "_USDPrice",
          "type": "uint256"
        }
      ],
      "name": "updadateMysteryBoxPrice",
      "outputs": [],
      "stateMutability": "nonpayable",
      "type": "function"
    },
    {
      "inputs": [
        {
          "internalType": "address",
          "name": "_nftCollection",
          "type": "address"
        },
        {
          "internalType": "uint16",
          "name": "_indexToDelete",
          "type": "uint16"
        }
      ],
      "name": "updateAvailableNFts",
      "outputs": [],
      "stateMutability": "nonpayable",
      "type": "function"
    },
    {
      "inputs": [
        {
          "internalType": "address",
          "name": "_collectionAddress",
          "type": "address"
        }
      ],
      "name": "updateFrozenFlag",
      "outputs": [],
      "stateMutability": "nonpayable",
      "type": "function"
    },
    {
      "inputs": [
        {
          "internalType": "address",
          "name": "_collectionAddress",
          "type": "address"
        },
        {
          "internalType": "uint256",
          "name": "_USDPrice",
          "type": "uint256"
        }
      ],
      "name": "updateNftPrice",
      "outputs": [],
      "stateMutability": "nonpayable",
      "type": "function"
    },
    {
      "inputs": [
        {
          "internalType": "address",
          "name": "_collectionAddress",
          "type": "address"
        },
        {
          "internalType": "uint256",
          "name": "_presaleDate",
          "type": "uint256"
        }
      ],
      "name": "updatePresaleDate",
      "outputs": [],
      "stateMutability": "nonpayable",
      "type": "function"
    }
  ],
  "bytecode": "0x60806040523480156200001157600080fd5b5062000032620000266200003860201b60201c565b6200004060201b60201c565b62000104565b600033905090565b60008060009054906101000a900473ffffffffffffffffffffffffffffffffffffffff169050816000806101000a81548173ffffffffffffffffffffffffffffffffffffffff021916908373ffffffffffffffffffffffffffffffffffffffff1602179055508173ffffffffffffffffffffffffffffffffffffffff168173ffffffffffffffffffffffffffffffffffffffff167f8be0079c531659141344cd1fd0a4f28419497f9722a3daafe3b4186f6b6457e060405160405180910390a35050565b615c8380620001146000396000f3fe60806040523480156200001157600080fd5b50600436106200010c5760003560e01c8063c42fe14911620000a5578063f2fde38b116200006f578063f2fde38b146200028d578063f5891da914620002ad578063f8e4c76914620002cf578063fdbda0ec14620002ef576200010c565b8063c42fe14914620001f7578063e20f40c71462000217578063e40de8871462000237578063e592d94e146200026d576200010c565b80638053776111620000e757806380537761146200015f57806384856b7214620001955780638da5cb5b14620001b55780639cc1954814620001d7576200010c565b806303554e6a146200011157806366bea4af1462000131578063715018a61462000153575b600080fd5b6200012f600480360381019062000129919062001f3e565b62000325565b005b6200013b62000373565b6040516200014a919062001f81565b60405180910390f35b6200015d62000399565b005b6200017d600480360381019062000177919062001f3e565b620003b1565b6040516200018c919062002333565b60405180910390f35b620001b36004803603810190620001ad919062002388565b62000825565b005b620001bf62000a15565b604051620001ce919062001f81565b60405180910390f35b620001f56004803603810190620001ef919062002400565b62000a3e565b005b6200021560048036038101906200020f919062002400565b62000b5e565b005b6200023560048036038101906200022f919062001f3e565b62000c7e565b005b6200025560048036038101906200024f919062001f3e565b62000e00565b60405162000264919062002543565b60405180910390f35b6200028b6004803603810190620002859190620026b8565b620010e1565b005b620002ab6004803603810190620002a5919062001f3e565b62001572565b005b620002b7620015fd565b604051620002c6919062002333565b60405180910390f35b620002ed6004803603810190620002e7919062002400565b62001a32565b005b6200030d600480360381019062000307919062002813565b62001b52565b6040516200031c919062001f81565b60405180910390f35b6200032f62001b92565b80600260006101000a81548173ffffffffffffffffffffffffffffffffffffffff021916908373ffffffffffffffffffffffffffffffffffffffff16021790555050565b600260009054906101000a900473ffffffffffffffffffffffffffffffffffffffff1681565b620003a362001b92565b620003af600062001c17565b565b60606000600460008473ffffffffffffffffffffffffffffffffffffffff1673ffffffffffffffffffffffffffffffffffffffff1681526020019081526020016000208054806020026020016040519081016040528092919081815260200182805480156200047657602002820191906000526020600020905b8160009054906101000a900473ffffffffffffffffffffffffffffffffffffffff1673ffffffffffffffffffffffffffffffffffffffff16815260200190600101908083116200042b575b505050505090506000815167ffffffffffffffff8111156200049d576200049c62002571565b5b604051908082528060200260200182016040528015620004da57816020015b620004c662001ce3565b815260200190600190039081620004bc5790505b50905060005b82518161ffff1610156200081a5760036000848361ffff16815181106200050c576200050b62002845565b5b602002602001015173ffffffffffffffffffffffffffffffffffffffff1673ffffffffffffffffffffffffffffffffffffffff16815260200190815260200160002060405180610140016040529081600082015481526020016001820160009054906101000a900461ffff1661ffff1661ffff1681526020016001820160029054906101000a900461ffff1661ffff1661ffff168152602001600282018054806020026020016040519081016040528092919081815260200182805480156200061d57602002820191906000526020600020906000905b82829054906101000a900461ffff1661ffff1681526020019060020190602082600101049283019260010382029150808411620005e35790505b505050505081526020016003820160009054906101000a900473ffffffffffffffffffffffffffffffffffffffff1673ffffffffffffffffffffffffffffffffffffffff1673ffffffffffffffffffffffffffffffffffffffff16815260200160048201548152602001600582015481526020016006820160009054906101000a900460ff16151515158152602001600782018054620006bd90620028a3565b80601f0160208091040260200160405190810160405280929190818152602001828054620006eb90620028a3565b80156200073c5780601f1062000710576101008083540402835291602001916200073c565b820191906000526020600020905b8154815290600101906020018083116200071e57829003601f168201915b505050505081526020016008820180546200075790620028a3565b80601f01602080910402602001604051908101604052809291908181526020018280546200078590620028a3565b8015620007d65780601f10620007aa57610100808354040283529160200191620007d6565b820191906000526020600020905b815481529060010190602001808311620007b857829003601f168201915b505050505081525050828261ffff1681518110620007f957620007f862002845565b5b60200260200101819052508080620008119062002908565b915050620004e0565b508092505050919050565b600260009054906101000a900473ffffffffffffffffffffffffffffffffffffffff1673ffffffffffffffffffffffffffffffffffffffff163373ffffffffffffffffffffffffffffffffffffffff1614620008b8576040517f08c379a0000000000000000000000000000000000000000000000000000000008152600401620008af9062002999565b60405180910390fd5b6000600360008473ffffffffffffffffffffffffffffffffffffffff1673ffffffffffffffffffffffffffffffffffffffff16815260200190815260200160002060020190508060018280549050620009129190620029bb565b8154811062000926576200092562002845565b5b90600052602060002090601091828204019190066002029054906101000a900461ffff16818361ffff168154811062000964576200096362002845565b5b90600052602060002090601091828204019190066002026101000a81548161ffff021916908361ffff16021790555080805480620009a757620009a6620029f6565b5b60019003818190600052602060002090601091828204019190066002026101000a81549061ffff021916905590557f11ef6fe05323e70ac6da73f7cb860e511937e4da332af037e9224dcf54bad380838360405162000a0892919062002a68565b60405180910390a1505050565b60008060009054906101000a900473ffffffffffffffffffffffffffffffffffffffff16905090565b81600360008273ffffffffffffffffffffffffffffffffffffffff1673ffffffffffffffffffffffffffffffffffffffff16815260200190815260200160002060030160009054906101000a900473ffffffffffffffffffffffffffffffffffffffff1673ffffffffffffffffffffffffffffffffffffffff163373ffffffffffffffffffffffffffffffffffffffff161462000b12576040517f08c379a000000000000000000000000000000000000000000000000000000000815260040162000b099062002ae5565b60405180910390fd5b81600360008573ffffffffffffffffffffffffffffffffffffffff1673ffffffffffffffffffffffffffffffffffffffff16815260200190815260200160002060050181905550505050565b81600360008273ffffffffffffffffffffffffffffffffffffffff1673ffffffffffffffffffffffffffffffffffffffff16815260200190815260200160002060030160009054906101000a900473ffffffffffffffffffffffffffffffffffffffff1673ffffffffffffffffffffffffffffffffffffffff163373ffffffffffffffffffffffffffffffffffffffff161462000c32576040517f08c379a000000000000000000000000000000000000000000000000000000000815260040162000c299062002ae5565b60405180910390fd5b81600360008573ffffffffffffffffffffffffffffffffffffffff1673ffffffffffffffffffffffffffffffffffffffff16815260200190815260200160002060000181905550505050565b80600360008273ffffffffffffffffffffffffffffffffffffffff1673ffffffffffffffffffffffffffffffffffffffff16815260200190815260200160002060030160009054906101000a900473ffffffffffffffffffffffffffffffffffffffff1673ffffffffffffffffffffffffffffffffffffffff163373ffffffffffffffffffffffffffffffffffffffff161462000d52576040517f08c379a000000000000000000000000000000000000000000000000000000000815260040162000d499062002ae5565b60405180910390fd5b600360008373ffffffffffffffffffffffffffffffffffffffff1673ffffffffffffffffffffffffffffffffffffffff16815260200190815260200160002060060160009054906101000a900460ff1615600360008473ffffffffffffffffffffffffffffffffffffffff1673ffffffffffffffffffffffffffffffffffffffff16815260200190815260200160002060060160006101000a81548160ff0219169083151502179055505050565b62000e0a62001ce3565b600360008373ffffffffffffffffffffffffffffffffffffffff1673ffffffffffffffffffffffffffffffffffffffff16815260200190815260200160002060405180610140016040529081600082015481526020016001820160009054906101000a900461ffff1661ffff1661ffff1681526020016001820160029054906101000a900461ffff1661ffff1661ffff1681526020016002820180548060200260200160405190810160405280929190818152602001828054801562000f1857602002820191906000526020600020906000905b82829054906101000a900461ffff1661ffff168152602001906002019060208260010104928301926001038202915080841162000ede5790505b505050505081526020016003820160009054906101000a900473ffffffffffffffffffffffffffffffffffffffff1673ffffffffffffffffffffffffffffffffffffffff1673ffffffffffffffffffffffffffffffffffffffff16815260200160048201548152602001600582015481526020016006820160009054906101000a900460ff1615151515815260200160078201805462000fb890620028a3565b80601f016020809104026020016040519081016040528092919081815260200182805462000fe690620028a3565b8015620010375780601f106200100b5761010080835404028352916020019162001037565b820191906000526020600020905b8154815290600101906020018083116200101957829003601f168201915b505050505081526020016008820180546200105290620028a3565b80601f01602080910402602001604051908101604052809291908181526020018280546200108090620028a3565b8015620010d15780601f10620010a557610100808354040283529160200191620010d1565b820191906000526020600020905b815481529060010190602001808311620010b357829003601f168201915b5050505050815250509050919050565b8261ffff168461ffff1611156200112f576040517f08c379a0000000000000000000000000000000000000000000000000000000008152600401620011269062002ba3565b60405180910390fd5b60008361ffff1667ffffffffffffffff81111562001152576200115162002571565b5b604051908082528060200260200182016040528015620011815781602001602082028036833780820191505090505b50905060005b8461ffff168161ffff161015620011df5780828261ffff1681518110620011b357620011b262002845565b5b602002602001019061ffff16908161ffff16815250508080620011d69062002908565b91505062001187565b5060008a8a8a600260009054906101000a900473ffffffffffffffffffffffffffffffffffffffff16604051620012169062001d56565b62001225949392919062002c06565b604051809103906000f08015801562001242573d6000803e3d6000fd5b5090506040518061014001604052808881526020018761ffff1681526020018661ffff1681526020018381526020013373ffffffffffffffffffffffffffffffffffffffff1681526020018581526020018481526020016000151581526020018981526020018c815250600360008373ffffffffffffffffffffffffffffffffffffffff1673ffffffffffffffffffffffffffffffffffffffff1681526020019081526020016000206000820151816000015560208201518160010160006101000a81548161ffff021916908361ffff16021790555060408201518160010160026101000a81548161ffff021916908361ffff16021790555060608201518160020190805190602001906200135992919062001d64565b5060808201518160030160006101000a81548173ffffffffffffffffffffffffffffffffffffffff021916908373ffffffffffffffffffffffffffffffffffffffff16021790555060a0820151816004015560c0820151816005015560e08201518160060160006101000a81548160ff021916908315150217905550610100820151816007019080519060200190620013f492919062001e15565b506101208201518160080190805190602001906200141492919062001e15565b509050506001819080600181540180825580915050600190039060005260206000200160009091909190916101000a81548173ffffffffffffffffffffffffffffffffffffffff021916908373ffffffffffffffffffffffffffffffffffffffff160217905550600460003373ffffffffffffffffffffffffffffffffffffffff1673ffffffffffffffffffffffffffffffffffffffff168152602001908152602001600020819080600181540180825580915050600190039060005260206000200160009091909190916101000a81548173ffffffffffffffffffffffffffffffffffffffff021916908373ffffffffffffffffffffffffffffffffffffffff1602179055507fa06730c0ec027ab9af6354bb468ffe524c1aca1d489a5ccbe6240f51bcc40ab48188888886338a8a60006040516200155d9998979695949392919062002d05565b60405180910390a15050505050505050505050565b6200157c62001b92565b600073ffffffffffffffffffffffffffffffffffffffff168173ffffffffffffffffffffffffffffffffffffffff161415620015ef576040517f08c379a0000000000000000000000000000000000000000000000000000000008152600401620015e69062002e21565b60405180910390fd5b620015fa8162001c17565b50565b6060600060018054806020026020016040519081016040528092919081815260200182805480156200168557602002820191906000526020600020905b8160009054906101000a900473ffffffffffffffffffffffffffffffffffffffff1673ffffffffffffffffffffffffffffffffffffffff16815260200190600101908083116200163a575b505050505090506000815167ffffffffffffffff811115620016ac57620016ab62002571565b5b604051908082528060200260200182016040528015620016e957816020015b620016d562001ce3565b815260200190600190039081620016cb5790505b50905060005b82518161ffff16101562001a295760036000848361ffff16815181106200171b576200171a62002845565b5b602002602001015173ffffffffffffffffffffffffffffffffffffffff1673ffffffffffffffffffffffffffffffffffffffff16815260200190815260200160002060405180610140016040529081600082015481526020016001820160009054906101000a900461ffff1661ffff1661ffff1681526020016001820160029054906101000a900461ffff1661ffff1661ffff168152602001600282018054806020026020016040519081016040528092919081815260200182805480156200182c57602002820191906000526020600020906000905b82829054906101000a900461ffff1661ffff1681526020019060020190602082600101049283019260010382029150808411620017f25790505b505050505081526020016003820160009054906101000a900473ffffffffffffffffffffffffffffffffffffffff1673ffffffffffffffffffffffffffffffffffffffff1673ffffffffffffffffffffffffffffffffffffffff16815260200160048201548152602001600582015481526020016006820160009054906101000a900460ff16151515158152602001600782018054620018cc90620028a3565b80601f0160208091040260200160405190810160405280929190818152602001828054620018fa90620028a3565b80156200194b5780601f106200191f576101008083540402835291602001916200194b565b820191906000526020600020905b8154815290600101906020018083116200192d57829003601f168201915b505050505081526020016008820180546200196690620028a3565b80601f01602080910402602001604051908101604052809291908181526020018280546200199490620028a3565b8015620019e55780601f10620019b957610100808354040283529160200191620019e5565b820191906000526020600020905b815481529060010190602001808311620019c757829003601f168201915b505050505081525050828261ffff168151811062001a085762001a0762002845565b5b6020026020010181905250808062001a209062002908565b915050620016ef565b50809250505090565b81600360008273ffffffffffffffffffffffffffffffffffffffff1673ffffffffffffffffffffffffffffffffffffffff16815260200190815260200160002060030160009054906101000a900473ffffffffffffffffffffffffffffffffffffffff1673ffffffffffffffffffffffffffffffffffffffff163373ffffffffffffffffffffffffffffffffffffffff161462001b06576040517f08c379a000000000000000000000000000000000000000000000000000000000815260040162001afd9062002ae5565b60405180910390fd5b81600360008573ffffffffffffffffffffffffffffffffffffffff1673ffffffffffffffffffffffffffffffffffffffff16815260200190815260200160002060040181905550505050565b6001818154811062001b6357600080fd5b906000526020600020016000915054906101000a900473ffffffffffffffffffffffffffffffffffffffff1681565b62001b9c62001cdb565b73ffffffffffffffffffffffffffffffffffffffff1662001bbc62000a15565b73ffffffffffffffffffffffffffffffffffffffff161462001c15576040517f08c379a000000000000000000000000000000000000000000000000000000000815260040162001c0c9062002e93565b60405180910390fd5b565b60008060009054906101000a900473ffffffffffffffffffffffffffffffffffffffff169050816000806101000a81548173ffffffffffffffffffffffffffffffffffffffff021916908373ffffffffffffffffffffffffffffffffffffffff1602179055508173ffffffffffffffffffffffffffffffffffffffff168173ffffffffffffffffffffffffffffffffffffffff167f8be0079c531659141344cd1fd0a4f28419497f9722a3daafe3b4186f6b6457e060405160405180910390a35050565b600033905090565b60405180610140016040528060008152602001600061ffff168152602001600061ffff16815260200160608152602001600073ffffffffffffffffffffffffffffffffffffffff168152602001600081526020016000815260200160001515815260200160608152602001606081525090565b612d988062002eb683390190565b82805482825590600052602060002090600f0160109004810192821562001e025791602002820160005b8382111562001dd057835183826101000a81548161ffff021916908361ffff160217905550926020019260020160208160010104928301926001030262001d8e565b801562001e005782816101000a81549061ffff021916905560020160208160010104928301926001030262001dd0565b505b50905062001e11919062001ea6565b5090565b82805462001e2390620028a3565b90600052602060002090601f01602090048101928262001e47576000855562001e93565b82601f1062001e6257805160ff191683800117855562001e93565b8280016001018555821562001e93579182015b8281111562001e9257825182559160200191906001019062001e75565b5b50905062001ea2919062001ea6565b5090565b5b8082111562001ec157600081600090555060010162001ea7565b5090565b6000604051905090565b600080fd5b600080fd5b600073ffffffffffffffffffffffffffffffffffffffff82169050919050565b600062001f068262001ed9565b9050919050565b62001f188162001ef9565b811462001f2457600080fd5b50565b60008135905062001f388162001f0d565b92915050565b60006020828403121562001f575762001f5662001ecf565b5b600062001f678482850162001f27565b91505092915050565b62001f7b8162001ef9565b82525050565b600060208201905062001f98600083018462001f70565b92915050565b600081519050919050565b600082825260208201905092915050565b6000819050602082019050919050565b6000819050919050565b62001fdf8162001fca565b82525050565b600061ffff82169050919050565b62001ffe8162001fe5565b82525050565b600081519050919050565b600082825260208201905092915050565b6000819050602082019050919050565b60006200203e838362001ff3565b60208301905092915050565b6000602082019050919050565b6000620020648262002004565b6200207081856200200f565b93506200207d8362002020565b8060005b83811015620020b457815162002098888262002030565b9750620020a5836200204a565b92505060018101905062002081565b5085935050505092915050565b620020cc8162001ef9565b82525050565b60008115159050919050565b620020e981620020d2565b82525050565b600081519050919050565b600082825260208201905092915050565b60005b838110156200212b5780820151818401526020810190506200210e565b838111156200213b576000848401525b50505050565b6000601f19601f8301169050919050565b60006200215f82620020ef565b6200216b8185620020fa565b93506200217d8185602086016200210b565b620021888162002141565b840191505092915050565b600061014083016000830151620021ae600086018262001fd4565b506020830151620021c3602086018262001ff3565b506040830151620021d8604086018262001ff3565b5060608301518482036060860152620021f2828262002057565b9150506080830151620022096080860182620020c1565b5060a08301516200221e60a086018262001fd4565b5060c08301516200223360c086018262001fd4565b5060e08301516200224860e0860182620020de565b5061010083015184820361010086015262002264828262002152565b91505061012083015184820361012086015262002282828262002152565b9150508091505092915050565b60006200229d838362002193565b905092915050565b6000602082019050919050565b6000620022bf8262001f9e565b620022cb818562001fa9565b935083602082028501620022df8562001fba565b8060005b85811015620023215784840389528151620022ff85826200228f565b94506200230c83620022a5565b925060208a01995050600181019050620022e3565b50829750879550505050505092915050565b600060208201905081810360008301526200234f8184620022b2565b905092915050565b620023628162001fe5565b81146200236e57600080fd5b50565b600081359050620023828162002357565b92915050565b60008060408385031215620023a257620023a162001ecf565b5b6000620023b28582860162001f27565b9250506020620023c58582860162002371565b9150509250929050565b620023da8162001fca565b8114620023e657600080fd5b50565b600081359050620023fa81620023cf565b92915050565b600080604083850312156200241a576200241962001ecf565b5b60006200242a8582860162001f27565b92505060206200243d85828601620023e9565b9150509250929050565b60006101408301600083015162002462600086018262001fd4565b50602083015162002477602086018262001ff3565b5060408301516200248c604086018262001ff3565b5060608301518482036060860152620024a6828262002057565b9150506080830151620024bd6080860182620020c1565b5060a0830151620024d260a086018262001fd4565b5060c0830151620024e760c086018262001fd4565b5060e0830151620024fc60e0860182620020de565b5061010083015184820361010086015262002518828262002152565b91505061012083015184820361012086015262002536828262002152565b9150508091505092915050565b600060208201905081810360008301526200255f818462002447565b905092915050565b600080fd5b600080fd5b7f4e487b7100000000000000000000000000000000000000000000000000000000600052604160045260246000fd5b620025ab8262002141565b810181811067ffffffffffffffff82111715620025cd57620025cc62002571565b5b80604052505050565b6000620025e262001ec5565b9050620025f08282620025a0565b919050565b600067ffffffffffffffff82111562002613576200261262002571565b5b6200261e8262002141565b9050602081019050919050565b82818337600083830152505050565b6000620026516200264b84620025f5565b620025d6565b90508281526020810184848401111562002670576200266f6200256c565b5b6200267d8482856200262b565b509392505050565b600082601f8301126200269d576200269c62002567565b5b8135620026af8482602086016200263a565b91505092915050565b60008060008060008060008060006101208a8c031215620026de57620026dd62001ecf565b5b60008a013567ffffffffffffffff811115620026ff57620026fe62001ed4565b5b6200270d8c828d0162002685565b99505060208a013567ffffffffffffffff81111562002731576200273062001ed4565b5b6200273f8c828d0162002685565b98505060408a013567ffffffffffffffff81111562002763576200276262001ed4565b5b620027718c828d0162002685565b97505060608a013567ffffffffffffffff81111562002795576200279462001ed4565b5b620027a38c828d0162002685565b9650506080620027b68c828d01620023e9565b95505060a0620027c98c828d0162002371565b94505060c0620027dc8c828d0162002371565b93505060e0620027ef8c828d01620023e9565b925050610100620028038c828d01620023e9565b9150509295985092959850929598565b6000602082840312156200282c576200282b62001ecf565b5b60006200283c84828501620023e9565b91505092915050565b7f4e487b7100000000000000000000000000000000000000000000000000000000600052603260045260246000fd5b7f4e487b7100000000000000000000000000000000000000000000000000000000600052602260045260246000fd5b60006002820490506001821680620028bc57607f821691505b60208210811415620028d357620028d262002874565b5b50919050565b7f4e487b7100000000000000000000000000000000000000000000000000000000600052601160045260246000fd5b6000620029158262001fe5565b915061ffff8214156200292d576200292c620028d9565b5b600182019050919050565b600082825260208201905092915050565b7f4f6e6c79206e667453746f72652063616e207570646174652074686973000000600082015250565b600062002981601d8362002938565b91506200298e8262002949565b602082019050919050565b60006020820190508181036000830152620029b48162002972565b9050919050565b6000620029c88262001fca565b9150620029d58362001fca565b925082821015620029eb57620029ea620028d9565b5b828203905092915050565b7f4e487b7100000000000000000000000000000000000000000000000000000000600052603160045260246000fd5b6000819050919050565b600062002a5062002a4a62002a448462001fe5565b62002a25565b62001fca565b9050919050565b62002a628162002a2f565b82525050565b600060408201905062002a7f600083018562001f70565b62002a8e602083018462002a57565b9392505050565b7f4e6f7420436f6c6c656374696f6e204f776e6572000000000000000000000000600082015250565b600062002acd60148362002938565b915062002ada8262002a95565b602082019050919050565b6000602082019050818103600083015262002b008162002abe565b9050919050565b7f436f6c6c656374696f6e466163746f72793a2050726573616c6520537570706c60008201527f7920697320686967686572207468616e20746f74616c204e465420537570706c60208201527f7900000000000000000000000000000000000000000000000000000000000000604082015250565b600062002b8b60418362002938565b915062002b988262002b07565b606082019050919050565b6000602082019050818103600083015262002bbe8162002b7c565b9050919050565b600062002bd282620020ef565b62002bde818562002938565b935062002bf08185602086016200210b565b62002bfb8162002141565b840191505092915050565b6000608082019050818103600083015262002c22818762002bc5565b9050818103602083015262002c38818662002bc5565b9050818103604083015262002c4e818562002bc5565b905062002c5f606083018462001f70565b95945050505050565b62002c738162001fca565b82525050565b600082825260208201905092915050565b600062002c978262002004565b62002ca3818562002c79565b935062002cb08362002020565b8060005b8381101562002ce757815162002ccb888262002030565b975062002cd8836200204a565b92505060018101905062002cb4565b5085935050505092915050565b62002cff81620020d2565b82525050565b60006101208201905062002d1d600083018c62001f70565b62002d2c602083018b62002c68565b62002d3b604083018a62002a57565b62002d4a606083018962002a57565b818103608083015262002d5e818862002c8a565b905062002d6f60a083018762001f70565b62002d7e60c083018662002c68565b62002d8d60e083018562002c68565b62002d9d61010083018462002cf4565b9a9950505050505050505050565b7f4f776e61626c653a206e6577206f776e657220697320746865207a65726f206160008201527f6464726573730000000000000000000000000000000000000000000000000000602082015250565b600062002e0960268362002938565b915062002e168262002dab565b604082019050919050565b6000602082019050818103600083015262002e3c8162002dfa565b9050919050565b7f4f776e61626c653a2063616c6c6572206973206e6f7420746865206f776e6572600082015250565b600062002e7b60208362002938565b915062002e888262002e43565b602082019050919050565b6000602082019050818103600083015262002eae8162002e6c565b905091905056fe60806040523480156200001157600080fd5b5060405162002d9838038062002d98833981810160405281019062000037919062000383565b8383816000908051906020019062000051929190620000d1565b5080600190805190602001906200006a929190620000d1565b505050816006908051906020019062000085929190620000d1565b5080600760006101000a81548173ffffffffffffffffffffffffffffffffffffffff021916908373ffffffffffffffffffffffffffffffffffffffff16021790555050505050620004b7565b828054620000df9062000481565b90600052602060002090601f0160209004810192826200010357600085556200014f565b82601f106200011e57805160ff19168380011785556200014f565b828001600101855582156200014f579182015b828111156200014e57825182559160200191906001019062000131565b5b5090506200015e919062000162565b5090565b5b808211156200017d57600081600090555060010162000163565b5090565b6000604051905090565b600080fd5b600080fd5b600080fd5b600080fd5b6000601f19601f8301169050919050565b7f4e487b7100000000000000000000000000000000000000000000000000000000600052604160045260246000fd5b620001ea826200019f565b810181811067ffffffffffffffff821117156200020c576200020b620001b0565b5b80604052505050565b60006200022162000181565b90506200022f8282620001df565b919050565b600067ffffffffffffffff821115620002525762000251620001b0565b5b6200025d826200019f565b9050602081019050919050565b60005b838110156200028a5780820151818401526020810190506200026d565b838111156200029a576000848401525b50505050565b6000620002b7620002b18462000234565b62000215565b905082815260208101848484011115620002d657620002d56200019a565b5b620002e38482856200026a565b509392505050565b600082601f83011262000303576200030262000195565b5b815162000315848260208601620002a0565b91505092915050565b600073ffffffffffffffffffffffffffffffffffffffff82169050919050565b60006200034b826200031e565b9050919050565b6200035d816200033e565b81146200036957600080fd5b50565b6000815190506200037d8162000352565b92915050565b60008060008060808587031215620003a0576200039f6200018b565b5b600085015167ffffffffffffffff811115620003c157620003c062000190565b5b620003cf87828801620002eb565b945050602085015167ffffffffffffffff811115620003f357620003f262000190565b5b6200040187828801620002eb565b935050604085015167ffffffffffffffff81111562000425576200042462000190565b5b6200043387828801620002eb565b925050606062000446878288016200036c565b91505092959194509250565b7f4e487b7100000000000000000000000000000000000000000000000000000000600052602260045260246000fd5b600060028204905060018216806200049a57607f821691505b60208210811415620004b157620004b062000452565b5b50919050565b6128d180620004c76000396000f3fe608060405234801561001057600080fd5b50600436106100f55760003560e01c806370a0823111610097578063a22cb46511610066578063a22cb46514610296578063b88d4fde146102b2578063c87b56dd146102ce578063e985e9c5146102fe576100f5565b806370a08231146101fc5780638ad913451461022c57806394bf804d1461025c57806395d89b4114610278576100f5565b8063095ea7b3116100d3578063095ea7b31461017857806323b872dd1461019457806342842e0e146101b05780636352211e146101cc576100f5565b806301ffc9a7146100fa57806306fdde031461012a578063081812fc14610148575b600080fd5b610114600480360381019061010f91906117f9565b61032e565b6040516101219190611841565b60405180910390f35b610132610340565b60405161013f91906118f5565b60405180910390f35b610162600480360381019061015d919061194d565b6103d2565b60405161016f91906119bb565b60405180910390f35b610192600480360381019061018d9190611a02565b610418565b005b6101ae60048036038101906101a99190611a42565b610530565b005b6101ca60048036038101906101c59190611a42565b610590565b005b6101e660048036038101906101e1919061194d565b6105b0565b6040516101f391906119bb565b60405180910390f35b61021660048036038101906102119190611a95565b610662565b6040516102239190611ad1565b60405180910390f35b6102466004803603810190610241919061194d565b61071a565b60405161025391906118f5565b60405180910390f35b61027660048036038101906102719190611aec565b610746565b005b6102806107e4565b60405161028d91906118f5565b60405180910390f35b6102b060048036038101906102ab9190611b58565b610876565b005b6102cc60048036038101906102c79190611ccd565b61088c565b005b6102e860048036038101906102e3919061194d565b6108ee565b6040516102f591906118f5565b60405180910390f35b61031860048036038101906103139190611d50565b610956565b6040516103259190611841565b60405180910390f35b6000610339826109ea565b9050919050565b60606000805461034f90611dbf565b80601f016020809104026020016040519081016040528092919081815260200182805461037b90611dbf565b80156103c85780601f1061039d576101008083540402835291602001916103c8565b820191906000526020600020905b8154815290600101906020018083116103ab57829003601f168201915b5050505050905090565b60006103dd82610acc565b6004600083815260200190815260200160002060009054906101000a900473ffffffffffffffffffffffffffffffffffffffff169050919050565b6000610423826105b0565b90508073ffffffffffffffffffffffffffffffffffffffff168373ffffffffffffffffffffffffffffffffffffffff161415610494576040517f08c379a000000000000000000000000000000000000000000000000000000000815260040161048b90611e63565b60405180910390fd5b8073ffffffffffffffffffffffffffffffffffffffff166104b3610b17565b73ffffffffffffffffffffffffffffffffffffffff1614806104e257506104e1816104dc610b17565b610956565b5b610521576040517f08c379a000000000000000000000000000000000000000000000000000000000815260040161051890611ef5565b60405180910390fd5b61052b8383610b1f565b505050565b61054161053b610b17565b82610bd8565b610580576040517f08c379a000000000000000000000000000000000000000000000000000000000815260040161057790611f87565b60405180910390fd5b61058b838383610c6d565b505050565b6105ab8383836040518060200160405280600081525061088c565b505050565b6000806002600084815260200190815260200160002060009054906101000a900473ffffffffffffffffffffffffffffffffffffffff169050600073ffffffffffffffffffffffffffffffffffffffff168173ffffffffffffffffffffffffffffffffffffffff161415610659576040517f08c379a000000000000000000000000000000000000000000000000000000000815260040161065090611ff3565b60405180910390fd5b80915050919050565b60008073ffffffffffffffffffffffffffffffffffffffff168273ffffffffffffffffffffffffffffffffffffffff1614156106d3576040517f08c379a00000000000000000000000000000000000000000000000000000000081526004016106ca90612085565b60405180910390fd5b600360008373ffffffffffffffffffffffffffffffffffffffff1673ffffffffffffffffffffffffffffffffffffffff168152602001908152602001600020549050919050565b60606006826040516020016107309291906121fd565b6040516020818303038152906040529050919050565b600760009054906101000a900473ffffffffffffffffffffffffffffffffffffffff1673ffffffffffffffffffffffffffffffffffffffff163373ffffffffffffffffffffffffffffffffffffffff16146107d6576040517f08c379a00000000000000000000000000000000000000000000000000000000081526004016107cd90612287565b60405180910390fd5b6107e08183610ed4565b5050565b6060600180546107f390611dbf565b80601f016020809104026020016040519081016040528092919081815260200182805461081f90611dbf565b801561086c5780601f106108415761010080835404028352916020019161086c565b820191906000526020600020905b81548152906001019060200180831161084f57829003601f168201915b5050505050905090565b610888610881610b17565b8383610ef2565b5050565b61089d610897610b17565b83610bd8565b6108dc576040517f08c379a00000000000000000000000000000000000000000000000000000000081526004016108d390611f87565b60405180910390fd5b6108e88484848461105f565b50505050565b60606108f982610acc565b60006109036110bb565b90506000815111610923576040518060200160405280600081525061094e565b8061092d8461114d565b60405160200161093e9291906122d8565b6040516020818303038152906040525b915050919050565b6000600560008473ffffffffffffffffffffffffffffffffffffffff1673ffffffffffffffffffffffffffffffffffffffff16815260200190815260200160002060008373ffffffffffffffffffffffffffffffffffffffff1673ffffffffffffffffffffffffffffffffffffffff16815260200190815260200160002060009054906101000a900460ff16905092915050565b60007f80ac58cd000000000000000000000000000000000000000000000000000000007bffffffffffffffffffffffffffffffffffffffffffffffffffffffff1916827bffffffffffffffffffffffffffffffffffffffffffffffffffffffff19161480610ab557507f5b5e139f000000000000000000000000000000000000000000000000000000007bffffffffffffffffffffffffffffffffffffffffffffffffffffffff1916827bffffffffffffffffffffffffffffffffffffffffffffffffffffffff1916145b80610ac55750610ac4826112ae565b5b9050919050565b610ad581611318565b610b14576040517f08c379a0000000000000000000000000000000000000000000000000000000008152600401610b0b90611ff3565b60405180910390fd5b50565b600033905090565b816004600083815260200190815260200160002060006101000a81548173ffffffffffffffffffffffffffffffffffffffff021916908373ffffffffffffffffffffffffffffffffffffffff160217905550808273ffffffffffffffffffffffffffffffffffffffff16610b92836105b0565b73ffffffffffffffffffffffffffffffffffffffff167f8c5be1e5ebec7d5bd14f71427d1e84f3dd0314c0f7b2291e5b200ac8c7c3b92560405160405180910390a45050565b600080610be4836105b0565b90508073ffffffffffffffffffffffffffffffffffffffff168473ffffffffffffffffffffffffffffffffffffffff161480610c265750610c258185610956565b5b80610c6457508373ffffffffffffffffffffffffffffffffffffffff16610c4c846103d2565b73ffffffffffffffffffffffffffffffffffffffff16145b91505092915050565b8273ffffffffffffffffffffffffffffffffffffffff16610c8d826105b0565b73ffffffffffffffffffffffffffffffffffffffff1614610ce3576040517f08c379a0000000000000000000000000000000000000000000000000000000008152600401610cda9061236e565b60405180910390fd5b600073ffffffffffffffffffffffffffffffffffffffff168273ffffffffffffffffffffffffffffffffffffffff161415610d53576040517f08c379a0000000000000000000000000000000000000000000000000000000008152600401610d4a90612400565b60405180910390fd5b610d5e838383611384565b610d69600082610b1f565b6001600360008573ffffffffffffffffffffffffffffffffffffffff1673ffffffffffffffffffffffffffffffffffffffff1681526020019081526020016000206000828254610db9919061244f565b925050819055506001600360008473ffffffffffffffffffffffffffffffffffffffff1673ffffffffffffffffffffffffffffffffffffffff1681526020019081526020016000206000828254610e109190612483565b92505081905550816002600083815260200190815260200160002060006101000a81548173ffffffffffffffffffffffffffffffffffffffff021916908373ffffffffffffffffffffffffffffffffffffffff160217905550808273ffffffffffffffffffffffffffffffffffffffff168473ffffffffffffffffffffffffffffffffffffffff167fddf252ad1be2c89b69c2b068fc378daa952ba7f163c4a11628f55a4df523b3ef60405160405180910390a4610ecf838383611394565b505050565b610eee828260405180602001604052806000815250611399565b5050565b8173ffffffffffffffffffffffffffffffffffffffff168373ffffffffffffffffffffffffffffffffffffffff161415610f61576040517f08c379a0000000000000000000000000000000000000000000000000000000008152600401610f5890612525565b60405180910390fd5b80600560008573ffffffffffffffffffffffffffffffffffffffff1673ffffffffffffffffffffffffffffffffffffffff16815260200190815260200160002060008473ffffffffffffffffffffffffffffffffffffffff1673ffffffffffffffffffffffffffffffffffffffff16815260200190815260200160002060006101000a81548160ff0219169083151502179055508173ffffffffffffffffffffffffffffffffffffffff168373ffffffffffffffffffffffffffffffffffffffff167f17307eab39ab6107e8899845ad3d59bd9653f200f220920489ca2b5937696c31836040516110529190611841565b60405180910390a3505050565b61106a848484610c6d565b611076848484846113f4565b6110b5576040517f08c379a00000000000000000000000000000000000000000000000000000000081526004016110ac906125b7565b60405180910390fd5b50505050565b6060600680546110ca90611dbf565b80601f01602080910402602001604051908101604052809291908181526020018280546110f690611dbf565b80156111435780601f1061111857610100808354040283529160200191611143565b820191906000526020600020905b81548152906001019060200180831161112657829003601f168201915b5050505050905090565b60606000821415611195576040518060400160405280600181526020017f300000000000000000000000000000000000000000000000000000000000000081525090506112a9565b600082905060005b600082146111c75780806111b0906125d7565b915050600a826111c0919061264f565b915061119d565b60008167ffffffffffffffff8111156111e3576111e2611ba2565b5b6040519080825280601f01601f1916602001820160405280156112155781602001600182028036833780820191505090505b5090505b600085146112a25760018261122e919061244f565b9150600a8561123d9190612680565b60306112499190612483565b60f81b81838151811061125f5761125e6126b1565b5b60200101907effffffffffffffffffffffffffffffffffffffffffffffffffffffffffffff1916908160001a905350600a8561129b919061264f565b9450611219565b8093505050505b919050565b60007f01ffc9a7000000000000000000000000000000000000000000000000000000007bffffffffffffffffffffffffffffffffffffffffffffffffffffffff1916827bffffffffffffffffffffffffffffffffffffffffffffffffffffffff1916149050919050565b60008073ffffffffffffffffffffffffffffffffffffffff166002600084815260200190815260200160002060009054906101000a900473ffffffffffffffffffffffffffffffffffffffff1673ffffffffffffffffffffffffffffffffffffffff1614159050919050565b61138f83838361158b565b505050565b505050565b6113a38383611590565b6113b060008484846113f4565b6113ef576040517f08c379a00000000000000000000000000000000000000000000000000000000081526004016113e6906125b7565b60405180910390fd5b505050565b60006114158473ffffffffffffffffffffffffffffffffffffffff1661176a565b1561157e578373ffffffffffffffffffffffffffffffffffffffff1663150b7a0261143e610b17565b8786866040518563ffffffff1660e01b81526004016114609493929190612735565b602060405180830381600087803b15801561147a57600080fd5b505af19250505080156114ab57506040513d601f19601f820116820180604052508101906114a89190612796565b60015b61152e573d80600081146114db576040519150601f19603f3d011682016040523d82523d6000602084013e6114e0565b606091505b50600081511415611526576040517f08c379a000000000000000000000000000000000000000000000000000000000815260040161151d906125b7565b60405180910390fd5b805181602001fd5b63150b7a0260e01b7bffffffffffffffffffffffffffffffffffffffffffffffffffffffff1916817bffffffffffffffffffffffffffffffffffffffffffffffffffffffff191614915050611583565b600190505b949350505050565b505050565b600073ffffffffffffffffffffffffffffffffffffffff168273ffffffffffffffffffffffffffffffffffffffff161415611600576040517f08c379a00000000000000000000000000000000000000000000000000000000081526004016115f79061280f565b60405180910390fd5b61160981611318565b15611649576040517f08c379a00000000000000000000000000000000000000000000000000000000081526004016116409061287b565b60405180910390fd5b61165560008383611384565b6001600360008473ffffffffffffffffffffffffffffffffffffffff1673ffffffffffffffffffffffffffffffffffffffff16815260200190815260200160002060008282546116a59190612483565b92505081905550816002600083815260200190815260200160002060006101000a81548173ffffffffffffffffffffffffffffffffffffffff021916908373ffffffffffffffffffffffffffffffffffffffff160217905550808273ffffffffffffffffffffffffffffffffffffffff16600073ffffffffffffffffffffffffffffffffffffffff167fddf252ad1be2c89b69c2b068fc378daa952ba7f163c4a11628f55a4df523b3ef60405160405180910390a461176660008383611394565b5050565b6000808273ffffffffffffffffffffffffffffffffffffffff163b119050919050565b6000604051905090565b600080fd5b600080fd5b60007fffffffff0000000000000000000000000000000000000000000000000000000082169050919050565b6117d6816117a1565b81146117e157600080fd5b50565b6000813590506117f3816117cd565b92915050565b60006020828403121561180f5761180e611797565b5b600061181d848285016117e4565b91505092915050565b60008115159050919050565b61183b81611826565b82525050565b60006020820190506118566000830184611832565b92915050565b600081519050919050565b600082825260208201905092915050565b60005b8381101561189657808201518184015260208101905061187b565b838111156118a5576000848401525b50505050565b6000601f19601f8301169050919050565b60006118c78261185c565b6118d18185611867565b93506118e1818560208601611878565b6118ea816118ab565b840191505092915050565b6000602082019050818103600083015261190f81846118bc565b905092915050565b6000819050919050565b61192a81611917565b811461193557600080fd5b50565b60008135905061194781611921565b92915050565b60006020828403121561196357611962611797565b5b600061197184828501611938565b91505092915050565b600073ffffffffffffffffffffffffffffffffffffffff82169050919050565b60006119a58261197a565b9050919050565b6119b58161199a565b82525050565b60006020820190506119d060008301846119ac565b92915050565b6119df8161199a565b81146119ea57600080fd5b50565b6000813590506119fc816119d6565b92915050565b60008060408385031215611a1957611a18611797565b5b6000611a27858286016119ed565b9250506020611a3885828601611938565b9150509250929050565b600080600060608486031215611a5b57611a5a611797565b5b6000611a69868287016119ed565b9350506020611a7a868287016119ed565b9250506040611a8b86828701611938565b9150509250925092565b600060208284031215611aab57611aaa611797565b5b6000611ab9848285016119ed565b91505092915050565b611acb81611917565b82525050565b6000602082019050611ae66000830184611ac2565b92915050565b60008060408385031215611b0357611b02611797565b5b6000611b1185828601611938565b9250506020611b22858286016119ed565b9150509250929050565b611b3581611826565b8114611b4057600080fd5b50565b600081359050611b5281611b2c565b92915050565b60008060408385031215611b6f57611b6e611797565b5b6000611b7d858286016119ed565b9250506020611b8e85828601611b43565b9150509250929050565b600080fd5b600080fd5b7f4e487b7100000000000000000000000000000000000000000000000000000000600052604160045260246000fd5b611bda826118ab565b810181811067ffffffffffffffff82111715611bf957611bf8611ba2565b5b80604052505050565b6000611c0c61178d565b9050611c188282611bd1565b919050565b600067ffffffffffffffff821115611c3857611c37611ba2565b5b611c41826118ab565b9050602081019050919050565b82818337600083830152505050565b6000611c70611c6b84611c1d565b611c02565b905082815260208101848484011115611c8c57611c8b611b9d565b5b611c97848285611c4e565b509392505050565b600082601f830112611cb457611cb3611b98565b5b8135611cc4848260208601611c5d565b91505092915050565b60008060008060808587031215611ce757611ce6611797565b5b6000611cf5878288016119ed565b9450506020611d06878288016119ed565b9350506040611d1787828801611938565b925050606085013567ffffffffffffffff811115611d3857611d3761179c565b5b611d4487828801611c9f565b91505092959194509250565b60008060408385031215611d6757611d66611797565b5b6000611d75858286016119ed565b9250506020611d86858286016119ed565b9150509250929050565b7f4e487b7100000000000000000000000000000000000000000000000000000000600052602260045260246000fd5b60006002820490506001821680611dd757607f821691505b60208210811415611deb57611dea611d90565b5b50919050565b7f4552433732313a20617070726f76616c20746f2063757272656e74206f776e6560008201527f7200000000000000000000000000000000000000000000000000000000000000602082015250565b6000611e4d602183611867565b9150611e5882611df1565b604082019050919050565b60006020820190508181036000830152611e7c81611e40565b9050919050565b7f4552433732313a20617070726f76652063616c6c6572206973206e6f7420746f60008201527f6b656e206f776e6572206e6f7220617070726f76656420666f7220616c6c0000602082015250565b6000611edf603e83611867565b9150611eea82611e83565b604082019050919050565b60006020820190508181036000830152611f0e81611ed2565b9050919050565b7f4552433732313a2063616c6c6572206973206e6f7420746f6b656e206f776e6560008201527f72206e6f7220617070726f766564000000000000000000000000000000000000602082015250565b6000611f71602e83611867565b9150611f7c82611f15565b604082019050919050565b60006020820190508181036000830152611fa081611f64565b9050919050565b7f4552433732313a20696e76616c696420746f6b656e2049440000000000000000600082015250565b6000611fdd601883611867565b9150611fe882611fa7565b602082019050919050565b6000602082019050818103600083015261200c81611fd0565b9050919050565b7f4552433732313a2061646472657373207a65726f206973206e6f74206120766160008201527f6c6964206f776e65720000000000000000000000000000000000000000000000602082015250565b600061206f602983611867565b915061207a82612013565b604082019050919050565b6000602082019050818103600083015261209e81612062565b9050919050565b600081905092915050565b60008190508160005260206000209050919050565b600081546120d281611dbf565b6120dc81866120a5565b945060018216600081146120f757600181146121085761213b565b60ff1983168652818601935061213b565b612111856120b0565b60005b8381101561213357815481890152600182019150602081019050612114565b838801955050505b50505092915050565b7f2f00000000000000000000000000000000000000000000000000000000000000600082015250565b600061217a6001836120a5565b915061218582612144565b600182019050919050565b6000819050919050565b6121ab6121a682611917565b612190565b82525050565b7f2e6a736f6e000000000000000000000000000000000000000000000000000000600082015250565b60006121e76005836120a5565b91506121f2826121b1565b600582019050919050565b600061220982856120c5565b91506122148261216d565b9150612220828461219a565b60208201915061222f826121da565b91508190509392505050565b7f4f6e6c79204e667453746f72652063616e206d696e7400000000000000000000600082015250565b6000612271601683611867565b915061227c8261223b565b602082019050919050565b600060208201905081810360008301526122a081612264565b9050919050565b60006122b28261185c565b6122bc81856120a5565b93506122cc818560208601611878565b80840191505092915050565b60006122e482856122a7565b91506122f082846122a7565b91508190509392505050565b7f4552433732313a207472616e736665722066726f6d20696e636f72726563742060008201527f6f776e6572000000000000000000000000000000000000000000000000000000602082015250565b6000612358602583611867565b9150612363826122fc565b604082019050919050565b600060208201905081810360008301526123878161234b565b9050919050565b7f4552433732313a207472616e7366657220746f20746865207a65726f2061646460008201527f7265737300000000000000000000000000000000000000000000000000000000602082015250565b60006123ea602483611867565b91506123f58261238e565b604082019050919050565b60006020820190508181036000830152612419816123dd565b9050919050565b7f4e487b7100000000000000000000000000000000000000000000000000000000600052601160045260246000fd5b600061245a82611917565b915061246583611917565b92508282101561247857612477612420565b5b828203905092915050565b600061248e82611917565b915061249983611917565b9250827fffffffffffffffffffffffffffffffffffffffffffffffffffffffffffffffff038211156124ce576124cd612420565b5b828201905092915050565b7f4552433732313a20617070726f766520746f2063616c6c657200000000000000600082015250565b600061250f601983611867565b915061251a826124d9565b602082019050919050565b6000602082019050818103600083015261253e81612502565b9050919050565b7f4552433732313a207472616e7366657220746f206e6f6e20455243373231526560008201527f63656976657220696d706c656d656e7465720000000000000000000000000000602082015250565b60006125a1603283611867565b91506125ac82612545565b604082019050919050565b600060208201905081810360008301526125d081612594565b9050919050565b60006125e282611917565b91507fffffffffffffffffffffffffffffffffffffffffffffffffffffffffffffffff82141561261557612614612420565b5b600182019050919050565b7f4e487b7100000000000000000000000000000000000000000000000000000000600052601260045260246000fd5b600061265a82611917565b915061266583611917565b92508261267557612674612620565b5b828204905092915050565b600061268b82611917565b915061269683611917565b9250826126a6576126a5612620565b5b828206905092915050565b7f4e487b7100000000000000000000000000000000000000000000000000000000600052603260045260246000fd5b600081519050919050565b600082825260208201905092915050565b6000612707826126e0565b61271181856126eb565b9350612721818560208601611878565b61272a816118ab565b840191505092915050565b600060808201905061274a60008301876119ac565b61275760208301866119ac565b6127646040830185611ac2565b818103606083015261277681846126fc565b905095945050505050565b600081519050612790816117cd565b92915050565b6000602082840312156127ac576127ab611797565b5b60006127ba84828501612781565b91505092915050565b7f4552433732313a206d696e7420746f20746865207a65726f2061646472657373600082015250565b60006127f9602083611867565b9150612804826127c3565b602082019050919050565b60006020820190508181036000830152612828816127ec565b9050919050565b7f4552433732313a20746f6b656e20616c7265616479206d696e74656400000000600082015250565b6000612865601c83611867565b91506128708261282f565b602082019050919050565b6000602082019050818103600083015261289481612858565b905091905056fea2646970667358221220965286c3ed281b58acaf74818cb3ba1a10c14945bf120c18e4c2501163ae8d8064736f6c63430008090033a26469706673582212202f83ed2c16b02357d32bb0dd2daf3acaae0763f2b99ab5ddf72390c109acca6064736f6c63430008090033",
  "linkReferences": {},
  "deployedLinkReferences": {}
}