{
  "_format": "hh-sol-artifact-1",
  "contractName": "CollectionFactory",
  "sourceName": "src/contracts/CollectionFactory.sol",
  "abi": [
    {
      "anonymous": false,
      "inputs": [
        {
          "indexed": false,
          "internalType": "address",
          "name": "nftCollectionAddress",
          "type": "address"
        },
        {
          "indexed": false,
          "internalType": "uint256",
          "name": "nftIndex",
          "type": "uint256"
        }
      ],
      "name": "AvailableNFtsUpdated",
      "type": "event"
    },
    {
      "anonymous": false,
      "inputs": [
        {
          "indexed": false,
          "internalType": "address",
          "name": "nftCollectionAddress",
          "type": "address"
        },
        {
          "indexed": false,
          "internalType": "uint256",
          "name": "presaleDate",
          "type": "uint256"
        },
        {
          "indexed": false,
          "internalType": "uint256",
          "name": "mysteryBoxCap",
          "type": "uint256"
        },
        {
          "indexed": false,
          "internalType": "uint256",
          "name": "nftCap",
          "type": "uint256"
        },
        {
          "indexed": false,
          "internalType": "uint16[]",
          "name": "availableNFTs",
          "type": "uint16[]"
        },
        {
          "indexed": false,
          "internalType": "address",
          "name": "owner",
          "type": "address"
        },
        {
          "indexed": false,
          "internalType": "uint256",
          "name": "mysteryBoxUsdPrice",
          "type": "uint256"
        },
        {
          "indexed": false,
          "internalType": "uint256",
          "name": "nftUsdPrice",
          "type": "uint256"
        },
        {
          "indexed": false,
          "internalType": "bool",
          "name": "frozen",
          "type": "bool"
        }
      ],
      "name": "NFTCollectionCreated",
      "type": "event"
    },
    {
      "anonymous": false,
      "inputs": [
        {
          "indexed": true,
          "internalType": "address",
          "name": "previousOwner",
          "type": "address"
        },
        {
          "indexed": true,
          "internalType": "address",
          "name": "newOwner",
          "type": "address"
        }
      ],
      "name": "OwnershipTransferred",
      "type": "event"
    },
    {
      "inputs": [
        {
          "internalType": "uint256",
          "name": "",
          "type": "uint256"
        }
      ],
      "name": "collections",
      "outputs": [
        {
          "internalType": "address",
          "name": "",
          "type": "address"
        }
      ],
      "stateMutability": "view",
      "type": "function"
    },
    {
      "inputs": [
        {
          "internalType": "string",
          "name": "_tokenName",
          "type": "string"
        },
        {
          "internalType": "string",
          "name": "_tokenSymbol",
          "type": "string"
        },
        {
          "internalType": "string",
          "name": "_baseUri",
          "type": "string"
        },
        {
          "internalType": "string",
          "name": "_coverImageUri",
          "type": "string"
        },
        {
          "internalType": "uint256",
          "name": "_presaleDate",
          "type": "uint256"
        },
        {
          "internalType": "uint16",
          "name": "_mysteryBoxCap",
          "type": "uint16"
        },
        {
          "internalType": "uint16",
          "name": "_nftCap",
          "type": "uint16"
        },
        {
          "internalType": "uint256",
          "name": "_mysteryBoxUsdPrice",
          "type": "uint256"
        },
        {
          "internalType": "uint256",
          "name": "_nftUsdPrice",
          "type": "uint256"
        },
        {
          "internalType": "string",
          "name": "_tokenDescription",
          "type": "string"
        }
      ],
      "name": "createNFTCollection",
      "outputs": [],
      "stateMutability": "nonpayable",
      "type": "function"
    },
    {
      "inputs": [],
      "name": "getAllCollectionData",
      "outputs": [
        {
          "components": [
            {
              "internalType": "address",
              "name": "collectionAddress",
              "type": "address"
            },
            {
              "internalType": "uint256",
              "name": "presaleDate",
              "type": "uint256"
            },
            {
              "internalType": "uint16",
              "name": "mysteryBoxCap",
              "type": "uint16"
            },
            {
              "internalType": "uint16",
              "name": "nftCap",
              "type": "uint16"
            },
            {
              "internalType": "uint16[]",
              "name": "availableNfts",
              "type": "uint16[]"
            },
            {
              "internalType": "address",
              "name": "owner",
              "type": "address"
            },
            {
              "internalType": "uint256",
              "name": "mysteryBoxUsdPrice",
              "type": "uint256"
            },
            {
              "internalType": "uint256",
              "name": "nftUsdPrice",
              "type": "uint256"
            },
            {
              "internalType": "bool",
              "name": "frozen",
              "type": "bool"
            },
            {
              "internalType": "string",
              "name": "coverImageUri",
              "type": "string"
            },
            {
              "internalType": "string",
              "name": "tokenName",
              "type": "string"
            },
            {
              "internalType": "string",
              "name": "tokenDescription",
              "type": "string"
            }
          ],
          "internalType": "struct CollectionFactory.Collections[]",
          "name": "",
          "type": "tuple[]"
        }
      ],
      "stateMutability": "view",
      "type": "function"
    },
    {
      "inputs": [
        {
          "internalType": "address",
          "name": "_collectionAddress",
          "type": "address"
        }
      ],
      "name": "getCollection",
      "outputs": [
        {
          "components": [
            {
              "internalType": "address",
              "name": "collectionAddress",
              "type": "address"
            },
            {
              "internalType": "uint256",
              "name": "presaleDate",
              "type": "uint256"
            },
            {
              "internalType": "uint16",
              "name": "mysteryBoxCap",
              "type": "uint16"
            },
            {
              "internalType": "uint16",
              "name": "nftCap",
              "type": "uint16"
            },
            {
              "internalType": "uint16[]",
              "name": "availableNfts",
              "type": "uint16[]"
            },
            {
              "internalType": "address",
              "name": "owner",
              "type": "address"
            },
            {
              "internalType": "uint256",
              "name": "mysteryBoxUsdPrice",
              "type": "uint256"
            },
            {
              "internalType": "uint256",
              "name": "nftUsdPrice",
              "type": "uint256"
            },
            {
              "internalType": "bool",
              "name": "frozen",
              "type": "bool"
            },
            {
              "internalType": "string",
              "name": "coverImageUri",
              "type": "string"
            },
            {
              "internalType": "string",
              "name": "tokenName",
              "type": "string"
            },
            {
              "internalType": "string",
              "name": "tokenDescription",
              "type": "string"
            }
          ],
          "internalType": "struct CollectionFactory.Collections",
          "name": "",
          "type": "tuple"
        }
      ],
      "stateMutability": "view",
      "type": "function"
    },
    {
      "inputs": [
        {
          "internalType": "address",
          "name": "_userAddress",
          "type": "address"
        }
      ],
      "name": "getDetailedCollectionsByAddress",
      "outputs": [
        {
          "components": [
            {
              "internalType": "address",
              "name": "collectionAddress",
              "type": "address"
            },
            {
              "internalType": "uint256",
              "name": "presaleDate",
              "type": "uint256"
            },
            {
              "internalType": "uint16",
              "name": "mysteryBoxCap",
              "type": "uint16"
            },
            {
              "internalType": "uint16",
              "name": "nftCap",
              "type": "uint16"
            },
            {
              "internalType": "uint16[]",
              "name": "availableNfts",
              "type": "uint16[]"
            },
            {
              "internalType": "address",
              "name": "owner",
              "type": "address"
            },
            {
              "internalType": "uint256",
              "name": "mysteryBoxUsdPrice",
              "type": "uint256"
            },
            {
              "internalType": "uint256",
              "name": "nftUsdPrice",
              "type": "uint256"
            },
            {
              "internalType": "bool",
              "name": "frozen",
              "type": "bool"
            },
            {
              "internalType": "string",
              "name": "coverImageUri",
              "type": "string"
            },
            {
              "internalType": "string",
              "name": "tokenName",
              "type": "string"
            },
            {
              "internalType": "string",
              "name": "tokenDescription",
              "type": "string"
            }
          ],
          "internalType": "struct CollectionFactory.Collections[]",
          "name": "",
          "type": "tuple[]"
        }
      ],
      "stateMutability": "view",
      "type": "function"
    },
    {
      "inputs": [
        {
          "internalType": "address",
          "name": "_user",
          "type": "address"
        },
        {
          "internalType": "address",
          "name": "_collection",
          "type": "address"
        }
      ],
      "name": "getTokenIdsByUser",
      "outputs": [
        {
          "internalType": "uint256[]",
          "name": "",
          "type": "uint256[]"
        }
      ],
      "stateMutability": "view",
      "type": "function"
    },
    {
      "inputs": [],
      "name": "owner",
      "outputs": [
        {
          "internalType": "address",
          "name": "",
          "type": "address"
        }
      ],
      "stateMutability": "view",
      "type": "function"
    },
    {
      "inputs": [],
      "name": "renounceOwnership",
      "outputs": [],
      "stateMutability": "nonpayable",
      "type": "function"
    },
    {
      "inputs": [
        {
          "internalType": "address",
          "name": "_nftStoreAddress",
          "type": "address"
        }
      ],
      "name": "setNftStoreAddress",
      "outputs": [],
      "stateMutability": "nonpayable",
      "type": "function"
    },
    {
      "inputs": [
        {
          "internalType": "address",
          "name": "newOwner",
          "type": "address"
        }
      ],
      "name": "transferOwnership",
      "outputs": [],
      "stateMutability": "nonpayable",
      "type": "function"
    },
    {
      "inputs": [
        {
          "internalType": "address",
          "name": "_nftCollection",
          "type": "address"
        },
        {
          "internalType": "address",
          "name": "_user",
          "type": "address"
        },
        {
          "internalType": "uint16",
          "name": "_indexToDelete",
          "type": "uint16"
        }
      ],
      "name": "updateAvailableNFts",
      "outputs": [],
      "stateMutability": "nonpayable",
      "type": "function"
    }
  ],
  "bytecode": "0x60806040523480156200001157600080fd5b5062000032620000266200003860201b60201c565b6200004060201b60201c565b62000104565b600033905090565b60008060009054906101000a900473ffffffffffffffffffffffffffffffffffffffff169050816000806101000a81548173ffffffffffffffffffffffffffffffffffffffff021916908373ffffffffffffffffffffffffffffffffffffffff1602179055508173ffffffffffffffffffffffffffffffffffffffff168173ffffffffffffffffffffffffffffffffffffffff167f8be0079c531659141344cd1fd0a4f28419497f9722a3daafe3b4186f6b6457e060405160405180910390a35050565b615d6b80620001146000396000f3fe60806040523480156200001157600080fd5b5060043610620000b85760003560e01c80638da5cb5b116200007b5780638da5cb5b146200015f5780639ade03191462000181578063e40de88714620001b7578063f2fde38b14620001ed578063f5891da9146200020d578063fdbda0ec146200022f57620000b8565b806303554e6a14620000bd57806324408fe814620000dd578063479bcee514620000fd578063715018a6146200011d578063805377611462000129575b600080fd5b620000db6004803603810190620000d5919062002155565b62000265565b005b620000fb6004803603810190620000f59190620021c2565b620002b3565b005b6200011b600480360381019062000115919062002218565b620006f0565b005b6200012762000c32565b005b62000147600480360381019062000141919062002155565b62000c4a565b60405162000156919062002ab2565b60405180910390f35b620001696200121a565b604051620001789190620029c2565b60405180910390f35b6200019f600480360381019062000199919062002181565b62001243565b604051620001ae919062002ad6565b60405180910390f35b620001d56004803603810190620001cf919062002155565b6200131a565b604051620001e4919062002be4565b60405180910390f35b6200020b600480360381019062000205919062002155565b620016eb565b005b6200021762001776565b60405162000226919062002ab2565b60405180910390f35b6200024d600480360381019062000247919062002385565b62001d07565b6040516200025c9190620029c2565b60405180910390f35b6200026f62001d47565b80600260006101000a81548173ffffffffffffffffffffffffffffffffffffffff021916908373ffffffffffffffffffffffffffffffffffffffff16021790555050565b600260009054906101000a900473ffffffffffffffffffffffffffffffffffffffff1673ffffffffffffffffffffffffffffffffffffffff163373ffffffffffffffffffffffffffffffffffffffff161462000346576040517f08c379a00000000000000000000000000000000000000000000000000000000081526004016200033d9062002bc2565b60405180910390fd5b6000600460008573ffffffffffffffffffffffffffffffffffffffff1673ffffffffffffffffffffffffffffffffffffffff16815260200190815260200160002060030190508060018280549050620003a0919062002d7d565b81548110620003d8577f4e487b7100000000000000000000000000000000000000000000000000000000600052603260045260246000fd5b90600052602060002090601091828204019190066002029054906101000a900461ffff16818361ffff16815481106200043a577f4e487b7100000000000000000000000000000000000000000000000000000000600052603260045260246000fd5b90600052602060002090601091828204019190066002026101000a81548161ffff021916908361ffff160217905550600360008473ffffffffffffffffffffffffffffffffffffffff1673ffffffffffffffffffffffffffffffffffffffff16815260200190815260200160002060008573ffffffffffffffffffffffffffffffffffffffff1673ffffffffffffffffffffffffffffffffffffffff168152602001908152602001600020818361ffff168154811062000523577f4e487b7100000000000000000000000000000000000000000000000000000000600052603260045260246000fd5b90600052602060002090601091828204019190066002029054906101000a900461ffff16908060018154018082558091505060019003906000526020600020016000909161ffff1690919091505560008490508073ffffffffffffffffffffffffffffffffffffffff166394bf804d838561ffff1681548110620005d0577f4e487b7100000000000000000000000000000000000000000000000000000000600052603260045260246000fd5b90600052602060002090601091828204019190066002029054906101000a900461ffff16866040518363ffffffff1660e01b81526004016200061492919062002c08565b600060405180830381600087803b1580156200062f57600080fd5b505af115801562000644573d6000803e3d6000fd5b505050508180548062000680577f4e487b7100000000000000000000000000000000000000000000000000000000600052603160045260246000fd5b60019003818190600052602060002090601091828204019190066002026101000a81549061ffff021916905590557f11ef6fe05323e70ac6da73f7cb860e511937e4da332af037e9224dcf54bad3808584604051620006e1929190620029df565b60405180910390a15050505050565b8361ffff168561ffff1611156200073e576040517f08c379a0000000000000000000000000000000000000000000000000000000008152600401620007359062002ba0565b60405180910390fd5b60008461ffff1667ffffffffffffffff81111562000785577f4e487b7100000000000000000000000000000000000000000000000000000000600052604160045260246000fd5b604051908082528060200260200182016040528015620007b45781602001602082028036833780820191505090505b50905060005b8561ffff168161ffff161015620008365780828261ffff16815181106200080a577f4e487b7100000000000000000000000000000000000000000000000000000000600052603260045260246000fd5b602002602001019061ffff16908161ffff168152505080806200082d9062002ed5565b915050620007ba565b5060008b8b8b306040516200084b9062001e98565b6200085a949392919062002afa565b604051809103906000f08015801562000877573d6000803e3d6000fd5b5090506040518061018001604052808273ffffffffffffffffffffffffffffffffffffffff1681526020018981526020018861ffff1681526020018761ffff1681526020018381526020013373ffffffffffffffffffffffffffffffffffffffff1681526020018681526020018581526020016000151581526020018a81526020018d815260200184815250600460008373ffffffffffffffffffffffffffffffffffffffff1673ffffffffffffffffffffffffffffffffffffffff16815260200190815260200160002060008201518160000160006101000a81548173ffffffffffffffffffffffffffffffffffffffff021916908373ffffffffffffffffffffffffffffffffffffffff1602179055506020820151816001015560408201518160020160006101000a81548161ffff021916908361ffff16021790555060608201518160020160026101000a81548161ffff021916908361ffff1602179055506080820151816003019080519060200190620009f792919062001ea6565b5060a08201518160040160006101000a81548173ffffffffffffffffffffffffffffffffffffffff021916908373ffffffffffffffffffffffffffffffffffffffff16021790555060c0820151816005015560e082015181600601556101008201518160070160006101000a81548160ff02191690831515021790555061012082015181600801908051906020019062000a9392919062001f57565b5061014082015181600901908051906020019062000ab392919062001f57565b5061016082015181600a01908051906020019062000ad392919062001f57565b509050506001819080600181540180825580915050600190039060005260206000200160009091909190916101000a81548173ffffffffffffffffffffffffffffffffffffffff021916908373ffffffffffffffffffffffffffffffffffffffff160217905550600560003373ffffffffffffffffffffffffffffffffffffffff1673ffffffffffffffffffffffffffffffffffffffff168152602001908152602001600020819080600181540180825580915050600190039060005260206000200160009091909190916101000a81548173ffffffffffffffffffffffffffffffffffffffff021916908373ffffffffffffffffffffffffffffffffffffffff1602179055507fa06730c0ec027ab9af6354bb468ffe524c1aca1d489a5ccbe6240f51bcc40ab48189898986338b8b600060405162000c1c9998979695949392919062002a0c565b60405180910390a1505050505050505050505050565b62000c3c62001d47565b62000c48600062001dcc565b565b60606000600560008473ffffffffffffffffffffffffffffffffffffffff1673ffffffffffffffffffffffffffffffffffffffff16815260200190815260200160002080548060200260200160405190810160405280929190818152602001828054801562000d0f57602002820191906000526020600020905b8160009054906101000a900473ffffffffffffffffffffffffffffffffffffffff1673ffffffffffffffffffffffffffffffffffffffff168152602001906001019080831162000cc4575b505050505090506000815167ffffffffffffffff81111562000d5a577f4e487b7100000000000000000000000000000000000000000000000000000000600052604160045260246000fd5b60405190808252806020026020018201604052801562000d9757816020015b62000d8362001fe8565b81526020019060019003908162000d795790505b50905060005b82518161ffff1610156200120f5760046000848361ffff168151811062000ded577f4e487b7100000000000000000000000000000000000000000000000000000000600052603260045260246000fd5b602002602001015173ffffffffffffffffffffffffffffffffffffffff1673ffffffffffffffffffffffffffffffffffffffff168152602001908152602001600020604051806101800160405290816000820160009054906101000a900473ffffffffffffffffffffffffffffffffffffffff1673ffffffffffffffffffffffffffffffffffffffff1673ffffffffffffffffffffffffffffffffffffffff168152602001600182015481526020016002820160009054906101000a900461ffff1661ffff1661ffff1681526020016002820160029054906101000a900461ffff1661ffff1661ffff1681526020016003820180548060200260200160405190810160405280929190818152602001828054801562000f5457602002820191906000526020600020906000905b82829054906101000a900461ffff1661ffff168152602001906002019060208260010104928301926001038202915080841162000f1a5790505b505050505081526020016004820160009054906101000a900473ffffffffffffffffffffffffffffffffffffffff1673ffffffffffffffffffffffffffffffffffffffff1673ffffffffffffffffffffffffffffffffffffffff16815260200160058201548152602001600682015481526020016007820160009054906101000a900460ff1615151515815260200160088201805462000ff49062002e69565b80601f0160208091040260200160405190810160405280929190818152602001828054620010229062002e69565b8015620010735780601f10620010475761010080835404028352916020019162001073565b820191906000526020600020905b8154815290600101906020018083116200105557829003601f168201915b505050505081526020016009820180546200108e9062002e69565b80601f0160208091040260200160405190810160405280929190818152602001828054620010bc9062002e69565b80156200110d5780601f10620010e1576101008083540402835291602001916200110d565b820191906000526020600020905b815481529060010190602001808311620010ef57829003601f168201915b50505050508152602001600a82018054620011289062002e69565b80601f0160208091040260200160405190810160405280929190818152602001828054620011569062002e69565b8015620011a75780601f106200117b57610100808354040283529160200191620011a7565b820191906000526020600020905b8154815290600101906020018083116200118957829003601f168201915b505050505081525050828261ffff1681518110620011ee577f4e487b7100000000000000000000000000000000000000000000000000000000600052603260045260246000fd5b60200260200101819052508080620012069062002ed5565b91505062000d9d565b508092505050919050565b60008060009054906101000a900473ffffffffffffffffffffffffffffffffffffffff16905090565b6060600360008473ffffffffffffffffffffffffffffffffffffffff1673ffffffffffffffffffffffffffffffffffffffff16815260200190815260200160002060008373ffffffffffffffffffffffffffffffffffffffff1673ffffffffffffffffffffffffffffffffffffffff1681526020019081526020016000208054806020026020016040519081016040528092919081815260200182805480156200130d57602002820191906000526020600020905b815481526020019060010190808311620012f8575b5050505050905092915050565b6200132462001fe8565b600460008373ffffffffffffffffffffffffffffffffffffffff1673ffffffffffffffffffffffffffffffffffffffff168152602001908152602001600020604051806101800160405290816000820160009054906101000a900473ffffffffffffffffffffffffffffffffffffffff1673ffffffffffffffffffffffffffffffffffffffff1673ffffffffffffffffffffffffffffffffffffffff168152602001600182015481526020016002820160009054906101000a900461ffff1661ffff1661ffff1681526020016002820160029054906101000a900461ffff1661ffff1661ffff168152602001600382018054806020026020016040519081016040528092919081815260200182805480156200148857602002820191906000526020600020906000905b82829054906101000a900461ffff1661ffff16815260200190600201906020826001010492830192600103820291508084116200144e5790505b505050505081526020016004820160009054906101000a900473ffffffffffffffffffffffffffffffffffffffff1673ffffffffffffffffffffffffffffffffffffffff1673ffffffffffffffffffffffffffffffffffffffff16815260200160058201548152602001600682015481526020016007820160009054906101000a900460ff16151515158152602001600882018054620015289062002e69565b80601f0160208091040260200160405190810160405280929190818152602001828054620015569062002e69565b8015620015a75780601f106200157b57610100808354040283529160200191620015a7565b820191906000526020600020905b8154815290600101906020018083116200158957829003601f168201915b50505050508152602001600982018054620015c29062002e69565b80601f0160208091040260200160405190810160405280929190818152602001828054620015f09062002e69565b8015620016415780601f10620016155761010080835404028352916020019162001641565b820191906000526020600020905b8154815290600101906020018083116200162357829003601f168201915b50505050508152602001600a820180546200165c9062002e69565b80601f01602080910402602001604051908101604052809291908181526020018280546200168a9062002e69565b8015620016db5780601f10620016af57610100808354040283529160200191620016db565b820191906000526020600020905b815481529060010190602001808311620016bd57829003601f168201915b5050505050815250509050919050565b620016f562001d47565b600073ffffffffffffffffffffffffffffffffffffffff168173ffffffffffffffffffffffffffffffffffffffff16141562001768576040517f08c379a00000000000000000000000000000000000000000000000000000000081526004016200175f9062002b5c565b60405180910390fd5b620017738162001dcc565b50565b606060006001805480602002602001604051908101604052809291908181526020018280548015620017fe57602002820191906000526020600020905b8160009054906101000a900473ffffffffffffffffffffffffffffffffffffffff1673ffffffffffffffffffffffffffffffffffffffff1681526020019060010190808311620017b3575b505050505090506000815167ffffffffffffffff81111562001849577f4e487b7100000000000000000000000000000000000000000000000000000000600052604160045260246000fd5b6040519080825280602002602001820160405280156200188657816020015b6200187262001fe8565b815260200190600190039081620018685790505b50905060005b82518161ffff16101562001cfe5760046000848361ffff1681518110620018dc577f4e487b7100000000000000000000000000000000000000000000000000000000600052603260045260246000fd5b602002602001015173ffffffffffffffffffffffffffffffffffffffff1673ffffffffffffffffffffffffffffffffffffffff168152602001908152602001600020604051806101800160405290816000820160009054906101000a900473ffffffffffffffffffffffffffffffffffffffff1673ffffffffffffffffffffffffffffffffffffffff1673ffffffffffffffffffffffffffffffffffffffff168152602001600182015481526020016002820160009054906101000a900461ffff1661ffff1661ffff1681526020016002820160029054906101000a900461ffff1661ffff1661ffff1681526020016003820180548060200260200160405190810160405280929190818152602001828054801562001a4357602002820191906000526020600020906000905b82829054906101000a900461ffff1661ffff168152602001906002019060208260010104928301926001038202915080841162001a095790505b505050505081526020016004820160009054906101000a900473ffffffffffffffffffffffffffffffffffffffff1673ffffffffffffffffffffffffffffffffffffffff1673ffffffffffffffffffffffffffffffffffffffff16815260200160058201548152602001600682015481526020016007820160009054906101000a900460ff1615151515815260200160088201805462001ae39062002e69565b80601f016020809104026020016040519081016040528092919081815260200182805462001b119062002e69565b801562001b625780601f1062001b365761010080835404028352916020019162001b62565b820191906000526020600020905b81548152906001019060200180831162001b4457829003601f168201915b5050505050815260200160098201805462001b7d9062002e69565b80601f016020809104026020016040519081016040528092919081815260200182805462001bab9062002e69565b801562001bfc5780601f1062001bd05761010080835404028352916020019162001bfc565b820191906000526020600020905b81548152906001019060200180831162001bde57829003601f168201915b50505050508152602001600a8201805462001c179062002e69565b80601f016020809104026020016040519081016040528092919081815260200182805462001c459062002e69565b801562001c965780601f1062001c6a5761010080835404028352916020019162001c96565b820191906000526020600020905b81548152906001019060200180831162001c7857829003601f168201915b505050505081525050828261ffff168151811062001cdd577f4e487b7100000000000000000000000000000000000000000000000000000000600052603260045260246000fd5b6020026020010181905250808062001cf59062002ed5565b9150506200188c565b50809250505090565b6001818154811062001d1857600080fd5b906000526020600020016000915054906101000a900473ffffffffffffffffffffffffffffffffffffffff1681565b62001d5162001e90565b73ffffffffffffffffffffffffffffffffffffffff1662001d716200121a565b73ffffffffffffffffffffffffffffffffffffffff161462001dca576040517f08c379a000000000000000000000000000000000000000000000000000000000815260040162001dc19062002b7e565b60405180910390fd5b565b60008060009054906101000a900473ffffffffffffffffffffffffffffffffffffffff169050816000806101000a81548173ffffffffffffffffffffffffffffffffffffffff021916908373ffffffffffffffffffffffffffffffffffffffff1602179055508173ffffffffffffffffffffffffffffffffffffffff168173ffffffffffffffffffffffffffffffffffffffff167f8be0079c531659141344cd1fd0a4f28419497f9722a3daafe3b4186f6b6457e060405160405180910390a35050565b600033905090565b612c2e806200310883390190565b82805482825590600052602060002090600f0160109004810192821562001f445791602002820160005b8382111562001f1257835183826101000a81548161ffff021916908361ffff160217905550926020019260020160208160010104928301926001030262001ed0565b801562001f425782816101000a81549061ffff021916905560020160208160010104928301926001030262001f12565b505b50905062001f5391906200207f565b5090565b82805462001f659062002e69565b90600052602060002090601f01602090048101928262001f89576000855562001fd5565b82601f1062001fa457805160ff191683800117855562001fd5565b8280016001018555821562001fd5579182015b8281111562001fd457825182559160200191906001019062001fb7565b5b50905062001fe491906200207f565b5090565b604051806101800160405280600073ffffffffffffffffffffffffffffffffffffffff16815260200160008152602001600061ffff168152602001600061ffff16815260200160608152602001600073ffffffffffffffffffffffffffffffffffffffff16815260200160008152602001600081526020016000151581526020016060815260200160608152602001606081525090565b5b808211156200209a57600081600090555060010162002080565b5090565b6000620020b5620020af8462002c5e565b62002c35565b905082815260208101848484011115620020ce57600080fd5b620020db84828562002e24565b509392505050565b600081359050620020f481620030b9565b92915050565b600082601f8301126200210c57600080fd5b81356200211e8482602086016200209e565b91505092915050565b6000813590506200213881620030d3565b92915050565b6000813590506200214f81620030ed565b92915050565b6000602082840312156200216857600080fd5b60006200217884828501620020e3565b91505092915050565b600080604083850312156200219557600080fd5b6000620021a585828601620020e3565b9250506020620021b885828601620020e3565b9150509250929050565b600080600060608486031215620021d857600080fd5b6000620021e886828701620020e3565b9350506020620021fb86828701620020e3565b92505060406200220e8682870162002127565b9150509250925092565b6000806000806000806000806000806101408b8d0312156200223957600080fd5b60008b013567ffffffffffffffff8111156200225457600080fd5b620022628d828e01620020fa565b9a505060208b013567ffffffffffffffff8111156200228057600080fd5b6200228e8d828e01620020fa565b99505060408b013567ffffffffffffffff811115620022ac57600080fd5b620022ba8d828e01620020fa565b98505060608b013567ffffffffffffffff811115620022d857600080fd5b620022e68d828e01620020fa565b9750506080620022f98d828e016200213e565b96505060a06200230c8d828e0162002127565b95505060c06200231f8d828e0162002127565b94505060e0620023328d828e016200213e565b935050610100620023468d828e016200213e565b9250506101208b013567ffffffffffffffff8111156200236557600080fd5b620023738d828e01620020fa565b9150509295989b9194979a5092959850565b6000602082840312156200239857600080fd5b6000620023a8848285016200213e565b91505092915050565b6000620023bf83836200271c565b905092915050565b6000620023d583836200297e565b60208301905092915050565b6000620023ef8383620029a0565b60208301905092915050565b620024068162002db8565b82525050565b620024178162002db8565b82525050565b60006200242a8262002cc4565b62002436818562002d17565b9350836020820285016200244a8562002c94565b8060005b858110156200248c57848403895281516200246a8582620023b1565b9450620024778362002cf0565b925060208a019950506001810190506200244e565b50829750879550505050505092915050565b6000620024ab8262002ccf565b620024b7818562002d28565b9350620024c48362002ca4565b8060005b83811015620024fb578151620024df8882620023c7565b9750620024ec8362002cfd565b925050600181019050620024c8565b5085935050505092915050565b6000620025158262002ccf565b62002521818562002d39565b93506200252e8362002ca4565b8060005b8381101562002565578151620025498882620023c7565b9750620025568362002cfd565b92505060018101905062002532565b5085935050505092915050565b60006200257f8262002cda565b6200258b818562002d4a565b9350620025988362002cb4565b8060005b83811015620025cf578151620025b38882620023e1565b9750620025c08362002d0a565b9250506001810190506200259c565b5085935050505092915050565b620025e78162002dcc565b82525050565b620025f88162002dcc565b82525050565b60006200260b8262002ce5565b62002617818562002d5b565b93506200262981856020860162002e33565b620026348162002f92565b840191505092915050565b60006200264c8262002ce5565b62002658818562002d6c565b93506200266a81856020860162002e33565b620026758162002f92565b840191505092915050565b60006200268f60268362002d6c565b91506200269c8262002fa3565b604082019050919050565b6000620026b660208362002d6c565b9150620026c38262002ff2565b602082019050919050565b6000620026dd60418362002d6c565b9150620026ea826200301b565b606082019050919050565b600062002704601d8362002d6c565b9150620027118262003090565b602082019050919050565b600061018083016000830151620027376000860182620023fb565b5060208301516200274c6020860182620029a0565b5060408301516200276160408601826200297e565b5060608301516200277660608601826200297e565b50608083015184820360808601526200279082826200249e565b91505060a0830151620027a760a0860182620023fb565b5060c0830151620027bc60c0860182620029a0565b5060e0830151620027d160e0860182620029a0565b50610100830151620027e8610100860182620025dc565b50610120830151848203610120860152620028048282620025fe565b915050610140830151848203610140860152620028228282620025fe565b915050610160830151848203610160860152620028408282620025fe565b9150508091505092915050565b600061018083016000830151620028686000860182620023fb565b5060208301516200287d6020860182620029a0565b5060408301516200289260408601826200297e565b506060830151620028a760608601826200297e565b5060808301518482036080860152620028c182826200249e565b91505060a0830151620028d860a0860182620023fb565b5060c0830151620028ed60c0860182620029a0565b5060e08301516200290260e0860182620029a0565b5061010083015162002919610100860182620025dc565b50610120830151848203610120860152620029358282620025fe565b915050610140830151848203610140860152620029538282620025fe565b915050610160830151848203610160860152620029718282620025fe565b9150508091505092915050565b620029898162002dd8565b82525050565b6200299a8162002e10565b82525050565b620029ab8162002e06565b82525050565b620029bc8162002e06565b82525050565b6000602082019050620029d960008301846200240c565b92915050565b6000604082019050620029f660008301856200240c565b62002a0560208301846200298f565b9392505050565b60006101208201905062002a24600083018c6200240c565b62002a33602083018b620029b1565b62002a42604083018a6200298f565b62002a5160608301896200298f565b818103608083015262002a65818862002508565b905062002a7660a08301876200240c565b62002a8560c0830186620029b1565b62002a9460e0830185620029b1565b62002aa4610100830184620025ed565b9a9950505050505050505050565b6000602082019050818103600083015262002ace81846200241d565b905092915050565b6000602082019050818103600083015262002af2818462002572565b905092915050565b6000608082019050818103600083015262002b1681876200263f565b9050818103602083015262002b2c81866200263f565b9050818103604083015262002b4281856200263f565b905062002b5360608301846200240c565b95945050505050565b6000602082019050818103600083015262002b778162002680565b9050919050565b6000602082019050818103600083015262002b9981620026a7565b9050919050565b6000602082019050818103600083015262002bbb81620026ce565b9050919050565b6000602082019050818103600083015262002bdd81620026f5565b9050919050565b6000602082019050818103600083015262002c0081846200284d565b905092915050565b600060408201905062002c1f60008301856200298f565b62002c2e60208301846200240c565b9392505050565b600062002c4162002c54565b905062002c4f828262002e9f565b919050565b6000604051905090565b600067ffffffffffffffff82111562002c7c5762002c7b62002f63565b5b62002c878262002f92565b9050602081019050919050565b6000819050602082019050919050565b6000819050602082019050919050565b6000819050602082019050919050565b600081519050919050565b600081519050919050565b600081519050919050565b600081519050919050565b6000602082019050919050565b6000602082019050919050565b6000602082019050919050565b600082825260208201905092915050565b600082825260208201905092915050565b600082825260208201905092915050565b600082825260208201905092915050565b600082825260208201905092915050565b600082825260208201905092915050565b600062002d8a8262002e06565b915062002d978362002e06565b92508282101562002dad5762002dac62002f05565b5b828203905092915050565b600062002dc58262002de6565b9050919050565b60008115159050919050565b600061ffff82169050919050565b600073ffffffffffffffffffffffffffffffffffffffff82169050919050565b6000819050919050565b600062002e1d8262002dd8565b9050919050565b82818337600083830152505050565b60005b8381101562002e5357808201518184015260208101905062002e36565b8381111562002e63576000848401525b50505050565b6000600282049050600182168062002e8257607f821691505b6020821081141562002e995762002e9862002f34565b5b50919050565b62002eaa8262002f92565b810181811067ffffffffffffffff8211171562002ecc5762002ecb62002f63565b5b80604052505050565b600062002ee28262002dd8565b915061ffff82141562002efa5762002ef962002f05565b5b600182019050919050565b7f4e487b7100000000000000000000000000000000000000000000000000000000600052601160045260246000fd5b7f4e487b7100000000000000000000000000000000000000000000000000000000600052602260045260246000fd5b7f4e487b7100000000000000000000000000000000000000000000000000000000600052604160045260246000fd5b6000601f19601f8301169050919050565b7f4f776e61626c653a206e6577206f776e657220697320746865207a65726f206160008201527f6464726573730000000000000000000000000000000000000000000000000000602082015250565b7f4f776e61626c653a2063616c6c6572206973206e6f7420746865206f776e6572600082015250565b7f436f6c6c656374696f6e466163746f72793a2050726573616c6520537570706c60008201527f7920697320686967686572207468616e20746f74616c204e465420537570706c60208201527f7900000000000000000000000000000000000000000000000000000000000000604082015250565b7f4f6e6c79206e667453746f72652063616e207570646174652074686973000000600082015250565b620030c48162002db8565b8114620030d057600080fd5b50565b620030de8162002dd8565b8114620030ea57600080fd5b50565b620030f88162002e06565b81146200310457600080fd5b5056fe60806040523480156200001157600080fd5b5060405162002c2e38038062002c2e83398181016040528101906200003791906200020a565b8383816000908051906020019062000051929190620000d1565b5080600190805190602001906200006a929190620000d1565b505050816006908051906020019062000085929190620000d1565b5080600760006101000a81548173ffffffffffffffffffffffffffffffffffffffff021916908373ffffffffffffffffffffffffffffffffffffffff160217905550505050506200047f565b828054620000df906200038a565b90600052602060002090601f0160209004810192826200010357600085556200014f565b82601f106200011e57805160ff19168380011785556200014f565b828001600101855582156200014f579182015b828111156200014e57825182559160200191906001019062000131565b5b5090506200015e919062000162565b5090565b5b808211156200017d57600081600090555060010162000163565b5090565b6000620001986200019284620002ea565b620002c1565b905082815260208101848484011115620001b157600080fd5b620001be84828562000354565b509392505050565b600081519050620001d78162000465565b92915050565b600082601f830112620001ef57600080fd5b81516200020184826020860162000181565b91505092915050565b600080600080608085870312156200022157600080fd5b600085015167ffffffffffffffff8111156200023c57600080fd5b6200024a87828801620001dd565b945050602085015167ffffffffffffffff8111156200026857600080fd5b6200027687828801620001dd565b935050604085015167ffffffffffffffff8111156200029457600080fd5b620002a287828801620001dd565b9250506060620002b587828801620001c6565b91505092959194509250565b6000620002cd620002e0565b9050620002db8282620003c0565b919050565b6000604051905090565b600067ffffffffffffffff82111562000308576200030762000425565b5b620003138262000454565b9050602081019050919050565b60006200032d8262000334565b9050919050565b600073ffffffffffffffffffffffffffffffffffffffff82169050919050565b60005b838110156200037457808201518184015260208101905062000357565b8381111562000384576000848401525b50505050565b60006002820490506001821680620003a357607f821691505b60208210811415620003ba57620003b9620003f6565b5b50919050565b620003cb8262000454565b810181811067ffffffffffffffff82111715620003ed57620003ec62000425565b5b80604052505050565b7f4e487b7100000000000000000000000000000000000000000000000000000000600052602260045260246000fd5b7f4e487b7100000000000000000000000000000000000000000000000000000000600052604160045260246000fd5b6000601f19601f8301169050919050565b620004708162000320565b81146200047c57600080fd5b50565b61279f806200048f6000396000f3fe608060405234801561001057600080fd5b50600436106100f55760003560e01c806370a0823111610097578063a22cb46511610066578063a22cb46514610296578063b88d4fde146102b2578063c87b56dd146102ce578063e985e9c5146102fe576100f5565b806370a08231146101fc5780638ad913451461022c57806394bf804d1461025c57806395d89b4114610278576100f5565b8063095ea7b3116100d3578063095ea7b31461017857806323b872dd1461019457806342842e0e146101b05780636352211e146101cc576100f5565b806301ffc9a7146100fa57806306fdde031461012a578063081812fc14610148575b600080fd5b610114600480360381019061010f9190611993565b61032e565b6040516101219190611e24565b60405180910390f35b610132610340565b60405161013f9190611e3f565b60405180910390f35b610162600480360381019061015d91906119e5565b6103d2565b60405161016f9190611dbd565b60405180910390f35b610192600480360381019061018d9190611957565b610418565b005b6101ae60048036038101906101a99190611851565b610530565b005b6101ca60048036038101906101c59190611851565b610590565b005b6101e660048036038101906101e191906119e5565b6105b0565b6040516101f39190611dbd565b60405180910390f35b610216600480360381019061021191906117ec565b610662565b6040516102239190611fe1565b60405180910390f35b610246600480360381019061024191906119e5565b61071a565b6040516102539190611e3f565b60405180910390f35b61027660048036038101906102719190611a0e565b61074e565b005b6102806107ec565b60405161028d9190611e3f565b60405180910390f35b6102b060048036038101906102ab919061191b565b61087e565b005b6102cc60048036038101906102c791906118a0565b610894565b005b6102e860048036038101906102e391906119e5565b6108f6565b6040516102f59190611e3f565b60405180910390f35b61031860048036038101906103139190611815565b61092a565b6040516103259190611e24565b60405180910390f35b6000610339826109be565b9050919050565b60606000805461034f9061221b565b80601f016020809104026020016040519081016040528092919081815260200182805461037b9061221b565b80156103c85780601f1061039d576101008083540402835291602001916103c8565b820191906000526020600020905b8154815290600101906020018083116103ab57829003601f168201915b5050505050905090565b60006103dd82610aa0565b6004600083815260200190815260200160002060009054906101000a900473ffffffffffffffffffffffffffffffffffffffff169050919050565b6000610423826105b0565b90508073ffffffffffffffffffffffffffffffffffffffff168373ffffffffffffffffffffffffffffffffffffffff161415610494576040517f08c379a000000000000000000000000000000000000000000000000000000000815260040161048b90611f81565b60405180910390fd5b8073ffffffffffffffffffffffffffffffffffffffff166104b3610aeb565b73ffffffffffffffffffffffffffffffffffffffff1614806104e257506104e1816104dc610aeb565b61092a565b5b610521576040517f08c379a000000000000000000000000000000000000000000000000000000000815260040161051890611f21565b60405180910390fd5b61052b8383610af3565b505050565b61054161053b610aeb565b82610bac565b610580576040517f08c379a000000000000000000000000000000000000000000000000000000000815260040161057790611fc1565b60405180910390fd5b61058b838383610c41565b505050565b6105ab83838360405180602001604052806000815250610894565b505050565b6000806002600084815260200190815260200160002060009054906101000a900473ffffffffffffffffffffffffffffffffffffffff169050600073ffffffffffffffffffffffffffffffffffffffff168173ffffffffffffffffffffffffffffffffffffffff161415610659576040517f08c379a000000000000000000000000000000000000000000000000000000000815260040161065090611f61565b60405180910390fd5b80915050919050565b60008073ffffffffffffffffffffffffffffffffffffffff168273ffffffffffffffffffffffffffffffffffffffff1614156106d3576040517f08c379a00000000000000000000000000000000000000000000000000000000081526004016106ca90611f01565b60405180910390fd5b600360008373ffffffffffffffffffffffffffffffffffffffff1673ffffffffffffffffffffffffffffffffffffffff168152602001908152602001600020549050919050565b6060600661072783610ea8565b604051602001610738929190611d83565b6040516020818303038152906040529050919050565b600760009054906101000a900473ffffffffffffffffffffffffffffffffffffffff1673ffffffffffffffffffffffffffffffffffffffff163373ffffffffffffffffffffffffffffffffffffffff16146107de576040517f08c379a00000000000000000000000000000000000000000000000000000000081526004016107d590611fa1565b60405180910390fd5b6107e88183611055565b5050565b6060600180546107fb9061221b565b80601f01602080910402602001604051908101604052809291908181526020018280546108279061221b565b80156108745780601f1061084957610100808354040283529160200191610874565b820191906000526020600020905b81548152906001019060200180831161085757829003601f168201915b5050505050905090565b610890610889610aeb565b8383611073565b5050565b6108a561089f610aeb565b83610bac565b6108e4576040517f08c379a00000000000000000000000000000000000000000000000000000000081526004016108db90611fc1565b60405180910390fd5b6108f0848484846111e0565b50505050565b6060600661090383610ea8565b604051602001610914929190611d83565b6040516020818303038152906040529050919050565b6000600560008473ffffffffffffffffffffffffffffffffffffffff1673ffffffffffffffffffffffffffffffffffffffff16815260200190815260200160002060008373ffffffffffffffffffffffffffffffffffffffff1673ffffffffffffffffffffffffffffffffffffffff16815260200190815260200160002060009054906101000a900460ff16905092915050565b60007f80ac58cd000000000000000000000000000000000000000000000000000000007bffffffffffffffffffffffffffffffffffffffffffffffffffffffff1916827bffffffffffffffffffffffffffffffffffffffffffffffffffffffff19161480610a8957507f5b5e139f000000000000000000000000000000000000000000000000000000007bffffffffffffffffffffffffffffffffffffffffffffffffffffffff1916827bffffffffffffffffffffffffffffffffffffffffffffffffffffffff1916145b80610a995750610a988261123c565b5b9050919050565b610aa9816112a6565b610ae8576040517f08c379a0000000000000000000000000000000000000000000000000000000008152600401610adf90611f61565b60405180910390fd5b50565b600033905090565b816004600083815260200190815260200160002060006101000a81548173ffffffffffffffffffffffffffffffffffffffff021916908373ffffffffffffffffffffffffffffffffffffffff160217905550808273ffffffffffffffffffffffffffffffffffffffff16610b66836105b0565b73ffffffffffffffffffffffffffffffffffffffff167f8c5be1e5ebec7d5bd14f71427d1e84f3dd0314c0f7b2291e5b200ac8c7c3b92560405160405180910390a45050565b600080610bb8836105b0565b90508073ffffffffffffffffffffffffffffffffffffffff168473ffffffffffffffffffffffffffffffffffffffff161480610bfa5750610bf9818561092a565b5b80610c3857508373ffffffffffffffffffffffffffffffffffffffff16610c20846103d2565b73ffffffffffffffffffffffffffffffffffffffff16145b91505092915050565b8273ffffffffffffffffffffffffffffffffffffffff16610c61826105b0565b73ffffffffffffffffffffffffffffffffffffffff1614610cb7576040517f08c379a0000000000000000000000000000000000000000000000000000000008152600401610cae90611e81565b60405180910390fd5b600073ffffffffffffffffffffffffffffffffffffffff168273ffffffffffffffffffffffffffffffffffffffff161415610d27576040517f08c379a0000000000000000000000000000000000000000000000000000000008152600401610d1e90611ec1565b60405180910390fd5b610d32838383611312565b610d3d600082610af3565b6001600360008573ffffffffffffffffffffffffffffffffffffffff1673ffffffffffffffffffffffffffffffffffffffff1681526020019081526020016000206000828254610d8d9190612131565b925050819055506001600360008473ffffffffffffffffffffffffffffffffffffffff1673ffffffffffffffffffffffffffffffffffffffff1681526020019081526020016000206000828254610de491906120aa565b92505081905550816002600083815260200190815260200160002060006101000a81548173ffffffffffffffffffffffffffffffffffffffff021916908373ffffffffffffffffffffffffffffffffffffffff160217905550808273ffffffffffffffffffffffffffffffffffffffff168473ffffffffffffffffffffffffffffffffffffffff167fddf252ad1be2c89b69c2b068fc378daa952ba7f163c4a11628f55a4df523b3ef60405160405180910390a4610ea3838383611322565b505050565b60606000821415610ef0576040518060400160405280600181526020017f30000000000000000000000000000000000000000000000000000000000000008152509050611050565b600082905060005b60008214610f22578080610f0b9061227e565b915050600a82610f1b9190612100565b9150610ef8565b60008167ffffffffffffffff811115610f64577f4e487b7100000000000000000000000000000000000000000000000000000000600052604160045260246000fd5b6040519080825280601f01601f191660200182016040528015610f965781602001600182028036833780820191505090505b5090505b6000851461104957600182610faf9190612131565b9150600a85610fbe91906122c7565b6030610fca91906120aa565b60f81b818381518110611006577f4e487b7100000000000000000000000000000000000000000000000000000000600052603260045260246000fd5b60200101907effffffffffffffffffffffffffffffffffffffffffffffffffffffffffffff1916908160001a905350600a856110429190612100565b9450610f9a565b8093505050505b919050565b61106f828260405180602001604052806000815250611327565b5050565b8173ffffffffffffffffffffffffffffffffffffffff168373ffffffffffffffffffffffffffffffffffffffff1614156110e2576040517f08c379a00000000000000000000000000000000000000000000000000000000081526004016110d990611ee1565b60405180910390fd5b80600560008573ffffffffffffffffffffffffffffffffffffffff1673ffffffffffffffffffffffffffffffffffffffff16815260200190815260200160002060008473ffffffffffffffffffffffffffffffffffffffff1673ffffffffffffffffffffffffffffffffffffffff16815260200190815260200160002060006101000a81548160ff0219169083151502179055508173ffffffffffffffffffffffffffffffffffffffff168373ffffffffffffffffffffffffffffffffffffffff167f17307eab39ab6107e8899845ad3d59bd9653f200f220920489ca2b5937696c31836040516111d39190611e24565b60405180910390a3505050565b6111eb848484610c41565b6111f784848484611382565b611236576040517f08c379a000000000000000000000000000000000000000000000000000000000815260040161122d90611e61565b60405180910390fd5b50505050565b60007f01ffc9a7000000000000000000000000000000000000000000000000000000007bffffffffffffffffffffffffffffffffffffffffffffffffffffffff1916827bffffffffffffffffffffffffffffffffffffffffffffffffffffffff1916149050919050565b60008073ffffffffffffffffffffffffffffffffffffffff166002600084815260200190815260200160002060009054906101000a900473ffffffffffffffffffffffffffffffffffffffff1673ffffffffffffffffffffffffffffffffffffffff1614159050919050565b61131d838383611519565b505050565b505050565b611331838361151e565b61133e6000848484611382565b61137d576040517f08c379a000000000000000000000000000000000000000000000000000000000815260040161137490611e61565b60405180910390fd5b505050565b60006113a38473ffffffffffffffffffffffffffffffffffffffff166116f8565b1561150c578373ffffffffffffffffffffffffffffffffffffffff1663150b7a026113cc610aeb565b8786866040518563ffffffff1660e01b81526004016113ee9493929190611dd8565b602060405180830381600087803b15801561140857600080fd5b505af192505050801561143957506040513d601f19601f8201168201806040525081019061143691906119bc565b60015b6114bc573d8060008114611469576040519150601f19603f3d011682016040523d82523d6000602084013e61146e565b606091505b506000815114156114b4576040517f08c379a00000000000000000000000000000000000000000000000000000000081526004016114ab90611e61565b60405180910390fd5b805181602001fd5b63150b7a0260e01b7bffffffffffffffffffffffffffffffffffffffffffffffffffffffff1916817bffffffffffffffffffffffffffffffffffffffffffffffffffffffff191614915050611511565b600190505b949350505050565b505050565b600073ffffffffffffffffffffffffffffffffffffffff168273ffffffffffffffffffffffffffffffffffffffff16141561158e576040517f08c379a000000000000000000000000000000000000000000000000000000000815260040161158590611f41565b60405180910390fd5b611597816112a6565b156115d7576040517f08c379a00000000000000000000000000000000000000000000000000000000081526004016115ce90611ea1565b60405180910390fd5b6115e360008383611312565b6001600360008473ffffffffffffffffffffffffffffffffffffffff1673ffffffffffffffffffffffffffffffffffffffff168152602001908152602001600020600082825461163391906120aa565b92505081905550816002600083815260200190815260200160002060006101000a81548173ffffffffffffffffffffffffffffffffffffffff021916908373ffffffffffffffffffffffffffffffffffffffff160217905550808273ffffffffffffffffffffffffffffffffffffffff16600073ffffffffffffffffffffffffffffffffffffffff167fddf252ad1be2c89b69c2b068fc378daa952ba7f163c4a11628f55a4df523b3ef60405160405180910390a46116f460008383611322565b5050565b6000808273ffffffffffffffffffffffffffffffffffffffff163b119050919050565b600061172e61172984612021565b611ffc565b90508281526020810184848401111561174657600080fd5b6117518482856121d9565b509392505050565b6000813590506117688161270d565b92915050565b60008135905061177d81612724565b92915050565b6000813590506117928161273b565b92915050565b6000815190506117a78161273b565b92915050565b600082601f8301126117be57600080fd5b81356117ce84826020860161171b565b91505092915050565b6000813590506117e681612752565b92915050565b6000602082840312156117fe57600080fd5b600061180c84828501611759565b91505092915050565b6000806040838503121561182857600080fd5b600061183685828601611759565b925050602061184785828601611759565b9150509250929050565b60008060006060848603121561186657600080fd5b600061187486828701611759565b935050602061188586828701611759565b9250506040611896868287016117d7565b9150509250925092565b600080600080608085870312156118b657600080fd5b60006118c487828801611759565b94505060206118d587828801611759565b93505060406118e6878288016117d7565b925050606085013567ffffffffffffffff81111561190357600080fd5b61190f878288016117ad565b91505092959194509250565b6000806040838503121561192e57600080fd5b600061193c85828601611759565b925050602061194d8582860161176e565b9150509250929050565b6000806040838503121561196a57600080fd5b600061197885828601611759565b9250506020611989858286016117d7565b9150509250929050565b6000602082840312156119a557600080fd5b60006119b384828501611783565b91505092915050565b6000602082840312156119ce57600080fd5b60006119dc84828501611798565b91505092915050565b6000602082840312156119f757600080fd5b6000611a05848285016117d7565b91505092915050565b60008060408385031215611a2157600080fd5b6000611a2f858286016117d7565b9250506020611a4085828601611759565b9150509250929050565b611a5381612165565b82525050565b611a6281612177565b82525050565b6000611a7382612067565b611a7d818561207d565b9350611a8d8185602086016121e8565b611a96816123b4565b840191505092915050565b6000611aac82612072565b611ab6818561208e565b9350611ac68185602086016121e8565b611acf816123b4565b840191505092915050565b6000611ae582612072565b611aef818561209f565b9350611aff8185602086016121e8565b80840191505092915050565b60008154611b188161221b565b611b22818661209f565b94506001821660008114611b3d5760018114611b4e57611b81565b60ff19831686528186019350611b81565b611b5785612052565b60005b83811015611b7957815481890152600182019150602081019050611b5a565b838801955050505b50505092915050565b6000611b9760328361208e565b9150611ba2826123c5565b604082019050919050565b6000611bba60258361208e565b9150611bc582612414565b604082019050919050565b6000611bdd601c8361208e565b9150611be882612463565b602082019050919050565b6000611c0060248361208e565b9150611c0b8261248c565b604082019050919050565b6000611c2360198361208e565b9150611c2e826124db565b602082019050919050565b6000611c4660298361208e565b9150611c5182612504565b604082019050919050565b6000611c69603e8361208e565b9150611c7482612553565b604082019050919050565b6000611c8c60208361208e565b9150611c97826125a2565b602082019050919050565b6000611caf60058361209f565b9150611cba826125cb565b600582019050919050565b6000611cd260188361208e565b9150611cdd826125f4565b602082019050919050565b6000611cf560218361208e565b9150611d008261261d565b604082019050919050565b6000611d1860168361208e565b9150611d238261266c565b602082019050919050565b6000611d3b602e8361208e565b9150611d4682612695565b604082019050919050565b6000611d5e60018361209f565b9150611d69826126e4565b600182019050919050565b611d7d816121cf565b82525050565b6000611d8f8285611b0b565b9150611d9a82611d51565b9150611da68284611ada565b9150611db182611ca2565b91508190509392505050565b6000602082019050611dd26000830184611a4a565b92915050565b6000608082019050611ded6000830187611a4a565b611dfa6020830186611a4a565b611e076040830185611d74565b8181036060830152611e198184611a68565b905095945050505050565b6000602082019050611e396000830184611a59565b92915050565b60006020820190508181036000830152611e598184611aa1565b905092915050565b60006020820190508181036000830152611e7a81611b8a565b9050919050565b60006020820190508181036000830152611e9a81611bad565b9050919050565b60006020820190508181036000830152611eba81611bd0565b9050919050565b60006020820190508181036000830152611eda81611bf3565b9050919050565b60006020820190508181036000830152611efa81611c16565b9050919050565b60006020820190508181036000830152611f1a81611c39565b9050919050565b60006020820190508181036000830152611f3a81611c5c565b9050919050565b60006020820190508181036000830152611f5a81611c7f565b9050919050565b60006020820190508181036000830152611f7a81611cc5565b9050919050565b60006020820190508181036000830152611f9a81611ce8565b9050919050565b60006020820190508181036000830152611fba81611d0b565b9050919050565b60006020820190508181036000830152611fda81611d2e565b9050919050565b6000602082019050611ff66000830184611d74565b92915050565b6000612006612017565b9050612012828261224d565b919050565b6000604051905090565b600067ffffffffffffffff82111561203c5761203b612385565b5b612045826123b4565b9050602081019050919050565b60008190508160005260206000209050919050565b600081519050919050565b600081519050919050565b600082825260208201905092915050565b600082825260208201905092915050565b600081905092915050565b60006120b5826121cf565b91506120c0836121cf565b9250827fffffffffffffffffffffffffffffffffffffffffffffffffffffffffffffffff038211156120f5576120f46122f8565b5b828201905092915050565b600061210b826121cf565b9150612116836121cf565b92508261212657612125612327565b5b828204905092915050565b600061213c826121cf565b9150612147836121cf565b92508282101561215a576121596122f8565b5b828203905092915050565b6000612170826121af565b9050919050565b60008115159050919050565b60007fffffffff0000000000000000000000000000000000000000000000000000000082169050919050565b600073ffffffffffffffffffffffffffffffffffffffff82169050919050565b6000819050919050565b82818337600083830152505050565b60005b838110156122065780820151818401526020810190506121eb565b83811115612215576000848401525b50505050565b6000600282049050600182168061223357607f821691505b6020821081141561224757612246612356565b5b50919050565b612256826123b4565b810181811067ffffffffffffffff8211171561227557612274612385565b5b80604052505050565b6000612289826121cf565b91507fffffffffffffffffffffffffffffffffffffffffffffffffffffffffffffffff8214156122bc576122bb6122f8565b5b600182019050919050565b60006122d2826121cf565b91506122dd836121cf565b9250826122ed576122ec612327565b5b828206905092915050565b7f4e487b7100000000000000000000000000000000000000000000000000000000600052601160045260246000fd5b7f4e487b7100000000000000000000000000000000000000000000000000000000600052601260045260246000fd5b7f4e487b7100000000000000000000000000000000000000000000000000000000600052602260045260246000fd5b7f4e487b7100000000000000000000000000000000000000000000000000000000600052604160045260246000fd5b6000601f19601f8301169050919050565b7f4552433732313a207472616e7366657220746f206e6f6e20455243373231526560008201527f63656976657220696d706c656d656e7465720000000000000000000000000000602082015250565b7f4552433732313a207472616e736665722066726f6d20696e636f72726563742060008201527f6f776e6572000000000000000000000000000000000000000000000000000000602082015250565b7f4552433732313a20746f6b656e20616c7265616479206d696e74656400000000600082015250565b7f4552433732313a207472616e7366657220746f20746865207a65726f2061646460008201527f7265737300000000000000000000000000000000000000000000000000000000602082015250565b7f4552433732313a20617070726f766520746f2063616c6c657200000000000000600082015250565b7f4552433732313a2061646472657373207a65726f206973206e6f74206120766160008201527f6c6964206f776e65720000000000000000000000000000000000000000000000602082015250565b7f4552433732313a20617070726f76652063616c6c6572206973206e6f7420746f60008201527f6b656e206f776e6572206e6f7220617070726f76656420666f7220616c6c0000602082015250565b7f4552433732313a206d696e7420746f20746865207a65726f2061646472657373600082015250565b7f2e6a736f6e000000000000000000000000000000000000000000000000000000600082015250565b7f4552433732313a20696e76616c696420746f6b656e2049440000000000000000600082015250565b7f4552433732313a20617070726f76616c20746f2063757272656e74206f776e6560008201527f7200000000000000000000000000000000000000000000000000000000000000602082015250565b7f4f6e6c79204e667453746f72652063616e206d696e7400000000000000000000600082015250565b7f4552433732313a2063616c6c6572206973206e6f7420746f6b656e206f776e6560008201527f72206e6f7220617070726f766564000000000000000000000000000000000000602082015250565b7f2f00000000000000000000000000000000000000000000000000000000000000600082015250565b61271681612165565b811461272157600080fd5b50565b61272d81612177565b811461273857600080fd5b50565b61274481612183565b811461274f57600080fd5b50565b61275b816121cf565b811461276657600080fd5b5056fea26469706673582212208e65ce2673dea658b761d2271ab3dabbc6b7b4492d523126dcd7e6ac47060da664736f6c63430008040033a264697066735822122030027e3eb4b6086ec5851166986f809204358e07222f4e81c6309a214325bdd564736f6c63430008040033",
  "linkReferences": {},
  "deployedLinkReferences": {}
}