{
  "_format": "hh-sol-artifact-1",
  "contractName": "CollectionFactory",
  "sourceName": "src/contracts/CollectionFactory.sol",
  "abi": [
    {
      "anonymous": false,
      "inputs": [
        {
          "indexed": false,
          "internalType": "address",
          "name": "nftCollectionAddress",
          "type": "address"
        },
        {
          "indexed": false,
          "internalType": "uint256",
          "name": "nftIndex",
          "type": "uint256"
        }
      ],
      "name": "AvailableNFtsUpdated",
      "type": "event"
    },
    {
      "anonymous": false,
      "inputs": [
        {
          "indexed": false,
          "internalType": "address",
          "name": "nftCollectionAddress",
          "type": "address"
        },
        {
          "indexed": false,
          "internalType": "uint256",
          "name": "presaleDate",
          "type": "uint256"
        },
        {
          "indexed": false,
          "internalType": "uint256",
          "name": "mysteryBoxCap",
          "type": "uint256"
        },
        {
          "indexed": false,
          "internalType": "uint256",
          "name": "nftCap",
          "type": "uint256"
        },
        {
          "indexed": false,
          "internalType": "uint16[]",
          "name": "availableNFTs",
          "type": "uint16[]"
        },
        {
          "indexed": false,
          "internalType": "address",
          "name": "owner",
          "type": "address"
        },
        {
          "indexed": false,
          "internalType": "uint256",
          "name": "mysteryBoxUsdPrice",
          "type": "uint256"
        },
        {
          "indexed": false,
          "internalType": "uint256",
          "name": "nftUsdPrice",
          "type": "uint256"
        },
        {
          "indexed": false,
          "internalType": "bool",
          "name": "frozen",
          "type": "bool"
        }
      ],
      "name": "NFTCollectionCreated",
      "type": "event"
    },
    {
      "anonymous": false,
      "inputs": [
        {
          "indexed": true,
          "internalType": "address",
          "name": "previousOwner",
          "type": "address"
        },
        {
          "indexed": true,
          "internalType": "address",
          "name": "newOwner",
          "type": "address"
        }
      ],
      "name": "OwnershipTransferred",
      "type": "event"
    },
    {
      "inputs": [
        {
          "internalType": "uint256",
          "name": "",
          "type": "uint256"
        }
      ],
      "name": "collections",
      "outputs": [
        {
          "internalType": "address",
          "name": "",
          "type": "address"
        }
      ],
      "stateMutability": "view",
      "type": "function"
    },
    {
      "inputs": [
        {
          "internalType": "string",
          "name": "_tokenName",
          "type": "string"
        },
        {
          "internalType": "string",
          "name": "_tokenSymbol",
          "type": "string"
        },
        {
          "internalType": "string",
          "name": "_baseUri",
          "type": "string"
        },
        {
          "internalType": "string",
          "name": "_coverImageUri",
          "type": "string"
        },
        {
          "internalType": "uint256",
          "name": "_presaleDate",
          "type": "uint256"
        },
        {
          "internalType": "uint16",
          "name": "_mysteryBoxCap",
          "type": "uint16"
        },
        {
          "internalType": "uint16",
          "name": "_nftCap",
          "type": "uint16"
        },
        {
          "internalType": "uint256",
          "name": "_mysteryBoxUsdPrice",
          "type": "uint256"
        },
        {
          "internalType": "uint256",
          "name": "_nftUsdPrice",
          "type": "uint256"
        }
      ],
      "name": "createNFTCollection",
      "outputs": [],
      "stateMutability": "nonpayable",
      "type": "function"
    },
    {
      "inputs": [],
      "name": "getAllCollectionData",
      "outputs": [
        {
          "components": [
            {
              "internalType": "uint256",
              "name": "presaleDate",
              "type": "uint256"
            },
            {
              "internalType": "uint16",
              "name": "mysteryBoxCap",
              "type": "uint16"
            },
            {
              "internalType": "uint16",
              "name": "nftCap",
              "type": "uint16"
            },
            {
              "internalType": "uint16[]",
              "name": "availableNfts",
              "type": "uint16[]"
            },
            {
              "internalType": "address",
              "name": "owner",
              "type": "address"
            },
            {
              "internalType": "uint256",
              "name": "mysteryBoxUsdPrice",
              "type": "uint256"
            },
            {
              "internalType": "uint256",
              "name": "nftUsdPrice",
              "type": "uint256"
            },
            {
              "internalType": "bool",
              "name": "frozen",
              "type": "bool"
            },
            {
              "internalType": "string",
              "name": "coverImageUri",
              "type": "string"
            },
            {
              "internalType": "string",
              "name": "tokenName",
              "type": "string"
            }
          ],
          "internalType": "struct CollectionFactory.Collections[]",
          "name": "",
          "type": "tuple[]"
        }
      ],
      "stateMutability": "view",
      "type": "function"
    },
    {
      "inputs": [
        {
          "internalType": "address",
          "name": "_collectionAddress",
          "type": "address"
        }
      ],
      "name": "getCollection",
      "outputs": [
        {
          "components": [
            {
              "internalType": "uint256",
              "name": "presaleDate",
              "type": "uint256"
            },
            {
              "internalType": "uint16",
              "name": "mysteryBoxCap",
              "type": "uint16"
            },
            {
              "internalType": "uint16",
              "name": "nftCap",
              "type": "uint16"
            },
            {
              "internalType": "uint16[]",
              "name": "availableNfts",
              "type": "uint16[]"
            },
            {
              "internalType": "address",
              "name": "owner",
              "type": "address"
            },
            {
              "internalType": "uint256",
              "name": "mysteryBoxUsdPrice",
              "type": "uint256"
            },
            {
              "internalType": "uint256",
              "name": "nftUsdPrice",
              "type": "uint256"
            },
            {
              "internalType": "bool",
              "name": "frozen",
              "type": "bool"
            },
            {
              "internalType": "string",
              "name": "coverImageUri",
              "type": "string"
            },
            {
              "internalType": "string",
              "name": "tokenName",
              "type": "string"
            }
          ],
          "internalType": "struct CollectionFactory.Collections",
          "name": "",
          "type": "tuple"
        }
      ],
      "stateMutability": "view",
      "type": "function"
    },
    {
      "inputs": [],
      "name": "getMyCollectionData",
      "outputs": [
        {
          "components": [
            {
              "internalType": "uint256",
              "name": "presaleDate",
              "type": "uint256"
            },
            {
              "internalType": "uint16",
              "name": "mysteryBoxCap",
              "type": "uint16"
            },
            {
              "internalType": "uint16",
              "name": "nftCap",
              "type": "uint16"
            },
            {
              "internalType": "uint16[]",
              "name": "availableNfts",
              "type": "uint16[]"
            },
            {
              "internalType": "address",
              "name": "owner",
              "type": "address"
            },
            {
              "internalType": "uint256",
              "name": "mysteryBoxUsdPrice",
              "type": "uint256"
            },
            {
              "internalType": "uint256",
              "name": "nftUsdPrice",
              "type": "uint256"
            },
            {
              "internalType": "bool",
              "name": "frozen",
              "type": "bool"
            },
            {
              "internalType": "string",
              "name": "coverImageUri",
              "type": "string"
            },
            {
              "internalType": "string",
              "name": "tokenName",
              "type": "string"
            }
          ],
          "internalType": "struct CollectionFactory.Collections[]",
          "name": "",
          "type": "tuple[]"
        }
      ],
      "stateMutability": "view",
      "type": "function"
    },
    {
      "inputs": [],
      "name": "nftStoreAddress",
      "outputs": [
        {
          "internalType": "address",
          "name": "",
          "type": "address"
        }
      ],
      "stateMutability": "view",
      "type": "function"
    },
    {
      "inputs": [],
      "name": "owner",
      "outputs": [
        {
          "internalType": "address",
          "name": "",
          "type": "address"
        }
      ],
      "stateMutability": "view",
      "type": "function"
    },
    {
      "inputs": [],
      "name": "renounceOwnership",
      "outputs": [],
      "stateMutability": "nonpayable",
      "type": "function"
    },
    {
      "inputs": [
        {
          "internalType": "address",
          "name": "_nftStoreAddress",
          "type": "address"
        }
      ],
      "name": "setNftStoreAddress",
      "outputs": [],
      "stateMutability": "nonpayable",
      "type": "function"
    },
    {
      "inputs": [
        {
          "internalType": "address",
          "name": "newOwner",
          "type": "address"
        }
      ],
      "name": "transferOwnership",
      "outputs": [],
      "stateMutability": "nonpayable",
      "type": "function"
    },
    {
      "inputs": [
        {
          "internalType": "address",
          "name": "_collectionAddress",
          "type": "address"
        },
        {
          "internalType": "uint256",
          "name": "_USDPrice",
          "type": "uint256"
        }
      ],
      "name": "updadateMysteryBoxPrice",
      "outputs": [],
      "stateMutability": "nonpayable",
      "type": "function"
    },
    {
      "inputs": [
        {
          "internalType": "address",
          "name": "_nftCollection",
          "type": "address"
        },
        {
          "internalType": "uint16",
          "name": "_indexToDelete",
          "type": "uint16"
        }
      ],
      "name": "updateAvailableNFts",
      "outputs": [],
      "stateMutability": "nonpayable",
      "type": "function"
    },
    {
      "inputs": [
        {
          "internalType": "address",
          "name": "_collectionAddress",
          "type": "address"
        }
      ],
      "name": "updateFrozenFlag",
      "outputs": [],
      "stateMutability": "nonpayable",
      "type": "function"
    },
    {
      "inputs": [
        {
          "internalType": "address",
          "name": "_collectionAddress",
          "type": "address"
        },
        {
          "internalType": "uint256",
          "name": "_USDPrice",
          "type": "uint256"
        }
      ],
      "name": "updateNftPrice",
      "outputs": [],
      "stateMutability": "nonpayable",
      "type": "function"
    },
    {
      "inputs": [
        {
          "internalType": "address",
          "name": "_collectionAddress",
          "type": "address"
        },
        {
          "internalType": "uint256",
          "name": "_presaleDate",
          "type": "uint256"
        }
      ],
      "name": "updatePresaleDate",
      "outputs": [],
      "stateMutability": "nonpayable",
      "type": "function"
    }
  ],
  "bytecode": "0x60806040523480156200001157600080fd5b5062000032620000266200003860201b60201c565b6200004060201b60201c565b62000104565b600033905090565b60008060009054906101000a900473ffffffffffffffffffffffffffffffffffffffff169050816000806101000a81548173ffffffffffffffffffffffffffffffffffffffff021916908373ffffffffffffffffffffffffffffffffffffffff1602179055508173ffffffffffffffffffffffffffffffffffffffff168173ffffffffffffffffffffffffffffffffffffffff167f8be0079c531659141344cd1fd0a4f28419497f9722a3daafe3b4186f6b6457e060405160405180910390a35050565b615c6d80620001146000396000f3fe60806040523480156200001157600080fd5b50600436106200010c5760003560e01c8063c42fe14911620000a5578063f2fde38b116200006f578063f2fde38b1462000279578063f5891da91462000299578063f8e4c76914620002bb578063fdbda0ec14620002db576200010c565b8063c42fe14914620001e3578063e20f40c71462000203578063e40de8871462000223578063e592d94e1462000259576200010c565b8063715018a611620000e7578063715018a6146200017557806384856b7214620001815780638da5cb5b14620001a15780639cc1954814620001c3576200010c565b806303554e6a14620001115780635cda7e3e146200013157806366bea4af1462000153575b600080fd5b6200012f600480360381019062000129919062001f28565b62000311565b005b6200013b6200035f565b6040516200014a9190620022ef565b60405180910390f35b6200015d620007d1565b6040516200016c919062002324565b60405180910390f35b6200017f620007f7565b005b6200019f600480360381019062000199919062002372565b6200080f565b005b620001ab620009ff565b604051620001ba919062002324565b60405180910390f35b620001e16004803603810190620001db9190620023ea565b62000a28565b005b620002016004803603810190620001fb9190620023ea565b62000b48565b005b6200022160048036038101906200021b919062001f28565b62000c68565b005b6200024160048036038101906200023b919062001f28565b62000dea565b6040516200025091906200252d565b60405180910390f35b620002776004803603810190620002719190620026a2565b620010cb565b005b62000297600480360381019062000291919062001f28565b6200155c565b005b620002a3620015e7565b604051620002b29190620022ef565b60405180910390f35b620002d96004803603810190620002d39190620023ea565b62001a1c565b005b620002f96004803603810190620002f39190620027fd565b62001b3c565b60405162000308919062002324565b60405180910390f35b6200031b62001b7c565b80600260006101000a81548173ffffffffffffffffffffffffffffffffffffffff021916908373ffffffffffffffffffffffffffffffffffffffff16021790555050565b60606000600460003373ffffffffffffffffffffffffffffffffffffffff1673ffffffffffffffffffffffffffffffffffffffff1681526020019081526020016000208054806020026020016040519081016040528092919081815260200182805480156200042457602002820191906000526020600020905b8160009054906101000a900473ffffffffffffffffffffffffffffffffffffffff1673ffffffffffffffffffffffffffffffffffffffff1681526020019060010190808311620003d9575b505050505090506000815167ffffffffffffffff8111156200044b576200044a6200255b565b5b6040519080825280602002602001820160405280156200048857816020015b6200047462001ccd565b8152602001906001900390816200046a5790505b50905060005b82518161ffff161015620007c85760036000848361ffff1681518110620004ba57620004b96200282f565b5b602002602001015173ffffffffffffffffffffffffffffffffffffffff1673ffffffffffffffffffffffffffffffffffffffff16815260200190815260200160002060405180610140016040529081600082015481526020016001820160009054906101000a900461ffff1661ffff1661ffff1681526020016001820160029054906101000a900461ffff1661ffff1661ffff16815260200160028201805480602002602001604051908101604052809291908181526020018280548015620005cb57602002820191906000526020600020906000905b82829054906101000a900461ffff1661ffff1681526020019060020190602082600101049283019260010382029150808411620005915790505b505050505081526020016003820160009054906101000a900473ffffffffffffffffffffffffffffffffffffffff1673ffffffffffffffffffffffffffffffffffffffff1673ffffffffffffffffffffffffffffffffffffffff16815260200160048201548152602001600582015481526020016006820160009054906101000a900460ff161515151581526020016007820180546200066b906200288d565b80601f016020809104026020016040519081016040528092919081815260200182805462000699906200288d565b8015620006ea5780601f10620006be57610100808354040283529160200191620006ea565b820191906000526020600020905b815481529060010190602001808311620006cc57829003601f168201915b5050505050815260200160088201805462000705906200288d565b80601f016020809104026020016040519081016040528092919081815260200182805462000733906200288d565b8015620007845780601f10620007585761010080835404028352916020019162000784565b820191906000526020600020905b8154815290600101906020018083116200076657829003601f168201915b505050505081525050828261ffff1681518110620007a757620007a66200282f565b5b60200260200101819052508080620007bf90620028f2565b9150506200048e565b50809250505090565b600260009054906101000a900473ffffffffffffffffffffffffffffffffffffffff1681565b6200080162001b7c565b6200080d600062001c01565b565b600260009054906101000a900473ffffffffffffffffffffffffffffffffffffffff1673ffffffffffffffffffffffffffffffffffffffff163373ffffffffffffffffffffffffffffffffffffffff1614620008a2576040517f08c379a0000000000000000000000000000000000000000000000000000000008152600401620008999062002983565b60405180910390fd5b6000600360008473ffffffffffffffffffffffffffffffffffffffff1673ffffffffffffffffffffffffffffffffffffffff16815260200190815260200160002060020190508060018280549050620008fc9190620029a5565b8154811062000910576200090f6200282f565b5b90600052602060002090601091828204019190066002029054906101000a900461ffff16818361ffff16815481106200094e576200094d6200282f565b5b90600052602060002090601091828204019190066002026101000a81548161ffff021916908361ffff16021790555080805480620009915762000990620029e0565b5b60019003818190600052602060002090601091828204019190066002026101000a81549061ffff021916905590557f11ef6fe05323e70ac6da73f7cb860e511937e4da332af037e9224dcf54bad3808383604051620009f292919062002a52565b60405180910390a1505050565b60008060009054906101000a900473ffffffffffffffffffffffffffffffffffffffff16905090565b81600360008273ffffffffffffffffffffffffffffffffffffffff1673ffffffffffffffffffffffffffffffffffffffff16815260200190815260200160002060030160009054906101000a900473ffffffffffffffffffffffffffffffffffffffff1673ffffffffffffffffffffffffffffffffffffffff163373ffffffffffffffffffffffffffffffffffffffff161462000afc576040517f08c379a000000000000000000000000000000000000000000000000000000000815260040162000af39062002acf565b60405180910390fd5b81600360008573ffffffffffffffffffffffffffffffffffffffff1673ffffffffffffffffffffffffffffffffffffffff16815260200190815260200160002060050181905550505050565b81600360008273ffffffffffffffffffffffffffffffffffffffff1673ffffffffffffffffffffffffffffffffffffffff16815260200190815260200160002060030160009054906101000a900473ffffffffffffffffffffffffffffffffffffffff1673ffffffffffffffffffffffffffffffffffffffff163373ffffffffffffffffffffffffffffffffffffffff161462000c1c576040517f08c379a000000000000000000000000000000000000000000000000000000000815260040162000c139062002acf565b60405180910390fd5b81600360008573ffffffffffffffffffffffffffffffffffffffff1673ffffffffffffffffffffffffffffffffffffffff16815260200190815260200160002060000181905550505050565b80600360008273ffffffffffffffffffffffffffffffffffffffff1673ffffffffffffffffffffffffffffffffffffffff16815260200190815260200160002060030160009054906101000a900473ffffffffffffffffffffffffffffffffffffffff1673ffffffffffffffffffffffffffffffffffffffff163373ffffffffffffffffffffffffffffffffffffffff161462000d3c576040517f08c379a000000000000000000000000000000000000000000000000000000000815260040162000d339062002acf565b60405180910390fd5b600360008373ffffffffffffffffffffffffffffffffffffffff1673ffffffffffffffffffffffffffffffffffffffff16815260200190815260200160002060060160009054906101000a900460ff1615600360008473ffffffffffffffffffffffffffffffffffffffff1673ffffffffffffffffffffffffffffffffffffffff16815260200190815260200160002060060160006101000a81548160ff0219169083151502179055505050565b62000df462001ccd565b600360008373ffffffffffffffffffffffffffffffffffffffff1673ffffffffffffffffffffffffffffffffffffffff16815260200190815260200160002060405180610140016040529081600082015481526020016001820160009054906101000a900461ffff1661ffff1661ffff1681526020016001820160029054906101000a900461ffff1661ffff1661ffff1681526020016002820180548060200260200160405190810160405280929190818152602001828054801562000f0257602002820191906000526020600020906000905b82829054906101000a900461ffff1661ffff168152602001906002019060208260010104928301926001038202915080841162000ec85790505b505050505081526020016003820160009054906101000a900473ffffffffffffffffffffffffffffffffffffffff1673ffffffffffffffffffffffffffffffffffffffff1673ffffffffffffffffffffffffffffffffffffffff16815260200160048201548152602001600582015481526020016006820160009054906101000a900460ff1615151515815260200160078201805462000fa2906200288d565b80601f016020809104026020016040519081016040528092919081815260200182805462000fd0906200288d565b8015620010215780601f1062000ff55761010080835404028352916020019162001021565b820191906000526020600020905b8154815290600101906020018083116200100357829003601f168201915b505050505081526020016008820180546200103c906200288d565b80601f01602080910402602001604051908101604052809291908181526020018280546200106a906200288d565b8015620010bb5780601f106200108f57610100808354040283529160200191620010bb565b820191906000526020600020905b8154815290600101906020018083116200109d57829003601f168201915b5050505050815250509050919050565b8261ffff168461ffff16111562001119576040517f08c379a0000000000000000000000000000000000000000000000000000000008152600401620011109062002b8d565b60405180910390fd5b60008361ffff1667ffffffffffffffff8111156200113c576200113b6200255b565b5b6040519080825280602002602001820160405280156200116b5781602001602082028036833780820191505090505b50905060005b8461ffff168161ffff161015620011c95780828261ffff16815181106200119d576200119c6200282f565b5b602002602001019061ffff16908161ffff16815250508080620011c090620028f2565b91505062001171565b5060008a8a8a600260009054906101000a900473ffffffffffffffffffffffffffffffffffffffff16604051620012009062001d40565b6200120f949392919062002bf0565b604051809103906000f0801580156200122c573d6000803e3d6000fd5b5090506040518061014001604052808881526020018761ffff1681526020018661ffff1681526020018381526020013373ffffffffffffffffffffffffffffffffffffffff1681526020018581526020018481526020016000151581526020018981526020018c815250600360008373ffffffffffffffffffffffffffffffffffffffff1673ffffffffffffffffffffffffffffffffffffffff1681526020019081526020016000206000820151816000015560208201518160010160006101000a81548161ffff021916908361ffff16021790555060408201518160010160026101000a81548161ffff021916908361ffff16021790555060608201518160020190805190602001906200134392919062001d4e565b5060808201518160030160006101000a81548173ffffffffffffffffffffffffffffffffffffffff021916908373ffffffffffffffffffffffffffffffffffffffff16021790555060a0820151816004015560c0820151816005015560e08201518160060160006101000a81548160ff021916908315150217905550610100820151816007019080519060200190620013de92919062001dff565b50610120820151816008019080519060200190620013fe92919062001dff565b509050506001819080600181540180825580915050600190039060005260206000200160009091909190916101000a81548173ffffffffffffffffffffffffffffffffffffffff021916908373ffffffffffffffffffffffffffffffffffffffff160217905550600460003373ffffffffffffffffffffffffffffffffffffffff1673ffffffffffffffffffffffffffffffffffffffff168152602001908152602001600020819080600181540180825580915050600190039060005260206000200160009091909190916101000a81548173ffffffffffffffffffffffffffffffffffffffff021916908373ffffffffffffffffffffffffffffffffffffffff1602179055507fa06730c0ec027ab9af6354bb468ffe524c1aca1d489a5ccbe6240f51bcc40ab48188888886338a8a6000604051620015479998979695949392919062002cef565b60405180910390a15050505050505050505050565b6200156662001b7c565b600073ffffffffffffffffffffffffffffffffffffffff168173ffffffffffffffffffffffffffffffffffffffff161415620015d9576040517f08c379a0000000000000000000000000000000000000000000000000000000008152600401620015d09062002e0b565b60405180910390fd5b620015e48162001c01565b50565b6060600060018054806020026020016040519081016040528092919081815260200182805480156200166f57602002820191906000526020600020905b8160009054906101000a900473ffffffffffffffffffffffffffffffffffffffff1673ffffffffffffffffffffffffffffffffffffffff168152602001906001019080831162001624575b505050505090506000815167ffffffffffffffff8111156200169657620016956200255b565b5b604051908082528060200260200182016040528015620016d357816020015b620016bf62001ccd565b815260200190600190039081620016b55790505b50905060005b82518161ffff16101562001a135760036000848361ffff16815181106200170557620017046200282f565b5b602002602001015173ffffffffffffffffffffffffffffffffffffffff1673ffffffffffffffffffffffffffffffffffffffff16815260200190815260200160002060405180610140016040529081600082015481526020016001820160009054906101000a900461ffff1661ffff1661ffff1681526020016001820160029054906101000a900461ffff1661ffff1661ffff168152602001600282018054806020026020016040519081016040528092919081815260200182805480156200181657602002820191906000526020600020906000905b82829054906101000a900461ffff1661ffff1681526020019060020190602082600101049283019260010382029150808411620017dc5790505b505050505081526020016003820160009054906101000a900473ffffffffffffffffffffffffffffffffffffffff1673ffffffffffffffffffffffffffffffffffffffff1673ffffffffffffffffffffffffffffffffffffffff16815260200160048201548152602001600582015481526020016006820160009054906101000a900460ff16151515158152602001600782018054620018b6906200288d565b80601f0160208091040260200160405190810160405280929190818152602001828054620018e4906200288d565b8015620019355780601f10620019095761010080835404028352916020019162001935565b820191906000526020600020905b8154815290600101906020018083116200191757829003601f168201915b5050505050815260200160088201805462001950906200288d565b80601f01602080910402602001604051908101604052809291908181526020018280546200197e906200288d565b8015620019cf5780601f10620019a357610100808354040283529160200191620019cf565b820191906000526020600020905b815481529060010190602001808311620019b157829003601f168201915b505050505081525050828261ffff1681518110620019f257620019f16200282f565b5b6020026020010181905250808062001a0a90620028f2565b915050620016d9565b50809250505090565b81600360008273ffffffffffffffffffffffffffffffffffffffff1673ffffffffffffffffffffffffffffffffffffffff16815260200190815260200160002060030160009054906101000a900473ffffffffffffffffffffffffffffffffffffffff1673ffffffffffffffffffffffffffffffffffffffff163373ffffffffffffffffffffffffffffffffffffffff161462001af0576040517f08c379a000000000000000000000000000000000000000000000000000000000815260040162001ae79062002acf565b60405180910390fd5b81600360008573ffffffffffffffffffffffffffffffffffffffff1673ffffffffffffffffffffffffffffffffffffffff16815260200190815260200160002060040181905550505050565b6001818154811062001b4d57600080fd5b906000526020600020016000915054906101000a900473ffffffffffffffffffffffffffffffffffffffff1681565b62001b8662001cc5565b73ffffffffffffffffffffffffffffffffffffffff1662001ba6620009ff565b73ffffffffffffffffffffffffffffffffffffffff161462001bff576040517f08c379a000000000000000000000000000000000000000000000000000000000815260040162001bf69062002e7d565b60405180910390fd5b565b60008060009054906101000a900473ffffffffffffffffffffffffffffffffffffffff169050816000806101000a81548173ffffffffffffffffffffffffffffffffffffffff021916908373ffffffffffffffffffffffffffffffffffffffff1602179055508173ffffffffffffffffffffffffffffffffffffffff168173ffffffffffffffffffffffffffffffffffffffff167f8be0079c531659141344cd1fd0a4f28419497f9722a3daafe3b4186f6b6457e060405160405180910390a35050565b600033905090565b60405180610140016040528060008152602001600061ffff168152602001600061ffff16815260200160608152602001600073ffffffffffffffffffffffffffffffffffffffff168152602001600081526020016000815260200160001515815260200160608152602001606081525090565b612d988062002ea083390190565b82805482825590600052602060002090600f0160109004810192821562001dec5791602002820160005b8382111562001dba57835183826101000a81548161ffff021916908361ffff160217905550926020019260020160208160010104928301926001030262001d78565b801562001dea5782816101000a81549061ffff021916905560020160208160010104928301926001030262001dba565b505b50905062001dfb919062001e90565b5090565b82805462001e0d906200288d565b90600052602060002090601f01602090048101928262001e31576000855562001e7d565b82601f1062001e4c57805160ff191683800117855562001e7d565b8280016001018555821562001e7d579182015b8281111562001e7c57825182559160200191906001019062001e5f565b5b50905062001e8c919062001e90565b5090565b5b8082111562001eab57600081600090555060010162001e91565b5090565b6000604051905090565b600080fd5b600080fd5b600073ffffffffffffffffffffffffffffffffffffffff82169050919050565b600062001ef08262001ec3565b9050919050565b62001f028162001ee3565b811462001f0e57600080fd5b50565b60008135905062001f228162001ef7565b92915050565b60006020828403121562001f415762001f4062001eb9565b5b600062001f518482850162001f11565b91505092915050565b600081519050919050565b600082825260208201905092915050565b6000819050602082019050919050565b6000819050919050565b62001f9b8162001f86565b82525050565b600061ffff82169050919050565b62001fba8162001fa1565b82525050565b600081519050919050565b600082825260208201905092915050565b6000819050602082019050919050565b600062001ffa838362001faf565b60208301905092915050565b6000602082019050919050565b6000620020208262001fc0565b6200202c818562001fcb565b9350620020398362001fdc565b8060005b838110156200207057815162002054888262001fec565b9750620020618362002006565b9250506001810190506200203d565b5085935050505092915050565b620020888162001ee3565b82525050565b60008115159050919050565b620020a5816200208e565b82525050565b600081519050919050565b600082825260208201905092915050565b60005b83811015620020e7578082015181840152602081019050620020ca565b83811115620020f7576000848401525b50505050565b6000601f19601f8301169050919050565b60006200211b82620020ab565b620021278185620020b6565b935062002139818560208601620020c7565b6200214481620020fd565b840191505092915050565b6000610140830160008301516200216a600086018262001f90565b5060208301516200217f602086018262001faf565b50604083015162002194604086018262001faf565b5060608301518482036060860152620021ae828262002013565b9150506080830151620021c560808601826200207d565b5060a0830151620021da60a086018262001f90565b5060c0830151620021ef60c086018262001f90565b5060e08301516200220460e08601826200209a565b506101008301518482036101008601526200222082826200210e565b9150506101208301518482036101208601526200223e82826200210e565b9150508091505092915050565b60006200225983836200214f565b905092915050565b6000602082019050919050565b60006200227b8262001f5a565b62002287818562001f65565b9350836020820285016200229b8562001f76565b8060005b85811015620022dd5784840389528151620022bb85826200224b565b9450620022c88362002261565b925060208a019950506001810190506200229f565b50829750879550505050505092915050565b600060208201905081810360008301526200230b81846200226e565b905092915050565b6200231e8162001ee3565b82525050565b60006020820190506200233b600083018462002313565b92915050565b6200234c8162001fa1565b81146200235857600080fd5b50565b6000813590506200236c8162002341565b92915050565b600080604083850312156200238c576200238b62001eb9565b5b60006200239c8582860162001f11565b9250506020620023af858286016200235b565b9150509250929050565b620023c48162001f86565b8114620023d057600080fd5b50565b600081359050620023e481620023b9565b92915050565b6000806040838503121562002404576200240362001eb9565b5b6000620024148582860162001f11565b92505060206200242785828601620023d3565b9150509250929050565b6000610140830160008301516200244c600086018262001f90565b50602083015162002461602086018262001faf565b50604083015162002476604086018262001faf565b506060830151848203606086015262002490828262002013565b9150506080830151620024a760808601826200207d565b5060a0830151620024bc60a086018262001f90565b5060c0830151620024d160c086018262001f90565b5060e0830151620024e660e08601826200209a565b506101008301518482036101008601526200250282826200210e565b9150506101208301518482036101208601526200252082826200210e565b9150508091505092915050565b6000602082019050818103600083015262002549818462002431565b905092915050565b600080fd5b600080fd5b7f4e487b7100000000000000000000000000000000000000000000000000000000600052604160045260246000fd5b6200259582620020fd565b810181811067ffffffffffffffff82111715620025b757620025b66200255b565b5b80604052505050565b6000620025cc62001eaf565b9050620025da82826200258a565b919050565b600067ffffffffffffffff821115620025fd57620025fc6200255b565b5b6200260882620020fd565b9050602081019050919050565b82818337600083830152505050565b60006200263b6200263584620025df565b620025c0565b9050828152602081018484840111156200265a576200265962002556565b5b6200266784828562002615565b509392505050565b600082601f83011262002687576200268662002551565b5b81356200269984826020860162002624565b91505092915050565b60008060008060008060008060006101208a8c031215620026c857620026c762001eb9565b5b60008a013567ffffffffffffffff811115620026e957620026e862001ebe565b5b620026f78c828d016200266f565b99505060208a013567ffffffffffffffff8111156200271b576200271a62001ebe565b5b620027298c828d016200266f565b98505060408a013567ffffffffffffffff8111156200274d576200274c62001ebe565b5b6200275b8c828d016200266f565b97505060608a013567ffffffffffffffff8111156200277f576200277e62001ebe565b5b6200278d8c828d016200266f565b9650506080620027a08c828d01620023d3565b95505060a0620027b38c828d016200235b565b94505060c0620027c68c828d016200235b565b93505060e0620027d98c828d01620023d3565b925050610100620027ed8c828d01620023d3565b9150509295985092959850929598565b60006020828403121562002816576200281562001eb9565b5b60006200282684828501620023d3565b91505092915050565b7f4e487b7100000000000000000000000000000000000000000000000000000000600052603260045260246000fd5b7f4e487b7100000000000000000000000000000000000000000000000000000000600052602260045260246000fd5b60006002820490506001821680620028a657607f821691505b60208210811415620028bd57620028bc6200285e565b5b50919050565b7f4e487b7100000000000000000000000000000000000000000000000000000000600052601160045260246000fd5b6000620028ff8262001fa1565b915061ffff821415620029175762002916620028c3565b5b600182019050919050565b600082825260208201905092915050565b7f4f6e6c79206e667453746f72652063616e207570646174652074686973000000600082015250565b60006200296b601d8362002922565b9150620029788262002933565b602082019050919050565b600060208201905081810360008301526200299e816200295c565b9050919050565b6000620029b28262001f86565b9150620029bf8362001f86565b925082821015620029d557620029d4620028c3565b5b828203905092915050565b7f4e487b7100000000000000000000000000000000000000000000000000000000600052603160045260246000fd5b6000819050919050565b600062002a3a62002a3462002a2e8462001fa1565b62002a0f565b62001f86565b9050919050565b62002a4c8162002a19565b82525050565b600060408201905062002a69600083018562002313565b62002a78602083018462002a41565b9392505050565b7f4e6f7420436f6c6c656374696f6e204f776e6572000000000000000000000000600082015250565b600062002ab760148362002922565b915062002ac48262002a7f565b602082019050919050565b6000602082019050818103600083015262002aea8162002aa8565b9050919050565b7f436f6c6c656374696f6e466163746f72793a2050726573616c6520537570706c60008201527f7920697320686967686572207468616e20746f74616c204e465420537570706c60208201527f7900000000000000000000000000000000000000000000000000000000000000604082015250565b600062002b7560418362002922565b915062002b828262002af1565b606082019050919050565b6000602082019050818103600083015262002ba88162002b66565b9050919050565b600062002bbc82620020ab565b62002bc8818562002922565b935062002bda818560208601620020c7565b62002be581620020fd565b840191505092915050565b6000608082019050818103600083015262002c0c818762002baf565b9050818103602083015262002c22818662002baf565b9050818103604083015262002c38818562002baf565b905062002c49606083018462002313565b95945050505050565b62002c5d8162001f86565b82525050565b600082825260208201905092915050565b600062002c818262001fc0565b62002c8d818562002c63565b935062002c9a8362001fdc565b8060005b8381101562002cd157815162002cb5888262001fec565b975062002cc28362002006565b92505060018101905062002c9e565b5085935050505092915050565b62002ce9816200208e565b82525050565b60006101208201905062002d07600083018c62002313565b62002d16602083018b62002c52565b62002d25604083018a62002a41565b62002d34606083018962002a41565b818103608083015262002d48818862002c74565b905062002d5960a083018762002313565b62002d6860c083018662002c52565b62002d7760e083018562002c52565b62002d8761010083018462002cde565b9a9950505050505050505050565b7f4f776e61626c653a206e6577206f776e657220697320746865207a65726f206160008201527f6464726573730000000000000000000000000000000000000000000000000000602082015250565b600062002df360268362002922565b915062002e008262002d95565b604082019050919050565b6000602082019050818103600083015262002e268162002de4565b9050919050565b7f4f776e61626c653a2063616c6c6572206973206e6f7420746865206f776e6572600082015250565b600062002e6560208362002922565b915062002e728262002e2d565b602082019050919050565b6000602082019050818103600083015262002e988162002e56565b905091905056fe60806040523480156200001157600080fd5b5060405162002d9838038062002d98833981810160405281019062000037919062000383565b8383816000908051906020019062000051929190620000d1565b5080600190805190602001906200006a929190620000d1565b505050816006908051906020019062000085929190620000d1565b5080600760006101000a81548173ffffffffffffffffffffffffffffffffffffffff021916908373ffffffffffffffffffffffffffffffffffffffff16021790555050505050620004b7565b828054620000df9062000481565b90600052602060002090601f0160209004810192826200010357600085556200014f565b82601f106200011e57805160ff19168380011785556200014f565b828001600101855582156200014f579182015b828111156200014e57825182559160200191906001019062000131565b5b5090506200015e919062000162565b5090565b5b808211156200017d57600081600090555060010162000163565b5090565b6000604051905090565b600080fd5b600080fd5b600080fd5b600080fd5b6000601f19601f8301169050919050565b7f4e487b7100000000000000000000000000000000000000000000000000000000600052604160045260246000fd5b620001ea826200019f565b810181811067ffffffffffffffff821117156200020c576200020b620001b0565b5b80604052505050565b60006200022162000181565b90506200022f8282620001df565b919050565b600067ffffffffffffffff821115620002525762000251620001b0565b5b6200025d826200019f565b9050602081019050919050565b60005b838110156200028a5780820151818401526020810190506200026d565b838111156200029a576000848401525b50505050565b6000620002b7620002b18462000234565b62000215565b905082815260208101848484011115620002d657620002d56200019a565b5b620002e38482856200026a565b509392505050565b600082601f83011262000303576200030262000195565b5b815162000315848260208601620002a0565b91505092915050565b600073ffffffffffffffffffffffffffffffffffffffff82169050919050565b60006200034b826200031e565b9050919050565b6200035d816200033e565b81146200036957600080fd5b50565b6000815190506200037d8162000352565b92915050565b60008060008060808587031215620003a0576200039f6200018b565b5b600085015167ffffffffffffffff811115620003c157620003c062000190565b5b620003cf87828801620002eb565b945050602085015167ffffffffffffffff811115620003f357620003f262000190565b5b6200040187828801620002eb565b935050604085015167ffffffffffffffff81111562000425576200042462000190565b5b6200043387828801620002eb565b925050606062000446878288016200036c565b91505092959194509250565b7f4e487b7100000000000000000000000000000000000000000000000000000000600052602260045260246000fd5b600060028204905060018216806200049a57607f821691505b60208210811415620004b157620004b062000452565b5b50919050565b6128d180620004c76000396000f3fe608060405234801561001057600080fd5b50600436106100f55760003560e01c806370a0823111610097578063a22cb46511610066578063a22cb46514610296578063b88d4fde146102b2578063c87b56dd146102ce578063e985e9c5146102fe576100f5565b806370a08231146101fc5780638ad913451461022c57806394bf804d1461025c57806395d89b4114610278576100f5565b8063095ea7b3116100d3578063095ea7b31461017857806323b872dd1461019457806342842e0e146101b05780636352211e146101cc576100f5565b806301ffc9a7146100fa57806306fdde031461012a578063081812fc14610148575b600080fd5b610114600480360381019061010f91906117f9565b61032e565b6040516101219190611841565b60405180910390f35b610132610340565b60405161013f91906118f5565b60405180910390f35b610162600480360381019061015d919061194d565b6103d2565b60405161016f91906119bb565b60405180910390f35b610192600480360381019061018d9190611a02565b610418565b005b6101ae60048036038101906101a99190611a42565b610530565b005b6101ca60048036038101906101c59190611a42565b610590565b005b6101e660048036038101906101e1919061194d565b6105b0565b6040516101f391906119bb565b60405180910390f35b61021660048036038101906102119190611a95565b610662565b6040516102239190611ad1565b60405180910390f35b6102466004803603810190610241919061194d565b61071a565b60405161025391906118f5565b60405180910390f35b61027660048036038101906102719190611aec565b610746565b005b6102806107e4565b60405161028d91906118f5565b60405180910390f35b6102b060048036038101906102ab9190611b58565b610876565b005b6102cc60048036038101906102c79190611ccd565b61088c565b005b6102e860048036038101906102e3919061194d565b6108ee565b6040516102f591906118f5565b60405180910390f35b61031860048036038101906103139190611d50565b610956565b6040516103259190611841565b60405180910390f35b6000610339826109ea565b9050919050565b60606000805461034f90611dbf565b80601f016020809104026020016040519081016040528092919081815260200182805461037b90611dbf565b80156103c85780601f1061039d576101008083540402835291602001916103c8565b820191906000526020600020905b8154815290600101906020018083116103ab57829003601f168201915b5050505050905090565b60006103dd82610acc565b6004600083815260200190815260200160002060009054906101000a900473ffffffffffffffffffffffffffffffffffffffff169050919050565b6000610423826105b0565b90508073ffffffffffffffffffffffffffffffffffffffff168373ffffffffffffffffffffffffffffffffffffffff161415610494576040517f08c379a000000000000000000000000000000000000000000000000000000000815260040161048b90611e63565b60405180910390fd5b8073ffffffffffffffffffffffffffffffffffffffff166104b3610b17565b73ffffffffffffffffffffffffffffffffffffffff1614806104e257506104e1816104dc610b17565b610956565b5b610521576040517f08c379a000000000000000000000000000000000000000000000000000000000815260040161051890611ef5565b60405180910390fd5b61052b8383610b1f565b505050565b61054161053b610b17565b82610bd8565b610580576040517f08c379a000000000000000000000000000000000000000000000000000000000815260040161057790611f87565b60405180910390fd5b61058b838383610c6d565b505050565b6105ab8383836040518060200160405280600081525061088c565b505050565b6000806002600084815260200190815260200160002060009054906101000a900473ffffffffffffffffffffffffffffffffffffffff169050600073ffffffffffffffffffffffffffffffffffffffff168173ffffffffffffffffffffffffffffffffffffffff161415610659576040517f08c379a000000000000000000000000000000000000000000000000000000000815260040161065090611ff3565b60405180910390fd5b80915050919050565b60008073ffffffffffffffffffffffffffffffffffffffff168273ffffffffffffffffffffffffffffffffffffffff1614156106d3576040517f08c379a00000000000000000000000000000000000000000000000000000000081526004016106ca90612085565b60405180910390fd5b600360008373ffffffffffffffffffffffffffffffffffffffff1673ffffffffffffffffffffffffffffffffffffffff168152602001908152602001600020549050919050565b60606006826040516020016107309291906121fd565b6040516020818303038152906040529050919050565b600760009054906101000a900473ffffffffffffffffffffffffffffffffffffffff1673ffffffffffffffffffffffffffffffffffffffff163373ffffffffffffffffffffffffffffffffffffffff16146107d6576040517f08c379a00000000000000000000000000000000000000000000000000000000081526004016107cd90612287565b60405180910390fd5b6107e08183610ed4565b5050565b6060600180546107f390611dbf565b80601f016020809104026020016040519081016040528092919081815260200182805461081f90611dbf565b801561086c5780601f106108415761010080835404028352916020019161086c565b820191906000526020600020905b81548152906001019060200180831161084f57829003601f168201915b5050505050905090565b610888610881610b17565b8383610ef2565b5050565b61089d610897610b17565b83610bd8565b6108dc576040517f08c379a00000000000000000000000000000000000000000000000000000000081526004016108d390611f87565b60405180910390fd5b6108e88484848461105f565b50505050565b60606108f982610acc565b60006109036110bb565b90506000815111610923576040518060200160405280600081525061094e565b8061092d8461114d565b60405160200161093e9291906122d8565b6040516020818303038152906040525b915050919050565b6000600560008473ffffffffffffffffffffffffffffffffffffffff1673ffffffffffffffffffffffffffffffffffffffff16815260200190815260200160002060008373ffffffffffffffffffffffffffffffffffffffff1673ffffffffffffffffffffffffffffffffffffffff16815260200190815260200160002060009054906101000a900460ff16905092915050565b60007f80ac58cd000000000000000000000000000000000000000000000000000000007bffffffffffffffffffffffffffffffffffffffffffffffffffffffff1916827bffffffffffffffffffffffffffffffffffffffffffffffffffffffff19161480610ab557507f5b5e139f000000000000000000000000000000000000000000000000000000007bffffffffffffffffffffffffffffffffffffffffffffffffffffffff1916827bffffffffffffffffffffffffffffffffffffffffffffffffffffffff1916145b80610ac55750610ac4826112ae565b5b9050919050565b610ad581611318565b610b14576040517f08c379a0000000000000000000000000000000000000000000000000000000008152600401610b0b90611ff3565b60405180910390fd5b50565b600033905090565b816004600083815260200190815260200160002060006101000a81548173ffffffffffffffffffffffffffffffffffffffff021916908373ffffffffffffffffffffffffffffffffffffffff160217905550808273ffffffffffffffffffffffffffffffffffffffff16610b92836105b0565b73ffffffffffffffffffffffffffffffffffffffff167f8c5be1e5ebec7d5bd14f71427d1e84f3dd0314c0f7b2291e5b200ac8c7c3b92560405160405180910390a45050565b600080610be4836105b0565b90508073ffffffffffffffffffffffffffffffffffffffff168473ffffffffffffffffffffffffffffffffffffffff161480610c265750610c258185610956565b5b80610c6457508373ffffffffffffffffffffffffffffffffffffffff16610c4c846103d2565b73ffffffffffffffffffffffffffffffffffffffff16145b91505092915050565b8273ffffffffffffffffffffffffffffffffffffffff16610c8d826105b0565b73ffffffffffffffffffffffffffffffffffffffff1614610ce3576040517f08c379a0000000000000000000000000000000000000000000000000000000008152600401610cda9061236e565b60405180910390fd5b600073ffffffffffffffffffffffffffffffffffffffff168273ffffffffffffffffffffffffffffffffffffffff161415610d53576040517f08c379a0000000000000000000000000000000000000000000000000000000008152600401610d4a90612400565b60405180910390fd5b610d5e838383611384565b610d69600082610b1f565b6001600360008573ffffffffffffffffffffffffffffffffffffffff1673ffffffffffffffffffffffffffffffffffffffff1681526020019081526020016000206000828254610db9919061244f565b925050819055506001600360008473ffffffffffffffffffffffffffffffffffffffff1673ffffffffffffffffffffffffffffffffffffffff1681526020019081526020016000206000828254610e109190612483565b92505081905550816002600083815260200190815260200160002060006101000a81548173ffffffffffffffffffffffffffffffffffffffff021916908373ffffffffffffffffffffffffffffffffffffffff160217905550808273ffffffffffffffffffffffffffffffffffffffff168473ffffffffffffffffffffffffffffffffffffffff167fddf252ad1be2c89b69c2b068fc378daa952ba7f163c4a11628f55a4df523b3ef60405160405180910390a4610ecf838383611394565b505050565b610eee828260405180602001604052806000815250611399565b5050565b8173ffffffffffffffffffffffffffffffffffffffff168373ffffffffffffffffffffffffffffffffffffffff161415610f61576040517f08c379a0000000000000000000000000000000000000000000000000000000008152600401610f5890612525565b60405180910390fd5b80600560008573ffffffffffffffffffffffffffffffffffffffff1673ffffffffffffffffffffffffffffffffffffffff16815260200190815260200160002060008473ffffffffffffffffffffffffffffffffffffffff1673ffffffffffffffffffffffffffffffffffffffff16815260200190815260200160002060006101000a81548160ff0219169083151502179055508173ffffffffffffffffffffffffffffffffffffffff168373ffffffffffffffffffffffffffffffffffffffff167f17307eab39ab6107e8899845ad3d59bd9653f200f220920489ca2b5937696c31836040516110529190611841565b60405180910390a3505050565b61106a848484610c6d565b611076848484846113f4565b6110b5576040517f08c379a00000000000000000000000000000000000000000000000000000000081526004016110ac906125b7565b60405180910390fd5b50505050565b6060600680546110ca90611dbf565b80601f01602080910402602001604051908101604052809291908181526020018280546110f690611dbf565b80156111435780601f1061111857610100808354040283529160200191611143565b820191906000526020600020905b81548152906001019060200180831161112657829003601f168201915b5050505050905090565b60606000821415611195576040518060400160405280600181526020017f300000000000000000000000000000000000000000000000000000000000000081525090506112a9565b600082905060005b600082146111c75780806111b0906125d7565b915050600a826111c0919061264f565b915061119d565b60008167ffffffffffffffff8111156111e3576111e2611ba2565b5b6040519080825280601f01601f1916602001820160405280156112155781602001600182028036833780820191505090505b5090505b600085146112a25760018261122e919061244f565b9150600a8561123d9190612680565b60306112499190612483565b60f81b81838151811061125f5761125e6126b1565b5b60200101907effffffffffffffffffffffffffffffffffffffffffffffffffffffffffffff1916908160001a905350600a8561129b919061264f565b9450611219565b8093505050505b919050565b60007f01ffc9a7000000000000000000000000000000000000000000000000000000007bffffffffffffffffffffffffffffffffffffffffffffffffffffffff1916827bffffffffffffffffffffffffffffffffffffffffffffffffffffffff1916149050919050565b60008073ffffffffffffffffffffffffffffffffffffffff166002600084815260200190815260200160002060009054906101000a900473ffffffffffffffffffffffffffffffffffffffff1673ffffffffffffffffffffffffffffffffffffffff1614159050919050565b61138f83838361158b565b505050565b505050565b6113a38383611590565b6113b060008484846113f4565b6113ef576040517f08c379a00000000000000000000000000000000000000000000000000000000081526004016113e6906125b7565b60405180910390fd5b505050565b60006114158473ffffffffffffffffffffffffffffffffffffffff1661176a565b1561157e578373ffffffffffffffffffffffffffffffffffffffff1663150b7a0261143e610b17565b8786866040518563ffffffff1660e01b81526004016114609493929190612735565b602060405180830381600087803b15801561147a57600080fd5b505af19250505080156114ab57506040513d601f19601f820116820180604052508101906114a89190612796565b60015b61152e573d80600081146114db576040519150601f19603f3d011682016040523d82523d6000602084013e6114e0565b606091505b50600081511415611526576040517f08c379a000000000000000000000000000000000000000000000000000000000815260040161151d906125b7565b60405180910390fd5b805181602001fd5b63150b7a0260e01b7bffffffffffffffffffffffffffffffffffffffffffffffffffffffff1916817bffffffffffffffffffffffffffffffffffffffffffffffffffffffff191614915050611583565b600190505b949350505050565b505050565b600073ffffffffffffffffffffffffffffffffffffffff168273ffffffffffffffffffffffffffffffffffffffff161415611600576040517f08c379a00000000000000000000000000000000000000000000000000000000081526004016115f79061280f565b60405180910390fd5b61160981611318565b15611649576040517f08c379a00000000000000000000000000000000000000000000000000000000081526004016116409061287b565b60405180910390fd5b61165560008383611384565b6001600360008473ffffffffffffffffffffffffffffffffffffffff1673ffffffffffffffffffffffffffffffffffffffff16815260200190815260200160002060008282546116a59190612483565b92505081905550816002600083815260200190815260200160002060006101000a81548173ffffffffffffffffffffffffffffffffffffffff021916908373ffffffffffffffffffffffffffffffffffffffff160217905550808273ffffffffffffffffffffffffffffffffffffffff16600073ffffffffffffffffffffffffffffffffffffffff167fddf252ad1be2c89b69c2b068fc378daa952ba7f163c4a11628f55a4df523b3ef60405160405180910390a461176660008383611394565b5050565b6000808273ffffffffffffffffffffffffffffffffffffffff163b119050919050565b6000604051905090565b600080fd5b600080fd5b60007fffffffff0000000000000000000000000000000000000000000000000000000082169050919050565b6117d6816117a1565b81146117e157600080fd5b50565b6000813590506117f3816117cd565b92915050565b60006020828403121561180f5761180e611797565b5b600061181d848285016117e4565b91505092915050565b60008115159050919050565b61183b81611826565b82525050565b60006020820190506118566000830184611832565b92915050565b600081519050919050565b600082825260208201905092915050565b60005b8381101561189657808201518184015260208101905061187b565b838111156118a5576000848401525b50505050565b6000601f19601f8301169050919050565b60006118c78261185c565b6118d18185611867565b93506118e1818560208601611878565b6118ea816118ab565b840191505092915050565b6000602082019050818103600083015261190f81846118bc565b905092915050565b6000819050919050565b61192a81611917565b811461193557600080fd5b50565b60008135905061194781611921565b92915050565b60006020828403121561196357611962611797565b5b600061197184828501611938565b91505092915050565b600073ffffffffffffffffffffffffffffffffffffffff82169050919050565b60006119a58261197a565b9050919050565b6119b58161199a565b82525050565b60006020820190506119d060008301846119ac565b92915050565b6119df8161199a565b81146119ea57600080fd5b50565b6000813590506119fc816119d6565b92915050565b60008060408385031215611a1957611a18611797565b5b6000611a27858286016119ed565b9250506020611a3885828601611938565b9150509250929050565b600080600060608486031215611a5b57611a5a611797565b5b6000611a69868287016119ed565b9350506020611a7a868287016119ed565b9250506040611a8b86828701611938565b9150509250925092565b600060208284031215611aab57611aaa611797565b5b6000611ab9848285016119ed565b91505092915050565b611acb81611917565b82525050565b6000602082019050611ae66000830184611ac2565b92915050565b60008060408385031215611b0357611b02611797565b5b6000611b1185828601611938565b9250506020611b22858286016119ed565b9150509250929050565b611b3581611826565b8114611b4057600080fd5b50565b600081359050611b5281611b2c565b92915050565b60008060408385031215611b6f57611b6e611797565b5b6000611b7d858286016119ed565b9250506020611b8e85828601611b43565b9150509250929050565b600080fd5b600080fd5b7f4e487b7100000000000000000000000000000000000000000000000000000000600052604160045260246000fd5b611bda826118ab565b810181811067ffffffffffffffff82111715611bf957611bf8611ba2565b5b80604052505050565b6000611c0c61178d565b9050611c188282611bd1565b919050565b600067ffffffffffffffff821115611c3857611c37611ba2565b5b611c41826118ab565b9050602081019050919050565b82818337600083830152505050565b6000611c70611c6b84611c1d565b611c02565b905082815260208101848484011115611c8c57611c8b611b9d565b5b611c97848285611c4e565b509392505050565b600082601f830112611cb457611cb3611b98565b5b8135611cc4848260208601611c5d565b91505092915050565b60008060008060808587031215611ce757611ce6611797565b5b6000611cf5878288016119ed565b9450506020611d06878288016119ed565b9350506040611d1787828801611938565b925050606085013567ffffffffffffffff811115611d3857611d3761179c565b5b611d4487828801611c9f565b91505092959194509250565b60008060408385031215611d6757611d66611797565b5b6000611d75858286016119ed565b9250506020611d86858286016119ed565b9150509250929050565b7f4e487b7100000000000000000000000000000000000000000000000000000000600052602260045260246000fd5b60006002820490506001821680611dd757607f821691505b60208210811415611deb57611dea611d90565b5b50919050565b7f4552433732313a20617070726f76616c20746f2063757272656e74206f776e6560008201527f7200000000000000000000000000000000000000000000000000000000000000602082015250565b6000611e4d602183611867565b9150611e5882611df1565b604082019050919050565b60006020820190508181036000830152611e7c81611e40565b9050919050565b7f4552433732313a20617070726f76652063616c6c6572206973206e6f7420746f60008201527f6b656e206f776e6572206e6f7220617070726f76656420666f7220616c6c0000602082015250565b6000611edf603e83611867565b9150611eea82611e83565b604082019050919050565b60006020820190508181036000830152611f0e81611ed2565b9050919050565b7f4552433732313a2063616c6c6572206973206e6f7420746f6b656e206f776e6560008201527f72206e6f7220617070726f766564000000000000000000000000000000000000602082015250565b6000611f71602e83611867565b9150611f7c82611f15565b604082019050919050565b60006020820190508181036000830152611fa081611f64565b9050919050565b7f4552433732313a20696e76616c696420746f6b656e2049440000000000000000600082015250565b6000611fdd601883611867565b9150611fe882611fa7565b602082019050919050565b6000602082019050818103600083015261200c81611fd0565b9050919050565b7f4552433732313a2061646472657373207a65726f206973206e6f74206120766160008201527f6c6964206f776e65720000000000000000000000000000000000000000000000602082015250565b600061206f602983611867565b915061207a82612013565b604082019050919050565b6000602082019050818103600083015261209e81612062565b9050919050565b600081905092915050565b60008190508160005260206000209050919050565b600081546120d281611dbf565b6120dc81866120a5565b945060018216600081146120f757600181146121085761213b565b60ff1983168652818601935061213b565b612111856120b0565b60005b8381101561213357815481890152600182019150602081019050612114565b838801955050505b50505092915050565b7f2f00000000000000000000000000000000000000000000000000000000000000600082015250565b600061217a6001836120a5565b915061218582612144565b600182019050919050565b6000819050919050565b6121ab6121a682611917565b612190565b82525050565b7f2e6a736f6e000000000000000000000000000000000000000000000000000000600082015250565b60006121e76005836120a5565b91506121f2826121b1565b600582019050919050565b600061220982856120c5565b91506122148261216d565b9150612220828461219a565b60208201915061222f826121da565b91508190509392505050565b7f4f6e6c79204e667453746f72652063616e206d696e7400000000000000000000600082015250565b6000612271601683611867565b915061227c8261223b565b602082019050919050565b600060208201905081810360008301526122a081612264565b9050919050565b60006122b28261185c565b6122bc81856120a5565b93506122cc818560208601611878565b80840191505092915050565b60006122e482856122a7565b91506122f082846122a7565b91508190509392505050565b7f4552433732313a207472616e736665722066726f6d20696e636f72726563742060008201527f6f776e6572000000000000000000000000000000000000000000000000000000602082015250565b6000612358602583611867565b9150612363826122fc565b604082019050919050565b600060208201905081810360008301526123878161234b565b9050919050565b7f4552433732313a207472616e7366657220746f20746865207a65726f2061646460008201527f7265737300000000000000000000000000000000000000000000000000000000602082015250565b60006123ea602483611867565b91506123f58261238e565b604082019050919050565b60006020820190508181036000830152612419816123dd565b9050919050565b7f4e487b7100000000000000000000000000000000000000000000000000000000600052601160045260246000fd5b600061245a82611917565b915061246583611917565b92508282101561247857612477612420565b5b828203905092915050565b600061248e82611917565b915061249983611917565b9250827fffffffffffffffffffffffffffffffffffffffffffffffffffffffffffffffff038211156124ce576124cd612420565b5b828201905092915050565b7f4552433732313a20617070726f766520746f2063616c6c657200000000000000600082015250565b600061250f601983611867565b915061251a826124d9565b602082019050919050565b6000602082019050818103600083015261253e81612502565b9050919050565b7f4552433732313a207472616e7366657220746f206e6f6e20455243373231526560008201527f63656976657220696d706c656d656e7465720000000000000000000000000000602082015250565b60006125a1603283611867565b91506125ac82612545565b604082019050919050565b600060208201905081810360008301526125d081612594565b9050919050565b60006125e282611917565b91507fffffffffffffffffffffffffffffffffffffffffffffffffffffffffffffffff82141561261557612614612420565b5b600182019050919050565b7f4e487b7100000000000000000000000000000000000000000000000000000000600052601260045260246000fd5b600061265a82611917565b915061266583611917565b92508261267557612674612620565b5b828204905092915050565b600061268b82611917565b915061269683611917565b9250826126a6576126a5612620565b5b828206905092915050565b7f4e487b7100000000000000000000000000000000000000000000000000000000600052603260045260246000fd5b600081519050919050565b600082825260208201905092915050565b6000612707826126e0565b61271181856126eb565b9350612721818560208601611878565b61272a816118ab565b840191505092915050565b600060808201905061274a60008301876119ac565b61275760208301866119ac565b6127646040830185611ac2565b818103606083015261277681846126fc565b905095945050505050565b600081519050612790816117cd565b92915050565b6000602082840312156127ac576127ab611797565b5b60006127ba84828501612781565b91505092915050565b7f4552433732313a206d696e7420746f20746865207a65726f2061646472657373600082015250565b60006127f9602083611867565b9150612804826127c3565b602082019050919050565b60006020820190508181036000830152612828816127ec565b9050919050565b7f4552433732313a20746f6b656e20616c7265616479206d696e74656400000000600082015250565b6000612865601c83611867565b91506128708261282f565b602082019050919050565b6000602082019050818103600083015261289481612858565b905091905056fea264697066735822122097b555f624929605c38207d7f5b090f042563a022bc9fd2595c2eea6fdcad7fb64736f6c63430008090033a2646970667358221220aba16e038a2c07e7775f96d86d2a454b31be08a448ee4af474abbb97a40265a164736f6c63430008090033",
  "linkReferences": {},
  "deployedLinkReferences": {}
}