{
  "_format": "hh-sol-artifact-1",
  "contractName": "CollectionFactory",
  "sourceName": "src/contracts/CollectionFactory.sol",
  "abi": [
    {
      "anonymous": false,
      "inputs": [
        {
          "indexed": false,
          "internalType": "address",
          "name": "nftCollectionAddress",
          "type": "address"
        },
        {
          "indexed": false,
          "internalType": "uint256",
          "name": "nftIndex",
          "type": "uint256"
        }
      ],
      "name": "AvailableNFtsUpdated",
      "type": "event"
    },
    {
      "anonymous": false,
      "inputs": [
        {
          "indexed": false,
          "internalType": "address",
          "name": "nftCollectionAddress",
          "type": "address"
        },
        {
          "indexed": false,
          "internalType": "uint256",
          "name": "presaleDate",
          "type": "uint256"
        },
        {
          "indexed": false,
          "internalType": "uint256",
          "name": "mysteryBoxCap",
          "type": "uint256"
        },
        {
          "indexed": false,
          "internalType": "uint256",
          "name": "nftCap",
          "type": "uint256"
        },
        {
          "indexed": false,
          "internalType": "uint16[]",
          "name": "availableNFTs",
          "type": "uint16[]"
        },
        {
          "indexed": false,
          "internalType": "address",
          "name": "owner",
          "type": "address"
        },
        {
          "indexed": false,
          "internalType": "uint256",
          "name": "mysteryBoxUsdPrice",
          "type": "uint256"
        },
        {
          "indexed": false,
          "internalType": "uint256",
          "name": "nftUsdPrice",
          "type": "uint256"
        },
        {
          "indexed": false,
          "internalType": "bool",
          "name": "frozen",
          "type": "bool"
        }
      ],
      "name": "NFTCollectionCreated",
      "type": "event"
    },
    {
      "anonymous": false,
      "inputs": [
        {
          "indexed": true,
          "internalType": "address",
          "name": "previousOwner",
          "type": "address"
        },
        {
          "indexed": true,
          "internalType": "address",
          "name": "newOwner",
          "type": "address"
        }
      ],
      "name": "OwnershipTransferred",
      "type": "event"
    },
    {
      "inputs": [
        {
          "internalType": "string",
          "name": "_tokenName",
          "type": "string"
        },
        {
          "internalType": "string",
          "name": "_tokenSymbol",
          "type": "string"
        },
        {
          "internalType": "string",
          "name": "_baseUri",
          "type": "string"
        },
        {
          "internalType": "string",
          "name": "_coverImageUri",
          "type": "string"
        },
        {
          "internalType": "uint256",
          "name": "_presaleDate",
          "type": "uint256"
        },
        {
          "internalType": "uint16",
          "name": "_mysteryBoxCap",
          "type": "uint16"
        },
        {
          "internalType": "uint16",
          "name": "_nftCap",
          "type": "uint16"
        },
        {
          "internalType": "uint256",
          "name": "_mysteryBoxUsdPrice",
          "type": "uint256"
        },
        {
          "internalType": "uint256",
          "name": "_nftUsdPrice",
          "type": "uint256"
        },
        {
          "internalType": "string",
          "name": "_tokenDescription",
          "type": "string"
        }
      ],
      "name": "createNFTCollection",
      "outputs": [],
      "stateMutability": "nonpayable",
      "type": "function"
    },
    {
      "inputs": [],
      "name": "getAllCollectionData",
      "outputs": [
        {
          "components": [
            {
              "internalType": "address",
              "name": "collectionAddress",
              "type": "address"
            },
            {
              "internalType": "uint256",
              "name": "presaleDate",
              "type": "uint256"
            },
            {
              "internalType": "uint16",
              "name": "mysteryBoxCap",
              "type": "uint16"
            },
            {
              "internalType": "uint16",
              "name": "nftCap",
              "type": "uint16"
            },
            {
              "internalType": "uint16[]",
              "name": "availableNfts",
              "type": "uint16[]"
            },
            {
              "internalType": "address",
              "name": "owner",
              "type": "address"
            },
            {
              "internalType": "uint256",
              "name": "mysteryBoxUsdPrice",
              "type": "uint256"
            },
            {
              "internalType": "uint256",
              "name": "nftUsdPrice",
              "type": "uint256"
            },
            {
              "internalType": "bool",
              "name": "frozen",
              "type": "bool"
            },
            {
              "internalType": "string",
              "name": "coverImageUri",
              "type": "string"
            },
            {
              "internalType": "string",
              "name": "tokenName",
              "type": "string"
            },
            {
              "internalType": "string",
              "name": "tokenDescription",
              "type": "string"
            }
          ],
          "internalType": "struct CollectionFactory.Collections[]",
          "name": "",
          "type": "tuple[]"
        }
      ],
      "stateMutability": "view",
      "type": "function"
    },
    {
      "inputs": [
        {
          "internalType": "address",
          "name": "_collectionAddress",
          "type": "address"
        }
      ],
      "name": "getCollection",
      "outputs": [
        {
          "components": [
            {
              "internalType": "address",
              "name": "collectionAddress",
              "type": "address"
            },
            {
              "internalType": "uint256",
              "name": "presaleDate",
              "type": "uint256"
            },
            {
              "internalType": "uint16",
              "name": "mysteryBoxCap",
              "type": "uint16"
            },
            {
              "internalType": "uint16",
              "name": "nftCap",
              "type": "uint16"
            },
            {
              "internalType": "uint16[]",
              "name": "availableNfts",
              "type": "uint16[]"
            },
            {
              "internalType": "address",
              "name": "owner",
              "type": "address"
            },
            {
              "internalType": "uint256",
              "name": "mysteryBoxUsdPrice",
              "type": "uint256"
            },
            {
              "internalType": "uint256",
              "name": "nftUsdPrice",
              "type": "uint256"
            },
            {
              "internalType": "bool",
              "name": "frozen",
              "type": "bool"
            },
            {
              "internalType": "string",
              "name": "coverImageUri",
              "type": "string"
            },
            {
              "internalType": "string",
              "name": "tokenName",
              "type": "string"
            },
            {
              "internalType": "string",
              "name": "tokenDescription",
              "type": "string"
            }
          ],
          "internalType": "struct CollectionFactory.Collections",
          "name": "",
          "type": "tuple"
        }
      ],
      "stateMutability": "view",
      "type": "function"
    },
    {
      "inputs": [
        {
          "internalType": "address",
          "name": "_userAddress",
          "type": "address"
        }
      ],
      "name": "getDetailedCollectionsByAddress",
      "outputs": [
        {
          "components": [
            {
              "internalType": "address",
              "name": "collectionAddress",
              "type": "address"
            },
            {
              "internalType": "uint256",
              "name": "presaleDate",
              "type": "uint256"
            },
            {
              "internalType": "uint16",
              "name": "mysteryBoxCap",
              "type": "uint16"
            },
            {
              "internalType": "uint16",
              "name": "nftCap",
              "type": "uint16"
            },
            {
              "internalType": "uint16[]",
              "name": "availableNfts",
              "type": "uint16[]"
            },
            {
              "internalType": "address",
              "name": "owner",
              "type": "address"
            },
            {
              "internalType": "uint256",
              "name": "mysteryBoxUsdPrice",
              "type": "uint256"
            },
            {
              "internalType": "uint256",
              "name": "nftUsdPrice",
              "type": "uint256"
            },
            {
              "internalType": "bool",
              "name": "frozen",
              "type": "bool"
            },
            {
              "internalType": "string",
              "name": "coverImageUri",
              "type": "string"
            },
            {
              "internalType": "string",
              "name": "tokenName",
              "type": "string"
            },
            {
              "internalType": "string",
              "name": "tokenDescription",
              "type": "string"
            }
          ],
          "internalType": "struct CollectionFactory.Collections[]",
          "name": "",
          "type": "tuple[]"
        }
      ],
      "stateMutability": "view",
      "type": "function"
    },
    {
      "inputs": [],
      "name": "nftStoreAddress",
      "outputs": [
        {
          "internalType": "address",
          "name": "",
          "type": "address"
        }
      ],
      "stateMutability": "view",
      "type": "function"
    },
    {
      "inputs": [],
      "name": "owner",
      "outputs": [
        {
          "internalType": "address",
          "name": "",
          "type": "address"
        }
      ],
      "stateMutability": "view",
      "type": "function"
    },
    {
      "inputs": [],
      "name": "renounceOwnership",
      "outputs": [],
      "stateMutability": "nonpayable",
      "type": "function"
    },
    {
      "inputs": [
        {
          "internalType": "address",
          "name": "_nftStoreAddress",
          "type": "address"
        }
      ],
      "name": "setNftStoreAddress",
      "outputs": [],
      "stateMutability": "nonpayable",
      "type": "function"
    },
    {
      "inputs": [
        {
          "internalType": "address",
          "name": "newOwner",
          "type": "address"
        }
      ],
      "name": "transferOwnership",
      "outputs": [],
      "stateMutability": "nonpayable",
      "type": "function"
    },
    {
      "inputs": [
        {
          "internalType": "address",
          "name": "_collectionAddress",
          "type": "address"
        },
        {
          "internalType": "uint256",
          "name": "_USDPrice",
          "type": "uint256"
        }
      ],
      "name": "updadateMysteryBoxPrice",
      "outputs": [],
      "stateMutability": "nonpayable",
      "type": "function"
    },
    {
      "inputs": [
        {
          "internalType": "address",
          "name": "_nftCollection",
          "type": "address"
        },
        {
          "internalType": "address",
          "name": "_user",
          "type": "address"
        },
        {
          "internalType": "uint16",
          "name": "_indexToDelete",
          "type": "uint16"
        }
      ],
      "name": "updateAvailableNFts",
      "outputs": [],
      "stateMutability": "nonpayable",
      "type": "function"
    },
    {
      "inputs": [
        {
          "internalType": "address",
          "name": "_collectionAddress",
          "type": "address"
        }
      ],
      "name": "updateFrozenFlag",
      "outputs": [],
      "stateMutability": "nonpayable",
      "type": "function"
    },
    {
      "inputs": [
        {
          "internalType": "address",
          "name": "_collectionAddress",
          "type": "address"
        },
        {
          "internalType": "uint256",
          "name": "_USDPrice",
          "type": "uint256"
        }
      ],
      "name": "updateNftPrice",
      "outputs": [],
      "stateMutability": "nonpayable",
      "type": "function"
    },
    {
      "inputs": [
        {
          "internalType": "address",
          "name": "_collectionAddress",
          "type": "address"
        },
        {
          "internalType": "uint256",
          "name": "_presaleDate",
          "type": "uint256"
        }
      ],
      "name": "updatePresaleDate",
      "outputs": [],
      "stateMutability": "nonpayable",
      "type": "function"
    }
  ],
  "bytecode": "0x60806040523480156200001157600080fd5b5062000032620000266200003860201b60201c565b6200004060201b60201c565b62000104565b600033905090565b60008060009054906101000a900473ffffffffffffffffffffffffffffffffffffffff169050816000806101000a81548173ffffffffffffffffffffffffffffffffffffffff021916908373ffffffffffffffffffffffffffffffffffffffff1602179055508173ffffffffffffffffffffffffffffffffffffffff168173ffffffffffffffffffffffffffffffffffffffff167f8be0079c531659141344cd1fd0a4f28419497f9722a3daafe3b4186f6b6457e060405160405180910390a35050565b61653f80620001146000396000f3fe60806040523480156200001157600080fd5b5060043610620001005760003560e01c80639cc195481162000099578063e40de887116200006f578063e40de887146200024b578063f2fde38b1462000281578063f5891da914620002a1578063f8e4c76914620002c35762000100565b80639cc1954814620001eb578063c42fe149146200020b578063e20f40c7146200022b5762000100565b806366bea4af11620000db57806366bea4af1462000165578063715018a614620001875780638053776114620001935780638da5cb5b14620001c95762000100565b806303554e6a146200010557806324408fe81462000125578063479bcee51462000145575b600080fd5b6200012360048036038101906200011d919062002320565b620002e3565b005b6200014360048036038101906200013d919062002391565b62000331565b005b6200016360048036038101906200015d91906200258a565b62000606565b005b6200016f62000b22565b6040516200017e91906200272c565b60405180910390f35b6200019162000b48565b005b620001b16004803603810190620001ab919062002320565b62000b60565b604051620001c0919062002aea565b60405180910390f35b620001d3620010c4565b604051620001e291906200272c565b60405180910390f35b62000209600480360381019062000203919062002b0e565b620010ed565b005b62000229600480360381019062000223919062002b0e565b6200120d565b005b62000249600480360381019062000243919062002320565b6200132d565b005b62000269600480360381019062000263919062002320565b620014af565b60405162000278919062002c86565b60405180910390f35b6200029f600480360381019062000299919062002320565b62001880565b005b620002ab6200190b565b604051620002ba919062002aea565b60405180910390f35b620002e16004803603810190620002db919062002b0e565b62001e30565b005b620002ed62001f50565b80600260006101000a81548173ffffffffffffffffffffffffffffffffffffffff021916908373ffffffffffffffffffffffffffffffffffffffff16021790555050565b600260009054906101000a900473ffffffffffffffffffffffffffffffffffffffff1673ffffffffffffffffffffffffffffffffffffffff163373ffffffffffffffffffffffffffffffffffffffff1614620003c4576040517f08c379a0000000000000000000000000000000000000000000000000000000008152600401620003bb9062002d0b565b60405180910390fd5b6000600460008573ffffffffffffffffffffffffffffffffffffffff1673ffffffffffffffffffffffffffffffffffffffff168152602001908152602001600020600301905080600182805490506200041e919062002d5c565b8154811062000432576200043162002d97565b5b90600052602060002090601091828204019190066002029054906101000a900461ffff16818361ffff168154811062000470576200046f62002d97565b5b90600052602060002090601091828204019190066002026101000a81548161ffff021916908361ffff160217905550600360008473ffffffffffffffffffffffffffffffffffffffff1673ffffffffffffffffffffffffffffffffffffffff16815260200190815260200160002060008573ffffffffffffffffffffffffffffffffffffffff1673ffffffffffffffffffffffffffffffffffffffff168152602001908152602001600020818361ffff168154811062000535576200053462002d97565b5b90600052602060002090601091828204019190066002029054906101000a900461ffff16908060018154018082558091505060019003906000526020600020016000909161ffff169091909150558080548062000597576200059662002dc6565b5b60019003818190600052602060002090601091828204019190066002026101000a81549061ffff021916905590557f11ef6fe05323e70ac6da73f7cb860e511937e4da332af037e9224dcf54bad3808483604051620005f892919062002e38565b60405180910390a150505050565b8361ffff168561ffff16111562000654576040517f08c379a00000000000000000000000000000000000000000000000000000000081526004016200064b9062002f01565b60405180910390fd5b60008461ffff1667ffffffffffffffff81111562000677576200067662002408565b5b604051908082528060200260200182016040528015620006a65781602001602082028036833780820191505090505b50905060005b8561ffff168161ffff161015620007045780828261ffff1681518110620006d857620006d762002d97565b5b602002602001019061ffff16908161ffff16815250508080620006fb9062002f23565b915050620006ac565b5060008b8b8b600260009054906101000a900473ffffffffffffffffffffffffffffffffffffffff166040516200073b90620020a1565b6200074a949392919062002f94565b604051809103906000f08015801562000767573d6000803e3d6000fd5b5090506040518061018001604052808273ffffffffffffffffffffffffffffffffffffffff1681526020018981526020018861ffff1681526020018761ffff1681526020018381526020013373ffffffffffffffffffffffffffffffffffffffff1681526020018681526020018581526020016000151581526020018a81526020018d815260200184815250600460008373ffffffffffffffffffffffffffffffffffffffff1673ffffffffffffffffffffffffffffffffffffffff16815260200190815260200160002060008201518160000160006101000a81548173ffffffffffffffffffffffffffffffffffffffff021916908373ffffffffffffffffffffffffffffffffffffffff1602179055506020820151816001015560408201518160020160006101000a81548161ffff021916908361ffff16021790555060608201518160020160026101000a81548161ffff021916908361ffff1602179055506080820151816003019080519060200190620008e7929190620020af565b5060a08201518160040160006101000a81548173ffffffffffffffffffffffffffffffffffffffff021916908373ffffffffffffffffffffffffffffffffffffffff16021790555060c0820151816005015560e082015181600601556101008201518160070160006101000a81548160ff0219169083151502179055506101208201518160080190805190602001906200098392919062002160565b50610140820151816009019080519060200190620009a392919062002160565b5061016082015181600a019080519060200190620009c392919062002160565b509050506001819080600181540180825580915050600190039060005260206000200160009091909190916101000a81548173ffffffffffffffffffffffffffffffffffffffff021916908373ffffffffffffffffffffffffffffffffffffffff160217905550600560003373ffffffffffffffffffffffffffffffffffffffff1673ffffffffffffffffffffffffffffffffffffffff168152602001908152602001600020819080600181540180825580915050600190039060005260206000200160009091909190916101000a81548173ffffffffffffffffffffffffffffffffffffffff021916908373ffffffffffffffffffffffffffffffffffffffff1602179055507fa06730c0ec027ab9af6354bb468ffe524c1aca1d489a5ccbe6240f51bcc40ab48189898986338b8b600060405162000b0c9998979695949392919062003093565b60405180910390a1505050505050505050505050565b600260009054906101000a900473ffffffffffffffffffffffffffffffffffffffff1681565b62000b5262001f50565b62000b5e600062001fd5565b565b60606000600560008473ffffffffffffffffffffffffffffffffffffffff1673ffffffffffffffffffffffffffffffffffffffff16815260200190815260200160002080548060200260200160405190810160405280929190818152602001828054801562000c2557602002820191906000526020600020905b8160009054906101000a900473ffffffffffffffffffffffffffffffffffffffff1673ffffffffffffffffffffffffffffffffffffffff168152602001906001019080831162000bda575b505050505090506000815167ffffffffffffffff81111562000c4c5762000c4b62002408565b5b60405190808252806020026020018201604052801562000c8957816020015b62000c75620021f1565b81526020019060019003908162000c6b5790505b50905060005b82518161ffff161015620010b95760046000848361ffff168151811062000cbb5762000cba62002d97565b5b602002602001015173ffffffffffffffffffffffffffffffffffffffff1673ffffffffffffffffffffffffffffffffffffffff168152602001908152602001600020604051806101800160405290816000820160009054906101000a900473ffffffffffffffffffffffffffffffffffffffff1673ffffffffffffffffffffffffffffffffffffffff1673ffffffffffffffffffffffffffffffffffffffff168152602001600182015481526020016002820160009054906101000a900461ffff1661ffff1661ffff1681526020016002820160029054906101000a900461ffff1661ffff1661ffff1681526020016003820180548060200260200160405190810160405280929190818152602001828054801562000e2257602002820191906000526020600020906000905b82829054906101000a900461ffff1661ffff168152602001906002019060208260010104928301926001038202915080841162000de85790505b505050505081526020016004820160009054906101000a900473ffffffffffffffffffffffffffffffffffffffff1673ffffffffffffffffffffffffffffffffffffffff1673ffffffffffffffffffffffffffffffffffffffff16815260200160058201548152602001600682015481526020016007820160009054906101000a900460ff1615151515815260200160088201805462000ec29062003168565b80601f016020809104026020016040519081016040528092919081815260200182805462000ef09062003168565b801562000f415780601f1062000f155761010080835404028352916020019162000f41565b820191906000526020600020905b81548152906001019060200180831162000f2357829003601f168201915b5050505050815260200160098201805462000f5c9062003168565b80601f016020809104026020016040519081016040528092919081815260200182805462000f8a9062003168565b801562000fdb5780601f1062000faf5761010080835404028352916020019162000fdb565b820191906000526020600020905b81548152906001019060200180831162000fbd57829003601f168201915b50505050508152602001600a8201805462000ff69062003168565b80601f0160208091040260200160405190810160405280929190818152602001828054620010249062003168565b8015620010755780601f10620010495761010080835404028352916020019162001075565b820191906000526020600020905b8154815290600101906020018083116200105757829003601f168201915b505050505081525050828261ffff168151811062001098576200109762002d97565b5b60200260200101819052508080620010b09062002f23565b91505062000c8f565b508092505050919050565b60008060009054906101000a900473ffffffffffffffffffffffffffffffffffffffff16905090565b81600460008273ffffffffffffffffffffffffffffffffffffffff1673ffffffffffffffffffffffffffffffffffffffff16815260200190815260200160002060040160009054906101000a900473ffffffffffffffffffffffffffffffffffffffff1673ffffffffffffffffffffffffffffffffffffffff163373ffffffffffffffffffffffffffffffffffffffff1614620011c1576040517f08c379a0000000000000000000000000000000000000000000000000000000008152600401620011b890620031ee565b60405180910390fd5b81600460008573ffffffffffffffffffffffffffffffffffffffff1673ffffffffffffffffffffffffffffffffffffffff16815260200190815260200160002060060181905550505050565b81600460008273ffffffffffffffffffffffffffffffffffffffff1673ffffffffffffffffffffffffffffffffffffffff16815260200190815260200160002060040160009054906101000a900473ffffffffffffffffffffffffffffffffffffffff1673ffffffffffffffffffffffffffffffffffffffff163373ffffffffffffffffffffffffffffffffffffffff1614620012e1576040517f08c379a0000000000000000000000000000000000000000000000000000000008152600401620012d890620031ee565b60405180910390fd5b81600460008573ffffffffffffffffffffffffffffffffffffffff1673ffffffffffffffffffffffffffffffffffffffff16815260200190815260200160002060010181905550505050565b80600460008273ffffffffffffffffffffffffffffffffffffffff1673ffffffffffffffffffffffffffffffffffffffff16815260200190815260200160002060040160009054906101000a900473ffffffffffffffffffffffffffffffffffffffff1673ffffffffffffffffffffffffffffffffffffffff163373ffffffffffffffffffffffffffffffffffffffff161462001401576040517f08c379a0000000000000000000000000000000000000000000000000000000008152600401620013f890620031ee565b60405180910390fd5b600460008373ffffffffffffffffffffffffffffffffffffffff1673ffffffffffffffffffffffffffffffffffffffff16815260200190815260200160002060070160009054906101000a900460ff1615600460008473ffffffffffffffffffffffffffffffffffffffff1673ffffffffffffffffffffffffffffffffffffffff16815260200190815260200160002060070160006101000a81548160ff0219169083151502179055505050565b620014b9620021f1565b600460008373ffffffffffffffffffffffffffffffffffffffff1673ffffffffffffffffffffffffffffffffffffffff168152602001908152602001600020604051806101800160405290816000820160009054906101000a900473ffffffffffffffffffffffffffffffffffffffff1673ffffffffffffffffffffffffffffffffffffffff1673ffffffffffffffffffffffffffffffffffffffff168152602001600182015481526020016002820160009054906101000a900461ffff1661ffff1661ffff1681526020016002820160029054906101000a900461ffff1661ffff1661ffff168152602001600382018054806020026020016040519081016040528092919081815260200182805480156200161d57602002820191906000526020600020906000905b82829054906101000a900461ffff1661ffff1681526020019060020190602082600101049283019260010382029150808411620015e35790505b505050505081526020016004820160009054906101000a900473ffffffffffffffffffffffffffffffffffffffff1673ffffffffffffffffffffffffffffffffffffffff1673ffffffffffffffffffffffffffffffffffffffff16815260200160058201548152602001600682015481526020016007820160009054906101000a900460ff16151515158152602001600882018054620016bd9062003168565b80601f0160208091040260200160405190810160405280929190818152602001828054620016eb9062003168565b80156200173c5780601f1062001710576101008083540402835291602001916200173c565b820191906000526020600020905b8154815290600101906020018083116200171e57829003601f168201915b50505050508152602001600982018054620017579062003168565b80601f0160208091040260200160405190810160405280929190818152602001828054620017859062003168565b8015620017d65780601f10620017aa57610100808354040283529160200191620017d6565b820191906000526020600020905b815481529060010190602001808311620017b857829003601f168201915b50505050508152602001600a82018054620017f19062003168565b80601f01602080910402602001604051908101604052809291908181526020018280546200181f9062003168565b8015620018705780601f10620018445761010080835404028352916020019162001870565b820191906000526020600020905b8154815290600101906020018083116200185257829003601f168201915b5050505050815250509050919050565b6200188a62001f50565b600073ffffffffffffffffffffffffffffffffffffffff168173ffffffffffffffffffffffffffffffffffffffff161415620018fd576040517f08c379a0000000000000000000000000000000000000000000000000000000008152600401620018f49062003286565b60405180910390fd5b620019088162001fd5565b50565b6060600060018054806020026020016040519081016040528092919081815260200182805480156200199357602002820191906000526020600020905b8160009054906101000a900473ffffffffffffffffffffffffffffffffffffffff1673ffffffffffffffffffffffffffffffffffffffff168152602001906001019080831162001948575b505050505090506000815167ffffffffffffffff811115620019ba57620019b962002408565b5b604051908082528060200260200182016040528015620019f757816020015b620019e3620021f1565b815260200190600190039081620019d95790505b50905060005b82518161ffff16101562001e275760046000848361ffff168151811062001a295762001a2862002d97565b5b602002602001015173ffffffffffffffffffffffffffffffffffffffff1673ffffffffffffffffffffffffffffffffffffffff168152602001908152602001600020604051806101800160405290816000820160009054906101000a900473ffffffffffffffffffffffffffffffffffffffff1673ffffffffffffffffffffffffffffffffffffffff1673ffffffffffffffffffffffffffffffffffffffff168152602001600182015481526020016002820160009054906101000a900461ffff1661ffff1661ffff1681526020016002820160029054906101000a900461ffff1661ffff1661ffff1681526020016003820180548060200260200160405190810160405280929190818152602001828054801562001b9057602002820191906000526020600020906000905b82829054906101000a900461ffff1661ffff168152602001906002019060208260010104928301926001038202915080841162001b565790505b505050505081526020016004820160009054906101000a900473ffffffffffffffffffffffffffffffffffffffff1673ffffffffffffffffffffffffffffffffffffffff1673ffffffffffffffffffffffffffffffffffffffff16815260200160058201548152602001600682015481526020016007820160009054906101000a900460ff1615151515815260200160088201805462001c309062003168565b80601f016020809104026020016040519081016040528092919081815260200182805462001c5e9062003168565b801562001caf5780601f1062001c835761010080835404028352916020019162001caf565b820191906000526020600020905b81548152906001019060200180831162001c9157829003601f168201915b5050505050815260200160098201805462001cca9062003168565b80601f016020809104026020016040519081016040528092919081815260200182805462001cf89062003168565b801562001d495780601f1062001d1d5761010080835404028352916020019162001d49565b820191906000526020600020905b81548152906001019060200180831162001d2b57829003601f168201915b50505050508152602001600a8201805462001d649062003168565b80601f016020809104026020016040519081016040528092919081815260200182805462001d929062003168565b801562001de35780601f1062001db75761010080835404028352916020019162001de3565b820191906000526020600020905b81548152906001019060200180831162001dc557829003601f168201915b505050505081525050828261ffff168151811062001e065762001e0562002d97565b5b6020026020010181905250808062001e1e9062002f23565b915050620019fd565b50809250505090565b81600460008273ffffffffffffffffffffffffffffffffffffffff1673ffffffffffffffffffffffffffffffffffffffff16815260200190815260200160002060040160009054906101000a900473ffffffffffffffffffffffffffffffffffffffff1673ffffffffffffffffffffffffffffffffffffffff163373ffffffffffffffffffffffffffffffffffffffff161462001f04576040517f08c379a000000000000000000000000000000000000000000000000000000000815260040162001efb90620031ee565b60405180910390fd5b81600460008573ffffffffffffffffffffffffffffffffffffffff1673ffffffffffffffffffffffffffffffffffffffff16815260200190815260200160002060050181905550505050565b62001f5a62002099565b73ffffffffffffffffffffffffffffffffffffffff1662001f7a620010c4565b73ffffffffffffffffffffffffffffffffffffffff161462001fd3576040517f08c379a000000000000000000000000000000000000000000000000000000000815260040162001fca90620032f8565b60405180910390fd5b565b60008060009054906101000a900473ffffffffffffffffffffffffffffffffffffffff169050816000806101000a81548173ffffffffffffffffffffffffffffffffffffffff021916908373ffffffffffffffffffffffffffffffffffffffff1602179055508173ffffffffffffffffffffffffffffffffffffffff168173ffffffffffffffffffffffffffffffffffffffff167f8be0079c531659141344cd1fd0a4f28419497f9722a3daafe3b4186f6b6457e060405160405180910390a35050565b600033905090565b6131ef806200331b83390190565b82805482825590600052602060002090600f016010900481019282156200214d5791602002820160005b838211156200211b57835183826101000a81548161ffff021916908361ffff1602179055509260200192600201602081600101049283019260010302620020d9565b80156200214b5782816101000a81549061ffff02191690556002016020816001010492830192600103026200211b565b505b5090506200215c919062002288565b5090565b8280546200216e9062003168565b90600052602060002090601f016020900481019282620021925760008555620021de565b82601f10620021ad57805160ff1916838001178555620021de565b82800160010185558215620021de579182015b82811115620021dd578251825591602001919060010190620021c0565b5b509050620021ed919062002288565b5090565b604051806101800160405280600073ffffffffffffffffffffffffffffffffffffffff16815260200160008152602001600061ffff168152602001600061ffff16815260200160608152602001600073ffffffffffffffffffffffffffffffffffffffff16815260200160008152602001600081526020016000151581526020016060815260200160608152602001606081525090565b5b80821115620022a357600081600090555060010162002289565b5090565b6000604051905090565b600080fd5b600080fd5b600073ffffffffffffffffffffffffffffffffffffffff82169050919050565b6000620022e882620022bb565b9050919050565b620022fa81620022db565b81146200230657600080fd5b50565b6000813590506200231a81620022ef565b92915050565b600060208284031215620023395762002338620022b1565b5b6000620023498482850162002309565b91505092915050565b600061ffff82169050919050565b6200236b8162002352565b81146200237757600080fd5b50565b6000813590506200238b8162002360565b92915050565b600080600060608486031215620023ad57620023ac620022b1565b5b6000620023bd8682870162002309565b9350506020620023d08682870162002309565b9250506040620023e3868287016200237a565b9150509250925092565b600080fd5b600080fd5b6000601f19601f8301169050919050565b7f4e487b7100000000000000000000000000000000000000000000000000000000600052604160045260246000fd5b6200244282620023f7565b810181811067ffffffffffffffff8211171562002464576200246362002408565b5b80604052505050565b600062002479620022a7565b905062002487828262002437565b919050565b600067ffffffffffffffff821115620024aa57620024a962002408565b5b620024b582620023f7565b9050602081019050919050565b82818337600083830152505050565b6000620024e8620024e2846200248c565b6200246d565b905082815260208101848484011115620025075762002506620023f2565b5b62002514848285620024c2565b509392505050565b600082601f830112620025345762002533620023ed565b5b813562002546848260208601620024d1565b91505092915050565b6000819050919050565b62002564816200254f565b81146200257057600080fd5b50565b600081359050620025848162002559565b92915050565b6000806000806000806000806000806101408b8d031215620025b157620025b0620022b1565b5b60008b013567ffffffffffffffff811115620025d257620025d1620022b6565b5b620025e08d828e016200251c565b9a505060208b013567ffffffffffffffff811115620026045762002603620022b6565b5b620026128d828e016200251c565b99505060408b013567ffffffffffffffff811115620026365762002635620022b6565b5b620026448d828e016200251c565b98505060608b013567ffffffffffffffff811115620026685762002667620022b6565b5b620026768d828e016200251c565b9750506080620026898d828e0162002573565b96505060a06200269c8d828e016200237a565b95505060c0620026af8d828e016200237a565b94505060e0620026c28d828e0162002573565b935050610100620026d68d828e0162002573565b9250506101208b013567ffffffffffffffff811115620026fb57620026fa620022b6565b5b620027098d828e016200251c565b9150509295989b9194979a5092959850565b6200272681620022db565b82525050565b60006020820190506200274360008301846200271b565b92915050565b600081519050919050565b600082825260208201905092915050565b6000819050602082019050919050565b6200278081620022db565b82525050565b62002791816200254f565b82525050565b620027a28162002352565b82525050565b600081519050919050565b600082825260208201905092915050565b6000819050602082019050919050565b6000620027e2838362002797565b60208301905092915050565b6000602082019050919050565b60006200280882620027a8565b620028148185620027b3565b93506200282183620027c4565b8060005b83811015620028585781516200283c8882620027d4565b97506200284983620027ee565b92505060018101905062002825565b5085935050505092915050565b60008115159050919050565b6200287c8162002865565b82525050565b600081519050919050565b600082825260208201905092915050565b60005b83811015620028be578082015181840152602081019050620028a1565b83811115620028ce576000848401525b50505050565b6000620028e18262002882565b620028ed81856200288d565b9350620028ff8185602086016200289e565b6200290a81620023f7565b840191505092915050565b60006101808301600083015162002930600086018262002775565b50602083015162002945602086018262002786565b5060408301516200295a604086018262002797565b5060608301516200296f606086018262002797565b5060808301518482036080860152620029898282620027fb565b91505060a0830151620029a060a086018262002775565b5060c0830151620029b560c086018262002786565b5060e0830151620029ca60e086018262002786565b50610100830151620029e161010086018262002871565b50610120830151848203610120860152620029fd8282620028d4565b91505061014083015184820361014086015262002a1b8282620028d4565b91505061016083015184820361016086015262002a398282620028d4565b9150508091505092915050565b600062002a54838362002915565b905092915050565b6000602082019050919050565b600062002a768262002749565b62002a82818562002754565b93508360208202850162002a968562002765565b8060005b8581101562002ad8578484038952815162002ab6858262002a46565b945062002ac38362002a5c565b925060208a0199505060018101905062002a9a565b50829750879550505050505092915050565b6000602082019050818103600083015262002b06818462002a69565b905092915050565b6000806040838503121562002b285762002b27620022b1565b5b600062002b388582860162002309565b925050602062002b4b8582860162002573565b9150509250929050565b60006101808301600083015162002b70600086018262002775565b50602083015162002b85602086018262002786565b50604083015162002b9a604086018262002797565b50606083015162002baf606086018262002797565b506080830151848203608086015262002bc98282620027fb565b91505060a083015162002be060a086018262002775565b5060c083015162002bf560c086018262002786565b5060e083015162002c0a60e086018262002786565b5061010083015162002c2161010086018262002871565b5061012083015184820361012086015262002c3d8282620028d4565b91505061014083015184820361014086015262002c5b8282620028d4565b91505061016083015184820361016086015262002c798282620028d4565b9150508091505092915050565b6000602082019050818103600083015262002ca2818462002b55565b905092915050565b600082825260208201905092915050565b7f4f6e6c79206e667453746f72652063616e207570646174652074686973000000600082015250565b600062002cf3601d8362002caa565b915062002d008262002cbb565b602082019050919050565b6000602082019050818103600083015262002d268162002ce4565b9050919050565b7f4e487b7100000000000000000000000000000000000000000000000000000000600052601160045260246000fd5b600062002d69826200254f565b915062002d76836200254f565b92508282101562002d8c5762002d8b62002d2d565b5b828203905092915050565b7f4e487b7100000000000000000000000000000000000000000000000000000000600052603260045260246000fd5b7f4e487b7100000000000000000000000000000000000000000000000000000000600052603160045260246000fd5b6000819050919050565b600062002e2062002e1a62002e148462002352565b62002df5565b6200254f565b9050919050565b62002e328162002dff565b82525050565b600060408201905062002e4f60008301856200271b565b62002e5e602083018462002e27565b9392505050565b7f436f6c6c656374696f6e466163746f72793a2050726573616c6520537570706c60008201527f7920697320686967686572207468616e20746f74616c204e465420537570706c60208201527f7900000000000000000000000000000000000000000000000000000000000000604082015250565b600062002ee960418362002caa565b915062002ef68262002e65565b606082019050919050565b6000602082019050818103600083015262002f1c8162002eda565b9050919050565b600062002f308262002352565b915061ffff82141562002f485762002f4762002d2d565b5b600182019050919050565b600062002f608262002882565b62002f6c818562002caa565b935062002f7e8185602086016200289e565b62002f8981620023f7565b840191505092915050565b6000608082019050818103600083015262002fb0818762002f53565b9050818103602083015262002fc6818662002f53565b9050818103604083015262002fdc818562002f53565b905062002fed60608301846200271b565b95945050505050565b62003001816200254f565b82525050565b600082825260208201905092915050565b60006200302582620027a8565b62003031818562003007565b93506200303e83620027c4565b8060005b8381101562003075578151620030598882620027d4565b97506200306683620027ee565b92505060018101905062003042565b5085935050505092915050565b6200308d8162002865565b82525050565b600061012082019050620030ab600083018c6200271b565b620030ba602083018b62002ff6565b620030c9604083018a62002e27565b620030d8606083018962002e27565b8181036080830152620030ec818862003018565b9050620030fd60a08301876200271b565b6200310c60c083018662002ff6565b6200311b60e083018562002ff6565b6200312b61010083018462003082565b9a9950505050505050505050565b7f4e487b7100000000000000000000000000000000000000000000000000000000600052602260045260246000fd5b600060028204905060018216806200318157607f821691505b6020821081141562003198576200319762003139565b5b50919050565b7f4e6f7420436f6c6c656374696f6e204f776e6572000000000000000000000000600082015250565b6000620031d660148362002caa565b9150620031e3826200319e565b602082019050919050565b600060208201905081810360008301526200320981620031c7565b9050919050565b7f4f776e61626c653a206e6577206f776e657220697320746865207a65726f206160008201527f6464726573730000000000000000000000000000000000000000000000000000602082015250565b60006200326e60268362002caa565b91506200327b8262003210565b604082019050919050565b60006020820190508181036000830152620032a1816200325f565b9050919050565b7f4f776e61626c653a2063616c6c6572206973206e6f7420746865206f776e6572600082015250565b6000620032e060208362002caa565b9150620032ed82620032a8565b602082019050919050565b600060208201905081810360008301526200331381620032d1565b905091905056fe60806040523480156200001157600080fd5b50604051620031ef380380620031ef833981810160405281019062000037919062000471565b8383816000908051906020019062000051929190620001bf565b5080600190805190602001906200006a929190620001bf565b5050506200008d62000081620000f160201b60201c565b620000f960201b60201c565b8160079080519060200190620000a5929190620001bf565b5080600860006101000a81548173ffffffffffffffffffffffffffffffffffffffff021916908373ffffffffffffffffffffffffffffffffffffffff16021790555050505050620005a5565b600033905090565b6000600660009054906101000a900473ffffffffffffffffffffffffffffffffffffffff16905081600660006101000a81548173ffffffffffffffffffffffffffffffffffffffff021916908373ffffffffffffffffffffffffffffffffffffffff1602179055508173ffffffffffffffffffffffffffffffffffffffff168173ffffffffffffffffffffffffffffffffffffffff167f8be0079c531659141344cd1fd0a4f28419497f9722a3daafe3b4186f6b6457e060405160405180910390a35050565b828054620001cd906200056f565b90600052602060002090601f016020900481019282620001f157600085556200023d565b82601f106200020c57805160ff19168380011785556200023d565b828001600101855582156200023d579182015b828111156200023c5782518255916020019190600101906200021f565b5b5090506200024c919062000250565b5090565b5b808211156200026b57600081600090555060010162000251565b5090565b6000604051905090565b600080fd5b600080fd5b600080fd5b600080fd5b6000601f19601f8301169050919050565b7f4e487b7100000000000000000000000000000000000000000000000000000000600052604160045260246000fd5b620002d8826200028d565b810181811067ffffffffffffffff82111715620002fa57620002f96200029e565b5b80604052505050565b60006200030f6200026f565b90506200031d8282620002cd565b919050565b600067ffffffffffffffff82111562000340576200033f6200029e565b5b6200034b826200028d565b9050602081019050919050565b60005b83811015620003785780820151818401526020810190506200035b565b8381111562000388576000848401525b50505050565b6000620003a56200039f8462000322565b62000303565b905082815260208101848484011115620003c457620003c362000288565b5b620003d184828562000358565b509392505050565b600082601f830112620003f157620003f062000283565b5b8151620004038482602086016200038e565b91505092915050565b600073ffffffffffffffffffffffffffffffffffffffff82169050919050565b600062000439826200040c565b9050919050565b6200044b816200042c565b81146200045757600080fd5b50565b6000815190506200046b8162000440565b92915050565b600080600080608085870312156200048e576200048d62000279565b5b600085015167ffffffffffffffff811115620004af57620004ae6200027e565b5b620004bd87828801620003d9565b945050602085015167ffffffffffffffff811115620004e157620004e06200027e565b5b620004ef87828801620003d9565b935050604085015167ffffffffffffffff8111156200051357620005126200027e565b5b6200052187828801620003d9565b925050606062000534878288016200045a565b91505092959194509250565b7f4e487b7100000000000000000000000000000000000000000000000000000000600052602260045260246000fd5b600060028204905060018216806200058857607f821691505b602082108114156200059f576200059e62000540565b5b50919050565b612c3a80620005b56000396000f3fe608060405234801561001057600080fd5b50600436106101165760003560e01c80638ad91345116100a2578063a22cb46511610071578063a22cb465146102df578063b88d4fde146102fb578063c87b56dd14610317578063e985e9c514610347578063f2fde38b1461037757610116565b80638ad91345146102575780638da5cb5b1461028757806394bf804d146102a557806395d89b41146102c157610116565b806323b872dd116100e957806323b872dd146101b557806342842e0e146101d15780636352211e146101ed57806370a082311461021d578063715018a61461024d57610116565b806301ffc9a71461011b57806306fdde031461014b578063081812fc14610169578063095ea7b314610199575b600080fd5b61013560048036038101906101309190611a64565b610393565b6040516101429190611aac565b60405180910390f35b6101536103a5565b6040516101609190611b60565b60405180910390f35b610183600480360381019061017e9190611bb8565b610437565b6040516101909190611c26565b60405180910390f35b6101b360048036038101906101ae9190611c6d565b61047d565b005b6101cf60048036038101906101ca9190611cad565b610595565b005b6101eb60048036038101906101e69190611cad565b6105f5565b005b61020760048036038101906102029190611bb8565b610615565b6040516102149190611c26565b60405180910390f35b61023760048036038101906102329190611d00565b6106c7565b6040516102449190611d3c565b60405180910390f35b61025561077f565b005b610271600480360381019061026c9190611bb8565b610793565b60405161027e9190611b60565b60405180910390f35b61028f6107bf565b60405161029c9190611c26565b60405180910390f35b6102bf60048036038101906102ba9190611d57565b6107e9565b005b6102c9610887565b6040516102d69190611b60565b60405180910390f35b6102f960048036038101906102f49190611dc3565b610919565b005b61031560048036038101906103109190611f38565b61092f565b005b610331600480360381019061032c9190611bb8565b610991565b60405161033e9190611b60565b60405180910390f35b610361600480360381019061035c9190611fbb565b6109f9565b60405161036e9190611aac565b60405180910390f35b610391600480360381019061038c9190611d00565b610a8d565b005b600061039e82610b11565b9050919050565b6060600080546103b49061202a565b80601f01602080910402602001604051908101604052809291908181526020018280546103e09061202a565b801561042d5780601f106104025761010080835404028352916020019161042d565b820191906000526020600020905b81548152906001019060200180831161041057829003601f168201915b5050505050905090565b600061044282610bf3565b6004600083815260200190815260200160002060009054906101000a900473ffffffffffffffffffffffffffffffffffffffff169050919050565b600061048882610615565b90508073ffffffffffffffffffffffffffffffffffffffff168373ffffffffffffffffffffffffffffffffffffffff1614156104f9576040517f08c379a00000000000000000000000000000000000000000000000000000000081526004016104f0906120ce565b60405180910390fd5b8073ffffffffffffffffffffffffffffffffffffffff16610518610c3e565b73ffffffffffffffffffffffffffffffffffffffff161480610547575061054681610541610c3e565b6109f9565b5b610586576040517f08c379a000000000000000000000000000000000000000000000000000000000815260040161057d90612160565b60405180910390fd5b6105908383610c46565b505050565b6105a66105a0610c3e565b82610cff565b6105e5576040517f08c379a00000000000000000000000000000000000000000000000000000000081526004016105dc906121f2565b60405180910390fd5b6105f0838383610d94565b505050565b6106108383836040518060200160405280600081525061092f565b505050565b6000806002600084815260200190815260200160002060009054906101000a900473ffffffffffffffffffffffffffffffffffffffff169050600073ffffffffffffffffffffffffffffffffffffffff168173ffffffffffffffffffffffffffffffffffffffff1614156106be576040517f08c379a00000000000000000000000000000000000000000000000000000000081526004016106b59061225e565b60405180910390fd5b80915050919050565b60008073ffffffffffffffffffffffffffffffffffffffff168273ffffffffffffffffffffffffffffffffffffffff161415610738576040517f08c379a000000000000000000000000000000000000000000000000000000000815260040161072f906122f0565b60405180910390fd5b600360008373ffffffffffffffffffffffffffffffffffffffff1673ffffffffffffffffffffffffffffffffffffffff168152602001908152602001600020549050919050565b610787610ffb565b6107916000611079565b565b60606007826040516020016107a9929190612468565b6040516020818303038152906040529050919050565b6000600660009054906101000a900473ffffffffffffffffffffffffffffffffffffffff16905090565b600860009054906101000a900473ffffffffffffffffffffffffffffffffffffffff1673ffffffffffffffffffffffffffffffffffffffff163373ffffffffffffffffffffffffffffffffffffffff1614610879576040517f08c379a0000000000000000000000000000000000000000000000000000000008152600401610870906124f2565b60405180910390fd5b610883818361113f565b5050565b6060600180546108969061202a565b80601f01602080910402602001604051908101604052809291908181526020018280546108c29061202a565b801561090f5780601f106108e45761010080835404028352916020019161090f565b820191906000526020600020905b8154815290600101906020018083116108f257829003601f168201915b5050505050905090565b61092b610924610c3e565b838361115d565b5050565b61094061093a610c3e565b83610cff565b61097f576040517f08c379a0000000000000000000000000000000000000000000000000000000008152600401610976906121f2565b60405180910390fd5b61098b848484846112ca565b50505050565b606061099c82610bf3565b60006109a6611326565b905060008151116109c657604051806020016040528060008152506109f1565b806109d0846113b8565b6040516020016109e1929190612543565b6040516020818303038152906040525b915050919050565b6000600560008473ffffffffffffffffffffffffffffffffffffffff1673ffffffffffffffffffffffffffffffffffffffff16815260200190815260200160002060008373ffffffffffffffffffffffffffffffffffffffff1673ffffffffffffffffffffffffffffffffffffffff16815260200190815260200160002060009054906101000a900460ff16905092915050565b610a95610ffb565b600073ffffffffffffffffffffffffffffffffffffffff168173ffffffffffffffffffffffffffffffffffffffff161415610b05576040517f08c379a0000000000000000000000000000000000000000000000000000000008152600401610afc906125d9565b60405180910390fd5b610b0e81611079565b50565b60007f80ac58cd000000000000000000000000000000000000000000000000000000007bffffffffffffffffffffffffffffffffffffffffffffffffffffffff1916827bffffffffffffffffffffffffffffffffffffffffffffffffffffffff19161480610bdc57507f5b5e139f000000000000000000000000000000000000000000000000000000007bffffffffffffffffffffffffffffffffffffffffffffffffffffffff1916827bffffffffffffffffffffffffffffffffffffffffffffffffffffffff1916145b80610bec5750610beb82611519565b5b9050919050565b610bfc81611583565b610c3b576040517f08c379a0000000000000000000000000000000000000000000000000000000008152600401610c329061225e565b60405180910390fd5b50565b600033905090565b816004600083815260200190815260200160002060006101000a81548173ffffffffffffffffffffffffffffffffffffffff021916908373ffffffffffffffffffffffffffffffffffffffff160217905550808273ffffffffffffffffffffffffffffffffffffffff16610cb983610615565b73ffffffffffffffffffffffffffffffffffffffff167f8c5be1e5ebec7d5bd14f71427d1e84f3dd0314c0f7b2291e5b200ac8c7c3b92560405160405180910390a45050565b600080610d0b83610615565b90508073ffffffffffffffffffffffffffffffffffffffff168473ffffffffffffffffffffffffffffffffffffffff161480610d4d5750610d4c81856109f9565b5b80610d8b57508373ffffffffffffffffffffffffffffffffffffffff16610d7384610437565b73ffffffffffffffffffffffffffffffffffffffff16145b91505092915050565b8273ffffffffffffffffffffffffffffffffffffffff16610db482610615565b73ffffffffffffffffffffffffffffffffffffffff1614610e0a576040517f08c379a0000000000000000000000000000000000000000000000000000000008152600401610e019061266b565b60405180910390fd5b600073ffffffffffffffffffffffffffffffffffffffff168273ffffffffffffffffffffffffffffffffffffffff161415610e7a576040517f08c379a0000000000000000000000000000000000000000000000000000000008152600401610e71906126fd565b60405180910390fd5b610e858383836115ef565b610e90600082610c46565b6001600360008573ffffffffffffffffffffffffffffffffffffffff1673ffffffffffffffffffffffffffffffffffffffff1681526020019081526020016000206000828254610ee0919061274c565b925050819055506001600360008473ffffffffffffffffffffffffffffffffffffffff1673ffffffffffffffffffffffffffffffffffffffff1681526020019081526020016000206000828254610f379190612780565b92505081905550816002600083815260200190815260200160002060006101000a81548173ffffffffffffffffffffffffffffffffffffffff021916908373ffffffffffffffffffffffffffffffffffffffff160217905550808273ffffffffffffffffffffffffffffffffffffffff168473ffffffffffffffffffffffffffffffffffffffff167fddf252ad1be2c89b69c2b068fc378daa952ba7f163c4a11628f55a4df523b3ef60405160405180910390a4610ff68383836115ff565b505050565b611003610c3e565b73ffffffffffffffffffffffffffffffffffffffff166110216107bf565b73ffffffffffffffffffffffffffffffffffffffff1614611077576040517f08c379a000000000000000000000000000000000000000000000000000000000815260040161106e90612822565b60405180910390fd5b565b6000600660009054906101000a900473ffffffffffffffffffffffffffffffffffffffff16905081600660006101000a81548173ffffffffffffffffffffffffffffffffffffffff021916908373ffffffffffffffffffffffffffffffffffffffff1602179055508173ffffffffffffffffffffffffffffffffffffffff168173ffffffffffffffffffffffffffffffffffffffff167f8be0079c531659141344cd1fd0a4f28419497f9722a3daafe3b4186f6b6457e060405160405180910390a35050565b611159828260405180602001604052806000815250611604565b5050565b8173ffffffffffffffffffffffffffffffffffffffff168373ffffffffffffffffffffffffffffffffffffffff1614156111cc576040517f08c379a00000000000000000000000000000000000000000000000000000000081526004016111c39061288e565b60405180910390fd5b80600560008573ffffffffffffffffffffffffffffffffffffffff1673ffffffffffffffffffffffffffffffffffffffff16815260200190815260200160002060008473ffffffffffffffffffffffffffffffffffffffff1673ffffffffffffffffffffffffffffffffffffffff16815260200190815260200160002060006101000a81548160ff0219169083151502179055508173ffffffffffffffffffffffffffffffffffffffff168373ffffffffffffffffffffffffffffffffffffffff167f17307eab39ab6107e8899845ad3d59bd9653f200f220920489ca2b5937696c31836040516112bd9190611aac565b60405180910390a3505050565b6112d5848484610d94565b6112e18484848461165f565b611320576040517f08c379a000000000000000000000000000000000000000000000000000000000815260040161131790612920565b60405180910390fd5b50505050565b6060600780546113359061202a565b80601f01602080910402602001604051908101604052809291908181526020018280546113619061202a565b80156113ae5780601f10611383576101008083540402835291602001916113ae565b820191906000526020600020905b81548152906001019060200180831161139157829003601f168201915b5050505050905090565b60606000821415611400576040518060400160405280600181526020017f30000000000000000000000000000000000000000000000000000000000000008152509050611514565b600082905060005b6000821461143257808061141b90612940565b915050600a8261142b91906129b8565b9150611408565b60008167ffffffffffffffff81111561144e5761144d611e0d565b5b6040519080825280601f01601f1916602001820160405280156114805781602001600182028036833780820191505090505b5090505b6000851461150d57600182611499919061274c565b9150600a856114a891906129e9565b60306114b49190612780565b60f81b8183815181106114ca576114c9612a1a565b5b60200101907effffffffffffffffffffffffffffffffffffffffffffffffffffffffffffff1916908160001a905350600a8561150691906129b8565b9450611484565b8093505050505b919050565b60007f01ffc9a7000000000000000000000000000000000000000000000000000000007bffffffffffffffffffffffffffffffffffffffffffffffffffffffff1916827bffffffffffffffffffffffffffffffffffffffffffffffffffffffff1916149050919050565b60008073ffffffffffffffffffffffffffffffffffffffff166002600084815260200190815260200160002060009054906101000a900473ffffffffffffffffffffffffffffffffffffffff1673ffffffffffffffffffffffffffffffffffffffff1614159050919050565b6115fa8383836117f6565b505050565b505050565b61160e83836117fb565b61161b600084848461165f565b61165a576040517f08c379a000000000000000000000000000000000000000000000000000000000815260040161165190612920565b60405180910390fd5b505050565b60006116808473ffffffffffffffffffffffffffffffffffffffff166119d5565b156117e9578373ffffffffffffffffffffffffffffffffffffffff1663150b7a026116a9610c3e565b8786866040518563ffffffff1660e01b81526004016116cb9493929190612a9e565b602060405180830381600087803b1580156116e557600080fd5b505af192505050801561171657506040513d601f19601f820116820180604052508101906117139190612aff565b60015b611799573d8060008114611746576040519150601f19603f3d011682016040523d82523d6000602084013e61174b565b606091505b50600081511415611791576040517f08c379a000000000000000000000000000000000000000000000000000000000815260040161178890612920565b60405180910390fd5b805181602001fd5b63150b7a0260e01b7bffffffffffffffffffffffffffffffffffffffffffffffffffffffff1916817bffffffffffffffffffffffffffffffffffffffffffffffffffffffff1916149150506117ee565b600190505b949350505050565b505050565b600073ffffffffffffffffffffffffffffffffffffffff168273ffffffffffffffffffffffffffffffffffffffff16141561186b576040517f08c379a000000000000000000000000000000000000000000000000000000000815260040161186290612b78565b60405180910390fd5b61187481611583565b156118b4576040517f08c379a00000000000000000000000000000000000000000000000000000000081526004016118ab90612be4565b60405180910390fd5b6118c0600083836115ef565b6001600360008473ffffffffffffffffffffffffffffffffffffffff1673ffffffffffffffffffffffffffffffffffffffff16815260200190815260200160002060008282546119109190612780565b92505081905550816002600083815260200190815260200160002060006101000a81548173ffffffffffffffffffffffffffffffffffffffff021916908373ffffffffffffffffffffffffffffffffffffffff160217905550808273ffffffffffffffffffffffffffffffffffffffff16600073ffffffffffffffffffffffffffffffffffffffff167fddf252ad1be2c89b69c2b068fc378daa952ba7f163c4a11628f55a4df523b3ef60405160405180910390a46119d1600083836115ff565b5050565b6000808273ffffffffffffffffffffffffffffffffffffffff163b119050919050565b6000604051905090565b600080fd5b600080fd5b60007fffffffff0000000000000000000000000000000000000000000000000000000082169050919050565b611a4181611a0c565b8114611a4c57600080fd5b50565b600081359050611a5e81611a38565b92915050565b600060208284031215611a7a57611a79611a02565b5b6000611a8884828501611a4f565b91505092915050565b60008115159050919050565b611aa681611a91565b82525050565b6000602082019050611ac16000830184611a9d565b92915050565b600081519050919050565b600082825260208201905092915050565b60005b83811015611b01578082015181840152602081019050611ae6565b83811115611b10576000848401525b50505050565b6000601f19601f8301169050919050565b6000611b3282611ac7565b611b3c8185611ad2565b9350611b4c818560208601611ae3565b611b5581611b16565b840191505092915050565b60006020820190508181036000830152611b7a8184611b27565b905092915050565b6000819050919050565b611b9581611b82565b8114611ba057600080fd5b50565b600081359050611bb281611b8c565b92915050565b600060208284031215611bce57611bcd611a02565b5b6000611bdc84828501611ba3565b91505092915050565b600073ffffffffffffffffffffffffffffffffffffffff82169050919050565b6000611c1082611be5565b9050919050565b611c2081611c05565b82525050565b6000602082019050611c3b6000830184611c17565b92915050565b611c4a81611c05565b8114611c5557600080fd5b50565b600081359050611c6781611c41565b92915050565b60008060408385031215611c8457611c83611a02565b5b6000611c9285828601611c58565b9250506020611ca385828601611ba3565b9150509250929050565b600080600060608486031215611cc657611cc5611a02565b5b6000611cd486828701611c58565b9350506020611ce586828701611c58565b9250506040611cf686828701611ba3565b9150509250925092565b600060208284031215611d1657611d15611a02565b5b6000611d2484828501611c58565b91505092915050565b611d3681611b82565b82525050565b6000602082019050611d516000830184611d2d565b92915050565b60008060408385031215611d6e57611d6d611a02565b5b6000611d7c85828601611ba3565b9250506020611d8d85828601611c58565b9150509250929050565b611da081611a91565b8114611dab57600080fd5b50565b600081359050611dbd81611d97565b92915050565b60008060408385031215611dda57611dd9611a02565b5b6000611de885828601611c58565b9250506020611df985828601611dae565b9150509250929050565b600080fd5b600080fd5b7f4e487b7100000000000000000000000000000000000000000000000000000000600052604160045260246000fd5b611e4582611b16565b810181811067ffffffffffffffff82111715611e6457611e63611e0d565b5b80604052505050565b6000611e776119f8565b9050611e838282611e3c565b919050565b600067ffffffffffffffff821115611ea357611ea2611e0d565b5b611eac82611b16565b9050602081019050919050565b82818337600083830152505050565b6000611edb611ed684611e88565b611e6d565b905082815260208101848484011115611ef757611ef6611e08565b5b611f02848285611eb9565b509392505050565b600082601f830112611f1f57611f1e611e03565b5b8135611f2f848260208601611ec8565b91505092915050565b60008060008060808587031215611f5257611f51611a02565b5b6000611f6087828801611c58565b9450506020611f7187828801611c58565b9350506040611f8287828801611ba3565b925050606085013567ffffffffffffffff811115611fa357611fa2611a07565b5b611faf87828801611f0a565b91505092959194509250565b60008060408385031215611fd257611fd1611a02565b5b6000611fe085828601611c58565b9250506020611ff185828601611c58565b9150509250929050565b7f4e487b7100000000000000000000000000000000000000000000000000000000600052602260045260246000fd5b6000600282049050600182168061204257607f821691505b6020821081141561205657612055611ffb565b5b50919050565b7f4552433732313a20617070726f76616c20746f2063757272656e74206f776e6560008201527f7200000000000000000000000000000000000000000000000000000000000000602082015250565b60006120b8602183611ad2565b91506120c38261205c565b604082019050919050565b600060208201905081810360008301526120e7816120ab565b9050919050565b7f4552433732313a20617070726f76652063616c6c6572206973206e6f7420746f60008201527f6b656e206f776e6572206e6f7220617070726f76656420666f7220616c6c0000602082015250565b600061214a603e83611ad2565b9150612155826120ee565b604082019050919050565b600060208201905081810360008301526121798161213d565b9050919050565b7f4552433732313a2063616c6c6572206973206e6f7420746f6b656e206f776e6560008201527f72206e6f7220617070726f766564000000000000000000000000000000000000602082015250565b60006121dc602e83611ad2565b91506121e782612180565b604082019050919050565b6000602082019050818103600083015261220b816121cf565b9050919050565b7f4552433732313a20696e76616c696420746f6b656e2049440000000000000000600082015250565b6000612248601883611ad2565b915061225382612212565b602082019050919050565b600060208201905081810360008301526122778161223b565b9050919050565b7f4552433732313a2061646472657373207a65726f206973206e6f74206120766160008201527f6c6964206f776e65720000000000000000000000000000000000000000000000602082015250565b60006122da602983611ad2565b91506122e58261227e565b604082019050919050565b60006020820190508181036000830152612309816122cd565b9050919050565b600081905092915050565b60008190508160005260206000209050919050565b6000815461233d8161202a565b6123478186612310565b945060018216600081146123625760018114612373576123a6565b60ff198316865281860193506123a6565b61237c8561231b565b60005b8381101561239e5781548189015260018201915060208101905061237f565b838801955050505b50505092915050565b7f2f00000000000000000000000000000000000000000000000000000000000000600082015250565b60006123e5600183612310565b91506123f0826123af565b600182019050919050565b6000819050919050565b61241661241182611b82565b6123fb565b82525050565b7f2e6a736f6e000000000000000000000000000000000000000000000000000000600082015250565b6000612452600583612310565b915061245d8261241c565b600582019050919050565b60006124748285612330565b915061247f826123d8565b915061248b8284612405565b60208201915061249a82612445565b91508190509392505050565b7f4f6e6c79204e667453746f72652063616e206d696e7400000000000000000000600082015250565b60006124dc601683611ad2565b91506124e7826124a6565b602082019050919050565b6000602082019050818103600083015261250b816124cf565b9050919050565b600061251d82611ac7565b6125278185612310565b9350612537818560208601611ae3565b80840191505092915050565b600061254f8285612512565b915061255b8284612512565b91508190509392505050565b7f4f776e61626c653a206e6577206f776e657220697320746865207a65726f206160008201527f6464726573730000000000000000000000000000000000000000000000000000602082015250565b60006125c3602683611ad2565b91506125ce82612567565b604082019050919050565b600060208201905081810360008301526125f2816125b6565b9050919050565b7f4552433732313a207472616e736665722066726f6d20696e636f72726563742060008201527f6f776e6572000000000000000000000000000000000000000000000000000000602082015250565b6000612655602583611ad2565b9150612660826125f9565b604082019050919050565b6000602082019050818103600083015261268481612648565b9050919050565b7f4552433732313a207472616e7366657220746f20746865207a65726f2061646460008201527f7265737300000000000000000000000000000000000000000000000000000000602082015250565b60006126e7602483611ad2565b91506126f28261268b565b604082019050919050565b60006020820190508181036000830152612716816126da565b9050919050565b7f4e487b7100000000000000000000000000000000000000000000000000000000600052601160045260246000fd5b600061275782611b82565b915061276283611b82565b9250828210156127755761277461271d565b5b828203905092915050565b600061278b82611b82565b915061279683611b82565b9250827fffffffffffffffffffffffffffffffffffffffffffffffffffffffffffffffff038211156127cb576127ca61271d565b5b828201905092915050565b7f4f776e61626c653a2063616c6c6572206973206e6f7420746865206f776e6572600082015250565b600061280c602083611ad2565b9150612817826127d6565b602082019050919050565b6000602082019050818103600083015261283b816127ff565b9050919050565b7f4552433732313a20617070726f766520746f2063616c6c657200000000000000600082015250565b6000612878601983611ad2565b915061288382612842565b602082019050919050565b600060208201905081810360008301526128a78161286b565b9050919050565b7f4552433732313a207472616e7366657220746f206e6f6e20455243373231526560008201527f63656976657220696d706c656d656e7465720000000000000000000000000000602082015250565b600061290a603283611ad2565b9150612915826128ae565b604082019050919050565b60006020820190508181036000830152612939816128fd565b9050919050565b600061294b82611b82565b91507fffffffffffffffffffffffffffffffffffffffffffffffffffffffffffffffff82141561297e5761297d61271d565b5b600182019050919050565b7f4e487b7100000000000000000000000000000000000000000000000000000000600052601260045260246000fd5b60006129c382611b82565b91506129ce83611b82565b9250826129de576129dd612989565b5b828204905092915050565b60006129f482611b82565b91506129ff83611b82565b925082612a0f57612a0e612989565b5b828206905092915050565b7f4e487b7100000000000000000000000000000000000000000000000000000000600052603260045260246000fd5b600081519050919050565b600082825260208201905092915050565b6000612a7082612a49565b612a7a8185612a54565b9350612a8a818560208601611ae3565b612a9381611b16565b840191505092915050565b6000608082019050612ab36000830187611c17565b612ac06020830186611c17565b612acd6040830185611d2d565b8181036060830152612adf8184612a65565b905095945050505050565b600081519050612af981611a38565b92915050565b600060208284031215612b1557612b14611a02565b5b6000612b2384828501612aea565b91505092915050565b7f4552433732313a206d696e7420746f20746865207a65726f2061646472657373600082015250565b6000612b62602083611ad2565b9150612b6d82612b2c565b602082019050919050565b60006020820190508181036000830152612b9181612b55565b9050919050565b7f4552433732313a20746f6b656e20616c7265616479206d696e74656400000000600082015250565b6000612bce601c83611ad2565b9150612bd982612b98565b602082019050919050565b60006020820190508181036000830152612bfd81612bc1565b905091905056fea2646970667358221220bd930de5335fb00716103465d7777d598dd067440dc137e9dcb65b3568e06a0864736f6c63430008090033a2646970667358221220fa83ebee555eaf008ffb134f550a0a39d49ae17cf57c00f5faa5bd3ebcaced8e64736f6c63430008090033",
  "linkReferences": {},
  "deployedLinkReferences": {}
}