{
  "_format": "hh-sol-artifact-1",
  "contractName": "CollectionFactory",
  "sourceName": "src/contracts/CollectionFactory.sol",
  "abi": [
    {
      "anonymous": false,
      "inputs": [
        {
          "indexed": false,
          "internalType": "address",
          "name": "nftCollectionAddress",
          "type": "address"
        },
        {
          "indexed": false,
          "internalType": "uint256",
          "name": "nftIndex",
          "type": "uint256"
        }
      ],
      "name": "AvailableNFtsUpdated",
      "type": "event"
    },
    {
      "anonymous": false,
      "inputs": [
        {
          "indexed": false,
          "internalType": "address",
          "name": "nftCollectionAddress",
          "type": "address"
        },
        {
          "indexed": false,
          "internalType": "uint256",
          "name": "presaleDate",
          "type": "uint256"
        },
        {
          "indexed": false,
          "internalType": "uint256",
          "name": "mysteryBoxCap",
          "type": "uint256"
        },
        {
          "indexed": false,
          "internalType": "uint256",
          "name": "nftCap",
          "type": "uint256"
        },
        {
          "indexed": false,
          "internalType": "uint16[]",
          "name": "availableNFTs",
          "type": "uint16[]"
        },
        {
          "indexed": false,
          "internalType": "address",
          "name": "owner",
          "type": "address"
        },
        {
          "indexed": false,
          "internalType": "uint256",
          "name": "mysteryBoxUsdPrice",
          "type": "uint256"
        },
        {
          "indexed": false,
          "internalType": "uint256",
          "name": "nftUsdPrice",
          "type": "uint256"
        },
        {
          "indexed": false,
          "internalType": "bool",
          "name": "frozen",
          "type": "bool"
        }
      ],
      "name": "NFTCollectionCreated",
      "type": "event"
    },
    {
      "anonymous": false,
      "inputs": [
        {
          "indexed": true,
          "internalType": "address",
          "name": "previousOwner",
          "type": "address"
        },
        {
          "indexed": true,
          "internalType": "address",
          "name": "newOwner",
          "type": "address"
        }
      ],
      "name": "OwnershipTransferred",
      "type": "event"
    },
    {
      "inputs": [
        {
          "internalType": "string",
          "name": "_tokenName",
          "type": "string"
        },
        {
          "internalType": "string",
          "name": "_tokenSymbol",
          "type": "string"
        },
        {
          "internalType": "string",
          "name": "_baseUri",
          "type": "string"
        },
        {
          "internalType": "string",
          "name": "_coverImageUri",
          "type": "string"
        },
        {
          "internalType": "uint256",
          "name": "_presaleDate",
          "type": "uint256"
        },
        {
          "internalType": "uint16",
          "name": "_mysteryBoxCap",
          "type": "uint16"
        },
        {
          "internalType": "uint16",
          "name": "_nftCap",
          "type": "uint16"
        },
        {
          "internalType": "uint256",
          "name": "_mysteryBoxUsdPrice",
          "type": "uint256"
        },
        {
          "internalType": "uint256",
          "name": "_nftUsdPrice",
          "type": "uint256"
        },
        {
          "internalType": "string",
          "name": "_tokenDescription",
          "type": "string"
        }
      ],
      "name": "createNFTCollection",
      "outputs": [],
      "stateMutability": "nonpayable",
      "type": "function"
    },
    {
      "inputs": [],
      "name": "getAllCollectionData",
      "outputs": [
        {
          "components": [
            {
              "internalType": "address",
              "name": "collectionAddress",
              "type": "address"
            },
            {
              "internalType": "uint256",
              "name": "presaleDate",
              "type": "uint256"
            },
            {
              "internalType": "uint16",
              "name": "mysteryBoxCap",
              "type": "uint16"
            },
            {
              "internalType": "uint16",
              "name": "nftCap",
              "type": "uint16"
            },
            {
              "internalType": "uint16[]",
              "name": "availableNfts",
              "type": "uint16[]"
            },
            {
              "internalType": "address",
              "name": "owner",
              "type": "address"
            },
            {
              "internalType": "uint256",
              "name": "mysteryBoxUsdPrice",
              "type": "uint256"
            },
            {
              "internalType": "uint256",
              "name": "nftUsdPrice",
              "type": "uint256"
            },
            {
              "internalType": "bool",
              "name": "frozen",
              "type": "bool"
            },
            {
              "internalType": "string",
              "name": "coverImageUri",
              "type": "string"
            },
            {
              "internalType": "string",
              "name": "tokenName",
              "type": "string"
            },
            {
              "internalType": "string",
              "name": "tokenDescription",
              "type": "string"
            }
          ],
          "internalType": "struct CollectionFactory.Collections[]",
          "name": "",
          "type": "tuple[]"
        }
      ],
      "stateMutability": "view",
      "type": "function"
    },
    {
      "inputs": [
        {
          "internalType": "address",
          "name": "_collectionAddress",
          "type": "address"
        }
      ],
      "name": "getCollection",
      "outputs": [
        {
          "components": [
            {
              "internalType": "address",
              "name": "collectionAddress",
              "type": "address"
            },
            {
              "internalType": "uint256",
              "name": "presaleDate",
              "type": "uint256"
            },
            {
              "internalType": "uint16",
              "name": "mysteryBoxCap",
              "type": "uint16"
            },
            {
              "internalType": "uint16",
              "name": "nftCap",
              "type": "uint16"
            },
            {
              "internalType": "uint16[]",
              "name": "availableNfts",
              "type": "uint16[]"
            },
            {
              "internalType": "address",
              "name": "owner",
              "type": "address"
            },
            {
              "internalType": "uint256",
              "name": "mysteryBoxUsdPrice",
              "type": "uint256"
            },
            {
              "internalType": "uint256",
              "name": "nftUsdPrice",
              "type": "uint256"
            },
            {
              "internalType": "bool",
              "name": "frozen",
              "type": "bool"
            },
            {
              "internalType": "string",
              "name": "coverImageUri",
              "type": "string"
            },
            {
              "internalType": "string",
              "name": "tokenName",
              "type": "string"
            },
            {
              "internalType": "string",
              "name": "tokenDescription",
              "type": "string"
            }
          ],
          "internalType": "struct CollectionFactory.Collections",
          "name": "",
          "type": "tuple"
        }
      ],
      "stateMutability": "view",
      "type": "function"
    },
    {
      "inputs": [
        {
          "internalType": "address",
          "name": "_userAddress",
          "type": "address"
        }
      ],
      "name": "getDetailedCollectionsByAddress",
      "outputs": [
        {
          "components": [
            {
              "internalType": "address",
              "name": "collectionAddress",
              "type": "address"
            },
            {
              "internalType": "uint256",
              "name": "presaleDate",
              "type": "uint256"
            },
            {
              "internalType": "uint16",
              "name": "mysteryBoxCap",
              "type": "uint16"
            },
            {
              "internalType": "uint16",
              "name": "nftCap",
              "type": "uint16"
            },
            {
              "internalType": "uint16[]",
              "name": "availableNfts",
              "type": "uint16[]"
            },
            {
              "internalType": "address",
              "name": "owner",
              "type": "address"
            },
            {
              "internalType": "uint256",
              "name": "mysteryBoxUsdPrice",
              "type": "uint256"
            },
            {
              "internalType": "uint256",
              "name": "nftUsdPrice",
              "type": "uint256"
            },
            {
              "internalType": "bool",
              "name": "frozen",
              "type": "bool"
            },
            {
              "internalType": "string",
              "name": "coverImageUri",
              "type": "string"
            },
            {
              "internalType": "string",
              "name": "tokenName",
              "type": "string"
            },
            {
              "internalType": "string",
              "name": "tokenDescription",
              "type": "string"
            }
          ],
          "internalType": "struct CollectionFactory.Collections[]",
          "name": "",
          "type": "tuple[]"
        }
      ],
      "stateMutability": "view",
      "type": "function"
    },
    {
      "inputs": [],
      "name": "nftStoreAddress",
      "outputs": [
        {
          "internalType": "address",
          "name": "",
          "type": "address"
        }
      ],
      "stateMutability": "view",
      "type": "function"
    },
    {
      "inputs": [],
      "name": "owner",
      "outputs": [
        {
          "internalType": "address",
          "name": "",
          "type": "address"
        }
      ],
      "stateMutability": "view",
      "type": "function"
    },
    {
      "inputs": [],
      "name": "renounceOwnership",
      "outputs": [],
      "stateMutability": "nonpayable",
      "type": "function"
    },
    {
      "inputs": [
        {
          "internalType": "address",
          "name": "_nftStoreAddress",
          "type": "address"
        }
      ],
      "name": "setNftStoreAddress",
      "outputs": [],
      "stateMutability": "nonpayable",
      "type": "function"
    },
    {
      "inputs": [
        {
          "internalType": "address",
          "name": "newOwner",
          "type": "address"
        }
      ],
      "name": "transferOwnership",
      "outputs": [],
      "stateMutability": "nonpayable",
      "type": "function"
    },
    {
      "inputs": [
        {
          "internalType": "address",
          "name": "_collectionAddress",
          "type": "address"
        },
        {
          "internalType": "uint256",
          "name": "_USDPrice",
          "type": "uint256"
        }
      ],
      "name": "updadateMysteryBoxPrice",
      "outputs": [],
      "stateMutability": "nonpayable",
      "type": "function"
    },
    {
      "inputs": [
        {
          "internalType": "address",
          "name": "_nftCollection",
          "type": "address"
        },
        {
          "internalType": "uint16",
          "name": "_indexToDelete",
          "type": "uint16"
        }
      ],
      "name": "updateAvailableNFts",
      "outputs": [],
      "stateMutability": "nonpayable",
      "type": "function"
    },
    {
      "inputs": [
        {
          "internalType": "address",
          "name": "_collectionAddress",
          "type": "address"
        }
      ],
      "name": "updateFrozenFlag",
      "outputs": [],
      "stateMutability": "nonpayable",
      "type": "function"
    },
    {
      "inputs": [
        {
          "internalType": "address",
          "name": "_collectionAddress",
          "type": "address"
        },
        {
          "internalType": "uint256",
          "name": "_USDPrice",
          "type": "uint256"
        }
      ],
      "name": "updateNftPrice",
      "outputs": [],
      "stateMutability": "nonpayable",
      "type": "function"
    },
    {
      "inputs": [
        {
          "internalType": "address",
          "name": "_collectionAddress",
          "type": "address"
        },
        {
          "internalType": "uint256",
          "name": "_presaleDate",
          "type": "uint256"
        }
      ],
      "name": "updatePresaleDate",
      "outputs": [],
      "stateMutability": "nonpayable",
      "type": "function"
    }
  ],
  "bytecode": "0x60806040523480156200001157600080fd5b5062000032620000266200003860201b60201c565b6200004060201b60201c565b62000104565b600033905090565b60008060009054906101000a900473ffffffffffffffffffffffffffffffffffffffff169050816000806101000a81548173ffffffffffffffffffffffffffffffffffffffff021916908373ffffffffffffffffffffffffffffffffffffffff1602179055508173ffffffffffffffffffffffffffffffffffffffff168173ffffffffffffffffffffffffffffffffffffffff167f8be0079c531659141344cd1fd0a4f28419497f9722a3daafe3b4186f6b6457e060405160405180910390a35050565b615fee80620001146000396000f3fe60806040523480156200001157600080fd5b5060043610620001005760003560e01c80639cc195481162000099578063e40de887116200006f578063e40de887146200024b578063f2fde38b1462000281578063f5891da914620002a1578063f8e4c76914620002c35762000100565b80639cc1954814620001eb578063c42fe149146200020b578063e20f40c7146200022b5762000100565b8063715018a611620000db578063715018a6146200016757806380537761146200017357806384856b7214620001a95780638da5cb5b14620001c95762000100565b806303554e6a1462000105578063479bcee5146200012557806366bea4af1462000145575b600080fd5b6200012360048036038101906200011d91906200223b565b620002e3565b005b6200014360048036038101906200013d919062002449565b62000331565b005b6200014f6200084d565b6040516200015e9190620025eb565b60405180910390f35b6200017162000873565b005b6200019160048036038101906200018b91906200223b565b6200088b565b604051620001a09190620029a9565b60405180910390f35b620001c76004803603810190620001c19190620029cd565b62000def565b005b620001d362000fdf565b604051620001e29190620025eb565b60405180910390f35b62000209600480360381019062000203919062002a14565b62001008565b005b62000229600480360381019062000223919062002a14565b62001128565b005b6200024960048036038101906200024391906200223b565b62001248565b005b6200026960048036038101906200026391906200223b565b620013ca565b60405162000278919062002b8c565b60405180910390f35b6200029f60048036038101906200029991906200223b565b6200179b565b005b620002ab62001826565b604051620002ba9190620029a9565b60405180910390f35b620002e16004803603810190620002db919062002a14565b62001d4b565b005b620002ed62001e6b565b80600260006101000a81548173ffffffffffffffffffffffffffffffffffffffff021916908373ffffffffffffffffffffffffffffffffffffffff16021790555050565b8361ffff168561ffff1611156200037f576040517f08c379a0000000000000000000000000000000000000000000000000000000008152600401620003769062002c5d565b60405180910390fd5b60008461ffff1667ffffffffffffffff811115620003a257620003a162002288565b5b604051908082528060200260200182016040528015620003d15781602001602082028036833780820191505090505b50905060005b8561ffff168161ffff1610156200042f5780828261ffff168151811062000403576200040262002c7f565b5b602002602001019061ffff16908161ffff16815250508080620004269062002cdd565b915050620003d7565b5060008b8b8b600260009054906101000a900473ffffffffffffffffffffffffffffffffffffffff16604051620004669062001fbc565b62000475949392919062002d4e565b604051809103906000f08015801562000492573d6000803e3d6000fd5b5090506040518061018001604052808273ffffffffffffffffffffffffffffffffffffffff1681526020018981526020018861ffff1681526020018761ffff1681526020018381526020013373ffffffffffffffffffffffffffffffffffffffff1681526020018681526020018581526020016000151581526020018a81526020018d815260200184815250600360008373ffffffffffffffffffffffffffffffffffffffff1673ffffffffffffffffffffffffffffffffffffffff16815260200190815260200160002060008201518160000160006101000a81548173ffffffffffffffffffffffffffffffffffffffff021916908373ffffffffffffffffffffffffffffffffffffffff1602179055506020820151816001015560408201518160020160006101000a81548161ffff021916908361ffff16021790555060608201518160020160026101000a81548161ffff021916908361ffff16021790555060808201518160030190805190602001906200061292919062001fca565b5060a08201518160040160006101000a81548173ffffffffffffffffffffffffffffffffffffffff021916908373ffffffffffffffffffffffffffffffffffffffff16021790555060c0820151816005015560e082015181600601556101008201518160070160006101000a81548160ff021916908315150217905550610120820151816008019080519060200190620006ae9291906200207b565b50610140820151816009019080519060200190620006ce9291906200207b565b5061016082015181600a019080519060200190620006ee9291906200207b565b509050506001819080600181540180825580915050600190039060005260206000200160009091909190916101000a81548173ffffffffffffffffffffffffffffffffffffffff021916908373ffffffffffffffffffffffffffffffffffffffff160217905550600460003373ffffffffffffffffffffffffffffffffffffffff1673ffffffffffffffffffffffffffffffffffffffff168152602001908152602001600020819080600181540180825580915050600190039060005260206000200160009091909190916101000a81548173ffffffffffffffffffffffffffffffffffffffff021916908373ffffffffffffffffffffffffffffffffffffffff1602179055507fa06730c0ec027ab9af6354bb468ffe524c1aca1d489a5ccbe6240f51bcc40ab48189898986338b8b6000604051620008379998979695949392919062002e90565b60405180910390a1505050505050505050505050565b600260009054906101000a900473ffffffffffffffffffffffffffffffffffffffff1681565b6200087d62001e6b565b62000889600062001ef0565b565b60606000600460008473ffffffffffffffffffffffffffffffffffffffff1673ffffffffffffffffffffffffffffffffffffffff1681526020019081526020016000208054806020026020016040519081016040528092919081815260200182805480156200095057602002820191906000526020600020905b8160009054906101000a900473ffffffffffffffffffffffffffffffffffffffff1673ffffffffffffffffffffffffffffffffffffffff168152602001906001019080831162000905575b505050505090506000815167ffffffffffffffff81111562000977576200097662002288565b5b604051908082528060200260200182016040528015620009b457816020015b620009a06200210c565b815260200190600190039081620009965790505b50905060005b82518161ffff16101562000de45760036000848361ffff1681518110620009e657620009e562002c7f565b5b602002602001015173ffffffffffffffffffffffffffffffffffffffff1673ffffffffffffffffffffffffffffffffffffffff168152602001908152602001600020604051806101800160405290816000820160009054906101000a900473ffffffffffffffffffffffffffffffffffffffff1673ffffffffffffffffffffffffffffffffffffffff1673ffffffffffffffffffffffffffffffffffffffff168152602001600182015481526020016002820160009054906101000a900461ffff1661ffff1661ffff1681526020016002820160029054906101000a900461ffff1661ffff1661ffff1681526020016003820180548060200260200160405190810160405280929190818152602001828054801562000b4d57602002820191906000526020600020906000905b82829054906101000a900461ffff1661ffff168152602001906002019060208260010104928301926001038202915080841162000b135790505b505050505081526020016004820160009054906101000a900473ffffffffffffffffffffffffffffffffffffffff1673ffffffffffffffffffffffffffffffffffffffff1673ffffffffffffffffffffffffffffffffffffffff16815260200160058201548152602001600682015481526020016007820160009054906101000a900460ff1615151515815260200160088201805462000bed9062002f65565b80601f016020809104026020016040519081016040528092919081815260200182805462000c1b9062002f65565b801562000c6c5780601f1062000c405761010080835404028352916020019162000c6c565b820191906000526020600020905b81548152906001019060200180831162000c4e57829003601f168201915b5050505050815260200160098201805462000c879062002f65565b80601f016020809104026020016040519081016040528092919081815260200182805462000cb59062002f65565b801562000d065780601f1062000cda5761010080835404028352916020019162000d06565b820191906000526020600020905b81548152906001019060200180831162000ce857829003601f168201915b50505050508152602001600a8201805462000d219062002f65565b80601f016020809104026020016040519081016040528092919081815260200182805462000d4f9062002f65565b801562000da05780601f1062000d745761010080835404028352916020019162000da0565b820191906000526020600020905b81548152906001019060200180831162000d8257829003601f168201915b505050505081525050828261ffff168151811062000dc35762000dc262002c7f565b5b6020026020010181905250808062000ddb9062002cdd565b915050620009ba565b508092505050919050565b600260009054906101000a900473ffffffffffffffffffffffffffffffffffffffff1673ffffffffffffffffffffffffffffffffffffffff163373ffffffffffffffffffffffffffffffffffffffff161462000e82576040517f08c379a000000000000000000000000000000000000000000000000000000000815260040162000e799062002feb565b60405180910390fd5b6000600360008473ffffffffffffffffffffffffffffffffffffffff1673ffffffffffffffffffffffffffffffffffffffff1681526020019081526020016000206003019050806001828054905062000edc91906200300d565b8154811062000ef05762000eef62002c7f565b5b90600052602060002090601091828204019190066002029054906101000a900461ffff16818361ffff168154811062000f2e5762000f2d62002c7f565b5b90600052602060002090601091828204019190066002026101000a81548161ffff021916908361ffff1602179055508080548062000f715762000f7062003048565b5b60019003818190600052602060002090601091828204019190066002026101000a81549061ffff021916905590557f11ef6fe05323e70ac6da73f7cb860e511937e4da332af037e9224dcf54bad380838360405162000fd292919062003077565b60405180910390a1505050565b60008060009054906101000a900473ffffffffffffffffffffffffffffffffffffffff16905090565b81600360008273ffffffffffffffffffffffffffffffffffffffff1673ffffffffffffffffffffffffffffffffffffffff16815260200190815260200160002060040160009054906101000a900473ffffffffffffffffffffffffffffffffffffffff1673ffffffffffffffffffffffffffffffffffffffff163373ffffffffffffffffffffffffffffffffffffffff1614620010dc576040517f08c379a0000000000000000000000000000000000000000000000000000000008152600401620010d390620030f4565b60405180910390fd5b81600360008573ffffffffffffffffffffffffffffffffffffffff1673ffffffffffffffffffffffffffffffffffffffff16815260200190815260200160002060060181905550505050565b81600360008273ffffffffffffffffffffffffffffffffffffffff1673ffffffffffffffffffffffffffffffffffffffff16815260200190815260200160002060040160009054906101000a900473ffffffffffffffffffffffffffffffffffffffff1673ffffffffffffffffffffffffffffffffffffffff163373ffffffffffffffffffffffffffffffffffffffff1614620011fc576040517f08c379a0000000000000000000000000000000000000000000000000000000008152600401620011f390620030f4565b60405180910390fd5b81600360008573ffffffffffffffffffffffffffffffffffffffff1673ffffffffffffffffffffffffffffffffffffffff16815260200190815260200160002060010181905550505050565b80600360008273ffffffffffffffffffffffffffffffffffffffff1673ffffffffffffffffffffffffffffffffffffffff16815260200190815260200160002060040160009054906101000a900473ffffffffffffffffffffffffffffffffffffffff1673ffffffffffffffffffffffffffffffffffffffff163373ffffffffffffffffffffffffffffffffffffffff16146200131c576040517f08c379a00000000000000000000000000000000000000000000000000000000081526004016200131390620030f4565b60405180910390fd5b600360008373ffffffffffffffffffffffffffffffffffffffff1673ffffffffffffffffffffffffffffffffffffffff16815260200190815260200160002060070160009054906101000a900460ff1615600360008473ffffffffffffffffffffffffffffffffffffffff1673ffffffffffffffffffffffffffffffffffffffff16815260200190815260200160002060070160006101000a81548160ff0219169083151502179055505050565b620013d46200210c565b600360008373ffffffffffffffffffffffffffffffffffffffff1673ffffffffffffffffffffffffffffffffffffffff168152602001908152602001600020604051806101800160405290816000820160009054906101000a900473ffffffffffffffffffffffffffffffffffffffff1673ffffffffffffffffffffffffffffffffffffffff1673ffffffffffffffffffffffffffffffffffffffff168152602001600182015481526020016002820160009054906101000a900461ffff1661ffff1661ffff1681526020016002820160029054906101000a900461ffff1661ffff1661ffff168152602001600382018054806020026020016040519081016040528092919081815260200182805480156200153857602002820191906000526020600020906000905b82829054906101000a900461ffff1661ffff1681526020019060020190602082600101049283019260010382029150808411620014fe5790505b505050505081526020016004820160009054906101000a900473ffffffffffffffffffffffffffffffffffffffff1673ffffffffffffffffffffffffffffffffffffffff1673ffffffffffffffffffffffffffffffffffffffff16815260200160058201548152602001600682015481526020016007820160009054906101000a900460ff16151515158152602001600882018054620015d89062002f65565b80601f0160208091040260200160405190810160405280929190818152602001828054620016069062002f65565b8015620016575780601f106200162b5761010080835404028352916020019162001657565b820191906000526020600020905b8154815290600101906020018083116200163957829003601f168201915b50505050508152602001600982018054620016729062002f65565b80601f0160208091040260200160405190810160405280929190818152602001828054620016a09062002f65565b8015620016f15780601f10620016c557610100808354040283529160200191620016f1565b820191906000526020600020905b815481529060010190602001808311620016d357829003601f168201915b50505050508152602001600a820180546200170c9062002f65565b80601f01602080910402602001604051908101604052809291908181526020018280546200173a9062002f65565b80156200178b5780601f106200175f576101008083540402835291602001916200178b565b820191906000526020600020905b8154815290600101906020018083116200176d57829003601f168201915b5050505050815250509050919050565b620017a562001e6b565b600073ffffffffffffffffffffffffffffffffffffffff168173ffffffffffffffffffffffffffffffffffffffff16141562001818576040517f08c379a00000000000000000000000000000000000000000000000000000000081526004016200180f906200318c565b60405180910390fd5b620018238162001ef0565b50565b606060006001805480602002602001604051908101604052809291908181526020018280548015620018ae57602002820191906000526020600020905b8160009054906101000a900473ffffffffffffffffffffffffffffffffffffffff1673ffffffffffffffffffffffffffffffffffffffff168152602001906001019080831162001863575b505050505090506000815167ffffffffffffffff811115620018d557620018d462002288565b5b6040519080825280602002602001820160405280156200191257816020015b620018fe6200210c565b815260200190600190039081620018f45790505b50905060005b82518161ffff16101562001d425760036000848361ffff168151811062001944576200194362002c7f565b5b602002602001015173ffffffffffffffffffffffffffffffffffffffff1673ffffffffffffffffffffffffffffffffffffffff168152602001908152602001600020604051806101800160405290816000820160009054906101000a900473ffffffffffffffffffffffffffffffffffffffff1673ffffffffffffffffffffffffffffffffffffffff1673ffffffffffffffffffffffffffffffffffffffff168152602001600182015481526020016002820160009054906101000a900461ffff1661ffff1661ffff1681526020016002820160029054906101000a900461ffff1661ffff1661ffff1681526020016003820180548060200260200160405190810160405280929190818152602001828054801562001aab57602002820191906000526020600020906000905b82829054906101000a900461ffff1661ffff168152602001906002019060208260010104928301926001038202915080841162001a715790505b505050505081526020016004820160009054906101000a900473ffffffffffffffffffffffffffffffffffffffff1673ffffffffffffffffffffffffffffffffffffffff1673ffffffffffffffffffffffffffffffffffffffff16815260200160058201548152602001600682015481526020016007820160009054906101000a900460ff1615151515815260200160088201805462001b4b9062002f65565b80601f016020809104026020016040519081016040528092919081815260200182805462001b799062002f65565b801562001bca5780601f1062001b9e5761010080835404028352916020019162001bca565b820191906000526020600020905b81548152906001019060200180831162001bac57829003601f168201915b5050505050815260200160098201805462001be59062002f65565b80601f016020809104026020016040519081016040528092919081815260200182805462001c139062002f65565b801562001c645780601f1062001c385761010080835404028352916020019162001c64565b820191906000526020600020905b81548152906001019060200180831162001c4657829003601f168201915b50505050508152602001600a8201805462001c7f9062002f65565b80601f016020809104026020016040519081016040528092919081815260200182805462001cad9062002f65565b801562001cfe5780601f1062001cd25761010080835404028352916020019162001cfe565b820191906000526020600020905b81548152906001019060200180831162001ce057829003601f168201915b505050505081525050828261ffff168151811062001d215762001d2062002c7f565b5b6020026020010181905250808062001d399062002cdd565b91505062001918565b50809250505090565b81600360008273ffffffffffffffffffffffffffffffffffffffff1673ffffffffffffffffffffffffffffffffffffffff16815260200190815260200160002060040160009054906101000a900473ffffffffffffffffffffffffffffffffffffffff1673ffffffffffffffffffffffffffffffffffffffff163373ffffffffffffffffffffffffffffffffffffffff161462001e1f576040517f08c379a000000000000000000000000000000000000000000000000000000000815260040162001e1690620030f4565b60405180910390fd5b81600360008573ffffffffffffffffffffffffffffffffffffffff1673ffffffffffffffffffffffffffffffffffffffff16815260200190815260200160002060050181905550505050565b62001e7562001fb4565b73ffffffffffffffffffffffffffffffffffffffff1662001e9562000fdf565b73ffffffffffffffffffffffffffffffffffffffff161462001eee576040517f08c379a000000000000000000000000000000000000000000000000000000000815260040162001ee590620031fe565b60405180910390fd5b565b60008060009054906101000a900473ffffffffffffffffffffffffffffffffffffffff169050816000806101000a81548173ffffffffffffffffffffffffffffffffffffffff021916908373ffffffffffffffffffffffffffffffffffffffff1602179055508173ffffffffffffffffffffffffffffffffffffffff168173ffffffffffffffffffffffffffffffffffffffff167f8be0079c531659141344cd1fd0a4f28419497f9722a3daafe3b4186f6b6457e060405160405180910390a35050565b600033905090565b612d98806200322183390190565b82805482825590600052602060002090600f01601090048101928215620020685791602002820160005b838211156200203657835183826101000a81548161ffff021916908361ffff160217905550926020019260020160208160010104928301926001030262001ff4565b8015620020665782816101000a81549061ffff021916905560020160208160010104928301926001030262002036565b505b509050620020779190620021a3565b5090565b828054620020899062002f65565b90600052602060002090601f016020900481019282620020ad5760008555620020f9565b82601f10620020c857805160ff1916838001178555620020f9565b82800160010185558215620020f9579182015b82811115620020f8578251825591602001919060010190620020db565b5b509050620021089190620021a3565b5090565b604051806101800160405280600073ffffffffffffffffffffffffffffffffffffffff16815260200160008152602001600061ffff168152602001600061ffff16815260200160608152602001600073ffffffffffffffffffffffffffffffffffffffff16815260200160008152602001600081526020016000151581526020016060815260200160608152602001606081525090565b5b80821115620021be576000816000905550600101620021a4565b5090565b6000604051905090565b600080fd5b600080fd5b600073ffffffffffffffffffffffffffffffffffffffff82169050919050565b60006200220382620021d6565b9050919050565b6200221581620021f6565b81146200222157600080fd5b50565b60008135905062002235816200220a565b92915050565b600060208284031215620022545762002253620021cc565b5b6000620022648482850162002224565b91505092915050565b600080fd5b600080fd5b6000601f19601f8301169050919050565b7f4e487b7100000000000000000000000000000000000000000000000000000000600052604160045260246000fd5b620022c28262002277565b810181811067ffffffffffffffff82111715620022e457620022e362002288565b5b80604052505050565b6000620022f9620021c2565b9050620023078282620022b7565b919050565b600067ffffffffffffffff8211156200232a576200232962002288565b5b620023358262002277565b9050602081019050919050565b82818337600083830152505050565b60006200236862002362846200230c565b620022ed565b90508281526020810184848401111562002387576200238662002272565b5b6200239484828562002342565b509392505050565b600082601f830112620023b457620023b36200226d565b5b8135620023c684826020860162002351565b91505092915050565b6000819050919050565b620023e481620023cf565b8114620023f057600080fd5b50565b6000813590506200240481620023d9565b92915050565b600061ffff82169050919050565b62002423816200240a565b81146200242f57600080fd5b50565b600081359050620024438162002418565b92915050565b6000806000806000806000806000806101408b8d03121562002470576200246f620021cc565b5b60008b013567ffffffffffffffff811115620024915762002490620021d1565b5b6200249f8d828e016200239c565b9a505060208b013567ffffffffffffffff811115620024c357620024c2620021d1565b5b620024d18d828e016200239c565b99505060408b013567ffffffffffffffff811115620024f557620024f4620021d1565b5b620025038d828e016200239c565b98505060608b013567ffffffffffffffff811115620025275762002526620021d1565b5b620025358d828e016200239c565b9750506080620025488d828e01620023f3565b96505060a06200255b8d828e0162002432565b95505060c06200256e8d828e0162002432565b94505060e0620025818d828e01620023f3565b935050610100620025958d828e01620023f3565b9250506101208b013567ffffffffffffffff811115620025ba57620025b9620021d1565b5b620025c88d828e016200239c565b9150509295989b9194979a5092959850565b620025e581620021f6565b82525050565b6000602082019050620026026000830184620025da565b92915050565b600081519050919050565b600082825260208201905092915050565b6000819050602082019050919050565b6200263f81620021f6565b82525050565b6200265081620023cf565b82525050565b62002661816200240a565b82525050565b600081519050919050565b600082825260208201905092915050565b6000819050602082019050919050565b6000620026a1838362002656565b60208301905092915050565b6000602082019050919050565b6000620026c78262002667565b620026d3818562002672565b9350620026e08362002683565b8060005b8381101562002717578151620026fb888262002693565b97506200270883620026ad565b925050600181019050620026e4565b5085935050505092915050565b60008115159050919050565b6200273b8162002724565b82525050565b600081519050919050565b600082825260208201905092915050565b60005b838110156200277d57808201518184015260208101905062002760565b838111156200278d576000848401525b50505050565b6000620027a08262002741565b620027ac81856200274c565b9350620027be8185602086016200275d565b620027c98162002277565b840191505092915050565b600061018083016000830151620027ef600086018262002634565b50602083015162002804602086018262002645565b50604083015162002819604086018262002656565b5060608301516200282e606086018262002656565b5060808301518482036080860152620028488282620026ba565b91505060a08301516200285f60a086018262002634565b5060c08301516200287460c086018262002645565b5060e08301516200288960e086018262002645565b50610100830151620028a061010086018262002730565b50610120830151848203610120860152620028bc828262002793565b915050610140830151848203610140860152620028da828262002793565b915050610160830151848203610160860152620028f8828262002793565b9150508091505092915050565b6000620029138383620027d4565b905092915050565b6000602082019050919050565b6000620029358262002608565b62002941818562002613565b935083602082028501620029558562002624565b8060005b8581101562002997578484038952815162002975858262002905565b945062002982836200291b565b925060208a0199505060018101905062002959565b50829750879550505050505092915050565b60006020820190508181036000830152620029c5818462002928565b905092915050565b60008060408385031215620029e757620029e6620021cc565b5b6000620029f78582860162002224565b925050602062002a0a8582860162002432565b9150509250929050565b6000806040838503121562002a2e5762002a2d620021cc565b5b600062002a3e8582860162002224565b925050602062002a5185828601620023f3565b9150509250929050565b60006101808301600083015162002a76600086018262002634565b50602083015162002a8b602086018262002645565b50604083015162002aa0604086018262002656565b50606083015162002ab5606086018262002656565b506080830151848203608086015262002acf8282620026ba565b91505060a083015162002ae660a086018262002634565b5060c083015162002afb60c086018262002645565b5060e083015162002b1060e086018262002645565b5061010083015162002b2761010086018262002730565b5061012083015184820361012086015262002b43828262002793565b91505061014083015184820361014086015262002b61828262002793565b91505061016083015184820361016086015262002b7f828262002793565b9150508091505092915050565b6000602082019050818103600083015262002ba8818462002a5b565b905092915050565b600082825260208201905092915050565b7f436f6c6c656374696f6e466163746f72793a2050726573616c6520537570706c60008201527f7920697320686967686572207468616e20746f74616c204e465420537570706c60208201527f7900000000000000000000000000000000000000000000000000000000000000604082015250565b600062002c4560418362002bb0565b915062002c528262002bc1565b606082019050919050565b6000602082019050818103600083015262002c788162002c36565b9050919050565b7f4e487b7100000000000000000000000000000000000000000000000000000000600052603260045260246000fd5b7f4e487b7100000000000000000000000000000000000000000000000000000000600052601160045260246000fd5b600062002cea826200240a565b915061ffff82141562002d025762002d0162002cae565b5b600182019050919050565b600062002d1a8262002741565b62002d26818562002bb0565b935062002d388185602086016200275d565b62002d438162002277565b840191505092915050565b6000608082019050818103600083015262002d6a818762002d0d565b9050818103602083015262002d80818662002d0d565b9050818103604083015262002d96818562002d0d565b905062002da76060830184620025da565b95945050505050565b62002dbb81620023cf565b82525050565b6000819050919050565b600062002dec62002de662002de0846200240a565b62002dc1565b620023cf565b9050919050565b62002dfe8162002dcb565b82525050565b600082825260208201905092915050565b600062002e228262002667565b62002e2e818562002e04565b935062002e3b8362002683565b8060005b8381101562002e7257815162002e56888262002693565b975062002e6383620026ad565b92505060018101905062002e3f565b5085935050505092915050565b62002e8a8162002724565b82525050565b60006101208201905062002ea8600083018c620025da565b62002eb7602083018b62002db0565b62002ec6604083018a62002df3565b62002ed5606083018962002df3565b818103608083015262002ee9818862002e15565b905062002efa60a0830187620025da565b62002f0960c083018662002db0565b62002f1860e083018562002db0565b62002f2861010083018462002e7f565b9a9950505050505050505050565b7f4e487b7100000000000000000000000000000000000000000000000000000000600052602260045260246000fd5b6000600282049050600182168062002f7e57607f821691505b6020821081141562002f955762002f9462002f36565b5b50919050565b7f4f6e6c79206e667453746f72652063616e207570646174652074686973000000600082015250565b600062002fd3601d8362002bb0565b915062002fe08262002f9b565b602082019050919050565b60006020820190508181036000830152620030068162002fc4565b9050919050565b60006200301a82620023cf565b91506200302783620023cf565b9250828210156200303d576200303c62002cae565b5b828203905092915050565b7f4e487b7100000000000000000000000000000000000000000000000000000000600052603160045260246000fd5b60006040820190506200308e6000830185620025da565b6200309d602083018462002df3565b9392505050565b7f4e6f7420436f6c6c656374696f6e204f776e6572000000000000000000000000600082015250565b6000620030dc60148362002bb0565b9150620030e982620030a4565b602082019050919050565b600060208201905081810360008301526200310f81620030cd565b9050919050565b7f4f776e61626c653a206e6577206f776e657220697320746865207a65726f206160008201527f6464726573730000000000000000000000000000000000000000000000000000602082015250565b60006200317460268362002bb0565b9150620031818262003116565b604082019050919050565b60006020820190508181036000830152620031a78162003165565b9050919050565b7f4f776e61626c653a2063616c6c6572206973206e6f7420746865206f776e6572600082015250565b6000620031e660208362002bb0565b9150620031f382620031ae565b602082019050919050565b600060208201905081810360008301526200321981620031d7565b905091905056fe60806040523480156200001157600080fd5b5060405162002d9838038062002d98833981810160405281019062000037919062000383565b8383816000908051906020019062000051929190620000d1565b5080600190805190602001906200006a929190620000d1565b505050816006908051906020019062000085929190620000d1565b5080600760006101000a81548173ffffffffffffffffffffffffffffffffffffffff021916908373ffffffffffffffffffffffffffffffffffffffff16021790555050505050620004b7565b828054620000df9062000481565b90600052602060002090601f0160209004810192826200010357600085556200014f565b82601f106200011e57805160ff19168380011785556200014f565b828001600101855582156200014f579182015b828111156200014e57825182559160200191906001019062000131565b5b5090506200015e919062000162565b5090565b5b808211156200017d57600081600090555060010162000163565b5090565b6000604051905090565b600080fd5b600080fd5b600080fd5b600080fd5b6000601f19601f8301169050919050565b7f4e487b7100000000000000000000000000000000000000000000000000000000600052604160045260246000fd5b620001ea826200019f565b810181811067ffffffffffffffff821117156200020c576200020b620001b0565b5b80604052505050565b60006200022162000181565b90506200022f8282620001df565b919050565b600067ffffffffffffffff821115620002525762000251620001b0565b5b6200025d826200019f565b9050602081019050919050565b60005b838110156200028a5780820151818401526020810190506200026d565b838111156200029a576000848401525b50505050565b6000620002b7620002b18462000234565b62000215565b905082815260208101848484011115620002d657620002d56200019a565b5b620002e38482856200026a565b509392505050565b600082601f83011262000303576200030262000195565b5b815162000315848260208601620002a0565b91505092915050565b600073ffffffffffffffffffffffffffffffffffffffff82169050919050565b60006200034b826200031e565b9050919050565b6200035d816200033e565b81146200036957600080fd5b50565b6000815190506200037d8162000352565b92915050565b60008060008060808587031215620003a0576200039f6200018b565b5b600085015167ffffffffffffffff811115620003c157620003c062000190565b5b620003cf87828801620002eb565b945050602085015167ffffffffffffffff811115620003f357620003f262000190565b5b6200040187828801620002eb565b935050604085015167ffffffffffffffff81111562000425576200042462000190565b5b6200043387828801620002eb565b925050606062000446878288016200036c565b91505092959194509250565b7f4e487b7100000000000000000000000000000000000000000000000000000000600052602260045260246000fd5b600060028204905060018216806200049a57607f821691505b60208210811415620004b157620004b062000452565b5b50919050565b6128d180620004c76000396000f3fe608060405234801561001057600080fd5b50600436106100f55760003560e01c806370a0823111610097578063a22cb46511610066578063a22cb46514610296578063b88d4fde146102b2578063c87b56dd146102ce578063e985e9c5146102fe576100f5565b806370a08231146101fc5780638ad913451461022c57806394bf804d1461025c57806395d89b4114610278576100f5565b8063095ea7b3116100d3578063095ea7b31461017857806323b872dd1461019457806342842e0e146101b05780636352211e146101cc576100f5565b806301ffc9a7146100fa57806306fdde031461012a578063081812fc14610148575b600080fd5b610114600480360381019061010f91906117f9565b61032e565b6040516101219190611841565b60405180910390f35b610132610340565b60405161013f91906118f5565b60405180910390f35b610162600480360381019061015d919061194d565b6103d2565b60405161016f91906119bb565b60405180910390f35b610192600480360381019061018d9190611a02565b610418565b005b6101ae60048036038101906101a99190611a42565b610530565b005b6101ca60048036038101906101c59190611a42565b610590565b005b6101e660048036038101906101e1919061194d565b6105b0565b6040516101f391906119bb565b60405180910390f35b61021660048036038101906102119190611a95565b610662565b6040516102239190611ad1565b60405180910390f35b6102466004803603810190610241919061194d565b61071a565b60405161025391906118f5565b60405180910390f35b61027660048036038101906102719190611aec565b610746565b005b6102806107e4565b60405161028d91906118f5565b60405180910390f35b6102b060048036038101906102ab9190611b58565b610876565b005b6102cc60048036038101906102c79190611ccd565b61088c565b005b6102e860048036038101906102e3919061194d565b6108ee565b6040516102f591906118f5565b60405180910390f35b61031860048036038101906103139190611d50565b610956565b6040516103259190611841565b60405180910390f35b6000610339826109ea565b9050919050565b60606000805461034f90611dbf565b80601f016020809104026020016040519081016040528092919081815260200182805461037b90611dbf565b80156103c85780601f1061039d576101008083540402835291602001916103c8565b820191906000526020600020905b8154815290600101906020018083116103ab57829003601f168201915b5050505050905090565b60006103dd82610acc565b6004600083815260200190815260200160002060009054906101000a900473ffffffffffffffffffffffffffffffffffffffff169050919050565b6000610423826105b0565b90508073ffffffffffffffffffffffffffffffffffffffff168373ffffffffffffffffffffffffffffffffffffffff161415610494576040517f08c379a000000000000000000000000000000000000000000000000000000000815260040161048b90611e63565b60405180910390fd5b8073ffffffffffffffffffffffffffffffffffffffff166104b3610b17565b73ffffffffffffffffffffffffffffffffffffffff1614806104e257506104e1816104dc610b17565b610956565b5b610521576040517f08c379a000000000000000000000000000000000000000000000000000000000815260040161051890611ef5565b60405180910390fd5b61052b8383610b1f565b505050565b61054161053b610b17565b82610bd8565b610580576040517f08c379a000000000000000000000000000000000000000000000000000000000815260040161057790611f87565b60405180910390fd5b61058b838383610c6d565b505050565b6105ab8383836040518060200160405280600081525061088c565b505050565b6000806002600084815260200190815260200160002060009054906101000a900473ffffffffffffffffffffffffffffffffffffffff169050600073ffffffffffffffffffffffffffffffffffffffff168173ffffffffffffffffffffffffffffffffffffffff161415610659576040517f08c379a000000000000000000000000000000000000000000000000000000000815260040161065090611ff3565b60405180910390fd5b80915050919050565b60008073ffffffffffffffffffffffffffffffffffffffff168273ffffffffffffffffffffffffffffffffffffffff1614156106d3576040517f08c379a00000000000000000000000000000000000000000000000000000000081526004016106ca90612085565b60405180910390fd5b600360008373ffffffffffffffffffffffffffffffffffffffff1673ffffffffffffffffffffffffffffffffffffffff168152602001908152602001600020549050919050565b60606006826040516020016107309291906121fd565b6040516020818303038152906040529050919050565b600760009054906101000a900473ffffffffffffffffffffffffffffffffffffffff1673ffffffffffffffffffffffffffffffffffffffff163373ffffffffffffffffffffffffffffffffffffffff16146107d6576040517f08c379a00000000000000000000000000000000000000000000000000000000081526004016107cd90612287565b60405180910390fd5b6107e08183610ed4565b5050565b6060600180546107f390611dbf565b80601f016020809104026020016040519081016040528092919081815260200182805461081f90611dbf565b801561086c5780601f106108415761010080835404028352916020019161086c565b820191906000526020600020905b81548152906001019060200180831161084f57829003601f168201915b5050505050905090565b610888610881610b17565b8383610ef2565b5050565b61089d610897610b17565b83610bd8565b6108dc576040517f08c379a00000000000000000000000000000000000000000000000000000000081526004016108d390611f87565b60405180910390fd5b6108e88484848461105f565b50505050565b60606108f982610acc565b60006109036110bb565b90506000815111610923576040518060200160405280600081525061094e565b8061092d8461114d565b60405160200161093e9291906122d8565b6040516020818303038152906040525b915050919050565b6000600560008473ffffffffffffffffffffffffffffffffffffffff1673ffffffffffffffffffffffffffffffffffffffff16815260200190815260200160002060008373ffffffffffffffffffffffffffffffffffffffff1673ffffffffffffffffffffffffffffffffffffffff16815260200190815260200160002060009054906101000a900460ff16905092915050565b60007f80ac58cd000000000000000000000000000000000000000000000000000000007bffffffffffffffffffffffffffffffffffffffffffffffffffffffff1916827bffffffffffffffffffffffffffffffffffffffffffffffffffffffff19161480610ab557507f5b5e139f000000000000000000000000000000000000000000000000000000007bffffffffffffffffffffffffffffffffffffffffffffffffffffffff1916827bffffffffffffffffffffffffffffffffffffffffffffffffffffffff1916145b80610ac55750610ac4826112ae565b5b9050919050565b610ad581611318565b610b14576040517f08c379a0000000000000000000000000000000000000000000000000000000008152600401610b0b90611ff3565b60405180910390fd5b50565b600033905090565b816004600083815260200190815260200160002060006101000a81548173ffffffffffffffffffffffffffffffffffffffff021916908373ffffffffffffffffffffffffffffffffffffffff160217905550808273ffffffffffffffffffffffffffffffffffffffff16610b92836105b0565b73ffffffffffffffffffffffffffffffffffffffff167f8c5be1e5ebec7d5bd14f71427d1e84f3dd0314c0f7b2291e5b200ac8c7c3b92560405160405180910390a45050565b600080610be4836105b0565b90508073ffffffffffffffffffffffffffffffffffffffff168473ffffffffffffffffffffffffffffffffffffffff161480610c265750610c258185610956565b5b80610c6457508373ffffffffffffffffffffffffffffffffffffffff16610c4c846103d2565b73ffffffffffffffffffffffffffffffffffffffff16145b91505092915050565b8273ffffffffffffffffffffffffffffffffffffffff16610c8d826105b0565b73ffffffffffffffffffffffffffffffffffffffff1614610ce3576040517f08c379a0000000000000000000000000000000000000000000000000000000008152600401610cda9061236e565b60405180910390fd5b600073ffffffffffffffffffffffffffffffffffffffff168273ffffffffffffffffffffffffffffffffffffffff161415610d53576040517f08c379a0000000000000000000000000000000000000000000000000000000008152600401610d4a90612400565b60405180910390fd5b610d5e838383611384565b610d69600082610b1f565b6001600360008573ffffffffffffffffffffffffffffffffffffffff1673ffffffffffffffffffffffffffffffffffffffff1681526020019081526020016000206000828254610db9919061244f565b925050819055506001600360008473ffffffffffffffffffffffffffffffffffffffff1673ffffffffffffffffffffffffffffffffffffffff1681526020019081526020016000206000828254610e109190612483565b92505081905550816002600083815260200190815260200160002060006101000a81548173ffffffffffffffffffffffffffffffffffffffff021916908373ffffffffffffffffffffffffffffffffffffffff160217905550808273ffffffffffffffffffffffffffffffffffffffff168473ffffffffffffffffffffffffffffffffffffffff167fddf252ad1be2c89b69c2b068fc378daa952ba7f163c4a11628f55a4df523b3ef60405160405180910390a4610ecf838383611394565b505050565b610eee828260405180602001604052806000815250611399565b5050565b8173ffffffffffffffffffffffffffffffffffffffff168373ffffffffffffffffffffffffffffffffffffffff161415610f61576040517f08c379a0000000000000000000000000000000000000000000000000000000008152600401610f5890612525565b60405180910390fd5b80600560008573ffffffffffffffffffffffffffffffffffffffff1673ffffffffffffffffffffffffffffffffffffffff16815260200190815260200160002060008473ffffffffffffffffffffffffffffffffffffffff1673ffffffffffffffffffffffffffffffffffffffff16815260200190815260200160002060006101000a81548160ff0219169083151502179055508173ffffffffffffffffffffffffffffffffffffffff168373ffffffffffffffffffffffffffffffffffffffff167f17307eab39ab6107e8899845ad3d59bd9653f200f220920489ca2b5937696c31836040516110529190611841565b60405180910390a3505050565b61106a848484610c6d565b611076848484846113f4565b6110b5576040517f08c379a00000000000000000000000000000000000000000000000000000000081526004016110ac906125b7565b60405180910390fd5b50505050565b6060600680546110ca90611dbf565b80601f01602080910402602001604051908101604052809291908181526020018280546110f690611dbf565b80156111435780601f1061111857610100808354040283529160200191611143565b820191906000526020600020905b81548152906001019060200180831161112657829003601f168201915b5050505050905090565b60606000821415611195576040518060400160405280600181526020017f300000000000000000000000000000000000000000000000000000000000000081525090506112a9565b600082905060005b600082146111c75780806111b0906125d7565b915050600a826111c0919061264f565b915061119d565b60008167ffffffffffffffff8111156111e3576111e2611ba2565b5b6040519080825280601f01601f1916602001820160405280156112155781602001600182028036833780820191505090505b5090505b600085146112a25760018261122e919061244f565b9150600a8561123d9190612680565b60306112499190612483565b60f81b81838151811061125f5761125e6126b1565b5b60200101907effffffffffffffffffffffffffffffffffffffffffffffffffffffffffffff1916908160001a905350600a8561129b919061264f565b9450611219565b8093505050505b919050565b60007f01ffc9a7000000000000000000000000000000000000000000000000000000007bffffffffffffffffffffffffffffffffffffffffffffffffffffffff1916827bffffffffffffffffffffffffffffffffffffffffffffffffffffffff1916149050919050565b60008073ffffffffffffffffffffffffffffffffffffffff166002600084815260200190815260200160002060009054906101000a900473ffffffffffffffffffffffffffffffffffffffff1673ffffffffffffffffffffffffffffffffffffffff1614159050919050565b61138f83838361158b565b505050565b505050565b6113a38383611590565b6113b060008484846113f4565b6113ef576040517f08c379a00000000000000000000000000000000000000000000000000000000081526004016113e6906125b7565b60405180910390fd5b505050565b60006114158473ffffffffffffffffffffffffffffffffffffffff1661176a565b1561157e578373ffffffffffffffffffffffffffffffffffffffff1663150b7a0261143e610b17565b8786866040518563ffffffff1660e01b81526004016114609493929190612735565b602060405180830381600087803b15801561147a57600080fd5b505af19250505080156114ab57506040513d601f19601f820116820180604052508101906114a89190612796565b60015b61152e573d80600081146114db576040519150601f19603f3d011682016040523d82523d6000602084013e6114e0565b606091505b50600081511415611526576040517f08c379a000000000000000000000000000000000000000000000000000000000815260040161151d906125b7565b60405180910390fd5b805181602001fd5b63150b7a0260e01b7bffffffffffffffffffffffffffffffffffffffffffffffffffffffff1916817bffffffffffffffffffffffffffffffffffffffffffffffffffffffff191614915050611583565b600190505b949350505050565b505050565b600073ffffffffffffffffffffffffffffffffffffffff168273ffffffffffffffffffffffffffffffffffffffff161415611600576040517f08c379a00000000000000000000000000000000000000000000000000000000081526004016115f79061280f565b60405180910390fd5b61160981611318565b15611649576040517f08c379a00000000000000000000000000000000000000000000000000000000081526004016116409061287b565b60405180910390fd5b61165560008383611384565b6001600360008473ffffffffffffffffffffffffffffffffffffffff1673ffffffffffffffffffffffffffffffffffffffff16815260200190815260200160002060008282546116a59190612483565b92505081905550816002600083815260200190815260200160002060006101000a81548173ffffffffffffffffffffffffffffffffffffffff021916908373ffffffffffffffffffffffffffffffffffffffff160217905550808273ffffffffffffffffffffffffffffffffffffffff16600073ffffffffffffffffffffffffffffffffffffffff167fddf252ad1be2c89b69c2b068fc378daa952ba7f163c4a11628f55a4df523b3ef60405160405180910390a461176660008383611394565b5050565b6000808273ffffffffffffffffffffffffffffffffffffffff163b119050919050565b6000604051905090565b600080fd5b600080fd5b60007fffffffff0000000000000000000000000000000000000000000000000000000082169050919050565b6117d6816117a1565b81146117e157600080fd5b50565b6000813590506117f3816117cd565b92915050565b60006020828403121561180f5761180e611797565b5b600061181d848285016117e4565b91505092915050565b60008115159050919050565b61183b81611826565b82525050565b60006020820190506118566000830184611832565b92915050565b600081519050919050565b600082825260208201905092915050565b60005b8381101561189657808201518184015260208101905061187b565b838111156118a5576000848401525b50505050565b6000601f19601f8301169050919050565b60006118c78261185c565b6118d18185611867565b93506118e1818560208601611878565b6118ea816118ab565b840191505092915050565b6000602082019050818103600083015261190f81846118bc565b905092915050565b6000819050919050565b61192a81611917565b811461193557600080fd5b50565b60008135905061194781611921565b92915050565b60006020828403121561196357611962611797565b5b600061197184828501611938565b91505092915050565b600073ffffffffffffffffffffffffffffffffffffffff82169050919050565b60006119a58261197a565b9050919050565b6119b58161199a565b82525050565b60006020820190506119d060008301846119ac565b92915050565b6119df8161199a565b81146119ea57600080fd5b50565b6000813590506119fc816119d6565b92915050565b60008060408385031215611a1957611a18611797565b5b6000611a27858286016119ed565b9250506020611a3885828601611938565b9150509250929050565b600080600060608486031215611a5b57611a5a611797565b5b6000611a69868287016119ed565b9350506020611a7a868287016119ed565b9250506040611a8b86828701611938565b9150509250925092565b600060208284031215611aab57611aaa611797565b5b6000611ab9848285016119ed565b91505092915050565b611acb81611917565b82525050565b6000602082019050611ae66000830184611ac2565b92915050565b60008060408385031215611b0357611b02611797565b5b6000611b1185828601611938565b9250506020611b22858286016119ed565b9150509250929050565b611b3581611826565b8114611b4057600080fd5b50565b600081359050611b5281611b2c565b92915050565b60008060408385031215611b6f57611b6e611797565b5b6000611b7d858286016119ed565b9250506020611b8e85828601611b43565b9150509250929050565b600080fd5b600080fd5b7f4e487b7100000000000000000000000000000000000000000000000000000000600052604160045260246000fd5b611bda826118ab565b810181811067ffffffffffffffff82111715611bf957611bf8611ba2565b5b80604052505050565b6000611c0c61178d565b9050611c188282611bd1565b919050565b600067ffffffffffffffff821115611c3857611c37611ba2565b5b611c41826118ab565b9050602081019050919050565b82818337600083830152505050565b6000611c70611c6b84611c1d565b611c02565b905082815260208101848484011115611c8c57611c8b611b9d565b5b611c97848285611c4e565b509392505050565b600082601f830112611cb457611cb3611b98565b5b8135611cc4848260208601611c5d565b91505092915050565b60008060008060808587031215611ce757611ce6611797565b5b6000611cf5878288016119ed565b9450506020611d06878288016119ed565b9350506040611d1787828801611938565b925050606085013567ffffffffffffffff811115611d3857611d3761179c565b5b611d4487828801611c9f565b91505092959194509250565b60008060408385031215611d6757611d66611797565b5b6000611d75858286016119ed565b9250506020611d86858286016119ed565b9150509250929050565b7f4e487b7100000000000000000000000000000000000000000000000000000000600052602260045260246000fd5b60006002820490506001821680611dd757607f821691505b60208210811415611deb57611dea611d90565b5b50919050565b7f4552433732313a20617070726f76616c20746f2063757272656e74206f776e6560008201527f7200000000000000000000000000000000000000000000000000000000000000602082015250565b6000611e4d602183611867565b9150611e5882611df1565b604082019050919050565b60006020820190508181036000830152611e7c81611e40565b9050919050565b7f4552433732313a20617070726f76652063616c6c6572206973206e6f7420746f60008201527f6b656e206f776e6572206e6f7220617070726f76656420666f7220616c6c0000602082015250565b6000611edf603e83611867565b9150611eea82611e83565b604082019050919050565b60006020820190508181036000830152611f0e81611ed2565b9050919050565b7f4552433732313a2063616c6c6572206973206e6f7420746f6b656e206f776e6560008201527f72206e6f7220617070726f766564000000000000000000000000000000000000602082015250565b6000611f71602e83611867565b9150611f7c82611f15565b604082019050919050565b60006020820190508181036000830152611fa081611f64565b9050919050565b7f4552433732313a20696e76616c696420746f6b656e2049440000000000000000600082015250565b6000611fdd601883611867565b9150611fe882611fa7565b602082019050919050565b6000602082019050818103600083015261200c81611fd0565b9050919050565b7f4552433732313a2061646472657373207a65726f206973206e6f74206120766160008201527f6c6964206f776e65720000000000000000000000000000000000000000000000602082015250565b600061206f602983611867565b915061207a82612013565b604082019050919050565b6000602082019050818103600083015261209e81612062565b9050919050565b600081905092915050565b60008190508160005260206000209050919050565b600081546120d281611dbf565b6120dc81866120a5565b945060018216600081146120f757600181146121085761213b565b60ff1983168652818601935061213b565b612111856120b0565b60005b8381101561213357815481890152600182019150602081019050612114565b838801955050505b50505092915050565b7f2f00000000000000000000000000000000000000000000000000000000000000600082015250565b600061217a6001836120a5565b915061218582612144565b600182019050919050565b6000819050919050565b6121ab6121a682611917565b612190565b82525050565b7f2e6a736f6e000000000000000000000000000000000000000000000000000000600082015250565b60006121e76005836120a5565b91506121f2826121b1565b600582019050919050565b600061220982856120c5565b91506122148261216d565b9150612220828461219a565b60208201915061222f826121da565b91508190509392505050565b7f4f6e6c79204e667453746f72652063616e206d696e7400000000000000000000600082015250565b6000612271601683611867565b915061227c8261223b565b602082019050919050565b600060208201905081810360008301526122a081612264565b9050919050565b60006122b28261185c565b6122bc81856120a5565b93506122cc818560208601611878565b80840191505092915050565b60006122e482856122a7565b91506122f082846122a7565b91508190509392505050565b7f4552433732313a207472616e736665722066726f6d20696e636f72726563742060008201527f6f776e6572000000000000000000000000000000000000000000000000000000602082015250565b6000612358602583611867565b9150612363826122fc565b604082019050919050565b600060208201905081810360008301526123878161234b565b9050919050565b7f4552433732313a207472616e7366657220746f20746865207a65726f2061646460008201527f7265737300000000000000000000000000000000000000000000000000000000602082015250565b60006123ea602483611867565b91506123f58261238e565b604082019050919050565b60006020820190508181036000830152612419816123dd565b9050919050565b7f4e487b7100000000000000000000000000000000000000000000000000000000600052601160045260246000fd5b600061245a82611917565b915061246583611917565b92508282101561247857612477612420565b5b828203905092915050565b600061248e82611917565b915061249983611917565b9250827fffffffffffffffffffffffffffffffffffffffffffffffffffffffffffffffff038211156124ce576124cd612420565b5b828201905092915050565b7f4552433732313a20617070726f766520746f2063616c6c657200000000000000600082015250565b600061250f601983611867565b915061251a826124d9565b602082019050919050565b6000602082019050818103600083015261253e81612502565b9050919050565b7f4552433732313a207472616e7366657220746f206e6f6e20455243373231526560008201527f63656976657220696d706c656d656e7465720000000000000000000000000000602082015250565b60006125a1603283611867565b91506125ac82612545565b604082019050919050565b600060208201905081810360008301526125d081612594565b9050919050565b60006125e282611917565b91507fffffffffffffffffffffffffffffffffffffffffffffffffffffffffffffffff82141561261557612614612420565b5b600182019050919050565b7f4e487b7100000000000000000000000000000000000000000000000000000000600052601260045260246000fd5b600061265a82611917565b915061266583611917565b92508261267557612674612620565b5b828204905092915050565b600061268b82611917565b915061269683611917565b9250826126a6576126a5612620565b5b828206905092915050565b7f4e487b7100000000000000000000000000000000000000000000000000000000600052603260045260246000fd5b600081519050919050565b600082825260208201905092915050565b6000612707826126e0565b61271181856126eb565b9350612721818560208601611878565b61272a816118ab565b840191505092915050565b600060808201905061274a60008301876119ac565b61275760208301866119ac565b6127646040830185611ac2565b818103606083015261277681846126fc565b905095945050505050565b600081519050612790816117cd565b92915050565b6000602082840312156127ac576127ab611797565b5b60006127ba84828501612781565b91505092915050565b7f4552433732313a206d696e7420746f20746865207a65726f2061646472657373600082015250565b60006127f9602083611867565b9150612804826127c3565b602082019050919050565b60006020820190508181036000830152612828816127ec565b9050919050565b7f4552433732313a20746f6b656e20616c7265616479206d696e74656400000000600082015250565b6000612865601c83611867565b91506128708261282f565b602082019050919050565b6000602082019050818103600083015261289481612858565b905091905056fea26469706673582212206b18eb4fdac2eecfd59e75ec3968ff5114e0424e12a68e89bcd6cb39ffcc3c1664736f6c63430008090033a2646970667358221220e6222dd6db479fee21a6400cdf6756e9715c5230f42b2f23a5ac601451c7522e64736f6c63430008090033",
  "linkReferences": {},
  "deployedLinkReferences": {}
}