{
  "_format": "hh-sol-artifact-1",
  "contractName": "CollectionFactory",
  "sourceName": "src/contracts/CollectionFactory.sol",
  "abi": [
    {
      "anonymous": false,
      "inputs": [
        {
          "indexed": false,
          "internalType": "address",
          "name": "nftCollectionAddress",
          "type": "address"
        },
        {
          "indexed": false,
          "internalType": "uint256",
          "name": "nftIndex",
          "type": "uint256"
        }
      ],
      "name": "AvailableNFtsUpdated",
      "type": "event"
    },
    {
      "anonymous": false,
      "inputs": [
        {
          "indexed": false,
          "internalType": "address",
          "name": "nftCollectionAddress",
          "type": "address"
        },
        {
          "indexed": false,
          "internalType": "uint256",
          "name": "presaleDate",
          "type": "uint256"
        },
        {
          "indexed": false,
          "internalType": "uint256",
          "name": "mysteryBoxCap",
          "type": "uint256"
        },
        {
          "indexed": false,
          "internalType": "uint256",
          "name": "nftCap",
          "type": "uint256"
        },
        {
          "indexed": false,
          "internalType": "uint16[]",
          "name": "availableNFTs",
          "type": "uint16[]"
        },
        {
          "indexed": false,
          "internalType": "address",
          "name": "owner",
          "type": "address"
        },
        {
          "indexed": false,
          "internalType": "uint256",
          "name": "mysteryBoxUsdPrice",
          "type": "uint256"
        },
        {
          "indexed": false,
          "internalType": "uint256",
          "name": "nftUsdPrice",
          "type": "uint256"
        },
        {
          "indexed": false,
          "internalType": "bool",
          "name": "frozen",
          "type": "bool"
        }
      ],
      "name": "NFTCollectionCreated",
      "type": "event"
    },
    {
      "inputs": [
        {
          "internalType": "uint256",
          "name": "",
          "type": "uint256"
        }
      ],
      "name": "collections",
      "outputs": [
        {
          "internalType": "address",
          "name": "",
          "type": "address"
        }
      ],
      "stateMutability": "view",
      "type": "function"
    },
    {
      "inputs": [
        {
          "internalType": "string",
          "name": "_tokenName",
          "type": "string"
        },
        {
          "internalType": "string",
          "name": "_tokenSymbol",
          "type": "string"
        },
        {
          "internalType": "string",
          "name": "_baseUri",
          "type": "string"
        },
        {
          "internalType": "string",
          "name": "_coverImageUri",
          "type": "string"
        },
        {
          "internalType": "uint256",
          "name": "_presaleDate",
          "type": "uint256"
        },
        {
          "internalType": "uint16",
          "name": "_mysteryBoxCap",
          "type": "uint16"
        },
        {
          "internalType": "uint16",
          "name": "_nftCap",
          "type": "uint16"
        },
        {
          "internalType": "uint256",
          "name": "_mysteryBoxUsdPrice",
          "type": "uint256"
        },
        {
          "internalType": "uint256",
          "name": "_nftUsdPrice",
          "type": "uint256"
        }
      ],
      "name": "createNFTCollection",
      "outputs": [],
      "stateMutability": "nonpayable",
      "type": "function"
    },
    {
      "inputs": [
        {
          "internalType": "address[]",
          "name": "_collection",
          "type": "address[]"
        }
      ],
      "name": "getAllCollectionData",
      "outputs": [
        {
          "components": [
            {
              "internalType": "uint256",
              "name": "presaleDate",
              "type": "uint256"
            },
            {
              "internalType": "uint16",
              "name": "mysteryBoxCap",
              "type": "uint16"
            },
            {
              "internalType": "uint16",
              "name": "nftCap",
              "type": "uint16"
            },
            {
              "internalType": "uint16[]",
              "name": "availableNfts",
              "type": "uint16[]"
            },
            {
              "internalType": "address",
              "name": "owner",
              "type": "address"
            },
            {
              "internalType": "uint256",
              "name": "mysteryBoxUsdPrice",
              "type": "uint256"
            },
            {
              "internalType": "uint256",
              "name": "nftUsdPrice",
              "type": "uint256"
            },
            {
              "internalType": "bool",
              "name": "frozen",
              "type": "bool"
            },
            {
              "internalType": "string",
              "name": "coverImageUri",
              "type": "string"
            },
            {
              "internalType": "string",
              "name": "tokenName",
              "type": "string"
            }
          ],
          "internalType": "struct CollectionFactory.Collections[]",
          "name": "",
          "type": "tuple[]"
        }
      ],
      "stateMutability": "view",
      "type": "function"
    },
    {
      "inputs": [
        {
          "internalType": "address",
          "name": "_collection",
          "type": "address"
        }
      ],
      "name": "getCollection",
      "outputs": [
        {
          "components": [
            {
              "internalType": "uint256",
              "name": "presaleDate",
              "type": "uint256"
            },
            {
              "internalType": "uint16",
              "name": "mysteryBoxCap",
              "type": "uint16"
            },
            {
              "internalType": "uint16",
              "name": "nftCap",
              "type": "uint16"
            },
            {
              "internalType": "uint16[]",
              "name": "availableNfts",
              "type": "uint16[]"
            },
            {
              "internalType": "address",
              "name": "owner",
              "type": "address"
            },
            {
              "internalType": "uint256",
              "name": "mysteryBoxUsdPrice",
              "type": "uint256"
            },
            {
              "internalType": "uint256",
              "name": "nftUsdPrice",
              "type": "uint256"
            },
            {
              "internalType": "bool",
              "name": "frozen",
              "type": "bool"
            },
            {
              "internalType": "string",
              "name": "coverImageUri",
              "type": "string"
            },
            {
              "internalType": "string",
              "name": "tokenName",
              "type": "string"
            }
          ],
          "internalType": "struct CollectionFactory.Collections",
          "name": "",
          "type": "tuple"
        }
      ],
      "stateMutability": "view",
      "type": "function"
    },
    {
      "inputs": [],
      "name": "getCollectionArray",
      "outputs": [
        {
          "internalType": "address[]",
          "name": "",
          "type": "address[]"
        }
      ],
      "stateMutability": "view",
      "type": "function"
    },
    {
      "inputs": [],
      "name": "nftStoreAddress",
      "outputs": [
        {
          "internalType": "address",
          "name": "",
          "type": "address"
        }
      ],
      "stateMutability": "view",
      "type": "function"
    },
    {
      "inputs": [
        {
          "internalType": "address",
          "name": "_nftStoreAddress",
          "type": "address"
        }
      ],
      "name": "setNftStoreAddress",
      "outputs": [],
      "stateMutability": "nonpayable",
      "type": "function"
    },
    {
      "inputs": [
        {
          "internalType": "address",
          "name": "_collectionAddress",
          "type": "address"
        },
        {
          "internalType": "uint256",
          "name": "_USDPrice",
          "type": "uint256"
        }
      ],
      "name": "updadateMysteryBoxPrice",
      "outputs": [],
      "stateMutability": "nonpayable",
      "type": "function"
    },
    {
      "inputs": [
        {
          "internalType": "address",
          "name": "_nftCollection",
          "type": "address"
        },
        {
          "internalType": "uint16",
          "name": "_indexToDelete",
          "type": "uint16"
        }
      ],
      "name": "updateAvailableNFts",
      "outputs": [],
      "stateMutability": "nonpayable",
      "type": "function"
    },
    {
      "inputs": [
        {
          "internalType": "address",
          "name": "_collectionAddress",
          "type": "address"
        }
      ],
      "name": "updateFrozenFlag",
      "outputs": [],
      "stateMutability": "nonpayable",
      "type": "function"
    },
    {
      "inputs": [
        {
          "internalType": "address",
          "name": "_collectionAddress",
          "type": "address"
        },
        {
          "internalType": "uint256",
          "name": "_USDPrice",
          "type": "uint256"
        }
      ],
      "name": "updateNftPrice",
      "outputs": [],
      "stateMutability": "nonpayable",
      "type": "function"
    },
    {
      "inputs": [
        {
          "internalType": "address",
          "name": "_collectionAddress",
          "type": "address"
        },
        {
          "internalType": "uint256",
          "name": "_presaleDate",
          "type": "uint256"
        }
      ],
      "name": "updatePresaleDate",
      "outputs": [],
      "stateMutability": "nonpayable",
      "type": "function"
    }
  ],
  "bytecode": "0x608060405234801561001057600080fd5b506154ad806100206000396000f3fe60806040523480156200001157600080fd5b5060043610620000c45760003560e01c8063e20f40c7116200007b578063e20f40c7146200018d578063e40de88714620001ad578063e592d94e14620001e3578063f8d075831462000203578063f8e4c7691462000239578063fdbda0ec146200025957620000c4565b806303554e6a14620000c957806366bea4af14620000e957806384856b72146200010b5780639cc19548146200012b578063ae6f371a146200014b578063c42fe149146200016d575b600080fd5b620000e76004803603810190620000e1919062001723565b6200028f565b005b620000f3620002d3565b60405162000102919062001766565b60405180910390f35b620001296004803603810190620001239190620017c2565b620002f9565b005b62000149600480360381019062000143919062001844565b620004e9565b005b6200015562000609565b60405162000164919062001959565b60405180910390f35b6200018b600480360381019062000185919062001844565b62000699565b005b620001ab6004803603810190620001a5919062001723565b620007b9565b005b620001cb6004803603810190620001c5919062001723565b6200093b565b604051620001da919062001c19565b60405180910390f35b620002016004803603810190620001fb919062001d8e565b62000c1c565b005b6200022160048036038101906200021b919062001fc4565b62000fbf565b604051620002309190620021e1565b60405180910390f35b62000257600480360381019062000251919062001844565b62001368565b005b62000277600480360381019062000271919062002205565b62001488565b60405162000286919062001766565b60405180910390f35b80600160006101000a81548173ffffffffffffffffffffffffffffffffffffffff021916908373ffffffffffffffffffffffffffffffffffffffff16021790555050565b600160009054906101000a900473ffffffffffffffffffffffffffffffffffffffff1681565b600160009054906101000a900473ffffffffffffffffffffffffffffffffffffffff1673ffffffffffffffffffffffffffffffffffffffff163373ffffffffffffffffffffffffffffffffffffffff16146200038c576040517f08c379a0000000000000000000000000000000000000000000000000000000008152600401620003839062002298565b60405180910390fd5b6000600260008473ffffffffffffffffffffffffffffffffffffffff1673ffffffffffffffffffffffffffffffffffffffff16815260200190815260200160002060020190508060018280549050620003e69190620022e9565b81548110620003fa57620003f962002324565b5b90600052602060002090601091828204019190066002029054906101000a900461ffff16818361ffff168154811062000438576200043762002324565b5b90600052602060002090601091828204019190066002026101000a81548161ffff021916908361ffff160217905550808054806200047b576200047a62002353565b5b60019003818190600052602060002090601091828204019190066002026101000a81549061ffff021916905590557f11ef6fe05323e70ac6da73f7cb860e511937e4da332af037e9224dcf54bad3808383604051620004dc929190620023c5565b60405180910390a1505050565b81600260008273ffffffffffffffffffffffffffffffffffffffff1673ffffffffffffffffffffffffffffffffffffffff16815260200190815260200160002060030160009054906101000a900473ffffffffffffffffffffffffffffffffffffffff1673ffffffffffffffffffffffffffffffffffffffff163373ffffffffffffffffffffffffffffffffffffffff1614620005bd576040517f08c379a0000000000000000000000000000000000000000000000000000000008152600401620005b49062002442565b60405180910390fd5b81600260008573ffffffffffffffffffffffffffffffffffffffff1673ffffffffffffffffffffffffffffffffffffffff16815260200190815260200160002060050181905550505050565b606060008054806020026020016040519081016040528092919081815260200182805480156200068f57602002820191906000526020600020905b8160009054906101000a900473ffffffffffffffffffffffffffffffffffffffff1673ffffffffffffffffffffffffffffffffffffffff168152602001906001019080831162000644575b5050505050905090565b81600260008273ffffffffffffffffffffffffffffffffffffffff1673ffffffffffffffffffffffffffffffffffffffff16815260200190815260200160002060030160009054906101000a900473ffffffffffffffffffffffffffffffffffffffff1673ffffffffffffffffffffffffffffffffffffffff163373ffffffffffffffffffffffffffffffffffffffff16146200076d576040517f08c379a0000000000000000000000000000000000000000000000000000000008152600401620007649062002442565b60405180910390fd5b81600260008573ffffffffffffffffffffffffffffffffffffffff1673ffffffffffffffffffffffffffffffffffffffff16815260200190815260200160002060000181905550505050565b80600260008273ffffffffffffffffffffffffffffffffffffffff1673ffffffffffffffffffffffffffffffffffffffff16815260200190815260200160002060030160009054906101000a900473ffffffffffffffffffffffffffffffffffffffff1673ffffffffffffffffffffffffffffffffffffffff163373ffffffffffffffffffffffffffffffffffffffff16146200088d576040517f08c379a0000000000000000000000000000000000000000000000000000000008152600401620008849062002442565b60405180910390fd5b600260008373ffffffffffffffffffffffffffffffffffffffff1673ffffffffffffffffffffffffffffffffffffffff16815260200190815260200160002060060160009054906101000a900460ff1615600260008473ffffffffffffffffffffffffffffffffffffffff1673ffffffffffffffffffffffffffffffffffffffff16815260200190815260200160002060060160006101000a81548160ff0219169083151502179055505050565b62000945620014c8565b600260008373ffffffffffffffffffffffffffffffffffffffff1673ffffffffffffffffffffffffffffffffffffffff16815260200190815260200160002060405180610140016040529081600082015481526020016001820160009054906101000a900461ffff1661ffff1661ffff1681526020016001820160029054906101000a900461ffff1661ffff1661ffff1681526020016002820180548060200260200160405190810160405280929190818152602001828054801562000a5357602002820191906000526020600020906000905b82829054906101000a900461ffff1661ffff168152602001906002019060208260010104928301926001038202915080841162000a195790505b505050505081526020016003820160009054906101000a900473ffffffffffffffffffffffffffffffffffffffff1673ffffffffffffffffffffffffffffffffffffffff1673ffffffffffffffffffffffffffffffffffffffff16815260200160048201548152602001600582015481526020016006820160009054906101000a900460ff1615151515815260200160078201805462000af39062002493565b80601f016020809104026020016040519081016040528092919081815260200182805462000b219062002493565b801562000b725780601f1062000b465761010080835404028352916020019162000b72565b820191906000526020600020905b81548152906001019060200180831162000b5457829003601f168201915b5050505050815260200160088201805462000b8d9062002493565b80601f016020809104026020016040519081016040528092919081815260200182805462000bbb9062002493565b801562000c0c5780601f1062000be05761010080835404028352916020019162000c0c565b820191906000526020600020905b81548152906001019060200180831162000bee57829003601f168201915b5050505050815250509050919050565b60008361ffff1667ffffffffffffffff81111562000c3f5762000c3e62001c47565b5b60405190808252806020026020018201604052801562000c6e5781602001602082028036833780820191505090505b50905060005b8461ffff168161ffff16101562000ccc5780828261ffff168151811062000ca05762000c9f62002324565b5b602002602001019061ffff16908161ffff1681525050808062000cc390620024c9565b91505062000c74565b5060008a8a8a600160009054906101000a900473ffffffffffffffffffffffffffffffffffffffff1660405162000d03906200153b565b62000d1294939291906200253a565b604051809103906000f08015801562000d2f573d6000803e3d6000fd5b5090506040518061014001604052808881526020018761ffff1681526020018661ffff1681526020018381526020013373ffffffffffffffffffffffffffffffffffffffff1681526020018581526020018481526020016000151581526020018981526020018c815250600260008373ffffffffffffffffffffffffffffffffffffffff1673ffffffffffffffffffffffffffffffffffffffff1681526020019081526020016000206000820151816000015560208201518160010160006101000a81548161ffff021916908361ffff16021790555060408201518160010160026101000a81548161ffff021916908361ffff160217905550606082015181600201908051906020019062000e4692919062001549565b5060808201518160030160006101000a81548173ffffffffffffffffffffffffffffffffffffffff021916908373ffffffffffffffffffffffffffffffffffffffff16021790555060a0820151816004015560c0820151816005015560e08201518160060160006101000a81548160ff02191690831515021790555061010082015181600701908051906020019062000ee1929190620015fa565b5061012082015181600801908051906020019062000f01929190620015fa565b509050506000819080600181540180825580915050600190039060005260206000200160009091909190916101000a81548173ffffffffffffffffffffffffffffffffffffffff021916908373ffffffffffffffffffffffffffffffffffffffff1602179055507fa06730c0ec027ab9af6354bb468ffe524c1aca1d489a5ccbe6240f51bcc40ab48188888886338a8a600060405162000faa9998979695949392919062002639565b60405180910390a15050505050505050505050565b60606000825167ffffffffffffffff81111562000fe15762000fe062001c47565b5b6040519080825280602002602001820160405280156200101e57816020015b6200100a620014c8565b815260200190600190039081620010005790505b50905060005b83518161ffff1610156200135e5760026000858361ffff168151811062001050576200104f62002324565b5b602002602001015173ffffffffffffffffffffffffffffffffffffffff1673ffffffffffffffffffffffffffffffffffffffff16815260200190815260200160002060405180610140016040529081600082015481526020016001820160009054906101000a900461ffff1661ffff1661ffff1681526020016001820160029054906101000a900461ffff1661ffff1661ffff168152602001600282018054806020026020016040519081016040528092919081815260200182805480156200116157602002820191906000526020600020906000905b82829054906101000a900461ffff1661ffff1681526020019060020190602082600101049283019260010382029150808411620011275790505b505050505081526020016003820160009054906101000a900473ffffffffffffffffffffffffffffffffffffffff1673ffffffffffffffffffffffffffffffffffffffff1673ffffffffffffffffffffffffffffffffffffffff16815260200160048201548152602001600582015481526020016006820160009054906101000a900460ff16151515158152602001600782018054620012019062002493565b80601f01602080910402602001604051908101604052809291908181526020018280546200122f9062002493565b8015620012805780601f10620012545761010080835404028352916020019162001280565b820191906000526020600020905b8154815290600101906020018083116200126257829003601f168201915b505050505081526020016008820180546200129b9062002493565b80601f0160208091040260200160405190810160405280929190818152602001828054620012c99062002493565b80156200131a5780601f10620012ee576101008083540402835291602001916200131a565b820191906000526020600020905b815481529060010190602001808311620012fc57829003601f168201915b505050505081525050828261ffff16815181106200133d576200133c62002324565b5b602002602001018190525080806200135590620024c9565b91505062001024565b5080915050919050565b81600260008273ffffffffffffffffffffffffffffffffffffffff1673ffffffffffffffffffffffffffffffffffffffff16815260200190815260200160002060030160009054906101000a900473ffffffffffffffffffffffffffffffffffffffff1673ffffffffffffffffffffffffffffffffffffffff163373ffffffffffffffffffffffffffffffffffffffff16146200143c576040517f08c379a0000000000000000000000000000000000000000000000000000000008152600401620014339062002442565b60405180910390fd5b81600260008573ffffffffffffffffffffffffffffffffffffffff1673ffffffffffffffffffffffffffffffffffffffff16815260200190815260200160002060040181905550505050565b600081815481106200149957600080fd5b906000526020600020016000915054906101000a900473ffffffffffffffffffffffffffffffffffffffff1681565b60405180610140016040528060008152602001600061ffff168152602001600061ffff16815260200160608152602001600073ffffffffffffffffffffffffffffffffffffffff168152602001600081526020016000815260200160001515815260200160608152602001606081525090565b612d9880620026e083390190565b82805482825590600052602060002090600f01601090048101928215620015e75791602002820160005b83821115620015b557835183826101000a81548161ffff021916908361ffff160217905550926020019260020160208160010104928301926001030262001573565b8015620015e55782816101000a81549061ffff0219169055600201602081600101049283019260010302620015b5565b505b509050620015f691906200168b565b5090565b828054620016089062002493565b90600052602060002090601f0160209004810192826200162c576000855562001678565b82601f106200164757805160ff191683800117855562001678565b8280016001018555821562001678579182015b82811115620016775782518255916020019190600101906200165a565b5b5090506200168791906200168b565b5090565b5b80821115620016a65760008160009055506001016200168c565b5090565b6000604051905090565b600080fd5b600080fd5b600073ffffffffffffffffffffffffffffffffffffffff82169050919050565b6000620016eb82620016be565b9050919050565b620016fd81620016de565b81146200170957600080fd5b50565b6000813590506200171d81620016f2565b92915050565b6000602082840312156200173c576200173b620016b4565b5b60006200174c848285016200170c565b91505092915050565b6200176081620016de565b82525050565b60006020820190506200177d600083018462001755565b92915050565b600061ffff82169050919050565b6200179c8162001783565b8114620017a857600080fd5b50565b600081359050620017bc8162001791565b92915050565b60008060408385031215620017dc57620017db620016b4565b5b6000620017ec858286016200170c565b9250506020620017ff85828601620017ab565b9150509250929050565b6000819050919050565b6200181e8162001809565b81146200182a57600080fd5b50565b6000813590506200183e8162001813565b92915050565b600080604083850312156200185e576200185d620016b4565b5b60006200186e858286016200170c565b925050602062001881858286016200182d565b9150509250929050565b600081519050919050565b600082825260208201905092915050565b6000819050602082019050919050565b620018c281620016de565b82525050565b6000620018d68383620018b7565b60208301905092915050565b6000602082019050919050565b6000620018fc826200188b565b62001908818562001896565b93506200191583620018a7565b8060005b838110156200194c578151620019308882620018c8565b97506200193d83620018e2565b92505060018101905062001919565b5085935050505092915050565b60006020820190508181036000830152620019758184620018ef565b905092915050565b620019888162001809565b82525050565b620019998162001783565b82525050565b600081519050919050565b600082825260208201905092915050565b6000819050602082019050919050565b6000620019d983836200198e565b60208301905092915050565b6000602082019050919050565b6000620019ff826200199f565b62001a0b8185620019aa565b935062001a1883620019bb565b8060005b8381101562001a4f57815162001a338882620019cb565b975062001a4083620019e5565b92505060018101905062001a1c565b5085935050505092915050565b60008115159050919050565b62001a738162001a5c565b82525050565b600081519050919050565b600082825260208201905092915050565b60005b8381101562001ab557808201518184015260208101905062001a98565b8381111562001ac5576000848401525b50505050565b6000601f19601f8301169050919050565b600062001ae98262001a79565b62001af5818562001a84565b935062001b0781856020860162001a95565b62001b128162001acb565b840191505092915050565b60006101408301600083015162001b3860008601826200197d565b50602083015162001b4d60208601826200198e565b50604083015162001b6260408601826200198e565b506060830151848203606086015262001b7c8282620019f2565b915050608083015162001b936080860182620018b7565b5060a083015162001ba860a08601826200197d565b5060c083015162001bbd60c08601826200197d565b5060e083015162001bd260e086018262001a68565b5061010083015184820361010086015262001bee828262001adc565b91505061012083015184820361012086015262001c0c828262001adc565b9150508091505092915050565b6000602082019050818103600083015262001c35818462001b1d565b905092915050565b600080fd5b600080fd5b7f4e487b7100000000000000000000000000000000000000000000000000000000600052604160045260246000fd5b62001c818262001acb565b810181811067ffffffffffffffff8211171562001ca35762001ca262001c47565b5b80604052505050565b600062001cb8620016aa565b905062001cc6828262001c76565b919050565b600067ffffffffffffffff82111562001ce95762001ce862001c47565b5b62001cf48262001acb565b9050602081019050919050565b82818337600083830152505050565b600062001d2762001d218462001ccb565b62001cac565b90508281526020810184848401111562001d465762001d4562001c42565b5b62001d5384828562001d01565b509392505050565b600082601f83011262001d735762001d7262001c3d565b5b813562001d8584826020860162001d10565b91505092915050565b60008060008060008060008060006101208a8c03121562001db45762001db3620016b4565b5b60008a013567ffffffffffffffff81111562001dd55762001dd4620016b9565b5b62001de38c828d0162001d5b565b99505060208a013567ffffffffffffffff81111562001e075762001e06620016b9565b5b62001e158c828d0162001d5b565b98505060408a013567ffffffffffffffff81111562001e395762001e38620016b9565b5b62001e478c828d0162001d5b565b97505060608a013567ffffffffffffffff81111562001e6b5762001e6a620016b9565b5b62001e798c828d0162001d5b565b965050608062001e8c8c828d016200182d565b95505060a062001e9f8c828d01620017ab565b94505060c062001eb28c828d01620017ab565b93505060e062001ec58c828d016200182d565b92505061010062001ed98c828d016200182d565b9150509295985092959850929598565b600067ffffffffffffffff82111562001f075762001f0662001c47565b5b602082029050602081019050919050565b600080fd5b600062001f3462001f2e8462001ee9565b62001cac565b9050808382526020820190506020840283018581111562001f5a5762001f5962001f18565b5b835b8181101562001f87578062001f7288826200170c565b84526020840193505060208101905062001f5c565b5050509392505050565b600082601f83011262001fa95762001fa862001c3d565b5b813562001fbb84826020860162001f1d565b91505092915050565b60006020828403121562001fdd5762001fdc620016b4565b5b600082013567ffffffffffffffff81111562001ffe5762001ffd620016b9565b5b6200200c8482850162001f91565b91505092915050565b600081519050919050565b600082825260208201905092915050565b6000819050602082019050919050565b6000610140830160008301516200205c60008601826200197d565b5060208301516200207160208601826200198e565b5060408301516200208660408601826200198e565b5060608301518482036060860152620020a08282620019f2565b9150506080830151620020b76080860182620018b7565b5060a0830151620020cc60a08601826200197d565b5060c0830151620020e160c08601826200197d565b5060e0830151620020f660e086018262001a68565b5061010083015184820361010086015262002112828262001adc565b91505061012083015184820361012086015262002130828262001adc565b9150508091505092915050565b60006200214b838362002041565b905092915050565b6000602082019050919050565b60006200216d8262002015565b62002179818562002020565b9350836020820285016200218d8562002031565b8060005b85811015620021cf5784840389528151620021ad85826200213d565b9450620021ba8362002153565b925060208a0199505060018101905062002191565b50829750879550505050505092915050565b60006020820190508181036000830152620021fd818462002160565b905092915050565b6000602082840312156200221e576200221d620016b4565b5b60006200222e848285016200182d565b91505092915050565b600082825260208201905092915050565b7f4f6e6c79206e667453746f72652063616e207570646174652074686973000000600082015250565b600062002280601d8362002237565b91506200228d8262002248565b602082019050919050565b60006020820190508181036000830152620022b38162002271565b9050919050565b7f4e487b7100000000000000000000000000000000000000000000000000000000600052601160045260246000fd5b6000620022f68262001809565b9150620023038362001809565b925082821015620023195762002318620022ba565b5b828203905092915050565b7f4e487b7100000000000000000000000000000000000000000000000000000000600052603260045260246000fd5b7f4e487b7100000000000000000000000000000000000000000000000000000000600052603160045260246000fd5b6000819050919050565b6000620023ad620023a7620023a18462001783565b62002382565b62001809565b9050919050565b620023bf816200238c565b82525050565b6000604082019050620023dc600083018562001755565b620023eb6020830184620023b4565b9392505050565b7f4e6f7420436f6c6c656374696f6e204f776e6572000000000000000000000000600082015250565b60006200242a60148362002237565b91506200243782620023f2565b602082019050919050565b600060208201905081810360008301526200245d816200241b565b9050919050565b7f4e487b7100000000000000000000000000000000000000000000000000000000600052602260045260246000fd5b60006002820490506001821680620024ac57607f821691505b60208210811415620024c357620024c262002464565b5b50919050565b6000620024d68262001783565b915061ffff821415620024ee57620024ed620022ba565b5b600182019050919050565b6000620025068262001a79565b62002512818562002237565b93506200252481856020860162001a95565b6200252f8162001acb565b840191505092915050565b60006080820190508181036000830152620025568187620024f9565b905081810360208301526200256c8186620024f9565b90508181036040830152620025828185620024f9565b905062002593606083018462001755565b95945050505050565b620025a78162001809565b82525050565b600082825260208201905092915050565b6000620025cb826200199f565b620025d78185620025ad565b9350620025e483620019bb565b8060005b838110156200261b578151620025ff8882620019cb565b97506200260c83620019e5565b925050600181019050620025e8565b5085935050505092915050565b620026338162001a5c565b82525050565b60006101208201905062002651600083018c62001755565b62002660602083018b6200259c565b6200266f604083018a620023b4565b6200267e6060830189620023b4565b8181036080830152620026928188620025be565b9050620026a360a083018762001755565b620026b260c08301866200259c565b620026c160e08301856200259c565b620026d161010083018462002628565b9a995050505050505050505056fe60806040523480156200001157600080fd5b5060405162002d9838038062002d98833981810160405281019062000037919062000383565b8383816000908051906020019062000051929190620000d1565b5080600190805190602001906200006a929190620000d1565b505050816006908051906020019062000085929190620000d1565b5080600760006101000a81548173ffffffffffffffffffffffffffffffffffffffff021916908373ffffffffffffffffffffffffffffffffffffffff16021790555050505050620004b7565b828054620000df9062000481565b90600052602060002090601f0160209004810192826200010357600085556200014f565b82601f106200011e57805160ff19168380011785556200014f565b828001600101855582156200014f579182015b828111156200014e57825182559160200191906001019062000131565b5b5090506200015e919062000162565b5090565b5b808211156200017d57600081600090555060010162000163565b5090565b6000604051905090565b600080fd5b600080fd5b600080fd5b600080fd5b6000601f19601f8301169050919050565b7f4e487b7100000000000000000000000000000000000000000000000000000000600052604160045260246000fd5b620001ea826200019f565b810181811067ffffffffffffffff821117156200020c576200020b620001b0565b5b80604052505050565b60006200022162000181565b90506200022f8282620001df565b919050565b600067ffffffffffffffff821115620002525762000251620001b0565b5b6200025d826200019f565b9050602081019050919050565b60005b838110156200028a5780820151818401526020810190506200026d565b838111156200029a576000848401525b50505050565b6000620002b7620002b18462000234565b62000215565b905082815260208101848484011115620002d657620002d56200019a565b5b620002e38482856200026a565b509392505050565b600082601f83011262000303576200030262000195565b5b815162000315848260208601620002a0565b91505092915050565b600073ffffffffffffffffffffffffffffffffffffffff82169050919050565b60006200034b826200031e565b9050919050565b6200035d816200033e565b81146200036957600080fd5b50565b6000815190506200037d8162000352565b92915050565b60008060008060808587031215620003a0576200039f6200018b565b5b600085015167ffffffffffffffff811115620003c157620003c062000190565b5b620003cf87828801620002eb565b945050602085015167ffffffffffffffff811115620003f357620003f262000190565b5b6200040187828801620002eb565b935050604085015167ffffffffffffffff81111562000425576200042462000190565b5b6200043387828801620002eb565b925050606062000446878288016200036c565b91505092959194509250565b7f4e487b7100000000000000000000000000000000000000000000000000000000600052602260045260246000fd5b600060028204905060018216806200049a57607f821691505b60208210811415620004b157620004b062000452565b5b50919050565b6128d180620004c76000396000f3fe608060405234801561001057600080fd5b50600436106100f55760003560e01c806370a0823111610097578063a22cb46511610066578063a22cb46514610296578063b88d4fde146102b2578063c87b56dd146102ce578063e985e9c5146102fe576100f5565b806370a08231146101fc5780638ad913451461022c57806394bf804d1461025c57806395d89b4114610278576100f5565b8063095ea7b3116100d3578063095ea7b31461017857806323b872dd1461019457806342842e0e146101b05780636352211e146101cc576100f5565b806301ffc9a7146100fa57806306fdde031461012a578063081812fc14610148575b600080fd5b610114600480360381019061010f91906117f9565b61032e565b6040516101219190611841565b60405180910390f35b610132610340565b60405161013f91906118f5565b60405180910390f35b610162600480360381019061015d919061194d565b6103d2565b60405161016f91906119bb565b60405180910390f35b610192600480360381019061018d9190611a02565b610418565b005b6101ae60048036038101906101a99190611a42565b610530565b005b6101ca60048036038101906101c59190611a42565b610590565b005b6101e660048036038101906101e1919061194d565b6105b0565b6040516101f391906119bb565b60405180910390f35b61021660048036038101906102119190611a95565b610662565b6040516102239190611ad1565b60405180910390f35b6102466004803603810190610241919061194d565b61071a565b60405161025391906118f5565b60405180910390f35b61027660048036038101906102719190611aec565b610746565b005b6102806107e4565b60405161028d91906118f5565b60405180910390f35b6102b060048036038101906102ab9190611b58565b610876565b005b6102cc60048036038101906102c79190611ccd565b61088c565b005b6102e860048036038101906102e3919061194d565b6108ee565b6040516102f591906118f5565b60405180910390f35b61031860048036038101906103139190611d50565b610956565b6040516103259190611841565b60405180910390f35b6000610339826109ea565b9050919050565b60606000805461034f90611dbf565b80601f016020809104026020016040519081016040528092919081815260200182805461037b90611dbf565b80156103c85780601f1061039d576101008083540402835291602001916103c8565b820191906000526020600020905b8154815290600101906020018083116103ab57829003601f168201915b5050505050905090565b60006103dd82610acc565b6004600083815260200190815260200160002060009054906101000a900473ffffffffffffffffffffffffffffffffffffffff169050919050565b6000610423826105b0565b90508073ffffffffffffffffffffffffffffffffffffffff168373ffffffffffffffffffffffffffffffffffffffff161415610494576040517f08c379a000000000000000000000000000000000000000000000000000000000815260040161048b90611e63565b60405180910390fd5b8073ffffffffffffffffffffffffffffffffffffffff166104b3610b17565b73ffffffffffffffffffffffffffffffffffffffff1614806104e257506104e1816104dc610b17565b610956565b5b610521576040517f08c379a000000000000000000000000000000000000000000000000000000000815260040161051890611ef5565b60405180910390fd5b61052b8383610b1f565b505050565b61054161053b610b17565b82610bd8565b610580576040517f08c379a000000000000000000000000000000000000000000000000000000000815260040161057790611f87565b60405180910390fd5b61058b838383610c6d565b505050565b6105ab8383836040518060200160405280600081525061088c565b505050565b6000806002600084815260200190815260200160002060009054906101000a900473ffffffffffffffffffffffffffffffffffffffff169050600073ffffffffffffffffffffffffffffffffffffffff168173ffffffffffffffffffffffffffffffffffffffff161415610659576040517f08c379a000000000000000000000000000000000000000000000000000000000815260040161065090611ff3565b60405180910390fd5b80915050919050565b60008073ffffffffffffffffffffffffffffffffffffffff168273ffffffffffffffffffffffffffffffffffffffff1614156106d3576040517f08c379a00000000000000000000000000000000000000000000000000000000081526004016106ca90612085565b60405180910390fd5b600360008373ffffffffffffffffffffffffffffffffffffffff1673ffffffffffffffffffffffffffffffffffffffff168152602001908152602001600020549050919050565b60606006826040516020016107309291906121fd565b6040516020818303038152906040529050919050565b600760009054906101000a900473ffffffffffffffffffffffffffffffffffffffff1673ffffffffffffffffffffffffffffffffffffffff163373ffffffffffffffffffffffffffffffffffffffff16146107d6576040517f08c379a00000000000000000000000000000000000000000000000000000000081526004016107cd90612287565b60405180910390fd5b6107e08183610ed4565b5050565b6060600180546107f390611dbf565b80601f016020809104026020016040519081016040528092919081815260200182805461081f90611dbf565b801561086c5780601f106108415761010080835404028352916020019161086c565b820191906000526020600020905b81548152906001019060200180831161084f57829003601f168201915b5050505050905090565b610888610881610b17565b8383610ef2565b5050565b61089d610897610b17565b83610bd8565b6108dc576040517f08c379a00000000000000000000000000000000000000000000000000000000081526004016108d390611f87565b60405180910390fd5b6108e88484848461105f565b50505050565b60606108f982610acc565b60006109036110bb565b90506000815111610923576040518060200160405280600081525061094e565b8061092d8461114d565b60405160200161093e9291906122d8565b6040516020818303038152906040525b915050919050565b6000600560008473ffffffffffffffffffffffffffffffffffffffff1673ffffffffffffffffffffffffffffffffffffffff16815260200190815260200160002060008373ffffffffffffffffffffffffffffffffffffffff1673ffffffffffffffffffffffffffffffffffffffff16815260200190815260200160002060009054906101000a900460ff16905092915050565b60007f80ac58cd000000000000000000000000000000000000000000000000000000007bffffffffffffffffffffffffffffffffffffffffffffffffffffffff1916827bffffffffffffffffffffffffffffffffffffffffffffffffffffffff19161480610ab557507f5b5e139f000000000000000000000000000000000000000000000000000000007bffffffffffffffffffffffffffffffffffffffffffffffffffffffff1916827bffffffffffffffffffffffffffffffffffffffffffffffffffffffff1916145b80610ac55750610ac4826112ae565b5b9050919050565b610ad581611318565b610b14576040517f08c379a0000000000000000000000000000000000000000000000000000000008152600401610b0b90611ff3565b60405180910390fd5b50565b600033905090565b816004600083815260200190815260200160002060006101000a81548173ffffffffffffffffffffffffffffffffffffffff021916908373ffffffffffffffffffffffffffffffffffffffff160217905550808273ffffffffffffffffffffffffffffffffffffffff16610b92836105b0565b73ffffffffffffffffffffffffffffffffffffffff167f8c5be1e5ebec7d5bd14f71427d1e84f3dd0314c0f7b2291e5b200ac8c7c3b92560405160405180910390a45050565b600080610be4836105b0565b90508073ffffffffffffffffffffffffffffffffffffffff168473ffffffffffffffffffffffffffffffffffffffff161480610c265750610c258185610956565b5b80610c6457508373ffffffffffffffffffffffffffffffffffffffff16610c4c846103d2565b73ffffffffffffffffffffffffffffffffffffffff16145b91505092915050565b8273ffffffffffffffffffffffffffffffffffffffff16610c8d826105b0565b73ffffffffffffffffffffffffffffffffffffffff1614610ce3576040517f08c379a0000000000000000000000000000000000000000000000000000000008152600401610cda9061236e565b60405180910390fd5b600073ffffffffffffffffffffffffffffffffffffffff168273ffffffffffffffffffffffffffffffffffffffff161415610d53576040517f08c379a0000000000000000000000000000000000000000000000000000000008152600401610d4a90612400565b60405180910390fd5b610d5e838383611384565b610d69600082610b1f565b6001600360008573ffffffffffffffffffffffffffffffffffffffff1673ffffffffffffffffffffffffffffffffffffffff1681526020019081526020016000206000828254610db9919061244f565b925050819055506001600360008473ffffffffffffffffffffffffffffffffffffffff1673ffffffffffffffffffffffffffffffffffffffff1681526020019081526020016000206000828254610e109190612483565b92505081905550816002600083815260200190815260200160002060006101000a81548173ffffffffffffffffffffffffffffffffffffffff021916908373ffffffffffffffffffffffffffffffffffffffff160217905550808273ffffffffffffffffffffffffffffffffffffffff168473ffffffffffffffffffffffffffffffffffffffff167fddf252ad1be2c89b69c2b068fc378daa952ba7f163c4a11628f55a4df523b3ef60405160405180910390a4610ecf838383611394565b505050565b610eee828260405180602001604052806000815250611399565b5050565b8173ffffffffffffffffffffffffffffffffffffffff168373ffffffffffffffffffffffffffffffffffffffff161415610f61576040517f08c379a0000000000000000000000000000000000000000000000000000000008152600401610f5890612525565b60405180910390fd5b80600560008573ffffffffffffffffffffffffffffffffffffffff1673ffffffffffffffffffffffffffffffffffffffff16815260200190815260200160002060008473ffffffffffffffffffffffffffffffffffffffff1673ffffffffffffffffffffffffffffffffffffffff16815260200190815260200160002060006101000a81548160ff0219169083151502179055508173ffffffffffffffffffffffffffffffffffffffff168373ffffffffffffffffffffffffffffffffffffffff167f17307eab39ab6107e8899845ad3d59bd9653f200f220920489ca2b5937696c31836040516110529190611841565b60405180910390a3505050565b61106a848484610c6d565b611076848484846113f4565b6110b5576040517f08c379a00000000000000000000000000000000000000000000000000000000081526004016110ac906125b7565b60405180910390fd5b50505050565b6060600680546110ca90611dbf565b80601f01602080910402602001604051908101604052809291908181526020018280546110f690611dbf565b80156111435780601f1061111857610100808354040283529160200191611143565b820191906000526020600020905b81548152906001019060200180831161112657829003601f168201915b5050505050905090565b60606000821415611195576040518060400160405280600181526020017f300000000000000000000000000000000000000000000000000000000000000081525090506112a9565b600082905060005b600082146111c75780806111b0906125d7565b915050600a826111c0919061264f565b915061119d565b60008167ffffffffffffffff8111156111e3576111e2611ba2565b5b6040519080825280601f01601f1916602001820160405280156112155781602001600182028036833780820191505090505b5090505b600085146112a25760018261122e919061244f565b9150600a8561123d9190612680565b60306112499190612483565b60f81b81838151811061125f5761125e6126b1565b5b60200101907effffffffffffffffffffffffffffffffffffffffffffffffffffffffffffff1916908160001a905350600a8561129b919061264f565b9450611219565b8093505050505b919050565b60007f01ffc9a7000000000000000000000000000000000000000000000000000000007bffffffffffffffffffffffffffffffffffffffffffffffffffffffff1916827bffffffffffffffffffffffffffffffffffffffffffffffffffffffff1916149050919050565b60008073ffffffffffffffffffffffffffffffffffffffff166002600084815260200190815260200160002060009054906101000a900473ffffffffffffffffffffffffffffffffffffffff1673ffffffffffffffffffffffffffffffffffffffff1614159050919050565b61138f83838361158b565b505050565b505050565b6113a38383611590565b6113b060008484846113f4565b6113ef576040517f08c379a00000000000000000000000000000000000000000000000000000000081526004016113e6906125b7565b60405180910390fd5b505050565b60006114158473ffffffffffffffffffffffffffffffffffffffff1661176a565b1561157e578373ffffffffffffffffffffffffffffffffffffffff1663150b7a0261143e610b17565b8786866040518563ffffffff1660e01b81526004016114609493929190612735565b602060405180830381600087803b15801561147a57600080fd5b505af19250505080156114ab57506040513d601f19601f820116820180604052508101906114a89190612796565b60015b61152e573d80600081146114db576040519150601f19603f3d011682016040523d82523d6000602084013e6114e0565b606091505b50600081511415611526576040517f08c379a000000000000000000000000000000000000000000000000000000000815260040161151d906125b7565b60405180910390fd5b805181602001fd5b63150b7a0260e01b7bffffffffffffffffffffffffffffffffffffffffffffffffffffffff1916817bffffffffffffffffffffffffffffffffffffffffffffffffffffffff191614915050611583565b600190505b949350505050565b505050565b600073ffffffffffffffffffffffffffffffffffffffff168273ffffffffffffffffffffffffffffffffffffffff161415611600576040517f08c379a00000000000000000000000000000000000000000000000000000000081526004016115f79061280f565b60405180910390fd5b61160981611318565b15611649576040517f08c379a00000000000000000000000000000000000000000000000000000000081526004016116409061287b565b60405180910390fd5b61165560008383611384565b6001600360008473ffffffffffffffffffffffffffffffffffffffff1673ffffffffffffffffffffffffffffffffffffffff16815260200190815260200160002060008282546116a59190612483565b92505081905550816002600083815260200190815260200160002060006101000a81548173ffffffffffffffffffffffffffffffffffffffff021916908373ffffffffffffffffffffffffffffffffffffffff160217905550808273ffffffffffffffffffffffffffffffffffffffff16600073ffffffffffffffffffffffffffffffffffffffff167fddf252ad1be2c89b69c2b068fc378daa952ba7f163c4a11628f55a4df523b3ef60405160405180910390a461176660008383611394565b5050565b6000808273ffffffffffffffffffffffffffffffffffffffff163b119050919050565b6000604051905090565b600080fd5b600080fd5b60007fffffffff0000000000000000000000000000000000000000000000000000000082169050919050565b6117d6816117a1565b81146117e157600080fd5b50565b6000813590506117f3816117cd565b92915050565b60006020828403121561180f5761180e611797565b5b600061181d848285016117e4565b91505092915050565b60008115159050919050565b61183b81611826565b82525050565b60006020820190506118566000830184611832565b92915050565b600081519050919050565b600082825260208201905092915050565b60005b8381101561189657808201518184015260208101905061187b565b838111156118a5576000848401525b50505050565b6000601f19601f8301169050919050565b60006118c78261185c565b6118d18185611867565b93506118e1818560208601611878565b6118ea816118ab565b840191505092915050565b6000602082019050818103600083015261190f81846118bc565b905092915050565b6000819050919050565b61192a81611917565b811461193557600080fd5b50565b60008135905061194781611921565b92915050565b60006020828403121561196357611962611797565b5b600061197184828501611938565b91505092915050565b600073ffffffffffffffffffffffffffffffffffffffff82169050919050565b60006119a58261197a565b9050919050565b6119b58161199a565b82525050565b60006020820190506119d060008301846119ac565b92915050565b6119df8161199a565b81146119ea57600080fd5b50565b6000813590506119fc816119d6565b92915050565b60008060408385031215611a1957611a18611797565b5b6000611a27858286016119ed565b9250506020611a3885828601611938565b9150509250929050565b600080600060608486031215611a5b57611a5a611797565b5b6000611a69868287016119ed565b9350506020611a7a868287016119ed565b9250506040611a8b86828701611938565b9150509250925092565b600060208284031215611aab57611aaa611797565b5b6000611ab9848285016119ed565b91505092915050565b611acb81611917565b82525050565b6000602082019050611ae66000830184611ac2565b92915050565b60008060408385031215611b0357611b02611797565b5b6000611b1185828601611938565b9250506020611b22858286016119ed565b9150509250929050565b611b3581611826565b8114611b4057600080fd5b50565b600081359050611b5281611b2c565b92915050565b60008060408385031215611b6f57611b6e611797565b5b6000611b7d858286016119ed565b9250506020611b8e85828601611b43565b9150509250929050565b600080fd5b600080fd5b7f4e487b7100000000000000000000000000000000000000000000000000000000600052604160045260246000fd5b611bda826118ab565b810181811067ffffffffffffffff82111715611bf957611bf8611ba2565b5b80604052505050565b6000611c0c61178d565b9050611c188282611bd1565b919050565b600067ffffffffffffffff821115611c3857611c37611ba2565b5b611c41826118ab565b9050602081019050919050565b82818337600083830152505050565b6000611c70611c6b84611c1d565b611c02565b905082815260208101848484011115611c8c57611c8b611b9d565b5b611c97848285611c4e565b509392505050565b600082601f830112611cb457611cb3611b98565b5b8135611cc4848260208601611c5d565b91505092915050565b60008060008060808587031215611ce757611ce6611797565b5b6000611cf5878288016119ed565b9450506020611d06878288016119ed565b9350506040611d1787828801611938565b925050606085013567ffffffffffffffff811115611d3857611d3761179c565b5b611d4487828801611c9f565b91505092959194509250565b60008060408385031215611d6757611d66611797565b5b6000611d75858286016119ed565b9250506020611d86858286016119ed565b9150509250929050565b7f4e487b7100000000000000000000000000000000000000000000000000000000600052602260045260246000fd5b60006002820490506001821680611dd757607f821691505b60208210811415611deb57611dea611d90565b5b50919050565b7f4552433732313a20617070726f76616c20746f2063757272656e74206f776e6560008201527f7200000000000000000000000000000000000000000000000000000000000000602082015250565b6000611e4d602183611867565b9150611e5882611df1565b604082019050919050565b60006020820190508181036000830152611e7c81611e40565b9050919050565b7f4552433732313a20617070726f76652063616c6c6572206973206e6f7420746f60008201527f6b656e206f776e6572206e6f7220617070726f76656420666f7220616c6c0000602082015250565b6000611edf603e83611867565b9150611eea82611e83565b604082019050919050565b60006020820190508181036000830152611f0e81611ed2565b9050919050565b7f4552433732313a2063616c6c6572206973206e6f7420746f6b656e206f776e6560008201527f72206e6f7220617070726f766564000000000000000000000000000000000000602082015250565b6000611f71602e83611867565b9150611f7c82611f15565b604082019050919050565b60006020820190508181036000830152611fa081611f64565b9050919050565b7f4552433732313a20696e76616c696420746f6b656e2049440000000000000000600082015250565b6000611fdd601883611867565b9150611fe882611fa7565b602082019050919050565b6000602082019050818103600083015261200c81611fd0565b9050919050565b7f4552433732313a2061646472657373207a65726f206973206e6f74206120766160008201527f6c6964206f776e65720000000000000000000000000000000000000000000000602082015250565b600061206f602983611867565b915061207a82612013565b604082019050919050565b6000602082019050818103600083015261209e81612062565b9050919050565b600081905092915050565b60008190508160005260206000209050919050565b600081546120d281611dbf565b6120dc81866120a5565b945060018216600081146120f757600181146121085761213b565b60ff1983168652818601935061213b565b612111856120b0565b60005b8381101561213357815481890152600182019150602081019050612114565b838801955050505b50505092915050565b7f2f00000000000000000000000000000000000000000000000000000000000000600082015250565b600061217a6001836120a5565b915061218582612144565b600182019050919050565b6000819050919050565b6121ab6121a682611917565b612190565b82525050565b7f2e6a736f6e000000000000000000000000000000000000000000000000000000600082015250565b60006121e76005836120a5565b91506121f2826121b1565b600582019050919050565b600061220982856120c5565b91506122148261216d565b9150612220828461219a565b60208201915061222f826121da565b91508190509392505050565b7f4f6e6c79204e667453746f72652063616e206d696e7400000000000000000000600082015250565b6000612271601683611867565b915061227c8261223b565b602082019050919050565b600060208201905081810360008301526122a081612264565b9050919050565b60006122b28261185c565b6122bc81856120a5565b93506122cc818560208601611878565b80840191505092915050565b60006122e482856122a7565b91506122f082846122a7565b91508190509392505050565b7f4552433732313a207472616e736665722066726f6d20696e636f72726563742060008201527f6f776e6572000000000000000000000000000000000000000000000000000000602082015250565b6000612358602583611867565b9150612363826122fc565b604082019050919050565b600060208201905081810360008301526123878161234b565b9050919050565b7f4552433732313a207472616e7366657220746f20746865207a65726f2061646460008201527f7265737300000000000000000000000000000000000000000000000000000000602082015250565b60006123ea602483611867565b91506123f58261238e565b604082019050919050565b60006020820190508181036000830152612419816123dd565b9050919050565b7f4e487b7100000000000000000000000000000000000000000000000000000000600052601160045260246000fd5b600061245a82611917565b915061246583611917565b92508282101561247857612477612420565b5b828203905092915050565b600061248e82611917565b915061249983611917565b9250827fffffffffffffffffffffffffffffffffffffffffffffffffffffffffffffffff038211156124ce576124cd612420565b5b828201905092915050565b7f4552433732313a20617070726f766520746f2063616c6c657200000000000000600082015250565b600061250f601983611867565b915061251a826124d9565b602082019050919050565b6000602082019050818103600083015261253e81612502565b9050919050565b7f4552433732313a207472616e7366657220746f206e6f6e20455243373231526560008201527f63656976657220696d706c656d656e7465720000000000000000000000000000602082015250565b60006125a1603283611867565b91506125ac82612545565b604082019050919050565b600060208201905081810360008301526125d081612594565b9050919050565b60006125e282611917565b91507fffffffffffffffffffffffffffffffffffffffffffffffffffffffffffffffff82141561261557612614612420565b5b600182019050919050565b7f4e487b7100000000000000000000000000000000000000000000000000000000600052601260045260246000fd5b600061265a82611917565b915061266583611917565b92508261267557612674612620565b5b828204905092915050565b600061268b82611917565b915061269683611917565b9250826126a6576126a5612620565b5b828206905092915050565b7f4e487b7100000000000000000000000000000000000000000000000000000000600052603260045260246000fd5b600081519050919050565b600082825260208201905092915050565b6000612707826126e0565b61271181856126eb565b9350612721818560208601611878565b61272a816118ab565b840191505092915050565b600060808201905061274a60008301876119ac565b61275760208301866119ac565b6127646040830185611ac2565b818103606083015261277681846126fc565b905095945050505050565b600081519050612790816117cd565b92915050565b6000602082840312156127ac576127ab611797565b5b60006127ba84828501612781565b91505092915050565b7f4552433732313a206d696e7420746f20746865207a65726f2061646472657373600082015250565b60006127f9602083611867565b9150612804826127c3565b602082019050919050565b60006020820190508181036000830152612828816127ec565b9050919050565b7f4552433732313a20746f6b656e20616c7265616479206d696e74656400000000600082015250565b6000612865601c83611867565b91506128708261282f565b602082019050919050565b6000602082019050818103600083015261289481612858565b905091905056fea264697066735822122080dc30bac9adc28795f625f96ee44dd1d5a4d9915452b5d7cfa71669386d5a2664736f6c63430008090033a2646970667358221220273a5e0f18d9de6ac9a9f3d654b9e8d5789e463de397b7ad709757fc8f268d7964736f6c63430008090033",
  "linkReferences": {},
  "deployedLinkReferences": {}
}