{
  "_format": "hh-sol-artifact-1",
  "contractName": "NftCollection",
  "sourceName": "src/contracts/CollectionFactory.sol",
  "abi": [
    {
      "inputs": [
        {
          "internalType": "string",
          "name": "_tokenName",
          "type": "string"
        },
        {
          "internalType": "string",
          "name": "_tokenSymbol",
          "type": "string"
        },
        {
          "internalType": "string",
          "name": "_baseUri",
          "type": "string"
        },
        {
          "internalType": "address",
          "name": "_nftStoreAddress",
          "type": "address"
        }
      ],
      "stateMutability": "nonpayable",
      "type": "constructor"
    },
    {
      "anonymous": false,
      "inputs": [
        {
          "indexed": true,
          "internalType": "address",
          "name": "owner",
          "type": "address"
        },
        {
          "indexed": true,
          "internalType": "address",
          "name": "approved",
          "type": "address"
        },
        {
          "indexed": true,
          "internalType": "uint256",
          "name": "tokenId",
          "type": "uint256"
        }
      ],
      "name": "Approval",
      "type": "event"
    },
    {
      "anonymous": false,
      "inputs": [
        {
          "indexed": true,
          "internalType": "address",
          "name": "owner",
          "type": "address"
        },
        {
          "indexed": true,
          "internalType": "address",
          "name": "operator",
          "type": "address"
        },
        {
          "indexed": false,
          "internalType": "bool",
          "name": "approved",
          "type": "bool"
        }
      ],
      "name": "ApprovalForAll",
      "type": "event"
    },
    {
      "anonymous": false,
      "inputs": [
        {
          "indexed": true,
          "internalType": "address",
          "name": "previousOwner",
          "type": "address"
        },
        {
          "indexed": true,
          "internalType": "address",
          "name": "newOwner",
          "type": "address"
        }
      ],
      "name": "OwnershipTransferred",
      "type": "event"
    },
    {
      "anonymous": false,
      "inputs": [
        {
          "indexed": true,
          "internalType": "address",
          "name": "from",
          "type": "address"
        },
        {
          "indexed": true,
          "internalType": "address",
          "name": "to",
          "type": "address"
        },
        {
          "indexed": true,
          "internalType": "uint256",
          "name": "tokenId",
          "type": "uint256"
        }
      ],
      "name": "Transfer",
      "type": "event"
    },
    {
      "inputs": [
        {
          "internalType": "address",
          "name": "to",
          "type": "address"
        },
        {
          "internalType": "uint256",
          "name": "tokenId",
          "type": "uint256"
        }
      ],
      "name": "approve",
      "outputs": [],
      "stateMutability": "nonpayable",
      "type": "function"
    },
    {
      "inputs": [
        {
          "internalType": "address",
          "name": "owner",
          "type": "address"
        }
      ],
      "name": "balanceOf",
      "outputs": [
        {
          "internalType": "uint256",
          "name": "",
          "type": "uint256"
        }
      ],
      "stateMutability": "view",
      "type": "function"
    },
    {
      "inputs": [
        {
          "internalType": "uint256",
          "name": "tokenId",
          "type": "uint256"
        }
      ],
      "name": "getApproved",
      "outputs": [
        {
          "internalType": "address",
          "name": "",
          "type": "address"
        }
      ],
      "stateMutability": "view",
      "type": "function"
    },
    {
      "inputs": [
        {
          "internalType": "uint256",
          "name": "_tokenId",
          "type": "uint256"
        }
      ],
      "name": "getTokenUri",
      "outputs": [
        {
          "internalType": "string",
          "name": "",
          "type": "string"
        }
      ],
      "stateMutability": "view",
      "type": "function"
    },
    {
      "inputs": [
        {
          "internalType": "address",
          "name": "owner",
          "type": "address"
        },
        {
          "internalType": "address",
          "name": "operator",
          "type": "address"
        }
      ],
      "name": "isApprovedForAll",
      "outputs": [
        {
          "internalType": "bool",
          "name": "",
          "type": "bool"
        }
      ],
      "stateMutability": "view",
      "type": "function"
    },
    {
      "inputs": [
        {
          "internalType": "uint256",
          "name": "_nftIndex",
          "type": "uint256"
        },
        {
          "internalType": "address",
          "name": "_nftOwner",
          "type": "address"
        }
      ],
      "name": "mint",
      "outputs": [],
      "stateMutability": "nonpayable",
      "type": "function"
    },
    {
      "inputs": [],
      "name": "name",
      "outputs": [
        {
          "internalType": "string",
          "name": "",
          "type": "string"
        }
      ],
      "stateMutability": "view",
      "type": "function"
    },
    {
      "inputs": [],
      "name": "owner",
      "outputs": [
        {
          "internalType": "address",
          "name": "",
          "type": "address"
        }
      ],
      "stateMutability": "view",
      "type": "function"
    },
    {
      "inputs": [
        {
          "internalType": "uint256",
          "name": "tokenId",
          "type": "uint256"
        }
      ],
      "name": "ownerOf",
      "outputs": [
        {
          "internalType": "address",
          "name": "",
          "type": "address"
        }
      ],
      "stateMutability": "view",
      "type": "function"
    },
    {
      "inputs": [],
      "name": "renounceOwnership",
      "outputs": [],
      "stateMutability": "nonpayable",
      "type": "function"
    },
    {
      "inputs": [
        {
          "internalType": "address",
          "name": "from",
          "type": "address"
        },
        {
          "internalType": "address",
          "name": "to",
          "type": "address"
        },
        {
          "internalType": "uint256",
          "name": "tokenId",
          "type": "uint256"
        }
      ],
      "name": "safeTransferFrom",
      "outputs": [],
      "stateMutability": "nonpayable",
      "type": "function"
    },
    {
      "inputs": [
        {
          "internalType": "address",
          "name": "from",
          "type": "address"
        },
        {
          "internalType": "address",
          "name": "to",
          "type": "address"
        },
        {
          "internalType": "uint256",
          "name": "tokenId",
          "type": "uint256"
        },
        {
          "internalType": "bytes",
          "name": "data",
          "type": "bytes"
        }
      ],
      "name": "safeTransferFrom",
      "outputs": [],
      "stateMutability": "nonpayable",
      "type": "function"
    },
    {
      "inputs": [
        {
          "internalType": "address",
          "name": "operator",
          "type": "address"
        },
        {
          "internalType": "bool",
          "name": "approved",
          "type": "bool"
        }
      ],
      "name": "setApprovalForAll",
      "outputs": [],
      "stateMutability": "nonpayable",
      "type": "function"
    },
    {
      "inputs": [
        {
          "internalType": "bytes4",
          "name": "interfaceId",
          "type": "bytes4"
        }
      ],
      "name": "supportsInterface",
      "outputs": [
        {
          "internalType": "bool",
          "name": "",
          "type": "bool"
        }
      ],
      "stateMutability": "view",
      "type": "function"
    },
    {
      "inputs": [],
      "name": "symbol",
      "outputs": [
        {
          "internalType": "string",
          "name": "",
          "type": "string"
        }
      ],
      "stateMutability": "view",
      "type": "function"
    },
    {
      "inputs": [
        {
          "internalType": "uint256",
          "name": "tokenId",
          "type": "uint256"
        }
      ],
      "name": "tokenURI",
      "outputs": [
        {
          "internalType": "string",
          "name": "",
          "type": "string"
        }
      ],
      "stateMutability": "view",
      "type": "function"
    },
    {
      "inputs": [
        {
          "internalType": "address",
          "name": "from",
          "type": "address"
        },
        {
          "internalType": "address",
          "name": "to",
          "type": "address"
        },
        {
          "internalType": "uint256",
          "name": "tokenId",
          "type": "uint256"
        }
      ],
      "name": "transferFrom",
      "outputs": [],
      "stateMutability": "nonpayable",
      "type": "function"
    },
    {
      "inputs": [
        {
          "internalType": "address",
          "name": "newOwner",
          "type": "address"
        }
      ],
      "name": "transferOwnership",
      "outputs": [],
      "stateMutability": "nonpayable",
      "type": "function"
    }
  ],
  "bytecode": "0x60806040523480156200001157600080fd5b50604051620031ef380380620031ef833981810160405281019062000037919062000471565b8383816000908051906020019062000051929190620001bf565b5080600190805190602001906200006a929190620001bf565b5050506200008d62000081620000f160201b60201c565b620000f960201b60201c565b8160079080519060200190620000a5929190620001bf565b5080600860006101000a81548173ffffffffffffffffffffffffffffffffffffffff021916908373ffffffffffffffffffffffffffffffffffffffff16021790555050505050620005a5565b600033905090565b6000600660009054906101000a900473ffffffffffffffffffffffffffffffffffffffff16905081600660006101000a81548173ffffffffffffffffffffffffffffffffffffffff021916908373ffffffffffffffffffffffffffffffffffffffff1602179055508173ffffffffffffffffffffffffffffffffffffffff168173ffffffffffffffffffffffffffffffffffffffff167f8be0079c531659141344cd1fd0a4f28419497f9722a3daafe3b4186f6b6457e060405160405180910390a35050565b828054620001cd906200056f565b90600052602060002090601f016020900481019282620001f157600085556200023d565b82601f106200020c57805160ff19168380011785556200023d565b828001600101855582156200023d579182015b828111156200023c5782518255916020019190600101906200021f565b5b5090506200024c919062000250565b5090565b5b808211156200026b57600081600090555060010162000251565b5090565b6000604051905090565b600080fd5b600080fd5b600080fd5b600080fd5b6000601f19601f8301169050919050565b7f4e487b7100000000000000000000000000000000000000000000000000000000600052604160045260246000fd5b620002d8826200028d565b810181811067ffffffffffffffff82111715620002fa57620002f96200029e565b5b80604052505050565b60006200030f6200026f565b90506200031d8282620002cd565b919050565b600067ffffffffffffffff82111562000340576200033f6200029e565b5b6200034b826200028d565b9050602081019050919050565b60005b83811015620003785780820151818401526020810190506200035b565b8381111562000388576000848401525b50505050565b6000620003a56200039f8462000322565b62000303565b905082815260208101848484011115620003c457620003c362000288565b5b620003d184828562000358565b509392505050565b600082601f830112620003f157620003f062000283565b5b8151620004038482602086016200038e565b91505092915050565b600073ffffffffffffffffffffffffffffffffffffffff82169050919050565b600062000439826200040c565b9050919050565b6200044b816200042c565b81146200045757600080fd5b50565b6000815190506200046b8162000440565b92915050565b600080600080608085870312156200048e576200048d62000279565b5b600085015167ffffffffffffffff811115620004af57620004ae6200027e565b5b620004bd87828801620003d9565b945050602085015167ffffffffffffffff811115620004e157620004e06200027e565b5b620004ef87828801620003d9565b935050604085015167ffffffffffffffff8111156200051357620005126200027e565b5b6200052187828801620003d9565b925050606062000534878288016200045a565b91505092959194509250565b7f4e487b7100000000000000000000000000000000000000000000000000000000600052602260045260246000fd5b600060028204905060018216806200058857607f821691505b602082108114156200059f576200059e62000540565b5b50919050565b612c3a80620005b56000396000f3fe608060405234801561001057600080fd5b50600436106101165760003560e01c80638ad91345116100a2578063a22cb46511610071578063a22cb465146102df578063b88d4fde146102fb578063c87b56dd14610317578063e985e9c514610347578063f2fde38b1461037757610116565b80638ad91345146102575780638da5cb5b1461028757806394bf804d146102a557806395d89b41146102c157610116565b806323b872dd116100e957806323b872dd146101b557806342842e0e146101d15780636352211e146101ed57806370a082311461021d578063715018a61461024d57610116565b806301ffc9a71461011b57806306fdde031461014b578063081812fc14610169578063095ea7b314610199575b600080fd5b61013560048036038101906101309190611a64565b610393565b6040516101429190611aac565b60405180910390f35b6101536103a5565b6040516101609190611b60565b60405180910390f35b610183600480360381019061017e9190611bb8565b610437565b6040516101909190611c26565b60405180910390f35b6101b360048036038101906101ae9190611c6d565b61047d565b005b6101cf60048036038101906101ca9190611cad565b610595565b005b6101eb60048036038101906101e69190611cad565b6105f5565b005b61020760048036038101906102029190611bb8565b610615565b6040516102149190611c26565b60405180910390f35b61023760048036038101906102329190611d00565b6106c7565b6040516102449190611d3c565b60405180910390f35b61025561077f565b005b610271600480360381019061026c9190611bb8565b610793565b60405161027e9190611b60565b60405180910390f35b61028f6107bf565b60405161029c9190611c26565b60405180910390f35b6102bf60048036038101906102ba9190611d57565b6107e9565b005b6102c9610887565b6040516102d69190611b60565b60405180910390f35b6102f960048036038101906102f49190611dc3565b610919565b005b61031560048036038101906103109190611f38565b61092f565b005b610331600480360381019061032c9190611bb8565b610991565b60405161033e9190611b60565b60405180910390f35b610361600480360381019061035c9190611fbb565b6109f9565b60405161036e9190611aac565b60405180910390f35b610391600480360381019061038c9190611d00565b610a8d565b005b600061039e82610b11565b9050919050565b6060600080546103b49061202a565b80601f01602080910402602001604051908101604052809291908181526020018280546103e09061202a565b801561042d5780601f106104025761010080835404028352916020019161042d565b820191906000526020600020905b81548152906001019060200180831161041057829003601f168201915b5050505050905090565b600061044282610bf3565b6004600083815260200190815260200160002060009054906101000a900473ffffffffffffffffffffffffffffffffffffffff169050919050565b600061048882610615565b90508073ffffffffffffffffffffffffffffffffffffffff168373ffffffffffffffffffffffffffffffffffffffff1614156104f9576040517f08c379a00000000000000000000000000000000000000000000000000000000081526004016104f0906120ce565b60405180910390fd5b8073ffffffffffffffffffffffffffffffffffffffff16610518610c3e565b73ffffffffffffffffffffffffffffffffffffffff161480610547575061054681610541610c3e565b6109f9565b5b610586576040517f08c379a000000000000000000000000000000000000000000000000000000000815260040161057d90612160565b60405180910390fd5b6105908383610c46565b505050565b6105a66105a0610c3e565b82610cff565b6105e5576040517f08c379a00000000000000000000000000000000000000000000000000000000081526004016105dc906121f2565b60405180910390fd5b6105f0838383610d94565b505050565b6106108383836040518060200160405280600081525061092f565b505050565b6000806002600084815260200190815260200160002060009054906101000a900473ffffffffffffffffffffffffffffffffffffffff169050600073ffffffffffffffffffffffffffffffffffffffff168173ffffffffffffffffffffffffffffffffffffffff1614156106be576040517f08c379a00000000000000000000000000000000000000000000000000000000081526004016106b59061225e565b60405180910390fd5b80915050919050565b60008073ffffffffffffffffffffffffffffffffffffffff168273ffffffffffffffffffffffffffffffffffffffff161415610738576040517f08c379a000000000000000000000000000000000000000000000000000000000815260040161072f906122f0565b60405180910390fd5b600360008373ffffffffffffffffffffffffffffffffffffffff1673ffffffffffffffffffffffffffffffffffffffff168152602001908152602001600020549050919050565b610787610ffb565b6107916000611079565b565b60606007826040516020016107a9929190612468565b6040516020818303038152906040529050919050565b6000600660009054906101000a900473ffffffffffffffffffffffffffffffffffffffff16905090565b600860009054906101000a900473ffffffffffffffffffffffffffffffffffffffff1673ffffffffffffffffffffffffffffffffffffffff163373ffffffffffffffffffffffffffffffffffffffff1614610879576040517f08c379a0000000000000000000000000000000000000000000000000000000008152600401610870906124f2565b60405180910390fd5b610883818361113f565b5050565b6060600180546108969061202a565b80601f01602080910402602001604051908101604052809291908181526020018280546108c29061202a565b801561090f5780601f106108e45761010080835404028352916020019161090f565b820191906000526020600020905b8154815290600101906020018083116108f257829003601f168201915b5050505050905090565b61092b610924610c3e565b838361115d565b5050565b61094061093a610c3e565b83610cff565b61097f576040517f08c379a0000000000000000000000000000000000000000000000000000000008152600401610976906121f2565b60405180910390fd5b61098b848484846112ca565b50505050565b606061099c82610bf3565b60006109a6611326565b905060008151116109c657604051806020016040528060008152506109f1565b806109d0846113b8565b6040516020016109e1929190612543565b6040516020818303038152906040525b915050919050565b6000600560008473ffffffffffffffffffffffffffffffffffffffff1673ffffffffffffffffffffffffffffffffffffffff16815260200190815260200160002060008373ffffffffffffffffffffffffffffffffffffffff1673ffffffffffffffffffffffffffffffffffffffff16815260200190815260200160002060009054906101000a900460ff16905092915050565b610a95610ffb565b600073ffffffffffffffffffffffffffffffffffffffff168173ffffffffffffffffffffffffffffffffffffffff161415610b05576040517f08c379a0000000000000000000000000000000000000000000000000000000008152600401610afc906125d9565b60405180910390fd5b610b0e81611079565b50565b60007f80ac58cd000000000000000000000000000000000000000000000000000000007bffffffffffffffffffffffffffffffffffffffffffffffffffffffff1916827bffffffffffffffffffffffffffffffffffffffffffffffffffffffff19161480610bdc57507f5b5e139f000000000000000000000000000000000000000000000000000000007bffffffffffffffffffffffffffffffffffffffffffffffffffffffff1916827bffffffffffffffffffffffffffffffffffffffffffffffffffffffff1916145b80610bec5750610beb82611519565b5b9050919050565b610bfc81611583565b610c3b576040517f08c379a0000000000000000000000000000000000000000000000000000000008152600401610c329061225e565b60405180910390fd5b50565b600033905090565b816004600083815260200190815260200160002060006101000a81548173ffffffffffffffffffffffffffffffffffffffff021916908373ffffffffffffffffffffffffffffffffffffffff160217905550808273ffffffffffffffffffffffffffffffffffffffff16610cb983610615565b73ffffffffffffffffffffffffffffffffffffffff167f8c5be1e5ebec7d5bd14f71427d1e84f3dd0314c0f7b2291e5b200ac8c7c3b92560405160405180910390a45050565b600080610d0b83610615565b90508073ffffffffffffffffffffffffffffffffffffffff168473ffffffffffffffffffffffffffffffffffffffff161480610d4d5750610d4c81856109f9565b5b80610d8b57508373ffffffffffffffffffffffffffffffffffffffff16610d7384610437565b73ffffffffffffffffffffffffffffffffffffffff16145b91505092915050565b8273ffffffffffffffffffffffffffffffffffffffff16610db482610615565b73ffffffffffffffffffffffffffffffffffffffff1614610e0a576040517f08c379a0000000000000000000000000000000000000000000000000000000008152600401610e019061266b565b60405180910390fd5b600073ffffffffffffffffffffffffffffffffffffffff168273ffffffffffffffffffffffffffffffffffffffff161415610e7a576040517f08c379a0000000000000000000000000000000000000000000000000000000008152600401610e71906126fd565b60405180910390fd5b610e858383836115ef565b610e90600082610c46565b6001600360008573ffffffffffffffffffffffffffffffffffffffff1673ffffffffffffffffffffffffffffffffffffffff1681526020019081526020016000206000828254610ee0919061274c565b925050819055506001600360008473ffffffffffffffffffffffffffffffffffffffff1673ffffffffffffffffffffffffffffffffffffffff1681526020019081526020016000206000828254610f379190612780565b92505081905550816002600083815260200190815260200160002060006101000a81548173ffffffffffffffffffffffffffffffffffffffff021916908373ffffffffffffffffffffffffffffffffffffffff160217905550808273ffffffffffffffffffffffffffffffffffffffff168473ffffffffffffffffffffffffffffffffffffffff167fddf252ad1be2c89b69c2b068fc378daa952ba7f163c4a11628f55a4df523b3ef60405160405180910390a4610ff68383836115ff565b505050565b611003610c3e565b73ffffffffffffffffffffffffffffffffffffffff166110216107bf565b73ffffffffffffffffffffffffffffffffffffffff1614611077576040517f08c379a000000000000000000000000000000000000000000000000000000000815260040161106e90612822565b60405180910390fd5b565b6000600660009054906101000a900473ffffffffffffffffffffffffffffffffffffffff16905081600660006101000a81548173ffffffffffffffffffffffffffffffffffffffff021916908373ffffffffffffffffffffffffffffffffffffffff1602179055508173ffffffffffffffffffffffffffffffffffffffff168173ffffffffffffffffffffffffffffffffffffffff167f8be0079c531659141344cd1fd0a4f28419497f9722a3daafe3b4186f6b6457e060405160405180910390a35050565b611159828260405180602001604052806000815250611604565b5050565b8173ffffffffffffffffffffffffffffffffffffffff168373ffffffffffffffffffffffffffffffffffffffff1614156111cc576040517f08c379a00000000000000000000000000000000000000000000000000000000081526004016111c39061288e565b60405180910390fd5b80600560008573ffffffffffffffffffffffffffffffffffffffff1673ffffffffffffffffffffffffffffffffffffffff16815260200190815260200160002060008473ffffffffffffffffffffffffffffffffffffffff1673ffffffffffffffffffffffffffffffffffffffff16815260200190815260200160002060006101000a81548160ff0219169083151502179055508173ffffffffffffffffffffffffffffffffffffffff168373ffffffffffffffffffffffffffffffffffffffff167f17307eab39ab6107e8899845ad3d59bd9653f200f220920489ca2b5937696c31836040516112bd9190611aac565b60405180910390a3505050565b6112d5848484610d94565b6112e18484848461165f565b611320576040517f08c379a000000000000000000000000000000000000000000000000000000000815260040161131790612920565b60405180910390fd5b50505050565b6060600780546113359061202a565b80601f01602080910402602001604051908101604052809291908181526020018280546113619061202a565b80156113ae5780601f10611383576101008083540402835291602001916113ae565b820191906000526020600020905b81548152906001019060200180831161139157829003601f168201915b5050505050905090565b60606000821415611400576040518060400160405280600181526020017f30000000000000000000000000000000000000000000000000000000000000008152509050611514565b600082905060005b6000821461143257808061141b90612940565b915050600a8261142b91906129b8565b9150611408565b60008167ffffffffffffffff81111561144e5761144d611e0d565b5b6040519080825280601f01601f1916602001820160405280156114805781602001600182028036833780820191505090505b5090505b6000851461150d57600182611499919061274c565b9150600a856114a891906129e9565b60306114b49190612780565b60f81b8183815181106114ca576114c9612a1a565b5b60200101907effffffffffffffffffffffffffffffffffffffffffffffffffffffffffffff1916908160001a905350600a8561150691906129b8565b9450611484565b8093505050505b919050565b60007f01ffc9a7000000000000000000000000000000000000000000000000000000007bffffffffffffffffffffffffffffffffffffffffffffffffffffffff1916827bffffffffffffffffffffffffffffffffffffffffffffffffffffffff1916149050919050565b60008073ffffffffffffffffffffffffffffffffffffffff166002600084815260200190815260200160002060009054906101000a900473ffffffffffffffffffffffffffffffffffffffff1673ffffffffffffffffffffffffffffffffffffffff1614159050919050565b6115fa8383836117f6565b505050565b505050565b61160e83836117fb565b61161b600084848461165f565b61165a576040517f08c379a000000000000000000000000000000000000000000000000000000000815260040161165190612920565b60405180910390fd5b505050565b60006116808473ffffffffffffffffffffffffffffffffffffffff166119d5565b156117e9578373ffffffffffffffffffffffffffffffffffffffff1663150b7a026116a9610c3e565b8786866040518563ffffffff1660e01b81526004016116cb9493929190612a9e565b602060405180830381600087803b1580156116e557600080fd5b505af192505050801561171657506040513d601f19601f820116820180604052508101906117139190612aff565b60015b611799573d8060008114611746576040519150601f19603f3d011682016040523d82523d6000602084013e61174b565b606091505b50600081511415611791576040517f08c379a000000000000000000000000000000000000000000000000000000000815260040161178890612920565b60405180910390fd5b805181602001fd5b63150b7a0260e01b7bffffffffffffffffffffffffffffffffffffffffffffffffffffffff1916817bffffffffffffffffffffffffffffffffffffffffffffffffffffffff1916149150506117ee565b600190505b949350505050565b505050565b600073ffffffffffffffffffffffffffffffffffffffff168273ffffffffffffffffffffffffffffffffffffffff16141561186b576040517f08c379a000000000000000000000000000000000000000000000000000000000815260040161186290612b78565b60405180910390fd5b61187481611583565b156118b4576040517f08c379a00000000000000000000000000000000000000000000000000000000081526004016118ab90612be4565b60405180910390fd5b6118c0600083836115ef565b6001600360008473ffffffffffffffffffffffffffffffffffffffff1673ffffffffffffffffffffffffffffffffffffffff16815260200190815260200160002060008282546119109190612780565b92505081905550816002600083815260200190815260200160002060006101000a81548173ffffffffffffffffffffffffffffffffffffffff021916908373ffffffffffffffffffffffffffffffffffffffff160217905550808273ffffffffffffffffffffffffffffffffffffffff16600073ffffffffffffffffffffffffffffffffffffffff167fddf252ad1be2c89b69c2b068fc378daa952ba7f163c4a11628f55a4df523b3ef60405160405180910390a46119d1600083836115ff565b5050565b6000808273ffffffffffffffffffffffffffffffffffffffff163b119050919050565b6000604051905090565b600080fd5b600080fd5b60007fffffffff0000000000000000000000000000000000000000000000000000000082169050919050565b611a4181611a0c565b8114611a4c57600080fd5b50565b600081359050611a5e81611a38565b92915050565b600060208284031215611a7a57611a79611a02565b5b6000611a8884828501611a4f565b91505092915050565b60008115159050919050565b611aa681611a91565b82525050565b6000602082019050611ac16000830184611a9d565b92915050565b600081519050919050565b600082825260208201905092915050565b60005b83811015611b01578082015181840152602081019050611ae6565b83811115611b10576000848401525b50505050565b6000601f19601f8301169050919050565b6000611b3282611ac7565b611b3c8185611ad2565b9350611b4c818560208601611ae3565b611b5581611b16565b840191505092915050565b60006020820190508181036000830152611b7a8184611b27565b905092915050565b6000819050919050565b611b9581611b82565b8114611ba057600080fd5b50565b600081359050611bb281611b8c565b92915050565b600060208284031215611bce57611bcd611a02565b5b6000611bdc84828501611ba3565b91505092915050565b600073ffffffffffffffffffffffffffffffffffffffff82169050919050565b6000611c1082611be5565b9050919050565b611c2081611c05565b82525050565b6000602082019050611c3b6000830184611c17565b92915050565b611c4a81611c05565b8114611c5557600080fd5b50565b600081359050611c6781611c41565b92915050565b60008060408385031215611c8457611c83611a02565b5b6000611c9285828601611c58565b9250506020611ca385828601611ba3565b9150509250929050565b600080600060608486031215611cc657611cc5611a02565b5b6000611cd486828701611c58565b9350506020611ce586828701611c58565b9250506040611cf686828701611ba3565b9150509250925092565b600060208284031215611d1657611d15611a02565b5b6000611d2484828501611c58565b91505092915050565b611d3681611b82565b82525050565b6000602082019050611d516000830184611d2d565b92915050565b60008060408385031215611d6e57611d6d611a02565b5b6000611d7c85828601611ba3565b9250506020611d8d85828601611c58565b9150509250929050565b611da081611a91565b8114611dab57600080fd5b50565b600081359050611dbd81611d97565b92915050565b60008060408385031215611dda57611dd9611a02565b5b6000611de885828601611c58565b9250506020611df985828601611dae565b9150509250929050565b600080fd5b600080fd5b7f4e487b7100000000000000000000000000000000000000000000000000000000600052604160045260246000fd5b611e4582611b16565b810181811067ffffffffffffffff82111715611e6457611e63611e0d565b5b80604052505050565b6000611e776119f8565b9050611e838282611e3c565b919050565b600067ffffffffffffffff821115611ea357611ea2611e0d565b5b611eac82611b16565b9050602081019050919050565b82818337600083830152505050565b6000611edb611ed684611e88565b611e6d565b905082815260208101848484011115611ef757611ef6611e08565b5b611f02848285611eb9565b509392505050565b600082601f830112611f1f57611f1e611e03565b5b8135611f2f848260208601611ec8565b91505092915050565b60008060008060808587031215611f5257611f51611a02565b5b6000611f6087828801611c58565b9450506020611f7187828801611c58565b9350506040611f8287828801611ba3565b925050606085013567ffffffffffffffff811115611fa357611fa2611a07565b5b611faf87828801611f0a565b91505092959194509250565b60008060408385031215611fd257611fd1611a02565b5b6000611fe085828601611c58565b9250506020611ff185828601611c58565b9150509250929050565b7f4e487b7100000000000000000000000000000000000000000000000000000000600052602260045260246000fd5b6000600282049050600182168061204257607f821691505b6020821081141561205657612055611ffb565b5b50919050565b7f4552433732313a20617070726f76616c20746f2063757272656e74206f776e6560008201527f7200000000000000000000000000000000000000000000000000000000000000602082015250565b60006120b8602183611ad2565b91506120c38261205c565b604082019050919050565b600060208201905081810360008301526120e7816120ab565b9050919050565b7f4552433732313a20617070726f76652063616c6c6572206973206e6f7420746f60008201527f6b656e206f776e6572206e6f7220617070726f76656420666f7220616c6c0000602082015250565b600061214a603e83611ad2565b9150612155826120ee565b604082019050919050565b600060208201905081810360008301526121798161213d565b9050919050565b7f4552433732313a2063616c6c6572206973206e6f7420746f6b656e206f776e6560008201527f72206e6f7220617070726f766564000000000000000000000000000000000000602082015250565b60006121dc602e83611ad2565b91506121e782612180565b604082019050919050565b6000602082019050818103600083015261220b816121cf565b9050919050565b7f4552433732313a20696e76616c696420746f6b656e2049440000000000000000600082015250565b6000612248601883611ad2565b915061225382612212565b602082019050919050565b600060208201905081810360008301526122778161223b565b9050919050565b7f4552433732313a2061646472657373207a65726f206973206e6f74206120766160008201527f6c6964206f776e65720000000000000000000000000000000000000000000000602082015250565b60006122da602983611ad2565b91506122e58261227e565b604082019050919050565b60006020820190508181036000830152612309816122cd565b9050919050565b600081905092915050565b60008190508160005260206000209050919050565b6000815461233d8161202a565b6123478186612310565b945060018216600081146123625760018114612373576123a6565b60ff198316865281860193506123a6565b61237c8561231b565b60005b8381101561239e5781548189015260018201915060208101905061237f565b838801955050505b50505092915050565b7f2f00000000000000000000000000000000000000000000000000000000000000600082015250565b60006123e5600183612310565b91506123f0826123af565b600182019050919050565b6000819050919050565b61241661241182611b82565b6123fb565b82525050565b7f2e6a736f6e000000000000000000000000000000000000000000000000000000600082015250565b6000612452600583612310565b915061245d8261241c565b600582019050919050565b60006124748285612330565b915061247f826123d8565b915061248b8284612405565b60208201915061249a82612445565b91508190509392505050565b7f4f6e6c79204e667453746f72652063616e206d696e7400000000000000000000600082015250565b60006124dc601683611ad2565b91506124e7826124a6565b602082019050919050565b6000602082019050818103600083015261250b816124cf565b9050919050565b600061251d82611ac7565b6125278185612310565b9350612537818560208601611ae3565b80840191505092915050565b600061254f8285612512565b915061255b8284612512565b91508190509392505050565b7f4f776e61626c653a206e6577206f776e657220697320746865207a65726f206160008201527f6464726573730000000000000000000000000000000000000000000000000000602082015250565b60006125c3602683611ad2565b91506125ce82612567565b604082019050919050565b600060208201905081810360008301526125f2816125b6565b9050919050565b7f4552433732313a207472616e736665722066726f6d20696e636f72726563742060008201527f6f776e6572000000000000000000000000000000000000000000000000000000602082015250565b6000612655602583611ad2565b9150612660826125f9565b604082019050919050565b6000602082019050818103600083015261268481612648565b9050919050565b7f4552433732313a207472616e7366657220746f20746865207a65726f2061646460008201527f7265737300000000000000000000000000000000000000000000000000000000602082015250565b60006126e7602483611ad2565b91506126f28261268b565b604082019050919050565b60006020820190508181036000830152612716816126da565b9050919050565b7f4e487b7100000000000000000000000000000000000000000000000000000000600052601160045260246000fd5b600061275782611b82565b915061276283611b82565b9250828210156127755761277461271d565b5b828203905092915050565b600061278b82611b82565b915061279683611b82565b9250827fffffffffffffffffffffffffffffffffffffffffffffffffffffffffffffffff038211156127cb576127ca61271d565b5b828201905092915050565b7f4f776e61626c653a2063616c6c6572206973206e6f7420746865206f776e6572600082015250565b600061280c602083611ad2565b9150612817826127d6565b602082019050919050565b6000602082019050818103600083015261283b816127ff565b9050919050565b7f4552433732313a20617070726f766520746f2063616c6c657200000000000000600082015250565b6000612878601983611ad2565b915061288382612842565b602082019050919050565b600060208201905081810360008301526128a78161286b565b9050919050565b7f4552433732313a207472616e7366657220746f206e6f6e20455243373231526560008201527f63656976657220696d706c656d656e7465720000000000000000000000000000602082015250565b600061290a603283611ad2565b9150612915826128ae565b604082019050919050565b60006020820190508181036000830152612939816128fd565b9050919050565b600061294b82611b82565b91507fffffffffffffffffffffffffffffffffffffffffffffffffffffffffffffffff82141561297e5761297d61271d565b5b600182019050919050565b7f4e487b7100000000000000000000000000000000000000000000000000000000600052601260045260246000fd5b60006129c382611b82565b91506129ce83611b82565b9250826129de576129dd612989565b5b828204905092915050565b60006129f482611b82565b91506129ff83611b82565b925082612a0f57612a0e612989565b5b828206905092915050565b7f4e487b7100000000000000000000000000000000000000000000000000000000600052603260045260246000fd5b600081519050919050565b600082825260208201905092915050565b6000612a7082612a49565b612a7a8185612a54565b9350612a8a818560208601611ae3565b612a9381611b16565b840191505092915050565b6000608082019050612ab36000830187611c17565b612ac06020830186611c17565b612acd6040830185611d2d565b8181036060830152612adf8184612a65565b905095945050505050565b600081519050612af981611a38565b92915050565b600060208284031215612b1557612b14611a02565b5b6000612b2384828501612aea565b91505092915050565b7f4552433732313a206d696e7420746f20746865207a65726f2061646472657373600082015250565b6000612b62602083611ad2565b9150612b6d82612b2c565b602082019050919050565b60006020820190508181036000830152612b9181612b55565b9050919050565b7f4552433732313a20746f6b656e20616c7265616479206d696e74656400000000600082015250565b6000612bce601c83611ad2565b9150612bd982612b98565b602082019050919050565b60006020820190508181036000830152612bfd81612bc1565b905091905056fea2646970667358221220bd930de5335fb00716103465d7777d598dd067440dc137e9dcb65b3568e06a0864736f6c63430008090033",
  "linkReferences": {},
  "deployedLinkReferences": {}
}