{
  "_format": "hh-sol-artifact-1",
  "contractName": "NftCollection",
  "sourceName": "src/contracts/CollectionFactory.sol",
  "abi": [
    {
      "inputs": [
        {
          "internalType": "string",
          "name": "_tokenName",
          "type": "string"
        },
        {
          "internalType": "string",
          "name": "_tokenSymbol",
          "type": "string"
        },
        {
          "internalType": "string",
          "name": "_baseUri",
          "type": "string"
        },
        {
          "internalType": "address",
          "name": "_nftStoreAddress",
          "type": "address"
        }
      ],
      "stateMutability": "nonpayable",
      "type": "constructor"
    },
    {
      "anonymous": false,
      "inputs": [
        {
          "indexed": true,
          "internalType": "address",
          "name": "owner",
          "type": "address"
        },
        {
          "indexed": true,
          "internalType": "address",
          "name": "approved",
          "type": "address"
        },
        {
          "indexed": true,
          "internalType": "uint256",
          "name": "tokenId",
          "type": "uint256"
        }
      ],
      "name": "Approval",
      "type": "event"
    },
    {
      "anonymous": false,
      "inputs": [
        {
          "indexed": true,
          "internalType": "address",
          "name": "owner",
          "type": "address"
        },
        {
          "indexed": true,
          "internalType": "address",
          "name": "operator",
          "type": "address"
        },
        {
          "indexed": false,
          "internalType": "bool",
          "name": "approved",
          "type": "bool"
        }
      ],
      "name": "ApprovalForAll",
      "type": "event"
    },
    {
      "anonymous": false,
      "inputs": [
        {
          "indexed": true,
          "internalType": "address",
          "name": "from",
          "type": "address"
        },
        {
          "indexed": true,
          "internalType": "address",
          "name": "to",
          "type": "address"
        },
        {
          "indexed": true,
          "internalType": "uint256",
          "name": "tokenId",
          "type": "uint256"
        }
      ],
      "name": "Transfer",
      "type": "event"
    },
    {
      "inputs": [
        {
          "internalType": "address",
          "name": "to",
          "type": "address"
        },
        {
          "internalType": "uint256",
          "name": "tokenId",
          "type": "uint256"
        }
      ],
      "name": "approve",
      "outputs": [],
      "stateMutability": "nonpayable",
      "type": "function"
    },
    {
      "inputs": [
        {
          "internalType": "address",
          "name": "owner",
          "type": "address"
        }
      ],
      "name": "balanceOf",
      "outputs": [
        {
          "internalType": "uint256",
          "name": "",
          "type": "uint256"
        }
      ],
      "stateMutability": "view",
      "type": "function"
    },
    {
      "inputs": [],
      "name": "baseURI",
      "outputs": [
        {
          "internalType": "string",
          "name": "",
          "type": "string"
        }
      ],
      "stateMutability": "view",
      "type": "function"
    },
    {
      "inputs": [
        {
          "internalType": "uint256",
          "name": "tokenId",
          "type": "uint256"
        }
      ],
      "name": "getApproved",
      "outputs": [
        {
          "internalType": "address",
          "name": "",
          "type": "address"
        }
      ],
      "stateMutability": "view",
      "type": "function"
    },
    {
      "inputs": [
        {
          "internalType": "address",
          "name": "owner",
          "type": "address"
        },
        {
          "internalType": "address",
          "name": "operator",
          "type": "address"
        }
      ],
      "name": "isApprovedForAll",
      "outputs": [
        {
          "internalType": "bool",
          "name": "",
          "type": "bool"
        }
      ],
      "stateMutability": "view",
      "type": "function"
    },
    {
      "inputs": [
        {
          "internalType": "uint256",
          "name": "_nftIndex",
          "type": "uint256"
        },
        {
          "internalType": "address",
          "name": "_nftOwner",
          "type": "address"
        }
      ],
      "name": "mint",
      "outputs": [],
      "stateMutability": "nonpayable",
      "type": "function"
    },
    {
      "inputs": [],
      "name": "name",
      "outputs": [
        {
          "internalType": "string",
          "name": "",
          "type": "string"
        }
      ],
      "stateMutability": "view",
      "type": "function"
    },
    {
      "inputs": [
        {
          "internalType": "uint256",
          "name": "tokenId",
          "type": "uint256"
        }
      ],
      "name": "ownerOf",
      "outputs": [
        {
          "internalType": "address",
          "name": "",
          "type": "address"
        }
      ],
      "stateMutability": "view",
      "type": "function"
    },
    {
      "inputs": [
        {
          "internalType": "address",
          "name": "from",
          "type": "address"
        },
        {
          "internalType": "address",
          "name": "to",
          "type": "address"
        },
        {
          "internalType": "uint256",
          "name": "tokenId",
          "type": "uint256"
        }
      ],
      "name": "safeTransferFrom",
      "outputs": [],
      "stateMutability": "nonpayable",
      "type": "function"
    },
    {
      "inputs": [
        {
          "internalType": "address",
          "name": "from",
          "type": "address"
        },
        {
          "internalType": "address",
          "name": "to",
          "type": "address"
        },
        {
          "internalType": "uint256",
          "name": "tokenId",
          "type": "uint256"
        },
        {
          "internalType": "bytes",
          "name": "data",
          "type": "bytes"
        }
      ],
      "name": "safeTransferFrom",
      "outputs": [],
      "stateMutability": "nonpayable",
      "type": "function"
    },
    {
      "inputs": [
        {
          "internalType": "address",
          "name": "operator",
          "type": "address"
        },
        {
          "internalType": "bool",
          "name": "approved",
          "type": "bool"
        }
      ],
      "name": "setApprovalForAll",
      "outputs": [],
      "stateMutability": "nonpayable",
      "type": "function"
    },
    {
      "inputs": [
        {
          "internalType": "bytes4",
          "name": "interfaceId",
          "type": "bytes4"
        }
      ],
      "name": "supportsInterface",
      "outputs": [
        {
          "internalType": "bool",
          "name": "",
          "type": "bool"
        }
      ],
      "stateMutability": "view",
      "type": "function"
    },
    {
      "inputs": [],
      "name": "symbol",
      "outputs": [
        {
          "internalType": "string",
          "name": "",
          "type": "string"
        }
      ],
      "stateMutability": "view",
      "type": "function"
    },
    {
      "inputs": [
        {
          "internalType": "uint256",
          "name": "_tokenId",
          "type": "uint256"
        }
      ],
      "name": "tokenURI",
      "outputs": [
        {
          "internalType": "string",
          "name": "",
          "type": "string"
        }
      ],
      "stateMutability": "view",
      "type": "function"
    },
    {
      "inputs": [
        {
          "internalType": "address",
          "name": "from",
          "type": "address"
        },
        {
          "internalType": "address",
          "name": "to",
          "type": "address"
        },
        {
          "internalType": "uint256",
          "name": "tokenId",
          "type": "uint256"
        }
      ],
      "name": "transferFrom",
      "outputs": [],
      "stateMutability": "nonpayable",
      "type": "function"
    }
  ],
  "bytecode": "0x60806040523480156200001157600080fd5b5060405162002d0338038062002d0383398181016040528101906200003791906200022b565b8383816000908051906020019062000051929190620000f2565b5080600190805190602001906200006a929190620000f2565b5050508160405160200162000080919062000340565b60405160208183030381529060405260069080519060200190620000a6929190620000f2565b5080600760006101000a81548173ffffffffffffffffffffffffffffffffffffffff021916908373ffffffffffffffffffffffffffffffffffffffff1602179055505050505062000563565b828054620001009062000445565b90600052602060002090601f01602090048101928262000124576000855562000170565b82601f106200013f57805160ff191683800117855562000170565b8280016001018555821562000170579182015b828111156200016f57825182559160200191906001019062000152565b5b5090506200017f919062000183565b5090565b5b808211156200019e57600081600090555060010162000184565b5090565b6000620001b9620001b3846200038f565b62000366565b905082815260208101848484011115620001d257600080fd5b620001df8482856200040f565b509392505050565b600081519050620001f88162000549565b92915050565b600082601f8301126200021057600080fd5b815162000222848260208601620001a2565b91505092915050565b600080600080608085870312156200024257600080fd5b600085015167ffffffffffffffff8111156200025d57600080fd5b6200026b87828801620001fe565b945050602085015167ffffffffffffffff8111156200028957600080fd5b6200029787828801620001fe565b935050604085015167ffffffffffffffff811115620002b557600080fd5b620002c387828801620001fe565b9250506060620002d687828801620001e7565b91505092959194509250565b6000620002ef82620003c5565b620002fb8185620003d0565b93506200030d8185602086016200040f565b80840191505092915050565b600062000328600783620003d0565b9150620003358262000520565b600782019050919050565b60006200034d8262000319565b91506200035b8284620002e2565b915081905092915050565b60006200037262000385565b90506200038082826200047b565b919050565b6000604051905090565b600067ffffffffffffffff821115620003ad57620003ac620004e0565b5b620003b8826200050f565b9050602081019050919050565b600081519050919050565b600081905092915050565b6000620003e882620003ef565b9050919050565b600073ffffffffffffffffffffffffffffffffffffffff82169050919050565b60005b838110156200042f57808201518184015260208101905062000412565b838111156200043f576000848401525b50505050565b600060028204905060018216806200045e57607f821691505b60208210811415620004755762000474620004b1565b5b50919050565b62000486826200050f565b810181811067ffffffffffffffff82111715620004a857620004a7620004e0565b5b80604052505050565b7f4e487b7100000000000000000000000000000000000000000000000000000000600052602260045260246000fd5b7f4e487b7100000000000000000000000000000000000000000000000000000000600052604160045260246000fd5b6000601f19601f8301169050919050565b7f697066733a2f2f00000000000000000000000000000000000000000000000000600082015250565b6200055481620003db565b81146200056057600080fd5b50565b61279080620005736000396000f3fe608060405234801561001057600080fd5b50600436106100f55760003560e01c80636c0360eb11610097578063a22cb46511610066578063a22cb46514610284578063b88d4fde146102a0578063c87b56dd146102bc578063e985e9c5146102ec576100f5565b80636c0360eb146101fc57806370a082311461021a57806394bf804d1461024a57806395d89b4114610266576100f5565b8063095ea7b3116100d3578063095ea7b31461017857806323b872dd1461019457806342842e0e146101b05780636352211e146101cc576100f5565b806301ffc9a7146100fa57806306fdde031461012a578063081812fc14610148575b600080fd5b610114600480360381019061010f91906119db565b61031c565b6040516101219190611e3e565b60405180910390f35b61013261032e565b60405161013f9190611e59565b60405180910390f35b610162600480360381019061015d9190611a2d565b6103c0565b60405161016f9190611dd7565b60405180910390f35b610192600480360381019061018d919061199f565b610406565b005b6101ae60048036038101906101a99190611899565b61051e565b005b6101ca60048036038101906101c59190611899565b61057e565b005b6101e660048036038101906101e19190611a2d565b61059e565b6040516101f39190611dd7565b60405180910390f35b610204610650565b6040516102119190611e59565b60405180910390f35b610234600480360381019061022f9190611834565b6106de565b6040516102419190611ffb565b60405180910390f35b610264600480360381019061025f9190611a56565b610796565b005b61026e610834565b60405161027b9190611e59565b60405180910390f35b61029e60048036038101906102999190611963565b6108c6565b005b6102ba60048036038101906102b591906118e8565b6108dc565b005b6102d660048036038101906102d19190611a2d565b61093e565b6040516102e39190611e59565b60405180910390f35b6103066004803603810190610301919061185d565b610972565b6040516103139190611e3e565b60405180910390f35b600061032782610a06565b9050919050565b60606000805461033d90612235565b80601f016020809104026020016040519081016040528092919081815260200182805461036990612235565b80156103b65780601f1061038b576101008083540402835291602001916103b6565b820191906000526020600020905b81548152906001019060200180831161039957829003601f168201915b5050505050905090565b60006103cb82610ae8565b6004600083815260200190815260200160002060009054906101000a900473ffffffffffffffffffffffffffffffffffffffff169050919050565b60006104118261059e565b90508073ffffffffffffffffffffffffffffffffffffffff168373ffffffffffffffffffffffffffffffffffffffff161415610482576040517f08c379a000000000000000000000000000000000000000000000000000000000815260040161047990611f9b565b60405180910390fd5b8073ffffffffffffffffffffffffffffffffffffffff166104a1610b33565b73ffffffffffffffffffffffffffffffffffffffff1614806104d057506104cf816104ca610b33565b610972565b5b61050f576040517f08c379a000000000000000000000000000000000000000000000000000000000815260040161050690611f3b565b60405180910390fd5b6105198383610b3b565b505050565b61052f610529610b33565b82610bf4565b61056e576040517f08c379a000000000000000000000000000000000000000000000000000000000815260040161056590611fdb565b60405180910390fd5b610579838383610c89565b505050565b610599838383604051806020016040528060008152506108dc565b505050565b6000806002600084815260200190815260200160002060009054906101000a900473ffffffffffffffffffffffffffffffffffffffff169050600073ffffffffffffffffffffffffffffffffffffffff168173ffffffffffffffffffffffffffffffffffffffff161415610647576040517f08c379a000000000000000000000000000000000000000000000000000000000815260040161063e90611f7b565b60405180910390fd5b80915050919050565b6006805461065d90612235565b80601f016020809104026020016040519081016040528092919081815260200182805461068990612235565b80156106d65780601f106106ab576101008083540402835291602001916106d6565b820191906000526020600020905b8154815290600101906020018083116106b957829003601f168201915b505050505081565b60008073ffffffffffffffffffffffffffffffffffffffff168273ffffffffffffffffffffffffffffffffffffffff16141561074f576040517f08c379a000000000000000000000000000000000000000000000000000000000815260040161074690611f1b565b60405180910390fd5b600360008373ffffffffffffffffffffffffffffffffffffffff1673ffffffffffffffffffffffffffffffffffffffff168152602001908152602001600020549050919050565b600760009054906101000a900473ffffffffffffffffffffffffffffffffffffffff1673ffffffffffffffffffffffffffffffffffffffff163373ffffffffffffffffffffffffffffffffffffffff1614610826576040517f08c379a000000000000000000000000000000000000000000000000000000000815260040161081d90611fbb565b60405180910390fd5b6108308183610ef0565b5050565b60606001805461084390612235565b80601f016020809104026020016040519081016040528092919081815260200182805461086f90612235565b80156108bc5780601f10610891576101008083540402835291602001916108bc565b820191906000526020600020905b81548152906001019060200180831161089f57829003601f168201915b5050505050905090565b6108d86108d1610b33565b8383610f0e565b5050565b6108ed6108e7610b33565b83610bf4565b61092c576040517f08c379a000000000000000000000000000000000000000000000000000000000815260040161092390611fdb565b60405180910390fd5b6109388484848461107b565b50505050565b6060600661094b836110d7565b60405160200161095c929190611da8565b6040516020818303038152906040529050919050565b6000600560008473ffffffffffffffffffffffffffffffffffffffff1673ffffffffffffffffffffffffffffffffffffffff16815260200190815260200160002060008373ffffffffffffffffffffffffffffffffffffffff1673ffffffffffffffffffffffffffffffffffffffff16815260200190815260200160002060009054906101000a900460ff16905092915050565b60007f80ac58cd000000000000000000000000000000000000000000000000000000007bffffffffffffffffffffffffffffffffffffffffffffffffffffffff1916827bffffffffffffffffffffffffffffffffffffffffffffffffffffffff19161480610ad157507f5b5e139f000000000000000000000000000000000000000000000000000000007bffffffffffffffffffffffffffffffffffffffffffffffffffffffff1916827bffffffffffffffffffffffffffffffffffffffffffffffffffffffff1916145b80610ae15750610ae082611284565b5b9050919050565b610af1816112ee565b610b30576040517f08c379a0000000000000000000000000000000000000000000000000000000008152600401610b2790611f7b565b60405180910390fd5b50565b600033905090565b816004600083815260200190815260200160002060006101000a81548173ffffffffffffffffffffffffffffffffffffffff021916908373ffffffffffffffffffffffffffffffffffffffff160217905550808273ffffffffffffffffffffffffffffffffffffffff16610bae8361059e565b73ffffffffffffffffffffffffffffffffffffffff167f8c5be1e5ebec7d5bd14f71427d1e84f3dd0314c0f7b2291e5b200ac8c7c3b92560405160405180910390a45050565b600080610c008361059e565b90508073ffffffffffffffffffffffffffffffffffffffff168473ffffffffffffffffffffffffffffffffffffffff161480610c425750610c418185610972565b5b80610c8057508373ffffffffffffffffffffffffffffffffffffffff16610c68846103c0565b73ffffffffffffffffffffffffffffffffffffffff16145b91505092915050565b8273ffffffffffffffffffffffffffffffffffffffff16610ca98261059e565b73ffffffffffffffffffffffffffffffffffffffff1614610cff576040517f08c379a0000000000000000000000000000000000000000000000000000000008152600401610cf690611e9b565b60405180910390fd5b600073ffffffffffffffffffffffffffffffffffffffff168273ffffffffffffffffffffffffffffffffffffffff161415610d6f576040517f08c379a0000000000000000000000000000000000000000000000000000000008152600401610d6690611edb565b60405180910390fd5b610d7a83838361135a565b610d85600082610b3b565b6001600360008573ffffffffffffffffffffffffffffffffffffffff1673ffffffffffffffffffffffffffffffffffffffff1681526020019081526020016000206000828254610dd5919061214b565b925050819055506001600360008473ffffffffffffffffffffffffffffffffffffffff1673ffffffffffffffffffffffffffffffffffffffff1681526020019081526020016000206000828254610e2c91906120c4565b92505081905550816002600083815260200190815260200160002060006101000a81548173ffffffffffffffffffffffffffffffffffffffff021916908373ffffffffffffffffffffffffffffffffffffffff160217905550808273ffffffffffffffffffffffffffffffffffffffff168473ffffffffffffffffffffffffffffffffffffffff167fddf252ad1be2c89b69c2b068fc378daa952ba7f163c4a11628f55a4df523b3ef60405160405180910390a4610eeb83838361136a565b505050565b610f0a82826040518060200160405280600081525061136f565b5050565b8173ffffffffffffffffffffffffffffffffffffffff168373ffffffffffffffffffffffffffffffffffffffff161415610f7d576040517f08c379a0000000000000000000000000000000000000000000000000000000008152600401610f7490611efb565b60405180910390fd5b80600560008573ffffffffffffffffffffffffffffffffffffffff1673ffffffffffffffffffffffffffffffffffffffff16815260200190815260200160002060008473ffffffffffffffffffffffffffffffffffffffff1673ffffffffffffffffffffffffffffffffffffffff16815260200190815260200160002060006101000a81548160ff0219169083151502179055508173ffffffffffffffffffffffffffffffffffffffff168373ffffffffffffffffffffffffffffffffffffffff167f17307eab39ab6107e8899845ad3d59bd9653f200f220920489ca2b5937696c318360405161106e9190611e3e565b60405180910390a3505050565b611086848484610c89565b611092848484846113ca565b6110d1576040517f08c379a00000000000000000000000000000000000000000000000000000000081526004016110c890611e7b565b60405180910390fd5b50505050565b6060600082141561111f576040518060400160405280600181526020017f3000000000000000000000000000000000000000000000000000000000000000815250905061127f565b600082905060005b6000821461115157808061113a90612298565b915050600a8261114a919061211a565b9150611127565b60008167ffffffffffffffff811115611193577f4e487b7100000000000000000000000000000000000000000000000000000000600052604160045260246000fd5b6040519080825280601f01601f1916602001820160405280156111c55781602001600182028036833780820191505090505b5090505b60008514611278576001826111de919061214b565b9150600a856111ed91906122e1565b60306111f991906120c4565b60f81b818381518110611235577f4e487b7100000000000000000000000000000000000000000000000000000000600052603260045260246000fd5b60200101907effffffffffffffffffffffffffffffffffffffffffffffffffffffffffffff1916908160001a905350600a85611271919061211a565b94506111c9565b8093505050505b919050565b60007f01ffc9a7000000000000000000000000000000000000000000000000000000007bffffffffffffffffffffffffffffffffffffffffffffffffffffffff1916827bffffffffffffffffffffffffffffffffffffffffffffffffffffffff1916149050919050565b60008073ffffffffffffffffffffffffffffffffffffffff166002600084815260200190815260200160002060009054906101000a900473ffffffffffffffffffffffffffffffffffffffff1673ffffffffffffffffffffffffffffffffffffffff1614159050919050565b611365838383611561565b505050565b505050565b6113798383611566565b61138660008484846113ca565b6113c5576040517f08c379a00000000000000000000000000000000000000000000000000000000081526004016113bc90611e7b565b60405180910390fd5b505050565b60006113eb8473ffffffffffffffffffffffffffffffffffffffff16611740565b15611554578373ffffffffffffffffffffffffffffffffffffffff1663150b7a02611414610b33565b8786866040518563ffffffff1660e01b81526004016114369493929190611df2565b602060405180830381600087803b15801561145057600080fd5b505af192505050801561148157506040513d601f19601f8201168201806040525081019061147e9190611a04565b60015b611504573d80600081146114b1576040519150601f19603f3d011682016040523d82523d6000602084013e6114b6565b606091505b506000815114156114fc576040517f08c379a00000000000000000000000000000000000000000000000000000000081526004016114f390611e7b565b60405180910390fd5b805181602001fd5b63150b7a0260e01b7bffffffffffffffffffffffffffffffffffffffffffffffffffffffff1916817bffffffffffffffffffffffffffffffffffffffffffffffffffffffff191614915050611559565b600190505b949350505050565b505050565b600073ffffffffffffffffffffffffffffffffffffffff168273ffffffffffffffffffffffffffffffffffffffff1614156115d6576040517f08c379a00000000000000000000000000000000000000000000000000000000081526004016115cd90611f5b565b60405180910390fd5b6115df816112ee565b1561161f576040517f08c379a000000000000000000000000000000000000000000000000000000000815260040161161690611ebb565b60405180910390fd5b61162b6000838361135a565b6001600360008473ffffffffffffffffffffffffffffffffffffffff1673ffffffffffffffffffffffffffffffffffffffff168152602001908152602001600020600082825461167b91906120c4565b92505081905550816002600083815260200190815260200160002060006101000a81548173ffffffffffffffffffffffffffffffffffffffff021916908373ffffffffffffffffffffffffffffffffffffffff160217905550808273ffffffffffffffffffffffffffffffffffffffff16600073ffffffffffffffffffffffffffffffffffffffff167fddf252ad1be2c89b69c2b068fc378daa952ba7f163c4a11628f55a4df523b3ef60405160405180910390a461173c6000838361136a565b5050565b6000808273ffffffffffffffffffffffffffffffffffffffff163b119050919050565b60006117766117718461203b565b612016565b90508281526020810184848401111561178e57600080fd5b6117998482856121f3565b509392505050565b6000813590506117b0816126fe565b92915050565b6000813590506117c581612715565b92915050565b6000813590506117da8161272c565b92915050565b6000815190506117ef8161272c565b92915050565b600082601f83011261180657600080fd5b8135611816848260208601611763565b91505092915050565b60008135905061182e81612743565b92915050565b60006020828403121561184657600080fd5b6000611854848285016117a1565b91505092915050565b6000806040838503121561187057600080fd5b600061187e858286016117a1565b925050602061188f858286016117a1565b9150509250929050565b6000806000606084860312156118ae57600080fd5b60006118bc868287016117a1565b93505060206118cd868287016117a1565b92505060406118de8682870161181f565b9150509250925092565b600080600080608085870312156118fe57600080fd5b600061190c878288016117a1565b945050602061191d878288016117a1565b935050604061192e8782880161181f565b925050606085013567ffffffffffffffff81111561194b57600080fd5b611957878288016117f5565b91505092959194509250565b6000806040838503121561197657600080fd5b6000611984858286016117a1565b9250506020611995858286016117b6565b9150509250929050565b600080604083850312156119b257600080fd5b60006119c0858286016117a1565b92505060206119d18582860161181f565b9150509250929050565b6000602082840312156119ed57600080fd5b60006119fb848285016117cb565b91505092915050565b600060208284031215611a1657600080fd5b6000611a24848285016117e0565b91505092915050565b600060208284031215611a3f57600080fd5b6000611a4d8482850161181f565b91505092915050565b60008060408385031215611a6957600080fd5b6000611a778582860161181f565b9250506020611a88858286016117a1565b9150509250929050565b611a9b8161217f565b82525050565b611aaa81612191565b82525050565b6000611abb82612081565b611ac58185612097565b9350611ad5818560208601612202565b611ade816123ce565b840191505092915050565b6000611af48261208c565b611afe81856120a8565b9350611b0e818560208601612202565b611b17816123ce565b840191505092915050565b6000611b2d8261208c565b611b3781856120b9565b9350611b47818560208601612202565b80840191505092915050565b60008154611b6081612235565b611b6a81866120b9565b94506001821660008114611b855760018114611b9657611bc9565b60ff19831686528186019350611bc9565b611b9f8561206c565b60005b83811015611bc157815481890152600182019150602081019050611ba2565b838801955050505b50505092915050565b6000611bdf6032836120a8565b9150611bea826123df565b604082019050919050565b6000611c026025836120a8565b9150611c0d8261242e565b604082019050919050565b6000611c25601c836120a8565b9150611c308261247d565b602082019050919050565b6000611c486024836120a8565b9150611c53826124a6565b604082019050919050565b6000611c6b6019836120a8565b9150611c76826124f5565b602082019050919050565b6000611c8e6029836120a8565b9150611c998261251e565b604082019050919050565b6000611cb1603e836120a8565b9150611cbc8261256d565b604082019050919050565b6000611cd46020836120a8565b9150611cdf826125bc565b602082019050919050565b6000611cf76018836120a8565b9150611d02826125e5565b602082019050919050565b6000611d1a6021836120a8565b9150611d258261260e565b604082019050919050565b6000611d3d6016836120a8565b9150611d488261265d565b602082019050919050565b6000611d60602e836120a8565b9150611d6b82612686565b604082019050919050565b6000611d836001836120b9565b9150611d8e826126d5565b600182019050919050565b611da2816121e9565b82525050565b6000611db48285611b53565b9150611dbf82611d76565b9150611dcb8284611b22565b91508190509392505050565b6000602082019050611dec6000830184611a92565b92915050565b6000608082019050611e076000830187611a92565b611e146020830186611a92565b611e216040830185611d99565b8181036060830152611e338184611ab0565b905095945050505050565b6000602082019050611e536000830184611aa1565b92915050565b60006020820190508181036000830152611e738184611ae9565b905092915050565b60006020820190508181036000830152611e9481611bd2565b9050919050565b60006020820190508181036000830152611eb481611bf5565b9050919050565b60006020820190508181036000830152611ed481611c18565b9050919050565b60006020820190508181036000830152611ef481611c3b565b9050919050565b60006020820190508181036000830152611f1481611c5e565b9050919050565b60006020820190508181036000830152611f3481611c81565b9050919050565b60006020820190508181036000830152611f5481611ca4565b9050919050565b60006020820190508181036000830152611f7481611cc7565b9050919050565b60006020820190508181036000830152611f9481611cea565b9050919050565b60006020820190508181036000830152611fb481611d0d565b9050919050565b60006020820190508181036000830152611fd481611d30565b9050919050565b60006020820190508181036000830152611ff481611d53565b9050919050565b60006020820190506120106000830184611d99565b92915050565b6000612020612031565b905061202c8282612267565b919050565b6000604051905090565b600067ffffffffffffffff8211156120565761205561239f565b5b61205f826123ce565b9050602081019050919050565b60008190508160005260206000209050919050565b600081519050919050565b600081519050919050565b600082825260208201905092915050565b600082825260208201905092915050565b600081905092915050565b60006120cf826121e9565b91506120da836121e9565b9250827fffffffffffffffffffffffffffffffffffffffffffffffffffffffffffffffff0382111561210f5761210e612312565b5b828201905092915050565b6000612125826121e9565b9150612130836121e9565b9250826121405761213f612341565b5b828204905092915050565b6000612156826121e9565b9150612161836121e9565b92508282101561217457612173612312565b5b828203905092915050565b600061218a826121c9565b9050919050565b60008115159050919050565b60007fffffffff0000000000000000000000000000000000000000000000000000000082169050919050565b600073ffffffffffffffffffffffffffffffffffffffff82169050919050565b6000819050919050565b82818337600083830152505050565b60005b83811015612220578082015181840152602081019050612205565b8381111561222f576000848401525b50505050565b6000600282049050600182168061224d57607f821691505b6020821081141561226157612260612370565b5b50919050565b612270826123ce565b810181811067ffffffffffffffff8211171561228f5761228e61239f565b5b80604052505050565b60006122a3826121e9565b91507fffffffffffffffffffffffffffffffffffffffffffffffffffffffffffffffff8214156122d6576122d5612312565b5b600182019050919050565b60006122ec826121e9565b91506122f7836121e9565b92508261230757612306612341565b5b828206905092915050565b7f4e487b7100000000000000000000000000000000000000000000000000000000600052601160045260246000fd5b7f4e487b7100000000000000000000000000000000000000000000000000000000600052601260045260246000fd5b7f4e487b7100000000000000000000000000000000000000000000000000000000600052602260045260246000fd5b7f4e487b7100000000000000000000000000000000000000000000000000000000600052604160045260246000fd5b6000601f19601f8301169050919050565b7f4552433732313a207472616e7366657220746f206e6f6e20455243373231526560008201527f63656976657220696d706c656d656e7465720000000000000000000000000000602082015250565b7f4552433732313a207472616e736665722066726f6d20696e636f72726563742060008201527f6f776e6572000000000000000000000000000000000000000000000000000000602082015250565b7f4552433732313a20746f6b656e20616c7265616479206d696e74656400000000600082015250565b7f4552433732313a207472616e7366657220746f20746865207a65726f2061646460008201527f7265737300000000000000000000000000000000000000000000000000000000602082015250565b7f4552433732313a20617070726f766520746f2063616c6c657200000000000000600082015250565b7f4552433732313a2061646472657373207a65726f206973206e6f74206120766160008201527f6c6964206f776e65720000000000000000000000000000000000000000000000602082015250565b7f4552433732313a20617070726f76652063616c6c6572206973206e6f7420746f60008201527f6b656e206f776e6572206e6f7220617070726f76656420666f7220616c6c0000602082015250565b7f4552433732313a206d696e7420746f20746865207a65726f2061646472657373600082015250565b7f4552433732313a20696e76616c696420746f6b656e2049440000000000000000600082015250565b7f4552433732313a20617070726f76616c20746f2063757272656e74206f776e6560008201527f7200000000000000000000000000000000000000000000000000000000000000602082015250565b7f4f6e6c79204e667453746f72652063616e206d696e7400000000000000000000600082015250565b7f4552433732313a2063616c6c6572206973206e6f7420746f6b656e206f776e6560008201527f72206e6f7220617070726f766564000000000000000000000000000000000000602082015250565b7f2f00000000000000000000000000000000000000000000000000000000000000600082015250565b6127078161217f565b811461271257600080fd5b50565b61271e81612191565b811461272957600080fd5b50565b6127358161219d565b811461274057600080fd5b50565b61274c816121e9565b811461275757600080fd5b5056fea26469706673582212207f4b92eb18b5ae15baf5d54ed2e05597fa289979552636d843d7fcff42627fce64736f6c63430008040033",
  "linkReferences": {},
  "deployedLinkReferences": {}
}