{
  "_format": "hh-sol-artifact-1",
  "contractName": "NftCollection",
  "sourceName": "src/contracts/CollectionFactory.sol",
  "abi": [
    {
      "inputs": [
        {
          "internalType": "string",
          "name": "_tokenName",
          "type": "string"
        },
        {
          "internalType": "string",
          "name": "_tokenSymbol",
          "type": "string"
        },
        {
          "internalType": "string",
          "name": "_baseUri",
          "type": "string"
        },
        {
          "internalType": "address",
          "name": "_nftStoreAddress",
          "type": "address"
        }
      ],
      "stateMutability": "nonpayable",
      "type": "constructor"
    },
    {
      "anonymous": false,
      "inputs": [
        {
          "indexed": true,
          "internalType": "address",
          "name": "owner",
          "type": "address"
        },
        {
          "indexed": true,
          "internalType": "address",
          "name": "approved",
          "type": "address"
        },
        {
          "indexed": true,
          "internalType": "uint256",
          "name": "tokenId",
          "type": "uint256"
        }
      ],
      "name": "Approval",
      "type": "event"
    },
    {
      "anonymous": false,
      "inputs": [
        {
          "indexed": true,
          "internalType": "address",
          "name": "owner",
          "type": "address"
        },
        {
          "indexed": true,
          "internalType": "address",
          "name": "operator",
          "type": "address"
        },
        {
          "indexed": false,
          "internalType": "bool",
          "name": "approved",
          "type": "bool"
        }
      ],
      "name": "ApprovalForAll",
      "type": "event"
    },
    {
      "anonymous": false,
      "inputs": [
        {
          "indexed": true,
          "internalType": "address",
          "name": "from",
          "type": "address"
        },
        {
          "indexed": true,
          "internalType": "address",
          "name": "to",
          "type": "address"
        },
        {
          "indexed": true,
          "internalType": "uint256",
          "name": "tokenId",
          "type": "uint256"
        }
      ],
      "name": "Transfer",
      "type": "event"
    },
    {
      "inputs": [
        {
          "internalType": "address",
          "name": "to",
          "type": "address"
        },
        {
          "internalType": "uint256",
          "name": "tokenId",
          "type": "uint256"
        }
      ],
      "name": "approve",
      "outputs": [],
      "stateMutability": "nonpayable",
      "type": "function"
    },
    {
      "inputs": [
        {
          "internalType": "address",
          "name": "owner",
          "type": "address"
        }
      ],
      "name": "balanceOf",
      "outputs": [
        {
          "internalType": "uint256",
          "name": "",
          "type": "uint256"
        }
      ],
      "stateMutability": "view",
      "type": "function"
    },
    {
      "inputs": [
        {
          "internalType": "uint256",
          "name": "tokenId",
          "type": "uint256"
        }
      ],
      "name": "getApproved",
      "outputs": [
        {
          "internalType": "address",
          "name": "",
          "type": "address"
        }
      ],
      "stateMutability": "view",
      "type": "function"
    },
    {
      "inputs": [
        {
          "internalType": "uint256",
          "name": "_tokenId",
          "type": "uint256"
        }
      ],
      "name": "getTokenUri",
      "outputs": [
        {
          "internalType": "string",
          "name": "",
          "type": "string"
        }
      ],
      "stateMutability": "view",
      "type": "function"
    },
    {
      "inputs": [
        {
          "internalType": "address",
          "name": "owner",
          "type": "address"
        },
        {
          "internalType": "address",
          "name": "operator",
          "type": "address"
        }
      ],
      "name": "isApprovedForAll",
      "outputs": [
        {
          "internalType": "bool",
          "name": "",
          "type": "bool"
        }
      ],
      "stateMutability": "view",
      "type": "function"
    },
    {
      "inputs": [
        {
          "internalType": "uint256",
          "name": "_nftIndex",
          "type": "uint256"
        },
        {
          "internalType": "address",
          "name": "_nftOwner",
          "type": "address"
        }
      ],
      "name": "mint",
      "outputs": [],
      "stateMutability": "nonpayable",
      "type": "function"
    },
    {
      "inputs": [],
      "name": "name",
      "outputs": [
        {
          "internalType": "string",
          "name": "",
          "type": "string"
        }
      ],
      "stateMutability": "view",
      "type": "function"
    },
    {
      "inputs": [
        {
          "internalType": "uint256",
          "name": "tokenId",
          "type": "uint256"
        }
      ],
      "name": "ownerOf",
      "outputs": [
        {
          "internalType": "address",
          "name": "",
          "type": "address"
        }
      ],
      "stateMutability": "view",
      "type": "function"
    },
    {
      "inputs": [
        {
          "internalType": "address",
          "name": "from",
          "type": "address"
        },
        {
          "internalType": "address",
          "name": "to",
          "type": "address"
        },
        {
          "internalType": "uint256",
          "name": "tokenId",
          "type": "uint256"
        }
      ],
      "name": "safeTransferFrom",
      "outputs": [],
      "stateMutability": "nonpayable",
      "type": "function"
    },
    {
      "inputs": [
        {
          "internalType": "address",
          "name": "from",
          "type": "address"
        },
        {
          "internalType": "address",
          "name": "to",
          "type": "address"
        },
        {
          "internalType": "uint256",
          "name": "tokenId",
          "type": "uint256"
        },
        {
          "internalType": "bytes",
          "name": "data",
          "type": "bytes"
        }
      ],
      "name": "safeTransferFrom",
      "outputs": [],
      "stateMutability": "nonpayable",
      "type": "function"
    },
    {
      "inputs": [
        {
          "internalType": "address",
          "name": "operator",
          "type": "address"
        },
        {
          "internalType": "bool",
          "name": "approved",
          "type": "bool"
        }
      ],
      "name": "setApprovalForAll",
      "outputs": [],
      "stateMutability": "nonpayable",
      "type": "function"
    },
    {
      "inputs": [
        {
          "internalType": "bytes4",
          "name": "interfaceId",
          "type": "bytes4"
        }
      ],
      "name": "supportsInterface",
      "outputs": [
        {
          "internalType": "bool",
          "name": "",
          "type": "bool"
        }
      ],
      "stateMutability": "view",
      "type": "function"
    },
    {
      "inputs": [],
      "name": "symbol",
      "outputs": [
        {
          "internalType": "string",
          "name": "",
          "type": "string"
        }
      ],
      "stateMutability": "view",
      "type": "function"
    },
    {
      "inputs": [
        {
          "internalType": "uint256",
          "name": "_tokenId",
          "type": "uint256"
        }
      ],
      "name": "tokenURI",
      "outputs": [
        {
          "internalType": "string",
          "name": "",
          "type": "string"
        }
      ],
      "stateMutability": "view",
      "type": "function"
    },
    {
      "inputs": [
        {
          "internalType": "address",
          "name": "from",
          "type": "address"
        },
        {
          "internalType": "address",
          "name": "to",
          "type": "address"
        },
        {
          "internalType": "uint256",
          "name": "tokenId",
          "type": "uint256"
        }
      ],
      "name": "transferFrom",
      "outputs": [],
      "stateMutability": "nonpayable",
      "type": "function"
    }
  ],
  "bytecode": "0x60806040523480156200001157600080fd5b506040516200298b3803806200298b83398181016040528101906200003791906200020a565b8383816000908051906020019062000051929190620000d1565b5080600190805190602001906200006a929190620000d1565b505050816006908051906020019062000085929190620000d1565b5080600760006101000a81548173ffffffffffffffffffffffffffffffffffffffff021916908373ffffffffffffffffffffffffffffffffffffffff160217905550505050506200047f565b828054620000df906200038a565b90600052602060002090601f0160209004810192826200010357600085556200014f565b82601f106200011e57805160ff19168380011785556200014f565b828001600101855582156200014f579182015b828111156200014e57825182559160200191906001019062000131565b5b5090506200015e919062000162565b5090565b5b808211156200017d57600081600090555060010162000163565b5090565b6000620001986200019284620002ea565b620002c1565b905082815260208101848484011115620001b157600080fd5b620001be84828562000354565b509392505050565b600081519050620001d78162000465565b92915050565b600082601f830112620001ef57600080fd5b81516200020184826020860162000181565b91505092915050565b600080600080608085870312156200022157600080fd5b600085015167ffffffffffffffff8111156200023c57600080fd5b6200024a87828801620001dd565b945050602085015167ffffffffffffffff8111156200026857600080fd5b6200027687828801620001dd565b935050604085015167ffffffffffffffff8111156200029457600080fd5b620002a287828801620001dd565b9250506060620002b587828801620001c6565b91505092959194509250565b6000620002cd620002e0565b9050620002db8282620003c0565b919050565b6000604051905090565b600067ffffffffffffffff82111562000308576200030762000425565b5b620003138262000454565b9050602081019050919050565b60006200032d8262000334565b9050919050565b600073ffffffffffffffffffffffffffffffffffffffff82169050919050565b60005b838110156200037457808201518184015260208101905062000357565b8381111562000384576000848401525b50505050565b60006002820490506001821680620003a357607f821691505b60208210811415620003ba57620003b9620003f6565b5b50919050565b620003cb8262000454565b810181811067ffffffffffffffff82111715620003ed57620003ec62000425565b5b80604052505050565b7f4e487b7100000000000000000000000000000000000000000000000000000000600052602260045260246000fd5b7f4e487b7100000000000000000000000000000000000000000000000000000000600052604160045260246000fd5b6000601f19601f8301169050919050565b620004708162000320565b81146200047c57600080fd5b50565b6124fc806200048f6000396000f3fe608060405234801561001057600080fd5b50600436106100f55760003560e01c806370a0823111610097578063a22cb46511610066578063a22cb46514610296578063b88d4fde146102b2578063c87b56dd146102ce578063e985e9c5146102fe576100f5565b806370a08231146101fc5780638ad913451461022c57806394bf804d1461025c57806395d89b4114610278576100f5565b8063095ea7b3116100d3578063095ea7b31461017857806323b872dd1461019457806342842e0e146101b05780636352211e146101cc576100f5565b806301ffc9a7146100fa57806306fdde031461012a578063081812fc14610148575b600080fd5b610114600480360381019061010f91906117d6565b61032e565b6040516101219190611c51565b60405180910390f35b610132610340565b60405161013f9190611c6c565b60405180910390f35b610162600480360381019061015d9190611828565b6103d2565b60405161016f9190611bea565b60405180910390f35b610192600480360381019061018d919061179a565b610418565b005b6101ae60048036038101906101a99190611694565b610530565b005b6101ca60048036038101906101c59190611694565b610590565b005b6101e660048036038101906101e19190611828565b6105b0565b6040516101f39190611bea565b60405180910390f35b6102166004803603810190610211919061162f565b610662565b6040516102239190611e0e565b60405180910390f35b61024660048036038101906102419190611828565b61071a565b6040516102539190611c6c565b60405180910390f35b61027660048036038101906102719190611851565b610746565b005b6102806107e4565b60405161028d9190611c6c565b60405180910390f35b6102b060048036038101906102ab919061175e565b610876565b005b6102cc60048036038101906102c791906116e3565b61088c565b005b6102e860048036038101906102e39190611828565b6108ee565b6040516102f59190611c6c565b60405180910390f35b61031860048036038101906103139190611658565b61091a565b6040516103259190611c51565b60405180910390f35b6000610339826109ae565b9050919050565b60606000805461034f90612017565b80601f016020809104026020016040519081016040528092919081815260200182805461037b90612017565b80156103c85780601f1061039d576101008083540402835291602001916103c8565b820191906000526020600020905b8154815290600101906020018083116103ab57829003601f168201915b5050505050905090565b60006103dd82610a90565b6004600083815260200190815260200160002060009054906101000a900473ffffffffffffffffffffffffffffffffffffffff169050919050565b6000610423826105b0565b90508073ffffffffffffffffffffffffffffffffffffffff168373ffffffffffffffffffffffffffffffffffffffff161415610494576040517f08c379a000000000000000000000000000000000000000000000000000000000815260040161048b90611dae565b60405180910390fd5b8073ffffffffffffffffffffffffffffffffffffffff166104b3610adb565b73ffffffffffffffffffffffffffffffffffffffff1614806104e257506104e1816104dc610adb565b61091a565b5b610521576040517f08c379a000000000000000000000000000000000000000000000000000000000815260040161051890611d4e565b60405180910390fd5b61052b8383610ae3565b505050565b61054161053b610adb565b82610b9c565b610580576040517f08c379a000000000000000000000000000000000000000000000000000000000815260040161057790611dee565b60405180910390fd5b61058b838383610c31565b505050565b6105ab8383836040518060200160405280600081525061088c565b505050565b6000806002600084815260200190815260200160002060009054906101000a900473ffffffffffffffffffffffffffffffffffffffff169050600073ffffffffffffffffffffffffffffffffffffffff168173ffffffffffffffffffffffffffffffffffffffff161415610659576040517f08c379a000000000000000000000000000000000000000000000000000000000815260040161065090611d8e565b60405180910390fd5b80915050919050565b60008073ffffffffffffffffffffffffffffffffffffffff168273ffffffffffffffffffffffffffffffffffffffff1614156106d3576040517f08c379a00000000000000000000000000000000000000000000000000000000081526004016106ca90611d2e565b60405180910390fd5b600360008373ffffffffffffffffffffffffffffffffffffffff1673ffffffffffffffffffffffffffffffffffffffff168152602001908152602001600020549050919050565b6060600682604051602001610730929190611bac565b6040516020818303038152906040529050919050565b600760009054906101000a900473ffffffffffffffffffffffffffffffffffffffff1673ffffffffffffffffffffffffffffffffffffffff163373ffffffffffffffffffffffffffffffffffffffff16146107d6576040517f08c379a00000000000000000000000000000000000000000000000000000000081526004016107cd90611dce565b60405180910390fd5b6107e08183610e98565b5050565b6060600180546107f390612017565b80601f016020809104026020016040519081016040528092919081815260200182805461081f90612017565b801561086c5780601f106108415761010080835404028352916020019161086c565b820191906000526020600020905b81548152906001019060200180831161084f57829003601f168201915b5050505050905090565b610888610881610adb565b8383610eb6565b5050565b61089d610897610adb565b83610b9c565b6108dc576040517f08c379a00000000000000000000000000000000000000000000000000000000081526004016108d390611dee565b60405180910390fd5b6108e884848484611023565b50505050565b6060600682604051602001610904929190611bac565b6040516020818303038152906040529050919050565b6000600560008473ffffffffffffffffffffffffffffffffffffffff1673ffffffffffffffffffffffffffffffffffffffff16815260200190815260200160002060008373ffffffffffffffffffffffffffffffffffffffff1673ffffffffffffffffffffffffffffffffffffffff16815260200190815260200160002060009054906101000a900460ff16905092915050565b60007f80ac58cd000000000000000000000000000000000000000000000000000000007bffffffffffffffffffffffffffffffffffffffffffffffffffffffff1916827bffffffffffffffffffffffffffffffffffffffffffffffffffffffff19161480610a7957507f5b5e139f000000000000000000000000000000000000000000000000000000007bffffffffffffffffffffffffffffffffffffffffffffffffffffffff1916827bffffffffffffffffffffffffffffffffffffffffffffffffffffffff1916145b80610a895750610a888261107f565b5b9050919050565b610a99816110e9565b610ad8576040517f08c379a0000000000000000000000000000000000000000000000000000000008152600401610acf90611d8e565b60405180910390fd5b50565b600033905090565b816004600083815260200190815260200160002060006101000a81548173ffffffffffffffffffffffffffffffffffffffff021916908373ffffffffffffffffffffffffffffffffffffffff160217905550808273ffffffffffffffffffffffffffffffffffffffff16610b56836105b0565b73ffffffffffffffffffffffffffffffffffffffff167f8c5be1e5ebec7d5bd14f71427d1e84f3dd0314c0f7b2291e5b200ac8c7c3b92560405160405180910390a45050565b600080610ba8836105b0565b90508073ffffffffffffffffffffffffffffffffffffffff168473ffffffffffffffffffffffffffffffffffffffff161480610bea5750610be9818561091a565b5b80610c2857508373ffffffffffffffffffffffffffffffffffffffff16610c10846103d2565b73ffffffffffffffffffffffffffffffffffffffff16145b91505092915050565b8273ffffffffffffffffffffffffffffffffffffffff16610c51826105b0565b73ffffffffffffffffffffffffffffffffffffffff1614610ca7576040517f08c379a0000000000000000000000000000000000000000000000000000000008152600401610c9e90611cae565b60405180910390fd5b600073ffffffffffffffffffffffffffffffffffffffff168273ffffffffffffffffffffffffffffffffffffffff161415610d17576040517f08c379a0000000000000000000000000000000000000000000000000000000008152600401610d0e90611cee565b60405180910390fd5b610d22838383611155565b610d2d600082610ae3565b6001600360008573ffffffffffffffffffffffffffffffffffffffff1673ffffffffffffffffffffffffffffffffffffffff1681526020019081526020016000206000828254610d7d9190611f2d565b925050819055506001600360008473ffffffffffffffffffffffffffffffffffffffff1673ffffffffffffffffffffffffffffffffffffffff1681526020019081526020016000206000828254610dd49190611ed7565b92505081905550816002600083815260200190815260200160002060006101000a81548173ffffffffffffffffffffffffffffffffffffffff021916908373ffffffffffffffffffffffffffffffffffffffff160217905550808273ffffffffffffffffffffffffffffffffffffffff168473ffffffffffffffffffffffffffffffffffffffff167fddf252ad1be2c89b69c2b068fc378daa952ba7f163c4a11628f55a4df523b3ef60405160405180910390a4610e93838383611165565b505050565b610eb282826040518060200160405280600081525061116a565b5050565b8173ffffffffffffffffffffffffffffffffffffffff168373ffffffffffffffffffffffffffffffffffffffff161415610f25576040517f08c379a0000000000000000000000000000000000000000000000000000000008152600401610f1c90611d0e565b60405180910390fd5b80600560008573ffffffffffffffffffffffffffffffffffffffff1673ffffffffffffffffffffffffffffffffffffffff16815260200190815260200160002060008473ffffffffffffffffffffffffffffffffffffffff1673ffffffffffffffffffffffffffffffffffffffff16815260200190815260200160002060006101000a81548160ff0219169083151502179055508173ffffffffffffffffffffffffffffffffffffffff168373ffffffffffffffffffffffffffffffffffffffff167f17307eab39ab6107e8899845ad3d59bd9653f200f220920489ca2b5937696c31836040516110169190611c51565b60405180910390a3505050565b61102e848484610c31565b61103a848484846111c5565b611079576040517f08c379a000000000000000000000000000000000000000000000000000000000815260040161107090611c8e565b60405180910390fd5b50505050565b60007f01ffc9a7000000000000000000000000000000000000000000000000000000007bffffffffffffffffffffffffffffffffffffffffffffffffffffffff1916827bffffffffffffffffffffffffffffffffffffffffffffffffffffffff1916149050919050565b60008073ffffffffffffffffffffffffffffffffffffffff166002600084815260200190815260200160002060009054906101000a900473ffffffffffffffffffffffffffffffffffffffff1673ffffffffffffffffffffffffffffffffffffffff1614159050919050565b61116083838361135c565b505050565b505050565b6111748383611361565b61118160008484846111c5565b6111c0576040517f08c379a00000000000000000000000000000000000000000000000000000000081526004016111b790611c8e565b60405180910390fd5b505050565b60006111e68473ffffffffffffffffffffffffffffffffffffffff1661153b565b1561134f578373ffffffffffffffffffffffffffffffffffffffff1663150b7a0261120f610adb565b8786866040518563ffffffff1660e01b81526004016112319493929190611c05565b602060405180830381600087803b15801561124b57600080fd5b505af192505050801561127c57506040513d601f19601f8201168201806040525081019061127991906117ff565b60015b6112ff573d80600081146112ac576040519150601f19603f3d011682016040523d82523d6000602084013e6112b1565b606091505b506000815114156112f7576040517f08c379a00000000000000000000000000000000000000000000000000000000081526004016112ee90611c8e565b60405180910390fd5b805181602001fd5b63150b7a0260e01b7bffffffffffffffffffffffffffffffffffffffffffffffffffffffff1916817bffffffffffffffffffffffffffffffffffffffffffffffffffffffff191614915050611354565b600190505b949350505050565b505050565b600073ffffffffffffffffffffffffffffffffffffffff168273ffffffffffffffffffffffffffffffffffffffff1614156113d1576040517f08c379a00000000000000000000000000000000000000000000000000000000081526004016113c890611d6e565b60405180910390fd5b6113da816110e9565b1561141a576040517f08c379a000000000000000000000000000000000000000000000000000000000815260040161141190611cce565b60405180910390fd5b61142660008383611155565b6001600360008473ffffffffffffffffffffffffffffffffffffffff1673ffffffffffffffffffffffffffffffffffffffff16815260200190815260200160002060008282546114769190611ed7565b92505081905550816002600083815260200190815260200160002060006101000a81548173ffffffffffffffffffffffffffffffffffffffff021916908373ffffffffffffffffffffffffffffffffffffffff160217905550808273ffffffffffffffffffffffffffffffffffffffff16600073ffffffffffffffffffffffffffffffffffffffff167fddf252ad1be2c89b69c2b068fc378daa952ba7f163c4a11628f55a4df523b3ef60405160405180910390a461153760008383611165565b5050565b6000808273ffffffffffffffffffffffffffffffffffffffff163b119050919050565b600061157161156c84611e4e565b611e29565b90508281526020810184848401111561158957600080fd5b611594848285611fd5565b509392505050565b6000813590506115ab8161246a565b92915050565b6000813590506115c081612481565b92915050565b6000813590506115d581612498565b92915050565b6000815190506115ea81612498565b92915050565b600082601f83011261160157600080fd5b813561161184826020860161155e565b91505092915050565b600081359050611629816124af565b92915050565b60006020828403121561164157600080fd5b600061164f8482850161159c565b91505092915050565b6000806040838503121561166b57600080fd5b60006116798582860161159c565b925050602061168a8582860161159c565b9150509250929050565b6000806000606084860312156116a957600080fd5b60006116b78682870161159c565b93505060206116c88682870161159c565b92505060406116d98682870161161a565b9150509250925092565b600080600080608085870312156116f957600080fd5b60006117078782880161159c565b94505060206117188782880161159c565b93505060406117298782880161161a565b925050606085013567ffffffffffffffff81111561174657600080fd5b611752878288016115f0565b91505092959194509250565b6000806040838503121561177157600080fd5b600061177f8582860161159c565b9250506020611790858286016115b1565b9150509250929050565b600080604083850312156117ad57600080fd5b60006117bb8582860161159c565b92505060206117cc8582860161161a565b9150509250929050565b6000602082840312156117e857600080fd5b60006117f6848285016115c6565b91505092915050565b60006020828403121561181157600080fd5b600061181f848285016115db565b91505092915050565b60006020828403121561183a57600080fd5b60006118488482850161161a565b91505092915050565b6000806040838503121561186457600080fd5b60006118728582860161161a565b92505060206118838582860161159c565b9150509250929050565b61189681611f61565b82525050565b6118a581611f73565b82525050565b60006118b682611e94565b6118c08185611eaa565b93506118d0818560208601611fe4565b6118d981612111565b840191505092915050565b60006118ef82611e9f565b6118f98185611ebb565b9350611909818560208601611fe4565b61191281612111565b840191505092915050565b6000815461192a81612017565b6119348186611ecc565b9450600182166000811461194f576001811461196057611993565b60ff19831686528186019350611993565b61196985611e7f565b60005b8381101561198b5781548189015260018201915060208101905061196c565b838801955050505b50505092915050565b60006119a9603283611ebb565b91506119b482612122565b604082019050919050565b60006119cc602583611ebb565b91506119d782612171565b604082019050919050565b60006119ef601c83611ebb565b91506119fa826121c0565b602082019050919050565b6000611a12602483611ebb565b9150611a1d826121e9565b604082019050919050565b6000611a35601983611ebb565b9150611a4082612238565b602082019050919050565b6000611a58602983611ebb565b9150611a6382612261565b604082019050919050565b6000611a7b603e83611ebb565b9150611a86826122b0565b604082019050919050565b6000611a9e602083611ebb565b9150611aa9826122ff565b602082019050919050565b6000611ac1600583611ecc565b9150611acc82612328565b600582019050919050565b6000611ae4601883611ebb565b9150611aef82612351565b602082019050919050565b6000611b07602183611ebb565b9150611b128261237a565b604082019050919050565b6000611b2a601683611ebb565b9150611b35826123c9565b602082019050919050565b6000611b4d602e83611ebb565b9150611b58826123f2565b604082019050919050565b6000611b70600183611ecc565b9150611b7b82612441565b600182019050919050565b611b8f81611fcb565b82525050565b611ba6611ba182611fcb565b61207a565b82525050565b6000611bb8828561191d565b9150611bc382611b63565b9150611bcf8284611b95565b602082019150611bde82611ab4565b91508190509392505050565b6000602082019050611bff600083018461188d565b92915050565b6000608082019050611c1a600083018761188d565b611c27602083018661188d565b611c346040830185611b86565b8181036060830152611c4681846118ab565b905095945050505050565b6000602082019050611c66600083018461189c565b92915050565b60006020820190508181036000830152611c8681846118e4565b905092915050565b60006020820190508181036000830152611ca78161199c565b9050919050565b60006020820190508181036000830152611cc7816119bf565b9050919050565b60006020820190508181036000830152611ce7816119e2565b9050919050565b60006020820190508181036000830152611d0781611a05565b9050919050565b60006020820190508181036000830152611d2781611a28565b9050919050565b60006020820190508181036000830152611d4781611a4b565b9050919050565b60006020820190508181036000830152611d6781611a6e565b9050919050565b60006020820190508181036000830152611d8781611a91565b9050919050565b60006020820190508181036000830152611da781611ad7565b9050919050565b60006020820190508181036000830152611dc781611afa565b9050919050565b60006020820190508181036000830152611de781611b1d565b9050919050565b60006020820190508181036000830152611e0781611b40565b9050919050565b6000602082019050611e236000830184611b86565b92915050565b6000611e33611e44565b9050611e3f8282612049565b919050565b6000604051905090565b600067ffffffffffffffff821115611e6957611e686120e2565b5b611e7282612111565b9050602081019050919050565b60008190508160005260206000209050919050565b600081519050919050565b600081519050919050565b600082825260208201905092915050565b600082825260208201905092915050565b600081905092915050565b6000611ee282611fcb565b9150611eed83611fcb565b9250827fffffffffffffffffffffffffffffffffffffffffffffffffffffffffffffffff03821115611f2257611f21612084565b5b828201905092915050565b6000611f3882611fcb565b9150611f4383611fcb565b925082821015611f5657611f55612084565b5b828203905092915050565b6000611f6c82611fab565b9050919050565b60008115159050919050565b60007fffffffff0000000000000000000000000000000000000000000000000000000082169050919050565b600073ffffffffffffffffffffffffffffffffffffffff82169050919050565b6000819050919050565b82818337600083830152505050565b60005b83811015612002578082015181840152602081019050611fe7565b83811115612011576000848401525b50505050565b6000600282049050600182168061202f57607f821691505b60208210811415612043576120426120b3565b5b50919050565b61205282612111565b810181811067ffffffffffffffff82111715612071576120706120e2565b5b80604052505050565b6000819050919050565b7f4e487b7100000000000000000000000000000000000000000000000000000000600052601160045260246000fd5b7f4e487b7100000000000000000000000000000000000000000000000000000000600052602260045260246000fd5b7f4e487b7100000000000000000000000000000000000000000000000000000000600052604160045260246000fd5b6000601f19601f8301169050919050565b7f4552433732313a207472616e7366657220746f206e6f6e20455243373231526560008201527f63656976657220696d706c656d656e7465720000000000000000000000000000602082015250565b7f4552433732313a207472616e736665722066726f6d20696e636f72726563742060008201527f6f776e6572000000000000000000000000000000000000000000000000000000602082015250565b7f4552433732313a20746f6b656e20616c7265616479206d696e74656400000000600082015250565b7f4552433732313a207472616e7366657220746f20746865207a65726f2061646460008201527f7265737300000000000000000000000000000000000000000000000000000000602082015250565b7f4552433732313a20617070726f766520746f2063616c6c657200000000000000600082015250565b7f4552433732313a2061646472657373207a65726f206973206e6f74206120766160008201527f6c6964206f776e65720000000000000000000000000000000000000000000000602082015250565b7f4552433732313a20617070726f76652063616c6c6572206973206e6f7420746f60008201527f6b656e206f776e6572206e6f7220617070726f76656420666f7220616c6c0000602082015250565b7f4552433732313a206d696e7420746f20746865207a65726f2061646472657373600082015250565b7f2e6a736f6e000000000000000000000000000000000000000000000000000000600082015250565b7f4552433732313a20696e76616c696420746f6b656e2049440000000000000000600082015250565b7f4552433732313a20617070726f76616c20746f2063757272656e74206f776e6560008201527f7200000000000000000000000000000000000000000000000000000000000000602082015250565b7f4f6e6c79204e667453746f72652063616e206d696e7400000000000000000000600082015250565b7f4552433732313a2063616c6c6572206973206e6f7420746f6b656e206f776e6560008201527f72206e6f7220617070726f766564000000000000000000000000000000000000602082015250565b7f2f00000000000000000000000000000000000000000000000000000000000000600082015250565b61247381611f61565b811461247e57600080fd5b50565b61248a81611f73565b811461249557600080fd5b50565b6124a181611f7f565b81146124ac57600080fd5b50565b6124b881611fcb565b81146124c357600080fd5b5056fea2646970667358221220efdff53101dc44d90431bec41d9640ef5b1bd3623a787e9879a9612af4b4dcbf64736f6c63430008040033",
  "linkReferences": {},
  "deployedLinkReferences": {}
}