{
  "_format": "hh-sol-artifact-1",
  "contractName": "NftCollection",
  "sourceName": "src/contracts/CollectionFactory.sol",
  "abi": [
    {
      "inputs": [
        {
          "internalType": "string",
          "name": "_tokenName",
          "type": "string"
        },
        {
          "internalType": "string",
          "name": "_tokenSymbol",
          "type": "string"
        },
        {
          "internalType": "string",
          "name": "_baseUri",
          "type": "string"
        },
        {
          "internalType": "address",
          "name": "_nftStoreAddress",
          "type": "address"
        }
      ],
      "stateMutability": "nonpayable",
      "type": "constructor"
    },
    {
      "anonymous": false,
      "inputs": [
        {
          "indexed": true,
          "internalType": "address",
          "name": "owner",
          "type": "address"
        },
        {
          "indexed": true,
          "internalType": "address",
          "name": "approved",
          "type": "address"
        },
        {
          "indexed": true,
          "internalType": "uint256",
          "name": "tokenId",
          "type": "uint256"
        }
      ],
      "name": "Approval",
      "type": "event"
    },
    {
      "anonymous": false,
      "inputs": [
        {
          "indexed": true,
          "internalType": "address",
          "name": "owner",
          "type": "address"
        },
        {
          "indexed": true,
          "internalType": "address",
          "name": "operator",
          "type": "address"
        },
        {
          "indexed": false,
          "internalType": "bool",
          "name": "approved",
          "type": "bool"
        }
      ],
      "name": "ApprovalForAll",
      "type": "event"
    },
    {
      "anonymous": false,
      "inputs": [
        {
          "indexed": true,
          "internalType": "address",
          "name": "from",
          "type": "address"
        },
        {
          "indexed": true,
          "internalType": "address",
          "name": "to",
          "type": "address"
        },
        {
          "indexed": true,
          "internalType": "uint256",
          "name": "tokenId",
          "type": "uint256"
        }
      ],
      "name": "Transfer",
      "type": "event"
    },
    {
      "inputs": [
        {
          "internalType": "address",
          "name": "to",
          "type": "address"
        },
        {
          "internalType": "uint256",
          "name": "tokenId",
          "type": "uint256"
        }
      ],
      "name": "approve",
      "outputs": [],
      "stateMutability": "nonpayable",
      "type": "function"
    },
    {
      "inputs": [
        {
          "internalType": "address",
          "name": "owner",
          "type": "address"
        }
      ],
      "name": "balanceOf",
      "outputs": [
        {
          "internalType": "uint256",
          "name": "",
          "type": "uint256"
        }
      ],
      "stateMutability": "view",
      "type": "function"
    },
    {
      "inputs": [
        {
          "internalType": "uint256",
          "name": "tokenId",
          "type": "uint256"
        }
      ],
      "name": "getApproved",
      "outputs": [
        {
          "internalType": "address",
          "name": "",
          "type": "address"
        }
      ],
      "stateMutability": "view",
      "type": "function"
    },
    {
      "inputs": [
        {
          "internalType": "uint256",
          "name": "_tokenId",
          "type": "uint256"
        }
      ],
      "name": "getTokenUri",
      "outputs": [
        {
          "internalType": "string",
          "name": "",
          "type": "string"
        }
      ],
      "stateMutability": "view",
      "type": "function"
    },
    {
      "inputs": [
        {
          "internalType": "address",
          "name": "owner",
          "type": "address"
        },
        {
          "internalType": "address",
          "name": "operator",
          "type": "address"
        }
      ],
      "name": "isApprovedForAll",
      "outputs": [
        {
          "internalType": "bool",
          "name": "",
          "type": "bool"
        }
      ],
      "stateMutability": "view",
      "type": "function"
    },
    {
      "inputs": [
        {
          "internalType": "uint256",
          "name": "_nftIndex",
          "type": "uint256"
        },
        {
          "internalType": "address",
          "name": "_nftOwner",
          "type": "address"
        }
      ],
      "name": "mint",
      "outputs": [],
      "stateMutability": "nonpayable",
      "type": "function"
    },
    {
      "inputs": [],
      "name": "name",
      "outputs": [
        {
          "internalType": "string",
          "name": "",
          "type": "string"
        }
      ],
      "stateMutability": "view",
      "type": "function"
    },
    {
      "inputs": [
        {
          "internalType": "uint256",
          "name": "tokenId",
          "type": "uint256"
        }
      ],
      "name": "ownerOf",
      "outputs": [
        {
          "internalType": "address",
          "name": "",
          "type": "address"
        }
      ],
      "stateMutability": "view",
      "type": "function"
    },
    {
      "inputs": [
        {
          "internalType": "address",
          "name": "from",
          "type": "address"
        },
        {
          "internalType": "address",
          "name": "to",
          "type": "address"
        },
        {
          "internalType": "uint256",
          "name": "tokenId",
          "type": "uint256"
        }
      ],
      "name": "safeTransferFrom",
      "outputs": [],
      "stateMutability": "nonpayable",
      "type": "function"
    },
    {
      "inputs": [
        {
          "internalType": "address",
          "name": "from",
          "type": "address"
        },
        {
          "internalType": "address",
          "name": "to",
          "type": "address"
        },
        {
          "internalType": "uint256",
          "name": "tokenId",
          "type": "uint256"
        },
        {
          "internalType": "bytes",
          "name": "data",
          "type": "bytes"
        }
      ],
      "name": "safeTransferFrom",
      "outputs": [],
      "stateMutability": "nonpayable",
      "type": "function"
    },
    {
      "inputs": [
        {
          "internalType": "address",
          "name": "operator",
          "type": "address"
        },
        {
          "internalType": "bool",
          "name": "approved",
          "type": "bool"
        }
      ],
      "name": "setApprovalForAll",
      "outputs": [],
      "stateMutability": "nonpayable",
      "type": "function"
    },
    {
      "inputs": [
        {
          "internalType": "bytes4",
          "name": "interfaceId",
          "type": "bytes4"
        }
      ],
      "name": "supportsInterface",
      "outputs": [
        {
          "internalType": "bool",
          "name": "",
          "type": "bool"
        }
      ],
      "stateMutability": "view",
      "type": "function"
    },
    {
      "inputs": [],
      "name": "symbol",
      "outputs": [
        {
          "internalType": "string",
          "name": "",
          "type": "string"
        }
      ],
      "stateMutability": "view",
      "type": "function"
    },
    {
      "inputs": [
        {
          "internalType": "uint256",
          "name": "tokenId",
          "type": "uint256"
        }
      ],
      "name": "tokenURI",
      "outputs": [
        {
          "internalType": "string",
          "name": "",
          "type": "string"
        }
      ],
      "stateMutability": "view",
      "type": "function"
    },
    {
      "inputs": [
        {
          "internalType": "address",
          "name": "from",
          "type": "address"
        },
        {
          "internalType": "address",
          "name": "to",
          "type": "address"
        },
        {
          "internalType": "uint256",
          "name": "tokenId",
          "type": "uint256"
        }
      ],
      "name": "transferFrom",
      "outputs": [],
      "stateMutability": "nonpayable",
      "type": "function"
    }
  ],
  "bytecode": "0x60806040523480156200001157600080fd5b5060405162002d3538038062002d3583398181016040528101906200003791906200020a565b8383816000908051906020019062000051929190620000d1565b5080600190805190602001906200006a929190620000d1565b505050816006908051906020019062000085929190620000d1565b5080600760006101000a81548173ffffffffffffffffffffffffffffffffffffffff021916908373ffffffffffffffffffffffffffffffffffffffff160217905550505050506200047f565b828054620000df906200038a565b90600052602060002090601f0160209004810192826200010357600085556200014f565b82601f106200011e57805160ff19168380011785556200014f565b828001600101855582156200014f579182015b828111156200014e57825182559160200191906001019062000131565b5b5090506200015e919062000162565b5090565b5b808211156200017d57600081600090555060010162000163565b5090565b6000620001986200019284620002ea565b620002c1565b905082815260208101848484011115620001b157600080fd5b620001be84828562000354565b509392505050565b600081519050620001d78162000465565b92915050565b600082601f830112620001ef57600080fd5b81516200020184826020860162000181565b91505092915050565b600080600080608085870312156200022157600080fd5b600085015167ffffffffffffffff8111156200023c57600080fd5b6200024a87828801620001dd565b945050602085015167ffffffffffffffff8111156200026857600080fd5b6200027687828801620001dd565b935050604085015167ffffffffffffffff8111156200029457600080fd5b620002a287828801620001dd565b9250506060620002b587828801620001c6565b91505092959194509250565b6000620002cd620002e0565b9050620002db8282620003c0565b919050565b6000604051905090565b600067ffffffffffffffff82111562000308576200030762000425565b5b620003138262000454565b9050602081019050919050565b60006200032d8262000334565b9050919050565b600073ffffffffffffffffffffffffffffffffffffffff82169050919050565b60005b838110156200037457808201518184015260208101905062000357565b8381111562000384576000848401525b50505050565b60006002820490506001821680620003a357607f821691505b60208210811415620003ba57620003b9620003f6565b5b50919050565b620003cb8262000454565b810181811067ffffffffffffffff82111715620003ed57620003ec62000425565b5b80604052505050565b7f4e487b7100000000000000000000000000000000000000000000000000000000600052602260045260246000fd5b7f4e487b7100000000000000000000000000000000000000000000000000000000600052604160045260246000fd5b6000601f19601f8301169050919050565b620004708162000320565b81146200047c57600080fd5b50565b6128a6806200048f6000396000f3fe608060405234801561001057600080fd5b50600436106100f55760003560e01c806370a0823111610097578063a22cb46511610066578063a22cb46514610296578063b88d4fde146102b2578063c87b56dd146102ce578063e985e9c5146102fe576100f5565b806370a08231146101fc5780638ad913451461022c57806394bf804d1461025c57806395d89b4114610278576100f5565b8063095ea7b3116100d3578063095ea7b31461017857806323b872dd1461019457806342842e0e146101b05780636352211e146101cc576100f5565b806301ffc9a7146100fa57806306fdde031461012a578063081812fc14610148575b600080fd5b610114600480360381019061010f9190611a51565b61032e565b6040516101219190611f21565b60405180910390f35b610132610340565b60405161013f9190611f3c565b60405180910390f35b610162600480360381019061015d9190611aa3565b6103d2565b60405161016f9190611eba565b60405180910390f35b610192600480360381019061018d9190611a15565b610418565b005b6101ae60048036038101906101a9919061190f565b610530565b005b6101ca60048036038101906101c5919061190f565b610590565b005b6101e660048036038101906101e19190611aa3565b6105b0565b6040516101f39190611eba565b60405180910390f35b610216600480360381019061021191906118aa565b610662565b60405161022391906120de565b60405180910390f35b61024660048036038101906102419190611aa3565b61071a565b6040516102539190611f3c565b60405180910390f35b61027660048036038101906102719190611acc565b610746565b005b6102806107e4565b60405161028d9190611f3c565b60405180910390f35b6102b060048036038101906102ab91906119d9565b610876565b005b6102cc60048036038101906102c7919061195e565b61088c565b005b6102e860048036038101906102e39190611aa3565b6108ee565b6040516102f59190611f3c565b60405180910390f35b610318600480360381019061031391906118d3565b610956565b6040516103259190611f21565b60405180910390f35b6000610339826109ea565b9050919050565b60606000805461034f90612318565b80601f016020809104026020016040519081016040528092919081815260200182805461037b90612318565b80156103c85780601f1061039d576101008083540402835291602001916103c8565b820191906000526020600020905b8154815290600101906020018083116103ab57829003601f168201915b5050505050905090565b60006103dd82610acc565b6004600083815260200190815260200160002060009054906101000a900473ffffffffffffffffffffffffffffffffffffffff169050919050565b6000610423826105b0565b90508073ffffffffffffffffffffffffffffffffffffffff168373ffffffffffffffffffffffffffffffffffffffff161415610494576040517f08c379a000000000000000000000000000000000000000000000000000000000815260040161048b9061207e565b60405180910390fd5b8073ffffffffffffffffffffffffffffffffffffffff166104b3610b17565b73ffffffffffffffffffffffffffffffffffffffff1614806104e257506104e1816104dc610b17565b610956565b5b610521576040517f08c379a00000000000000000000000000000000000000000000000000000000081526004016105189061201e565b60405180910390fd5b61052b8383610b1f565b505050565b61054161053b610b17565b82610bd8565b610580576040517f08c379a0000000000000000000000000000000000000000000000000000000008152600401610577906120be565b60405180910390fd5b61058b838383610c6d565b505050565b6105ab8383836040518060200160405280600081525061088c565b505050565b6000806002600084815260200190815260200160002060009054906101000a900473ffffffffffffffffffffffffffffffffffffffff169050600073ffffffffffffffffffffffffffffffffffffffff168173ffffffffffffffffffffffffffffffffffffffff161415610659576040517f08c379a00000000000000000000000000000000000000000000000000000000081526004016106509061205e565b60405180910390fd5b80915050919050565b60008073ffffffffffffffffffffffffffffffffffffffff168273ffffffffffffffffffffffffffffffffffffffff1614156106d3576040517f08c379a00000000000000000000000000000000000000000000000000000000081526004016106ca90611ffe565b60405180910390fd5b600360008373ffffffffffffffffffffffffffffffffffffffff1673ffffffffffffffffffffffffffffffffffffffff168152602001908152602001600020549050919050565b6060600682604051602001610730929190611e7c565b6040516020818303038152906040529050919050565b600760009054906101000a900473ffffffffffffffffffffffffffffffffffffffff1673ffffffffffffffffffffffffffffffffffffffff163373ffffffffffffffffffffffffffffffffffffffff16146107d6576040517f08c379a00000000000000000000000000000000000000000000000000000000081526004016107cd9061209e565b60405180910390fd5b6107e08183610ed4565b5050565b6060600180546107f390612318565b80601f016020809104026020016040519081016040528092919081815260200182805461081f90612318565b801561086c5780601f106108415761010080835404028352916020019161086c565b820191906000526020600020905b81548152906001019060200180831161084f57829003601f168201915b5050505050905090565b610888610881610b17565b8383610ef2565b5050565b61089d610897610b17565b83610bd8565b6108dc576040517f08c379a00000000000000000000000000000000000000000000000000000000081526004016108d3906120be565b60405180910390fd5b6108e88484848461105f565b50505050565b60606108f982610acc565b60006109036110bb565b90506000815111610923576040518060200160405280600081525061094e565b8061092d8461114d565b60405160200161093e929190611e58565b6040516020818303038152906040525b915050919050565b6000600560008473ffffffffffffffffffffffffffffffffffffffff1673ffffffffffffffffffffffffffffffffffffffff16815260200190815260200160002060008373ffffffffffffffffffffffffffffffffffffffff1673ffffffffffffffffffffffffffffffffffffffff16815260200190815260200160002060009054906101000a900460ff16905092915050565b60007f80ac58cd000000000000000000000000000000000000000000000000000000007bffffffffffffffffffffffffffffffffffffffffffffffffffffffff1916827bffffffffffffffffffffffffffffffffffffffffffffffffffffffff19161480610ab557507f5b5e139f000000000000000000000000000000000000000000000000000000007bffffffffffffffffffffffffffffffffffffffffffffffffffffffff1916827bffffffffffffffffffffffffffffffffffffffffffffffffffffffff1916145b80610ac55750610ac4826112fa565b5b9050919050565b610ad581611364565b610b14576040517f08c379a0000000000000000000000000000000000000000000000000000000008152600401610b0b9061205e565b60405180910390fd5b50565b600033905090565b816004600083815260200190815260200160002060006101000a81548173ffffffffffffffffffffffffffffffffffffffff021916908373ffffffffffffffffffffffffffffffffffffffff160217905550808273ffffffffffffffffffffffffffffffffffffffff16610b92836105b0565b73ffffffffffffffffffffffffffffffffffffffff167f8c5be1e5ebec7d5bd14f71427d1e84f3dd0314c0f7b2291e5b200ac8c7c3b92560405160405180910390a45050565b600080610be4836105b0565b90508073ffffffffffffffffffffffffffffffffffffffff168473ffffffffffffffffffffffffffffffffffffffff161480610c265750610c258185610956565b5b80610c6457508373ffffffffffffffffffffffffffffffffffffffff16610c4c846103d2565b73ffffffffffffffffffffffffffffffffffffffff16145b91505092915050565b8273ffffffffffffffffffffffffffffffffffffffff16610c8d826105b0565b73ffffffffffffffffffffffffffffffffffffffff1614610ce3576040517f08c379a0000000000000000000000000000000000000000000000000000000008152600401610cda90611f7e565b60405180910390fd5b600073ffffffffffffffffffffffffffffffffffffffff168273ffffffffffffffffffffffffffffffffffffffff161415610d53576040517f08c379a0000000000000000000000000000000000000000000000000000000008152600401610d4a90611fbe565b60405180910390fd5b610d5e8383836113d0565b610d69600082610b1f565b6001600360008573ffffffffffffffffffffffffffffffffffffffff1673ffffffffffffffffffffffffffffffffffffffff1681526020019081526020016000206000828254610db9919061222e565b925050819055506001600360008473ffffffffffffffffffffffffffffffffffffffff1673ffffffffffffffffffffffffffffffffffffffff1681526020019081526020016000206000828254610e1091906121a7565b92505081905550816002600083815260200190815260200160002060006101000a81548173ffffffffffffffffffffffffffffffffffffffff021916908373ffffffffffffffffffffffffffffffffffffffff160217905550808273ffffffffffffffffffffffffffffffffffffffff168473ffffffffffffffffffffffffffffffffffffffff167fddf252ad1be2c89b69c2b068fc378daa952ba7f163c4a11628f55a4df523b3ef60405160405180910390a4610ecf8383836113e0565b505050565b610eee8282604051806020016040528060008152506113e5565b5050565b8173ffffffffffffffffffffffffffffffffffffffff168373ffffffffffffffffffffffffffffffffffffffff161415610f61576040517f08c379a0000000000000000000000000000000000000000000000000000000008152600401610f5890611fde565b60405180910390fd5b80600560008573ffffffffffffffffffffffffffffffffffffffff1673ffffffffffffffffffffffffffffffffffffffff16815260200190815260200160002060008473ffffffffffffffffffffffffffffffffffffffff1673ffffffffffffffffffffffffffffffffffffffff16815260200190815260200160002060006101000a81548160ff0219169083151502179055508173ffffffffffffffffffffffffffffffffffffffff168373ffffffffffffffffffffffffffffffffffffffff167f17307eab39ab6107e8899845ad3d59bd9653f200f220920489ca2b5937696c31836040516110529190611f21565b60405180910390a3505050565b61106a848484610c6d565b61107684848484611440565b6110b5576040517f08c379a00000000000000000000000000000000000000000000000000000000081526004016110ac90611f5e565b60405180910390fd5b50505050565b6060600680546110ca90612318565b80601f01602080910402602001604051908101604052809291908181526020018280546110f690612318565b80156111435780601f1061111857610100808354040283529160200191611143565b820191906000526020600020905b81548152906001019060200180831161112657829003601f168201915b5050505050905090565b60606000821415611195576040518060400160405280600181526020017f300000000000000000000000000000000000000000000000000000000000000081525090506112f5565b600082905060005b600082146111c75780806111b09061237b565b915050600a826111c091906121fd565b915061119d565b60008167ffffffffffffffff811115611209577f4e487b7100000000000000000000000000000000000000000000000000000000600052604160045260246000fd5b6040519080825280601f01601f19166020018201604052801561123b5781602001600182028036833780820191505090505b5090505b600085146112ee57600182611254919061222e565b9150600a8561126391906123ce565b603061126f91906121a7565b60f81b8183815181106112ab577f4e487b7100000000000000000000000000000000000000000000000000000000600052603260045260246000fd5b60200101907effffffffffffffffffffffffffffffffffffffffffffffffffffffffffffff1916908160001a905350600a856112e791906121fd565b945061123f565b8093505050505b919050565b60007f01ffc9a7000000000000000000000000000000000000000000000000000000007bffffffffffffffffffffffffffffffffffffffffffffffffffffffff1916827bffffffffffffffffffffffffffffffffffffffffffffffffffffffff1916149050919050565b60008073ffffffffffffffffffffffffffffffffffffffff166002600084815260200190815260200160002060009054906101000a900473ffffffffffffffffffffffffffffffffffffffff1673ffffffffffffffffffffffffffffffffffffffff1614159050919050565b6113db8383836115d7565b505050565b505050565b6113ef83836115dc565b6113fc6000848484611440565b61143b576040517f08c379a000000000000000000000000000000000000000000000000000000000815260040161143290611f5e565b60405180910390fd5b505050565b60006114618473ffffffffffffffffffffffffffffffffffffffff166117b6565b156115ca578373ffffffffffffffffffffffffffffffffffffffff1663150b7a0261148a610b17565b8786866040518563ffffffff1660e01b81526004016114ac9493929190611ed5565b602060405180830381600087803b1580156114c657600080fd5b505af19250505080156114f757506040513d601f19601f820116820180604052508101906114f49190611a7a565b60015b61157a573d8060008114611527576040519150601f19603f3d011682016040523d82523d6000602084013e61152c565b606091505b50600081511415611572576040517f08c379a000000000000000000000000000000000000000000000000000000000815260040161156990611f5e565b60405180910390fd5b805181602001fd5b63150b7a0260e01b7bffffffffffffffffffffffffffffffffffffffffffffffffffffffff1916817bffffffffffffffffffffffffffffffffffffffffffffffffffffffff1916149150506115cf565b600190505b949350505050565b505050565b600073ffffffffffffffffffffffffffffffffffffffff168273ffffffffffffffffffffffffffffffffffffffff16141561164c576040517f08c379a00000000000000000000000000000000000000000000000000000000081526004016116439061203e565b60405180910390fd5b61165581611364565b15611695576040517f08c379a000000000000000000000000000000000000000000000000000000000815260040161168c90611f9e565b60405180910390fd5b6116a1600083836113d0565b6001600360008473ffffffffffffffffffffffffffffffffffffffff1673ffffffffffffffffffffffffffffffffffffffff16815260200190815260200160002060008282546116f191906121a7565b92505081905550816002600083815260200190815260200160002060006101000a81548173ffffffffffffffffffffffffffffffffffffffff021916908373ffffffffffffffffffffffffffffffffffffffff160217905550808273ffffffffffffffffffffffffffffffffffffffff16600073ffffffffffffffffffffffffffffffffffffffff167fddf252ad1be2c89b69c2b068fc378daa952ba7f163c4a11628f55a4df523b3ef60405160405180910390a46117b2600083836113e0565b5050565b6000808273ffffffffffffffffffffffffffffffffffffffff163b119050919050565b60006117ec6117e78461211e565b6120f9565b90508281526020810184848401111561180457600080fd5b61180f8482856122d6565b509392505050565b60008135905061182681612814565b92915050565b60008135905061183b8161282b565b92915050565b60008135905061185081612842565b92915050565b60008151905061186581612842565b92915050565b600082601f83011261187c57600080fd5b813561188c8482602086016117d9565b91505092915050565b6000813590506118a481612859565b92915050565b6000602082840312156118bc57600080fd5b60006118ca84828501611817565b91505092915050565b600080604083850312156118e657600080fd5b60006118f485828601611817565b925050602061190585828601611817565b9150509250929050565b60008060006060848603121561192457600080fd5b600061193286828701611817565b935050602061194386828701611817565b925050604061195486828701611895565b9150509250925092565b6000806000806080858703121561197457600080fd5b600061198287828801611817565b945050602061199387828801611817565b93505060406119a487828801611895565b925050606085013567ffffffffffffffff8111156119c157600080fd5b6119cd8782880161186b565b91505092959194509250565b600080604083850312156119ec57600080fd5b60006119fa85828601611817565b9250506020611a0b8582860161182c565b9150509250929050565b60008060408385031215611a2857600080fd5b6000611a3685828601611817565b9250506020611a4785828601611895565b9150509250929050565b600060208284031215611a6357600080fd5b6000611a7184828501611841565b91505092915050565b600060208284031215611a8c57600080fd5b6000611a9a84828501611856565b91505092915050565b600060208284031215611ab557600080fd5b6000611ac384828501611895565b91505092915050565b60008060408385031215611adf57600080fd5b6000611aed85828601611895565b9250506020611afe85828601611817565b9150509250929050565b611b1181612262565b82525050565b611b2081612274565b82525050565b6000611b3182612164565b611b3b818561217a565b9350611b4b8185602086016122e5565b611b54816124bb565b840191505092915050565b6000611b6a8261216f565b611b74818561218b565b9350611b848185602086016122e5565b611b8d816124bb565b840191505092915050565b6000611ba38261216f565b611bad818561219c565b9350611bbd8185602086016122e5565b80840191505092915050565b60008154611bd681612318565b611be0818661219c565b94506001821660008114611bfb5760018114611c0c57611c3f565b60ff19831686528186019350611c3f565b611c158561214f565b60005b83811015611c3757815481890152600182019150602081019050611c18565b838801955050505b50505092915050565b6000611c5560328361218b565b9150611c60826124cc565b604082019050919050565b6000611c7860258361218b565b9150611c838261251b565b604082019050919050565b6000611c9b601c8361218b565b9150611ca68261256a565b602082019050919050565b6000611cbe60248361218b565b9150611cc982612593565b604082019050919050565b6000611ce160198361218b565b9150611cec826125e2565b602082019050919050565b6000611d0460298361218b565b9150611d0f8261260b565b604082019050919050565b6000611d27603e8361218b565b9150611d328261265a565b604082019050919050565b6000611d4a60208361218b565b9150611d55826126a9565b602082019050919050565b6000611d6d60058361219c565b9150611d78826126d2565b600582019050919050565b6000611d9060188361218b565b9150611d9b826126fb565b602082019050919050565b6000611db360218361218b565b9150611dbe82612724565b604082019050919050565b6000611dd660168361218b565b9150611de182612773565b602082019050919050565b6000611df9602e8361218b565b9150611e048261279c565b604082019050919050565b6000611e1c60018361219c565b9150611e27826127eb565b600182019050919050565b611e3b816122cc565b82525050565b611e52611e4d826122cc565b6123c4565b82525050565b6000611e648285611b98565b9150611e708284611b98565b91508190509392505050565b6000611e888285611bc9565b9150611e9382611e0f565b9150611e9f8284611e41565b602082019150611eae82611d60565b91508190509392505050565b6000602082019050611ecf6000830184611b08565b92915050565b6000608082019050611eea6000830187611b08565b611ef76020830186611b08565b611f046040830185611e32565b8181036060830152611f168184611b26565b905095945050505050565b6000602082019050611f366000830184611b17565b92915050565b60006020820190508181036000830152611f568184611b5f565b905092915050565b60006020820190508181036000830152611f7781611c48565b9050919050565b60006020820190508181036000830152611f9781611c6b565b9050919050565b60006020820190508181036000830152611fb781611c8e565b9050919050565b60006020820190508181036000830152611fd781611cb1565b9050919050565b60006020820190508181036000830152611ff781611cd4565b9050919050565b6000602082019050818103600083015261201781611cf7565b9050919050565b6000602082019050818103600083015261203781611d1a565b9050919050565b6000602082019050818103600083015261205781611d3d565b9050919050565b6000602082019050818103600083015261207781611d83565b9050919050565b6000602082019050818103600083015261209781611da6565b9050919050565b600060208201905081810360008301526120b781611dc9565b9050919050565b600060208201905081810360008301526120d781611dec565b9050919050565b60006020820190506120f36000830184611e32565b92915050565b6000612103612114565b905061210f828261234a565b919050565b6000604051905090565b600067ffffffffffffffff8211156121395761213861248c565b5b612142826124bb565b9050602081019050919050565b60008190508160005260206000209050919050565b600081519050919050565b600081519050919050565b600082825260208201905092915050565b600082825260208201905092915050565b600081905092915050565b60006121b2826122cc565b91506121bd836122cc565b9250827fffffffffffffffffffffffffffffffffffffffffffffffffffffffffffffffff038211156121f2576121f16123ff565b5b828201905092915050565b6000612208826122cc565b9150612213836122cc565b9250826122235761222261242e565b5b828204905092915050565b6000612239826122cc565b9150612244836122cc565b925082821015612257576122566123ff565b5b828203905092915050565b600061226d826122ac565b9050919050565b60008115159050919050565b60007fffffffff0000000000000000000000000000000000000000000000000000000082169050919050565b600073ffffffffffffffffffffffffffffffffffffffff82169050919050565b6000819050919050565b82818337600083830152505050565b60005b838110156123035780820151818401526020810190506122e8565b83811115612312576000848401525b50505050565b6000600282049050600182168061233057607f821691505b602082108114156123445761234361245d565b5b50919050565b612353826124bb565b810181811067ffffffffffffffff821117156123725761237161248c565b5b80604052505050565b6000612386826122cc565b91507fffffffffffffffffffffffffffffffffffffffffffffffffffffffffffffffff8214156123b9576123b86123ff565b5b600182019050919050565b6000819050919050565b60006123d9826122cc565b91506123e4836122cc565b9250826123f4576123f361242e565b5b828206905092915050565b7f4e487b7100000000000000000000000000000000000000000000000000000000600052601160045260246000fd5b7f4e487b7100000000000000000000000000000000000000000000000000000000600052601260045260246000fd5b7f4e487b7100000000000000000000000000000000000000000000000000000000600052602260045260246000fd5b7f4e487b7100000000000000000000000000000000000000000000000000000000600052604160045260246000fd5b6000601f19601f8301169050919050565b7f4552433732313a207472616e7366657220746f206e6f6e20455243373231526560008201527f63656976657220696d706c656d656e7465720000000000000000000000000000602082015250565b7f4552433732313a207472616e736665722066726f6d20696e636f72726563742060008201527f6f776e6572000000000000000000000000000000000000000000000000000000602082015250565b7f4552433732313a20746f6b656e20616c7265616479206d696e74656400000000600082015250565b7f4552433732313a207472616e7366657220746f20746865207a65726f2061646460008201527f7265737300000000000000000000000000000000000000000000000000000000602082015250565b7f4552433732313a20617070726f766520746f2063616c6c657200000000000000600082015250565b7f4552433732313a2061646472657373207a65726f206973206e6f74206120766160008201527f6c6964206f776e65720000000000000000000000000000000000000000000000602082015250565b7f4552433732313a20617070726f76652063616c6c6572206973206e6f7420746f60008201527f6b656e206f776e6572206e6f7220617070726f76656420666f7220616c6c0000602082015250565b7f4552433732313a206d696e7420746f20746865207a65726f2061646472657373600082015250565b7f2e6a736f6e000000000000000000000000000000000000000000000000000000600082015250565b7f4552433732313a20696e76616c696420746f6b656e2049440000000000000000600082015250565b7f4552433732313a20617070726f76616c20746f2063757272656e74206f776e6560008201527f7200000000000000000000000000000000000000000000000000000000000000602082015250565b7f4f6e6c79204e667453746f72652063616e206d696e7400000000000000000000600082015250565b7f4552433732313a2063616c6c6572206973206e6f7420746f6b656e206f776e6560008201527f72206e6f7220617070726f766564000000000000000000000000000000000000602082015250565b7f2f00000000000000000000000000000000000000000000000000000000000000600082015250565b61281d81612262565b811461282857600080fd5b50565b61283481612274565b811461283f57600080fd5b50565b61284b81612280565b811461285657600080fd5b50565b612862816122cc565b811461286d57600080fd5b5056fea26469706673582212208017f6380fdf05f58135d7159577466b3c1c1bc387b0a5f683de7d3c730da6fd64736f6c63430008040033",
  "linkReferences": {},
  "deployedLinkReferences": {}
}