{
  "_format": "hh-sol-artifact-1",
  "contractName": "NftCollection",
  "sourceName": "src/contracts/CollectionFactory.sol",
  "abi": [
    {
      "inputs": [
        {
          "internalType": "string",
          "name": "_tokenName",
          "type": "string"
        },
        {
          "internalType": "string",
          "name": "_tokenSymbol",
          "type": "string"
        },
        {
          "internalType": "string",
          "name": "_baseUri",
          "type": "string"
        },
        {
          "internalType": "address",
          "name": "_nftStoreAddress",
          "type": "address"
        }
      ],
      "stateMutability": "nonpayable",
      "type": "constructor"
    },
    {
      "anonymous": false,
      "inputs": [
        {
          "indexed": true,
          "internalType": "address",
          "name": "owner",
          "type": "address"
        },
        {
          "indexed": true,
          "internalType": "address",
          "name": "approved",
          "type": "address"
        },
        {
          "indexed": true,
          "internalType": "uint256",
          "name": "tokenId",
          "type": "uint256"
        }
      ],
      "name": "Approval",
      "type": "event"
    },
    {
      "anonymous": false,
      "inputs": [
        {
          "indexed": true,
          "internalType": "address",
          "name": "owner",
          "type": "address"
        },
        {
          "indexed": true,
          "internalType": "address",
          "name": "operator",
          "type": "address"
        },
        {
          "indexed": false,
          "internalType": "bool",
          "name": "approved",
          "type": "bool"
        }
      ],
      "name": "ApprovalForAll",
      "type": "event"
    },
    {
      "anonymous": false,
      "inputs": [
        {
          "indexed": true,
          "internalType": "address",
          "name": "from",
          "type": "address"
        },
        {
          "indexed": true,
          "internalType": "address",
          "name": "to",
          "type": "address"
        },
        {
          "indexed": true,
          "internalType": "uint256",
          "name": "tokenId",
          "type": "uint256"
        }
      ],
      "name": "Transfer",
      "type": "event"
    },
    {
      "inputs": [
        {
          "internalType": "address",
          "name": "to",
          "type": "address"
        },
        {
          "internalType": "uint256",
          "name": "tokenId",
          "type": "uint256"
        }
      ],
      "name": "approve",
      "outputs": [],
      "stateMutability": "nonpayable",
      "type": "function"
    },
    {
      "inputs": [
        {
          "internalType": "address",
          "name": "owner",
          "type": "address"
        }
      ],
      "name": "balanceOf",
      "outputs": [
        {
          "internalType": "uint256",
          "name": "",
          "type": "uint256"
        }
      ],
      "stateMutability": "view",
      "type": "function"
    },
    {
      "inputs": [
        {
          "internalType": "uint256",
          "name": "tokenId",
          "type": "uint256"
        }
      ],
      "name": "getApproved",
      "outputs": [
        {
          "internalType": "address",
          "name": "",
          "type": "address"
        }
      ],
      "stateMutability": "view",
      "type": "function"
    },
    {
      "inputs": [
        {
          "internalType": "address",
          "name": "owner",
          "type": "address"
        },
        {
          "internalType": "address",
          "name": "operator",
          "type": "address"
        }
      ],
      "name": "isApprovedForAll",
      "outputs": [
        {
          "internalType": "bool",
          "name": "",
          "type": "bool"
        }
      ],
      "stateMutability": "view",
      "type": "function"
    },
    {
      "inputs": [
        {
          "internalType": "uint256",
          "name": "_nftIndex",
          "type": "uint256"
        },
        {
          "internalType": "address",
          "name": "_nftOwner",
          "type": "address"
        }
      ],
      "name": "mint",
      "outputs": [],
      "stateMutability": "nonpayable",
      "type": "function"
    },
    {
      "inputs": [],
      "name": "name",
      "outputs": [
        {
          "internalType": "string",
          "name": "",
          "type": "string"
        }
      ],
      "stateMutability": "view",
      "type": "function"
    },
    {
      "inputs": [
        {
          "internalType": "uint256",
          "name": "tokenId",
          "type": "uint256"
        }
      ],
      "name": "ownerOf",
      "outputs": [
        {
          "internalType": "address",
          "name": "",
          "type": "address"
        }
      ],
      "stateMutability": "view",
      "type": "function"
    },
    {
      "inputs": [
        {
          "internalType": "address",
          "name": "from",
          "type": "address"
        },
        {
          "internalType": "address",
          "name": "to",
          "type": "address"
        },
        {
          "internalType": "uint256",
          "name": "tokenId",
          "type": "uint256"
        }
      ],
      "name": "safeTransferFrom",
      "outputs": [],
      "stateMutability": "nonpayable",
      "type": "function"
    },
    {
      "inputs": [
        {
          "internalType": "address",
          "name": "from",
          "type": "address"
        },
        {
          "internalType": "address",
          "name": "to",
          "type": "address"
        },
        {
          "internalType": "uint256",
          "name": "tokenId",
          "type": "uint256"
        },
        {
          "internalType": "bytes",
          "name": "data",
          "type": "bytes"
        }
      ],
      "name": "safeTransferFrom",
      "outputs": [],
      "stateMutability": "nonpayable",
      "type": "function"
    },
    {
      "inputs": [
        {
          "internalType": "address",
          "name": "operator",
          "type": "address"
        },
        {
          "internalType": "bool",
          "name": "approved",
          "type": "bool"
        }
      ],
      "name": "setApprovalForAll",
      "outputs": [],
      "stateMutability": "nonpayable",
      "type": "function"
    },
    {
      "inputs": [
        {
          "internalType": "bytes4",
          "name": "interfaceId",
          "type": "bytes4"
        }
      ],
      "name": "supportsInterface",
      "outputs": [
        {
          "internalType": "bool",
          "name": "",
          "type": "bool"
        }
      ],
      "stateMutability": "view",
      "type": "function"
    },
    {
      "inputs": [],
      "name": "symbol",
      "outputs": [
        {
          "internalType": "string",
          "name": "",
          "type": "string"
        }
      ],
      "stateMutability": "view",
      "type": "function"
    },
    {
      "inputs": [
        {
          "internalType": "uint256",
          "name": "_tokenId",
          "type": "uint256"
        }
      ],
      "name": "tokenURI",
      "outputs": [
        {
          "internalType": "string",
          "name": "",
          "type": "string"
        }
      ],
      "stateMutability": "view",
      "type": "function"
    },
    {
      "inputs": [
        {
          "internalType": "address",
          "name": "from",
          "type": "address"
        },
        {
          "internalType": "address",
          "name": "to",
          "type": "address"
        },
        {
          "internalType": "uint256",
          "name": "tokenId",
          "type": "uint256"
        }
      ],
      "name": "transferFrom",
      "outputs": [],
      "stateMutability": "nonpayable",
      "type": "function"
    }
  ],
  "bytecode": "0x60806040523480156200001157600080fd5b5060405162002c1638038062002c1683398181016040528101906200003791906200020a565b8383816000908051906020019062000051929190620000d1565b5080600190805190602001906200006a929190620000d1565b505050816006908051906020019062000085929190620000d1565b5080600760006101000a81548173ffffffffffffffffffffffffffffffffffffffff021916908373ffffffffffffffffffffffffffffffffffffffff160217905550505050506200047f565b828054620000df906200038a565b90600052602060002090601f0160209004810192826200010357600085556200014f565b82601f106200011e57805160ff19168380011785556200014f565b828001600101855582156200014f579182015b828111156200014e57825182559160200191906001019062000131565b5b5090506200015e919062000162565b5090565b5b808211156200017d57600081600090555060010162000163565b5090565b6000620001986200019284620002ea565b620002c1565b905082815260208101848484011115620001b157600080fd5b620001be84828562000354565b509392505050565b600081519050620001d78162000465565b92915050565b600082601f830112620001ef57600080fd5b81516200020184826020860162000181565b91505092915050565b600080600080608085870312156200022157600080fd5b600085015167ffffffffffffffff8111156200023c57600080fd5b6200024a87828801620001dd565b945050602085015167ffffffffffffffff8111156200026857600080fd5b6200027687828801620001dd565b935050604085015167ffffffffffffffff8111156200029457600080fd5b620002a287828801620001dd565b9250506060620002b587828801620001c6565b91505092959194509250565b6000620002cd620002e0565b9050620002db8282620003c0565b919050565b6000604051905090565b600067ffffffffffffffff82111562000308576200030762000425565b5b620003138262000454565b9050602081019050919050565b60006200032d8262000334565b9050919050565b600073ffffffffffffffffffffffffffffffffffffffff82169050919050565b60005b838110156200037457808201518184015260208101905062000357565b8381111562000384576000848401525b50505050565b60006002820490506001821680620003a357607f821691505b60208210811415620003ba57620003b9620003f6565b5b50919050565b620003cb8262000454565b810181811067ffffffffffffffff82111715620003ed57620003ec62000425565b5b80604052505050565b7f4e487b7100000000000000000000000000000000000000000000000000000000600052602260045260246000fd5b7f4e487b7100000000000000000000000000000000000000000000000000000000600052604160045260246000fd5b6000601f19601f8301169050919050565b620004708162000320565b81146200047c57600080fd5b50565b612787806200048f6000396000f3fe608060405234801561001057600080fd5b50600436106100ea5760003560e01c806370a082311161008c578063a22cb46511610066578063a22cb4651461025b578063b88d4fde14610277578063c87b56dd14610293578063e985e9c5146102c3576100ea565b806370a08231146101f157806394bf804d1461022157806395d89b411461023d576100ea565b8063095ea7b3116100c8578063095ea7b31461016d57806323b872dd1461018957806342842e0e146101a55780636352211e146101c1576100ea565b806301ffc9a7146100ef57806306fdde031461011f578063081812fc1461013d575b600080fd5b61010960048036038101906101049190611924565b6102f3565b6040516101169190611de3565b60405180910390f35b610127610305565b6040516101349190611dfe565b60405180910390f35b61015760048036038101906101529190611976565b610397565b6040516101649190611d7c565b60405180910390f35b610187600480360381019061018291906118e8565b6103dd565b005b6101a3600480360381019061019e91906117e2565b6104f5565b005b6101bf60048036038101906101ba91906117e2565b610555565b005b6101db60048036038101906101d69190611976565b610575565b6040516101e89190611d7c565b60405180910390f35b61020b6004803603810190610206919061177d565b610627565b6040516102189190611fa0565b60405180910390f35b61023b6004803603810190610236919061199f565b6106df565b005b61024561077d565b6040516102529190611dfe565b60405180910390f35b610275600480360381019061027091906118ac565b61080f565b005b610291600480360381019061028c9190611831565b610825565b005b6102ad60048036038101906102a89190611976565b610887565b6040516102ba9190611dfe565b60405180910390f35b6102dd60048036038101906102d891906117a6565b6108bb565b6040516102ea9190611de3565b60405180910390f35b60006102fe8261094f565b9050919050565b606060008054610314906121da565b80601f0160208091040260200160405190810160405280929190818152602001828054610340906121da565b801561038d5780601f106103625761010080835404028352916020019161038d565b820191906000526020600020905b81548152906001019060200180831161037057829003601f168201915b5050505050905090565b60006103a282610a31565b6004600083815260200190815260200160002060009054906101000a900473ffffffffffffffffffffffffffffffffffffffff169050919050565b60006103e882610575565b90508073ffffffffffffffffffffffffffffffffffffffff168373ffffffffffffffffffffffffffffffffffffffff161415610459576040517f08c379a000000000000000000000000000000000000000000000000000000000815260040161045090611f40565b60405180910390fd5b8073ffffffffffffffffffffffffffffffffffffffff16610478610a7c565b73ffffffffffffffffffffffffffffffffffffffff1614806104a757506104a6816104a1610a7c565b6108bb565b5b6104e6576040517f08c379a00000000000000000000000000000000000000000000000000000000081526004016104dd90611ee0565b60405180910390fd5b6104f08383610a84565b505050565b610506610500610a7c565b82610b3d565b610545576040517f08c379a000000000000000000000000000000000000000000000000000000000815260040161053c90611f80565b60405180910390fd5b610550838383610bd2565b505050565b61057083838360405180602001604052806000815250610825565b505050565b6000806002600084815260200190815260200160002060009054906101000a900473ffffffffffffffffffffffffffffffffffffffff169050600073ffffffffffffffffffffffffffffffffffffffff168173ffffffffffffffffffffffffffffffffffffffff16141561061e576040517f08c379a000000000000000000000000000000000000000000000000000000000815260040161061590611f20565b60405180910390fd5b80915050919050565b60008073ffffffffffffffffffffffffffffffffffffffff168273ffffffffffffffffffffffffffffffffffffffff161415610698576040517f08c379a000000000000000000000000000000000000000000000000000000000815260040161068f90611ec0565b60405180910390fd5b600360008373ffffffffffffffffffffffffffffffffffffffff1673ffffffffffffffffffffffffffffffffffffffff168152602001908152602001600020549050919050565b600760009054906101000a900473ffffffffffffffffffffffffffffffffffffffff1673ffffffffffffffffffffffffffffffffffffffff163373ffffffffffffffffffffffffffffffffffffffff161461076f576040517f08c379a000000000000000000000000000000000000000000000000000000000815260040161076690611f60565b60405180910390fd5b6107798183610e39565b5050565b60606001805461078c906121da565b80601f01602080910402602001604051908101604052809291908181526020018280546107b8906121da565b80156108055780601f106107da57610100808354040283529160200191610805565b820191906000526020600020905b8154815290600101906020018083116107e857829003601f168201915b5050505050905090565b61082161081a610a7c565b8383610e57565b5050565b610836610830610a7c565b83610b3d565b610875576040517f08c379a000000000000000000000000000000000000000000000000000000000815260040161086c90611f80565b60405180910390fd5b61088184848484610fc4565b50505050565b6060600661089483611020565b6040516020016108a5929190611d37565b6040516020818303038152906040529050919050565b6000600560008473ffffffffffffffffffffffffffffffffffffffff1673ffffffffffffffffffffffffffffffffffffffff16815260200190815260200160002060008373ffffffffffffffffffffffffffffffffffffffff1673ffffffffffffffffffffffffffffffffffffffff16815260200190815260200160002060009054906101000a900460ff16905092915050565b60007f80ac58cd000000000000000000000000000000000000000000000000000000007bffffffffffffffffffffffffffffffffffffffffffffffffffffffff1916827bffffffffffffffffffffffffffffffffffffffffffffffffffffffff19161480610a1a57507f5b5e139f000000000000000000000000000000000000000000000000000000007bffffffffffffffffffffffffffffffffffffffffffffffffffffffff1916827bffffffffffffffffffffffffffffffffffffffffffffffffffffffff1916145b80610a2a5750610a29826111cd565b5b9050919050565b610a3a81611237565b610a79576040517f08c379a0000000000000000000000000000000000000000000000000000000008152600401610a7090611f20565b60405180910390fd5b50565b600033905090565b816004600083815260200190815260200160002060006101000a81548173ffffffffffffffffffffffffffffffffffffffff021916908373ffffffffffffffffffffffffffffffffffffffff160217905550808273ffffffffffffffffffffffffffffffffffffffff16610af783610575565b73ffffffffffffffffffffffffffffffffffffffff167f8c5be1e5ebec7d5bd14f71427d1e84f3dd0314c0f7b2291e5b200ac8c7c3b92560405160405180910390a45050565b600080610b4983610575565b90508073ffffffffffffffffffffffffffffffffffffffff168473ffffffffffffffffffffffffffffffffffffffff161480610b8b5750610b8a81856108bb565b5b80610bc957508373ffffffffffffffffffffffffffffffffffffffff16610bb184610397565b73ffffffffffffffffffffffffffffffffffffffff16145b91505092915050565b8273ffffffffffffffffffffffffffffffffffffffff16610bf282610575565b73ffffffffffffffffffffffffffffffffffffffff1614610c48576040517f08c379a0000000000000000000000000000000000000000000000000000000008152600401610c3f90611e40565b60405180910390fd5b600073ffffffffffffffffffffffffffffffffffffffff168273ffffffffffffffffffffffffffffffffffffffff161415610cb8576040517f08c379a0000000000000000000000000000000000000000000000000000000008152600401610caf90611e80565b60405180910390fd5b610cc38383836112a3565b610cce600082610a84565b6001600360008573ffffffffffffffffffffffffffffffffffffffff1673ffffffffffffffffffffffffffffffffffffffff1681526020019081526020016000206000828254610d1e91906120f0565b925050819055506001600360008473ffffffffffffffffffffffffffffffffffffffff1673ffffffffffffffffffffffffffffffffffffffff1681526020019081526020016000206000828254610d759190612069565b92505081905550816002600083815260200190815260200160002060006101000a81548173ffffffffffffffffffffffffffffffffffffffff021916908373ffffffffffffffffffffffffffffffffffffffff160217905550808273ffffffffffffffffffffffffffffffffffffffff168473ffffffffffffffffffffffffffffffffffffffff167fddf252ad1be2c89b69c2b068fc378daa952ba7f163c4a11628f55a4df523b3ef60405160405180910390a4610e348383836112b3565b505050565b610e538282604051806020016040528060008152506112b8565b5050565b8173ffffffffffffffffffffffffffffffffffffffff168373ffffffffffffffffffffffffffffffffffffffff161415610ec6576040517f08c379a0000000000000000000000000000000000000000000000000000000008152600401610ebd90611ea0565b60405180910390fd5b80600560008573ffffffffffffffffffffffffffffffffffffffff1673ffffffffffffffffffffffffffffffffffffffff16815260200190815260200160002060008473ffffffffffffffffffffffffffffffffffffffff1673ffffffffffffffffffffffffffffffffffffffff16815260200190815260200160002060006101000a81548160ff0219169083151502179055508173ffffffffffffffffffffffffffffffffffffffff168373ffffffffffffffffffffffffffffffffffffffff167f17307eab39ab6107e8899845ad3d59bd9653f200f220920489ca2b5937696c3183604051610fb79190611de3565b60405180910390a3505050565b610fcf848484610bd2565b610fdb84848484611313565b61101a576040517f08c379a000000000000000000000000000000000000000000000000000000000815260040161101190611e20565b60405180910390fd5b50505050565b60606000821415611068576040518060400160405280600181526020017f300000000000000000000000000000000000000000000000000000000000000081525090506111c8565b600082905060005b6000821461109a5780806110839061223d565b915050600a8261109391906120bf565b9150611070565b60008167ffffffffffffffff8111156110dc577f4e487b7100000000000000000000000000000000000000000000000000000000600052604160045260246000fd5b6040519080825280601f01601f19166020018201604052801561110e5781602001600182028036833780820191505090505b5090505b600085146111c15760018261112791906120f0565b9150600a856111369190612286565b60306111429190612069565b60f81b81838151811061117e577f4e487b7100000000000000000000000000000000000000000000000000000000600052603260045260246000fd5b60200101907effffffffffffffffffffffffffffffffffffffffffffffffffffffffffffff1916908160001a905350600a856111ba91906120bf565b9450611112565b8093505050505b919050565b60007f01ffc9a7000000000000000000000000000000000000000000000000000000007bffffffffffffffffffffffffffffffffffffffffffffffffffffffff1916827bffffffffffffffffffffffffffffffffffffffffffffffffffffffff1916149050919050565b60008073ffffffffffffffffffffffffffffffffffffffff166002600084815260200190815260200160002060009054906101000a900473ffffffffffffffffffffffffffffffffffffffff1673ffffffffffffffffffffffffffffffffffffffff1614159050919050565b6112ae8383836114aa565b505050565b505050565b6112c283836114af565b6112cf6000848484611313565b61130e576040517f08c379a000000000000000000000000000000000000000000000000000000000815260040161130590611e20565b60405180910390fd5b505050565b60006113348473ffffffffffffffffffffffffffffffffffffffff16611689565b1561149d578373ffffffffffffffffffffffffffffffffffffffff1663150b7a0261135d610a7c565b8786866040518563ffffffff1660e01b815260040161137f9493929190611d97565b602060405180830381600087803b15801561139957600080fd5b505af19250505080156113ca57506040513d601f19601f820116820180604052508101906113c7919061194d565b60015b61144d573d80600081146113fa576040519150601f19603f3d011682016040523d82523d6000602084013e6113ff565b606091505b50600081511415611445576040517f08c379a000000000000000000000000000000000000000000000000000000000815260040161143c90611e20565b60405180910390fd5b805181602001fd5b63150b7a0260e01b7bffffffffffffffffffffffffffffffffffffffffffffffffffffffff1916817bffffffffffffffffffffffffffffffffffffffffffffffffffffffff1916149150506114a2565b600190505b949350505050565b505050565b600073ffffffffffffffffffffffffffffffffffffffff168273ffffffffffffffffffffffffffffffffffffffff16141561151f576040517f08c379a000000000000000000000000000000000000000000000000000000000815260040161151690611f00565b60405180910390fd5b61152881611237565b15611568576040517f08c379a000000000000000000000000000000000000000000000000000000000815260040161155f90611e60565b60405180910390fd5b611574600083836112a3565b6001600360008473ffffffffffffffffffffffffffffffffffffffff1673ffffffffffffffffffffffffffffffffffffffff16815260200190815260200160002060008282546115c49190612069565b92505081905550816002600083815260200190815260200160002060006101000a81548173ffffffffffffffffffffffffffffffffffffffff021916908373ffffffffffffffffffffffffffffffffffffffff160217905550808273ffffffffffffffffffffffffffffffffffffffff16600073ffffffffffffffffffffffffffffffffffffffff167fddf252ad1be2c89b69c2b068fc378daa952ba7f163c4a11628f55a4df523b3ef60405160405180910390a4611685600083836112b3565b5050565b6000808273ffffffffffffffffffffffffffffffffffffffff163b119050919050565b60006116bf6116ba84611fe0565b611fbb565b9050828152602081018484840111156116d757600080fd5b6116e2848285612198565b509392505050565b6000813590506116f9816126f5565b92915050565b60008135905061170e8161270c565b92915050565b60008135905061172381612723565b92915050565b60008151905061173881612723565b92915050565b600082601f83011261174f57600080fd5b813561175f8482602086016116ac565b91505092915050565b6000813590506117778161273a565b92915050565b60006020828403121561178f57600080fd5b600061179d848285016116ea565b91505092915050565b600080604083850312156117b957600080fd5b60006117c7858286016116ea565b92505060206117d8858286016116ea565b9150509250929050565b6000806000606084860312156117f757600080fd5b6000611805868287016116ea565b9350506020611816868287016116ea565b925050604061182786828701611768565b9150509250925092565b6000806000806080858703121561184757600080fd5b6000611855878288016116ea565b9450506020611866878288016116ea565b935050604061187787828801611768565b925050606085013567ffffffffffffffff81111561189457600080fd5b6118a08782880161173e565b91505092959194509250565b600080604083850312156118bf57600080fd5b60006118cd858286016116ea565b92505060206118de858286016116ff565b9150509250929050565b600080604083850312156118fb57600080fd5b6000611909858286016116ea565b925050602061191a85828601611768565b9150509250929050565b60006020828403121561193657600080fd5b600061194484828501611714565b91505092915050565b60006020828403121561195f57600080fd5b600061196d84828501611729565b91505092915050565b60006020828403121561198857600080fd5b600061199684828501611768565b91505092915050565b600080604083850312156119b257600080fd5b60006119c085828601611768565b92505060206119d1858286016116ea565b9150509250929050565b6119e481612124565b82525050565b6119f381612136565b82525050565b6000611a0482612026565b611a0e818561203c565b9350611a1e8185602086016121a7565b611a2781612373565b840191505092915050565b6000611a3d82612031565b611a47818561204d565b9350611a578185602086016121a7565b611a6081612373565b840191505092915050565b6000611a7682612031565b611a80818561205e565b9350611a908185602086016121a7565b80840191505092915050565b60008154611aa9816121da565b611ab3818661205e565b94506001821660008114611ace5760018114611adf57611b12565b60ff19831686528186019350611b12565b611ae885612011565b60005b83811015611b0a57815481890152600182019150602081019050611aeb565b838801955050505b50505092915050565b6000611b2860328361204d565b9150611b3382612384565b604082019050919050565b6000611b4b60258361204d565b9150611b56826123d3565b604082019050919050565b6000611b6e601c8361204d565b9150611b7982612422565b602082019050919050565b6000611b9160248361204d565b9150611b9c8261244b565b604082019050919050565b6000611bb460198361204d565b9150611bbf8261249a565b602082019050919050565b6000611bd760078361205e565b9150611be2826124c3565b600782019050919050565b6000611bfa60298361204d565b9150611c05826124ec565b604082019050919050565b6000611c1d603e8361204d565b9150611c288261253b565b604082019050919050565b6000611c4060208361204d565b9150611c4b8261258a565b602082019050919050565b6000611c6360058361205e565b9150611c6e826125b3565b600582019050919050565b6000611c8660188361204d565b9150611c91826125dc565b602082019050919050565b6000611ca960218361204d565b9150611cb482612605565b604082019050919050565b6000611ccc60168361204d565b9150611cd782612654565b602082019050919050565b6000611cef602e8361204d565b9150611cfa8261267d565b604082019050919050565b6000611d1260018361205e565b9150611d1d826126cc565b600182019050919050565b611d318161218e565b82525050565b6000611d4282611bca565b9150611d4e8285611a9c565b9150611d5982611d05565b9150611d658284611a6b565b9150611d7082611c56565b91508190509392505050565b6000602082019050611d9160008301846119db565b92915050565b6000608082019050611dac60008301876119db565b611db960208301866119db565b611dc66040830185611d28565b8181036060830152611dd881846119f9565b905095945050505050565b6000602082019050611df860008301846119ea565b92915050565b60006020820190508181036000830152611e188184611a32565b905092915050565b60006020820190508181036000830152611e3981611b1b565b9050919050565b60006020820190508181036000830152611e5981611b3e565b9050919050565b60006020820190508181036000830152611e7981611b61565b9050919050565b60006020820190508181036000830152611e9981611b84565b9050919050565b60006020820190508181036000830152611eb981611ba7565b9050919050565b60006020820190508181036000830152611ed981611bed565b9050919050565b60006020820190508181036000830152611ef981611c10565b9050919050565b60006020820190508181036000830152611f1981611c33565b9050919050565b60006020820190508181036000830152611f3981611c79565b9050919050565b60006020820190508181036000830152611f5981611c9c565b9050919050565b60006020820190508181036000830152611f7981611cbf565b9050919050565b60006020820190508181036000830152611f9981611ce2565b9050919050565b6000602082019050611fb56000830184611d28565b92915050565b6000611fc5611fd6565b9050611fd1828261220c565b919050565b6000604051905090565b600067ffffffffffffffff821115611ffb57611ffa612344565b5b61200482612373565b9050602081019050919050565b60008190508160005260206000209050919050565b600081519050919050565b600081519050919050565b600082825260208201905092915050565b600082825260208201905092915050565b600081905092915050565b60006120748261218e565b915061207f8361218e565b9250827fffffffffffffffffffffffffffffffffffffffffffffffffffffffffffffffff038211156120b4576120b36122b7565b5b828201905092915050565b60006120ca8261218e565b91506120d58361218e565b9250826120e5576120e46122e6565b5b828204905092915050565b60006120fb8261218e565b91506121068361218e565b925082821015612119576121186122b7565b5b828203905092915050565b600061212f8261216e565b9050919050565b60008115159050919050565b60007fffffffff0000000000000000000000000000000000000000000000000000000082169050919050565b600073ffffffffffffffffffffffffffffffffffffffff82169050919050565b6000819050919050565b82818337600083830152505050565b60005b838110156121c55780820151818401526020810190506121aa565b838111156121d4576000848401525b50505050565b600060028204905060018216806121f257607f821691505b6020821081141561220657612205612315565b5b50919050565b61221582612373565b810181811067ffffffffffffffff8211171561223457612233612344565b5b80604052505050565b60006122488261218e565b91507fffffffffffffffffffffffffffffffffffffffffffffffffffffffffffffffff82141561227b5761227a6122b7565b5b600182019050919050565b60006122918261218e565b915061229c8361218e565b9250826122ac576122ab6122e6565b5b828206905092915050565b7f4e487b7100000000000000000000000000000000000000000000000000000000600052601160045260246000fd5b7f4e487b7100000000000000000000000000000000000000000000000000000000600052601260045260246000fd5b7f4e487b7100000000000000000000000000000000000000000000000000000000600052602260045260246000fd5b7f4e487b7100000000000000000000000000000000000000000000000000000000600052604160045260246000fd5b6000601f19601f8301169050919050565b7f4552433732313a207472616e7366657220746f206e6f6e20455243373231526560008201527f63656976657220696d706c656d656e7465720000000000000000000000000000602082015250565b7f4552433732313a207472616e736665722066726f6d20696e636f72726563742060008201527f6f776e6572000000000000000000000000000000000000000000000000000000602082015250565b7f4552433732313a20746f6b656e20616c7265616479206d696e74656400000000600082015250565b7f4552433732313a207472616e7366657220746f20746865207a65726f2061646460008201527f7265737300000000000000000000000000000000000000000000000000000000602082015250565b7f4552433732313a20617070726f766520746f2063616c6c657200000000000000600082015250565b7f697066733a2f2f00000000000000000000000000000000000000000000000000600082015250565b7f4552433732313a2061646472657373207a65726f206973206e6f74206120766160008201527f6c6964206f776e65720000000000000000000000000000000000000000000000602082015250565b7f4552433732313a20617070726f76652063616c6c6572206973206e6f7420746f60008201527f6b656e206f776e6572206e6f7220617070726f76656420666f7220616c6c0000602082015250565b7f4552433732313a206d696e7420746f20746865207a65726f2061646472657373600082015250565b7f2e6a736f6e000000000000000000000000000000000000000000000000000000600082015250565b7f4552433732313a20696e76616c696420746f6b656e2049440000000000000000600082015250565b7f4552433732313a20617070726f76616c20746f2063757272656e74206f776e6560008201527f7200000000000000000000000000000000000000000000000000000000000000602082015250565b7f4f6e6c79204e667453746f72652063616e206d696e7400000000000000000000600082015250565b7f4552433732313a2063616c6c6572206973206e6f7420746f6b656e206f776e6560008201527f72206e6f7220617070726f766564000000000000000000000000000000000000602082015250565b7f2f00000000000000000000000000000000000000000000000000000000000000600082015250565b6126fe81612124565b811461270957600080fd5b50565b61271581612136565b811461272057600080fd5b50565b61272c81612142565b811461273757600080fd5b50565b6127438161218e565b811461274e57600080fd5b5056fea2646970667358221220657b6fc3343d08f3e4e7a948d74cd8eac0cdb27aaebf6927ad8c7cde74b4c1e464736f6c63430008040033",
  "linkReferences": {},
  "deployedLinkReferences": {}
}